{
	"contracts/moonx.sol": {
		"DecentralLearning": {
			"abi": [
				{
					"inputs": [
						{
							"internalType": "address",
							"name": "_reputationContract",
							"type": "address"
						}
					],
					"stateMutability": "nonpayable",
					"type": "constructor"
				},
				{
					"inputs": [
						{
							"internalType": "address",
							"name": "owner",
							"type": "address"
						}
					],
					"name": "OwnableInvalidOwner",
					"type": "error"
				},
				{
					"inputs": [
						{
							"internalType": "address",
							"name": "account",
							"type": "address"
						}
					],
					"name": "OwnableUnauthorizedAccount",
					"type": "error"
				},
				{
					"anonymous": false,
					"inputs": [
						{
							"indexed": true,
							"internalType": "uint256",
							"name": "courseId",
							"type": "uint256"
						}
					],
					"name": "CourseApproved",
					"type": "event"
				},
				{
					"anonymous": false,
					"inputs": [
						{
							"indexed": true,
							"internalType": "uint256",
							"name": "courseId",
							"type": "uint256"
						},
						{
							"indexed": true,
							"internalType": "address",
							"name": "creator",
							"type": "address"
						}
					],
					"name": "CourseCreated",
					"type": "event"
				},
				{
					"anonymous": false,
					"inputs": [
						{
							"indexed": true,
							"internalType": "uint256",
							"name": "courseId",
							"type": "uint256"
						},
						{
							"indexed": true,
							"internalType": "address",
							"name": "creator",
							"type": "address"
						},
						{
							"indexed": false,
							"internalType": "uint256",
							"name": "amount",
							"type": "uint256"
						}
					],
					"name": "CreatorRewardClaimed",
					"type": "event"
				},
				{
					"anonymous": false,
					"inputs": [
						{
							"indexed": true,
							"internalType": "uint256",
							"name": "courseId",
							"type": "uint256"
						},
						{
							"indexed": true,
							"internalType": "address",
							"name": "creator",
							"type": "address"
						},
						{
							"indexed": false,
							"internalType": "uint256",
							"name": "amount",
							"type": "uint256"
						}
					],
					"name": "CreatorWithdrawal",
					"type": "event"
				},
				{
					"anonymous": false,
					"inputs": [
						{
							"indexed": false,
							"internalType": "uint256",
							"name": "amount",
							"type": "uint256"
						}
					],
					"name": "GasFeesWithdrawn",
					"type": "event"
				},
				{
					"anonymous": false,
					"inputs": [
						{
							"indexed": true,
							"internalType": "address",
							"name": "previousOwner",
							"type": "address"
						},
						{
							"indexed": true,
							"internalType": "address",
							"name": "newOwner",
							"type": "address"
						}
					],
					"name": "OwnershipTransferred",
					"type": "event"
				},
				{
					"anonymous": false,
					"inputs": [
						{
							"indexed": false,
							"internalType": "address",
							"name": "account",
							"type": "address"
						}
					],
					"name": "Paused",
					"type": "event"
				},
				{
					"anonymous": false,
					"inputs": [
						{
							"indexed": true,
							"internalType": "uint256",
							"name": "courseId",
							"type": "uint256"
						},
						{
							"indexed": true,
							"internalType": "address",
							"name": "user",
							"type": "address"
						},
						{
							"indexed": false,
							"internalType": "bool",
							"name": "passed",
							"type": "bool"
						}
					],
					"name": "QuizAttempted",
					"type": "event"
				},
				{
					"anonymous": false,
					"inputs": [
						{
							"indexed": true,
							"internalType": "uint256",
							"name": "courseId",
							"type": "uint256"
						},
						{
							"indexed": false,
							"internalType": "uint256",
							"name": "quizId",
							"type": "uint256"
						}
					],
					"name": "QuizCreated",
					"type": "event"
				},
				{
					"anonymous": false,
					"inputs": [
						{
							"indexed": true,
							"internalType": "uint256",
							"name": "courseId",
							"type": "uint256"
						},
						{
							"indexed": true,
							"internalType": "address",
							"name": "user",
							"type": "address"
						},
						{
							"indexed": false,
							"internalType": "uint256",
							"name": "amount",
							"type": "uint256"
						}
					],
					"name": "RewardClaimed",
					"type": "event"
				},
				{
					"anonymous": false,
					"inputs": [
						{
							"indexed": false,
							"internalType": "address",
							"name": "account",
							"type": "address"
						}
					],
					"name": "Unpaused",
					"type": "event"
				},
				{
					"anonymous": false,
					"inputs": [
						{
							"indexed": true,
							"internalType": "uint256",
							"name": "courseId",
							"type": "uint256"
						},
						{
							"indexed": true,
							"internalType": "address",
							"name": "user",
							"type": "address"
						}
					],
					"name": "UserEnrolled",
					"type": "event"
				},
				{
					"inputs": [],
					"name": "CREATOR_REWARD_AMOUNT",
					"outputs": [
						{
							"internalType": "uint256",
							"name": "",
							"type": "uint256"
						}
					],
					"stateMutability": "view",
					"type": "function"
				},
				{
					"inputs": [],
					"name": "ENROLL_THRESHOLD",
					"outputs": [
						{
							"internalType": "uint256",
							"name": "",
							"type": "uint256"
						}
					],
					"stateMutability": "view",
					"type": "function"
				},
				{
					"inputs": [],
					"name": "POST_THRESHOLD",
					"outputs": [
						{
							"internalType": "uint256",
							"name": "",
							"type": "uint256"
						}
					],
					"stateMutability": "view",
					"type": "function"
				},
				{
					"inputs": [],
					"name": "STUDENT_REWARD_AMOUNT",
					"outputs": [
						{
							"internalType": "uint256",
							"name": "",
							"type": "uint256"
						}
					],
					"stateMutability": "view",
					"type": "function"
				},
				{
					"inputs": [],
					"name": "WATCH_THRESHOLD",
					"outputs": [
						{
							"internalType": "uint256",
							"name": "",
							"type": "uint256"
						}
					],
					"stateMutability": "view",
					"type": "function"
				},
				{
					"inputs": [],
					"name": "accumulatedFees",
					"outputs": [
						{
							"internalType": "uint256",
							"name": "",
							"type": "uint256"
						}
					],
					"stateMutability": "view",
					"type": "function"
				},
				{
					"inputs": [
						{
							"internalType": "uint256",
							"name": "_courseId",
							"type": "uint256"
						}
					],
					"name": "approveCourse",
					"outputs": [],
					"stateMutability": "nonpayable",
					"type": "function"
				},
				{
					"inputs": [
						{
							"internalType": "uint256",
							"name": "_courseId",
							"type": "uint256"
						},
						{
							"internalType": "string[]",
							"name": "_answers",
							"type": "string[]"
						}
					],
					"name": "attemptQuiz",
					"outputs": [],
					"stateMutability": "payable",
					"type": "function"
				},
				{
					"inputs": [
						{
							"internalType": "uint256",
							"name": "_courseId",
							"type": "uint256"
						}
					],
					"name": "claimCreatorReward",
					"outputs": [],
					"stateMutability": "payable",
					"type": "function"
				},
				{
					"inputs": [
						{
							"internalType": "uint256",
							"name": "_courseId",
							"type": "uint256"
						}
					],
					"name": "claimStudentReward",
					"outputs": [],
					"stateMutability": "payable",
					"type": "function"
				},
				{
					"inputs": [],
					"name": "courseCount",
					"outputs": [
						{
							"internalType": "uint256",
							"name": "",
							"type": "uint256"
						}
					],
					"stateMutability": "view",
					"type": "function"
				},
				{
					"inputs": [
						{
							"internalType": "uint256",
							"name": "",
							"type": "uint256"
						},
						{
							"internalType": "uint256",
							"name": "",
							"type": "uint256"
						}
					],
					"name": "courseQuizzes",
					"outputs": [
						{
							"internalType": "uint256",
							"name": "courseId",
							"type": "uint256"
						},
						{
							"internalType": "string",
							"name": "question",
							"type": "string"
						},
						{
							"internalType": "string",
							"name": "optionA",
							"type": "string"
						},
						{
							"internalType": "string",
							"name": "optionB",
							"type": "string"
						},
						{
							"internalType": "string",
							"name": "optionC",
							"type": "string"
						},
						{
							"internalType": "string",
							"name": "optionD",
							"type": "string"
						},
						{
							"internalType": "bytes32",
							"name": "correctAnswerHash",
							"type": "bytes32"
						}
					],
					"stateMutability": "view",
					"type": "function"
				},
				{
					"inputs": [
						{
							"internalType": "uint256",
							"name": "",
							"type": "uint256"
						}
					],
					"name": "courses",
					"outputs": [
						{
							"internalType": "address",
							"name": "creator",
							"type": "address"
						},
						{
							"internalType": "string",
							"name": "metadataURI",
							"type": "string"
						},
						{
							"internalType": "bool",
							"name": "approved",
							"type": "bool"
						},
						{
							"internalType": "uint256",
							"name": "passedStudents",
							"type": "uint256"
						},
						{
							"internalType": "uint256",
							"name": "creatorBalance",
							"type": "uint256"
						},
						{
							"internalType": "uint256",
							"name": "totalEnrolled",
							"type": "uint256"
						}
					],
					"stateMutability": "view",
					"type": "function"
				},
				{
					"inputs": [
						{
							"internalType": "string",
							"name": "_metadataURI",
							"type": "string"
						},
						{
							"components": [
								{
									"internalType": "uint256",
									"name": "courseId",
									"type": "uint256"
								},
								{
									"internalType": "string",
									"name": "question",
									"type": "string"
								},
								{
									"internalType": "string",
									"name": "optionA",
									"type": "string"
								},
								{
									"internalType": "string",
									"name": "optionB",
									"type": "string"
								},
								{
									"internalType": "string",
									"name": "optionC",
									"type": "string"
								},
								{
									"internalType": "string",
									"name": "optionD",
									"type": "string"
								},
								{
									"internalType": "bytes32",
									"name": "correctAnswerHash",
									"type": "bytes32"
								}
							],
							"internalType": "struct DecentralLearning.Quiz[]",
							"name": "_quizzes",
							"type": "tuple[]"
						}
					],
					"name": "createCourse",
					"outputs": [],
					"stateMutability": "payable",
					"type": "function"
				},
				{
					"inputs": [
						{
							"internalType": "uint256",
							"name": "_courseId",
							"type": "uint256"
						}
					],
					"name": "enrollInCourse",
					"outputs": [],
					"stateMutability": "payable",
					"type": "function"
				},
				{
					"inputs": [
						{
							"internalType": "address",
							"name": "",
							"type": "address"
						},
						{
							"internalType": "uint256",
							"name": "",
							"type": "uint256"
						}
					],
					"name": "enrollments",
					"outputs": [
						{
							"internalType": "bool",
							"name": "isEnrolled",
							"type": "bool"
						},
						{
							"internalType": "uint8",
							"name": "attemptCount",
							"type": "uint8"
						},
						{
							"internalType": "bool",
							"name": "hasPassed",
							"type": "bool"
						},
						{
							"internalType": "uint256",
							"name": "quizBalance",
							"type": "uint256"
						}
					],
					"stateMutability": "view",
					"type": "function"
				},
				{
					"inputs": [],
					"name": "owner",
					"outputs": [
						{
							"internalType": "address",
							"name": "",
							"type": "address"
						}
					],
					"stateMutability": "view",
					"type": "function"
				},
				{
					"inputs": [],
					"name": "pause",
					"outputs": [],
					"stateMutability": "nonpayable",
					"type": "function"
				},
				{
					"inputs": [],
					"name": "paused",
					"outputs": [
						{
							"internalType": "bool",
							"name": "",
							"type": "bool"
						}
					],
					"stateMutability": "view",
					"type": "function"
				},
				{
					"inputs": [],
					"name": "platformTX",
					"outputs": [
						{
							"internalType": "uint256",
							"name": "",
							"type": "uint256"
						}
					],
					"stateMutability": "view",
					"type": "function"
				},
				{
					"inputs": [],
					"name": "renounceOwnership",
					"outputs": [],
					"stateMutability": "nonpayable",
					"type": "function"
				},
				{
					"inputs": [],
					"name": "reputationContract",
					"outputs": [
						{
							"internalType": "contract IReputationContract",
							"name": "",
							"type": "address"
						}
					],
					"stateMutability": "view",
					"type": "function"
				},
				{
					"inputs": [
						{
							"internalType": "address",
							"name": "newOwner",
							"type": "address"
						}
					],
					"name": "transferOwnership",
					"outputs": [],
					"stateMutability": "nonpayable",
					"type": "function"
				},
				{
					"inputs": [],
					"name": "unpause",
					"outputs": [],
					"stateMutability": "nonpayable",
					"type": "function"
				},
				{
					"inputs": [
						{
							"internalType": "address",
							"name": "_newReputationContract",
							"type": "address"
						}
					],
					"name": "updateReputationContract",
					"outputs": [],
					"stateMutability": "nonpayable",
					"type": "function"
				},
				{
					"inputs": [],
					"name": "withdrawPlatformTX",
					"outputs": [],
					"stateMutability": "nonpayable",
					"type": "function"
				},
				{
					"stateMutability": "payable",
					"type": "receive"
				}
			],
			"devdoc": {
				"errors": {
					"OwnableInvalidOwner(address)": [
						{
							"details": "The owner is not a valid owner account. (eg. `address(0)`)"
						}
					],
					"OwnableUnauthorizedAccount(address)": [
						{
							"details": "The caller account is not authorized to perform an operation."
						}
					]
				},
				"events": {
					"Paused(address)": {
						"details": "Emitted when the pause is triggered by `account`."
					},
					"Unpaused(address)": {
						"details": "Emitted when the pause is lifted by `account`."
					}
				},
				"kind": "dev",
				"methods": {
					"owner()": {
						"details": "Returns the address of the current owner."
					},
					"paused()": {
						"details": "Returns true if the contract is paused, and false otherwise."
					},
					"renounceOwnership()": {
						"details": "Leaves the contract without owner. It will not be possible to call `onlyOwner` functions. Can only be called by the current owner. NOTE: Renouncing ownership will leave the contract without an owner, thereby disabling any functionality that is only available to the owner."
					},
					"transferOwnership(address)": {
						"details": "Transfers ownership of the contract to a new account (`newOwner`). Can only be called by the current owner."
					}
				},
				"version": 1
			},
			"evm": {
				"assembly": "    /* \"contracts/moonx.sol\":273:6850  contract DecentralLearning is Ownable, Pausable {... */\n  mstore(0x40, 0x80)\n    /* \"contracts/moonx.sol\":2243:2382  constructor(address _reputationContract) Ownable(msg.sender) {... */\n  callvalue\n  dup1\n  iszero\n  tag_1\n  jumpi\n  0x00\n  dup1\n  revert\ntag_1:\n  pop\n  mload(0x40)\n  sub(codesize, bytecodeSize)\n  dup1\n  bytecodeSize\n  dup4\n  codecopy\n  dup2\n  dup2\n  add\n  0x40\n  mstore\n  dup2\n  add\n  swap1\n  tag_2\n  swap2\n  swap1\n  tag_3\n  jump\t// in\ntag_2:\n    /* \"contracts/moonx.sol\":2292:2302  msg.sender */\n  caller\n    /* \"@openzeppelin/contracts/access/Ownable.sol\":1297:1298  0 */\n  0x00\n    /* \"@openzeppelin/contracts/access/Ownable.sol\":1273:1299  initialOwner == address(0) */\n  0xffffffffffffffffffffffffffffffffffffffff\n  and\n    /* \"@openzeppelin/contracts/access/Ownable.sol\":1273:1285  initialOwner */\n  dup2\n    /* \"@openzeppelin/contracts/access/Ownable.sol\":1273:1299  initialOwner == address(0) */\n  0xffffffffffffffffffffffffffffffffffffffff\n  and\n  sub\n    /* \"@openzeppelin/contracts/access/Ownable.sol\":1269:1364  if (initialOwner == address(0)) {... */\n  tag_8\n  jumpi\n    /* \"@openzeppelin/contracts/access/Ownable.sol\":1350:1351  0 */\n  0x00\n    /* \"@openzeppelin/contracts/access/Ownable.sol\":1322:1353  OwnableInvalidOwner(address(0)) */\n  mload(0x40)\n  0x1e4fbdf700000000000000000000000000000000000000000000000000000000\n  dup2\n  mstore\n  0x04\n  add\n  tag_9\n  swap2\n  swap1\n  tag_10\n  jump\t// in\ntag_9:\n  mload(0x40)\n  dup1\n  swap2\n  sub\n  swap1\n  revert\n    /* \"@openzeppelin/contracts/access/Ownable.sol\":1269:1364  if (initialOwner == address(0)) {... */\ntag_8:\n    /* \"@openzeppelin/contracts/access/Ownable.sol\":1373:1405  _transferOwnership(initialOwner) */\n  tag_11\n    /* \"@openzeppelin/contracts/access/Ownable.sol\":1392:1404  initialOwner */\n  dup2\n    /* \"@openzeppelin/contracts/access/Ownable.sol\":1373:1391  _transferOwnership */\n  shl(0x20, tag_12)\n    /* \"@openzeppelin/contracts/access/Ownable.sol\":1373:1405  _transferOwnership(initialOwner) */\n  0x20\n  shr\n  jump\t// in\ntag_11:\n    /* \"@openzeppelin/contracts/access/Ownable.sol\":1225:1412  constructor(address initialOwner) {... */\n  pop\n    /* \"@openzeppelin/contracts/security/Pausable.sol\":1006:1011  false */\n  0x00\n    /* \"@openzeppelin/contracts/security/Pausable.sol\":996:1003  _paused */\n  dup1\n  0x14\n    /* \"@openzeppelin/contracts/security/Pausable.sol\":996:1011  _paused = false */\n  0x0100\n  exp\n  dup2\n  sload\n  dup2\n  0xff\n  mul\n  not\n  and\n  swap1\n  dup4\n  iszero\n  iszero\n  mul\n  or\n  swap1\n  sstore\n  pop\n    /* \"contracts/moonx.sol\":2355:2374  _reputationContract */\n  dup1\n    /* \"contracts/moonx.sol\":2314:2332  reputationContract */\n  0x01\n  0x00\n    /* \"contracts/moonx.sol\":2314:2375  reputationContract = IReputationContract(_reputationContract) */\n  0x0100\n  exp\n  dup2\n  sload\n  dup2\n  0xffffffffffffffffffffffffffffffffffffffff\n  mul\n  not\n  and\n  swap1\n  dup4\n  0xffffffffffffffffffffffffffffffffffffffff\n  and\n  mul\n  or\n  swap1\n  sstore\n  pop\n    /* \"contracts/moonx.sol\":2243:2382  constructor(address _reputationContract) Ownable(msg.sender) {... */\n  pop\n    /* \"contracts/moonx.sol\":273:6850  contract DecentralLearning is Ownable, Pausable {... */\n  jump(tag_15)\n    /* \"@openzeppelin/contracts/access/Ownable.sol\":2912:3099  function _transferOwnership(address newOwner) internal virtual {... */\ntag_12:\n    /* \"@openzeppelin/contracts/access/Ownable.sol\":2985:3001  address oldOwner */\n  0x00\n    /* \"@openzeppelin/contracts/access/Ownable.sol\":3004:3010  _owner */\n  dup1\n  0x00\n  swap1\n  sload\n  swap1\n  0x0100\n  exp\n  swap1\n  div\n  0xffffffffffffffffffffffffffffffffffffffff\n  and\n    /* \"@openzeppelin/contracts/access/Ownable.sol\":2985:3010  address oldOwner = _owner */\n  swap1\n  pop\n    /* \"@openzeppelin/contracts/access/Ownable.sol\":3029:3037  newOwner */\n  dup2\n    /* \"@openzeppelin/contracts/access/Ownable.sol\":3020:3026  _owner */\n  0x00\n  dup1\n    /* \"@openzeppelin/contracts/access/Ownable.sol\":3020:3037  _owner = newOwner */\n  0x0100\n  exp\n  dup2\n  sload\n  dup2\n  0xffffffffffffffffffffffffffffffffffffffff\n  mul\n  not\n  and\n  swap1\n  dup4\n  0xffffffffffffffffffffffffffffffffffffffff\n  and\n  mul\n  or\n  swap1\n  sstore\n  pop\n    /* \"@openzeppelin/contracts/access/Ownable.sol\":3083:3091  newOwner */\n  dup2\n    /* \"@openzeppelin/contracts/access/Ownable.sol\":3052:3092  OwnershipTransferred(oldOwner, newOwner) */\n  0xffffffffffffffffffffffffffffffffffffffff\n  and\n    /* \"@openzeppelin/contracts/access/Ownable.sol\":3073:3081  oldOwner */\n  dup2\n    /* \"@openzeppelin/contracts/access/Ownable.sol\":3052:3092  OwnershipTransferred(oldOwner, newOwner) */\n  0xffffffffffffffffffffffffffffffffffffffff\n  and\n  0x8be0079c531659141344cd1fd0a4f28419497f9722a3daafe3b4186f6b6457e0\n  mload(0x40)\n  mload(0x40)\n  dup1\n  swap2\n  sub\n  swap1\n  log3\n    /* \"@openzeppelin/contracts/access/Ownable.sol\":2975:3099  {... */\n  pop\n    /* \"@openzeppelin/contracts/access/Ownable.sol\":2912:3099  function _transferOwnership(address newOwner) internal virtual {... */\n  pop\n  jump\t// out\n    /* \"#utility.yul\":88:205   */\ntag_18:\n    /* \"#utility.yul\":197:198   */\n  0x00\n    /* \"#utility.yul\":194:195   */\n  dup1\n    /* \"#utility.yul\":187:199   */\n  revert\n    /* \"#utility.yul\":334:460   */\ntag_20:\n    /* \"#utility.yul\":371:378   */\n  0x00\n    /* \"#utility.yul\":411:453   */\n  0xffffffffffffffffffffffffffffffffffffffff\n    /* \"#utility.yul\":404:409   */\n  dup3\n    /* \"#utility.yul\":400:454   */\n  and\n    /* \"#utility.yul\":389:454   */\n  swap1\n  pop\n    /* \"#utility.yul\":334:460   */\n  swap2\n  swap1\n  pop\n  jump\t// out\n    /* \"#utility.yul\":466:562   */\ntag_21:\n    /* \"#utility.yul\":503:510   */\n  0x00\n    /* \"#utility.yul\":532:556   */\n  tag_31\n    /* \"#utility.yul\":550:555   */\n  dup3\n    /* \"#utility.yul\":532:556   */\n  tag_20\n  jump\t// in\ntag_31:\n    /* \"#utility.yul\":521:556   */\n  swap1\n  pop\n    /* \"#utility.yul\":466:562   */\n  swap2\n  swap1\n  pop\n  jump\t// out\n    /* \"#utility.yul\":568:690   */\ntag_22:\n    /* \"#utility.yul\":641:665   */\n  tag_33\n    /* \"#utility.yul\":659:664   */\n  dup2\n    /* \"#utility.yul\":641:665   */\n  tag_21\n  jump\t// in\ntag_33:\n    /* \"#utility.yul\":634:639   */\n  dup2\n    /* \"#utility.yul\":631:666   */\n  eq\n    /* \"#utility.yul\":621:684   */\n  tag_34\n  jumpi\n    /* \"#utility.yul\":680:681   */\n  0x00\n    /* \"#utility.yul\":677:678   */\n  dup1\n    /* \"#utility.yul\":670:682   */\n  revert\n    /* \"#utility.yul\":621:684   */\ntag_34:\n    /* \"#utility.yul\":568:690   */\n  pop\n  jump\t// out\n    /* \"#utility.yul\":696:839   */\ntag_23:\n    /* \"#utility.yul\":753:758   */\n  0x00\n    /* \"#utility.yul\":784:790   */\n  dup2\n    /* \"#utility.yul\":778:791   */\n  mload\n    /* \"#utility.yul\":769:791   */\n  swap1\n  pop\n    /* \"#utility.yul\":800:833   */\n  tag_36\n    /* \"#utility.yul\":827:832   */\n  dup2\n    /* \"#utility.yul\":800:833   */\n  tag_22\n  jump\t// in\ntag_36:\n    /* \"#utility.yul\":696:839   */\n  swap3\n  swap2\n  pop\n  pop\n  jump\t// out\n    /* \"#utility.yul\":845:1196   */\ntag_3:\n    /* \"#utility.yul\":915:921   */\n  0x00\n    /* \"#utility.yul\":964:966   */\n  0x20\n    /* \"#utility.yul\":952:961   */\n  dup3\n    /* \"#utility.yul\":943:950   */\n  dup5\n    /* \"#utility.yul\":939:962   */\n  sub\n    /* \"#utility.yul\":935:967   */\n  slt\n    /* \"#utility.yul\":932:1051   */\n  iszero\n  tag_38\n  jumpi\n    /* \"#utility.yul\":970:1049   */\n  tag_39\n  tag_18\n  jump\t// in\ntag_39:\n    /* \"#utility.yul\":932:1051   */\ntag_38:\n    /* \"#utility.yul\":1090:1091   */\n  0x00\n    /* \"#utility.yul\":1115:1179   */\n  tag_40\n    /* \"#utility.yul\":1171:1178   */\n  dup5\n    /* \"#utility.yul\":1162:1168   */\n  dup3\n    /* \"#utility.yul\":1151:1160   */\n  dup6\n    /* \"#utility.yul\":1147:1169   */\n  add\n    /* \"#utility.yul\":1115:1179   */\n  tag_23\n  jump\t// in\ntag_40:\n    /* \"#utility.yul\":1105:1179   */\n  swap2\n  pop\n    /* \"#utility.yul\":1061:1189   */\n  pop\n    /* \"#utility.yul\":845:1196   */\n  swap3\n  swap2\n  pop\n  pop\n  jump\t// out\n    /* \"#utility.yul\":1202:1320   */\ntag_24:\n    /* \"#utility.yul\":1289:1313   */\n  tag_42\n    /* \"#utility.yul\":1307:1312   */\n  dup2\n    /* \"#utility.yul\":1289:1313   */\n  tag_21\n  jump\t// in\ntag_42:\n    /* \"#utility.yul\":1284:1287   */\n  dup3\n    /* \"#utility.yul\":1277:1314   */\n  mstore\n    /* \"#utility.yul\":1202:1320   */\n  pop\n  pop\n  jump\t// out\n    /* \"#utility.yul\":1326:1548   */\ntag_10:\n    /* \"#utility.yul\":1419:1423   */\n  0x00\n    /* \"#utility.yul\":1457:1459   */\n  0x20\n    /* \"#utility.yul\":1446:1455   */\n  dup3\n    /* \"#utility.yul\":1442:1460   */\n  add\n    /* \"#utility.yul\":1434:1460   */\n  swap1\n  pop\n    /* \"#utility.yul\":1470:1541   */\n  tag_44\n    /* \"#utility.yul\":1538:1539   */\n  0x00\n    /* \"#utility.yul\":1527:1536   */\n  dup4\n    /* \"#utility.yul\":1523:1540   */\n  add\n    /* \"#utility.yul\":1514:1520   */\n  dup5\n    /* \"#utility.yul\":1470:1541   */\n  tag_24\n  jump\t// in\ntag_44:\n    /* \"#utility.yul\":1326:1548   */\n  swap3\n  swap2\n  pop\n  pop\n  jump\t// out\n    /* \"contracts/moonx.sol\":273:6850  contract DecentralLearning is Ownable, Pausable {... */\ntag_15:\n  dataSize(sub_0)\n  dup1\n  dataOffset(sub_0)\n  0x00\n  codecopy\n  0x00\n  return\nstop\n\nsub_0: assembly {\n        /* \"contracts/moonx.sol\":273:6850  contract DecentralLearning is Ownable, Pausable {... */\n      mstore(0x40, 0x80)\n      jumpi(tag_1, lt(calldatasize, 0x04))\n      shr(0xe0, calldataload(0x00))\n      dup1\n      0x8da5cb5b\n      gt\n      tag_29\n      jumpi\n      dup1\n      0xb0aaefd6\n      gt\n      tag_30\n      jumpi\n      dup1\n      0xd2c69bd4\n      gt\n      tag_31\n      jumpi\n      dup1\n      0xd2c69bd4\n      eq\n      tag_25\n      jumpi\n      dup1\n      0xd76f044a\n      eq\n      tag_26\n      jumpi\n      dup1\n      0xf2fde38b\n      eq\n      tag_27\n      jumpi\n      dup1\n      0xfbf1aded\n      eq\n      tag_28\n      jumpi\n      jump(tag_2)\n    tag_31:\n      dup1\n      0xb0aaefd6\n      eq\n      tag_22\n      jumpi\n      dup1\n      0xba2f0362\n      eq\n      tag_23\n      jumpi\n      dup1\n      0xcf90b3be\n      eq\n      tag_24\n      jumpi\n      jump(tag_2)\n    tag_30:\n      dup1\n      0x8da5cb5b\n      eq\n      tag_16\n      jumpi\n      dup1\n      0x905baa61\n      eq\n      tag_17\n      jumpi\n      dup1\n      0x96f979d2\n      eq\n      tag_18\n      jumpi\n      dup1\n      0x996b5d8e\n      eq\n      tag_19\n      jumpi\n      dup1\n      0xa4e1f033\n      eq\n      tag_20\n      jumpi\n      dup1\n      0xae24f005\n      eq\n      tag_21\n      jumpi\n      jump(tag_2)\n    tag_29:\n      dup1\n      0x5cb45cb5\n      gt\n      tag_32\n      jumpi\n      dup1\n      0x715018a6\n      gt\n      tag_33\n      jumpi\n      dup1\n      0x715018a6\n      eq\n      tag_12\n      jumpi\n      dup1\n      0x75284998\n      eq\n      tag_13\n      jumpi\n      dup1\n      0x8456cb59\n      eq\n      tag_14\n      jumpi\n      dup1\n      0x87bc1425\n      eq\n      tag_15\n      jumpi\n      jump(tag_2)\n    tag_33:\n      dup1\n      0x5cb45cb5\n      eq\n      tag_9\n      jumpi\n      dup1\n      0x5e52da27\n      eq\n      tag_10\n      jumpi\n      dup1\n      0x66055159\n      eq\n      tag_11\n      jumpi\n      jump(tag_2)\n    tag_32:\n      dup1\n      0x07f910f8\n      eq\n      tag_3\n      jumpi\n      dup1\n      0x3f4ba83a\n      eq\n      tag_4\n      jumpi\n      dup1\n      0x3faa5ef6\n      eq\n      tag_5\n      jumpi\n      dup1\n      0x542fd03a\n      eq\n      tag_6\n      jumpi\n      dup1\n      0x587f5ed7\n      eq\n      tag_7\n      jumpi\n      dup1\n      0x5c975abb\n      eq\n      tag_8\n      jumpi\n      jump(tag_2)\n    tag_1:\n      jumpi(tag_2, calldatasize)\n      stop\n    tag_2:\n      0x00\n      dup1\n      revert\n        /* \"contracts/moonx.sol\":1402:1471  mapping(address => mapping(uint256 => Enrollment)) public enrollments */\n    tag_3:\n      callvalue\n      dup1\n      iszero\n      tag_36\n      jumpi\n      0x00\n      dup1\n      revert\n    tag_36:\n      pop\n      tag_37\n      0x04\n      dup1\n      calldatasize\n      sub\n      dup2\n      add\n      swap1\n      tag_38\n      swap2\n      swap1\n      tag_39\n      jump\t// in\n    tag_38:\n      tag_40\n      jump\t// in\n    tag_37:\n      mload(0x40)\n      tag_41\n      swap5\n      swap4\n      swap3\n      swap2\n      swap1\n      tag_42\n      jump\t// in\n    tag_41:\n      mload(0x40)\n      dup1\n      swap2\n      sub\n      swap1\n      return\n        /* \"contracts/moonx.sol\":6576:6641  function unpause() external onlyOwner {... */\n    tag_4:\n      callvalue\n      dup1\n      iszero\n      tag_43\n      jumpi\n      0x00\n      dup1\n      revert\n    tag_43:\n      pop\n      tag_44\n      tag_45\n      jump\t// in\n    tag_44:\n      stop\n        /* \"contracts/moonx.sol\":702:749  uint256 public constant platformTX = 0.75 ether */\n    tag_5:\n      callvalue\n      dup1\n      iszero\n      tag_46\n      jumpi\n      0x00\n      dup1\n      revert\n    tag_46:\n      pop\n      tag_47\n      tag_48\n      jump\t// in\n    tag_47:\n      mload(0x40)\n      tag_49\n      swap2\n      swap1\n      tag_50\n      jump\t// in\n    tag_49:\n      mload(0x40)\n      dup1\n      swap2\n      sub\n      swap1\n      return\n        /* \"contracts/moonx.sol\":6209:6503  function withdrawPlatformTX() external onlyOwner {... */\n    tag_6:\n      callvalue\n      dup1\n      iszero\n      tag_51\n      jumpi\n      0x00\n      dup1\n      revert\n    tag_51:\n      pop\n      tag_52\n      tag_53\n      jump\t// in\n    tag_52:\n      stop\n        /* \"contracts/moonx.sol\":776:806  uint256 public accumulatedFees */\n    tag_7:\n      callvalue\n      dup1\n      iszero\n      tag_54\n      jumpi\n      0x00\n      dup1\n      revert\n    tag_54:\n      pop\n      tag_55\n      tag_56\n      jump\t// in\n    tag_55:\n      mload(0x40)\n      tag_57\n      swap2\n      swap1\n      tag_50\n      jump\t// in\n    tag_57:\n      mload(0x40)\n      dup1\n      swap2\n      sub\n      swap1\n      return\n        /* \"@openzeppelin/contracts/security/Pausable.sol\":1615:1699  function paused() public view virtual returns (bool) {... */\n    tag_8:\n      callvalue\n      dup1\n      iszero\n      tag_58\n      jumpi\n      0x00\n      dup1\n      revert\n    tag_58:\n      pop\n      tag_59\n      tag_60\n      jump\t// in\n    tag_59:\n      mload(0x40)\n      tag_61\n      swap2\n      swap1\n      tag_62\n      jump\t// in\n    tag_61:\n      mload(0x40)\n      dup1\n      swap2\n      sub\n      swap1\n      return\n        /* \"contracts/moonx.sol\":3989:5074  function attemptQuiz(uint256 _courseId, string[] memory _answers) external payable  {... */\n    tag_9:\n      tag_63\n      0x04\n      dup1\n      calldatasize\n      sub\n      dup2\n      add\n      swap1\n      tag_64\n      swap2\n      swap1\n      tag_65\n      jump\t// in\n    tag_64:\n      tag_66\n      jump\t// in\n    tag_63:\n      stop\n        /* \"contracts/moonx.sol\":3464:3983  function enrollInCourse(uint256 _courseId) external payable whenNotPaused collectTX {... */\n    tag_10:\n      tag_67\n      0x04\n      dup1\n      calldatasize\n      sub\n      dup2\n      add\n      swap1\n      tag_68\n      swap2\n      swap1\n      tag_69\n      jump\t// in\n    tag_68:\n      tag_70\n      jump\t// in\n    tag_67:\n      stop\n        /* \"contracts/moonx.sol\":1530:1556  uint256 public courseCount */\n    tag_11:\n      callvalue\n      dup1\n      iszero\n      tag_71\n      jumpi\n      0x00\n      dup1\n      revert\n    tag_71:\n      pop\n      tag_72\n      tag_73\n      jump\t// in\n    tag_72:\n      mload(0x40)\n      tag_74\n      swap2\n      swap1\n      tag_50\n      jump\t// in\n    tag_74:\n      mload(0x40)\n      dup1\n      swap2\n      sub\n      swap1\n      return\n        /* \"@openzeppelin/contracts/access/Ownable.sol\":2293:2394  function renounceOwnership() public virtual onlyOwner {... */\n    tag_12:\n      callvalue\n      dup1\n      iszero\n      tag_75\n      jumpi\n      0x00\n      dup1\n      revert\n    tag_75:\n      pop\n      tag_76\n      tag_77\n      jump\t// in\n    tag_76:\n      stop\n        /* \"contracts/moonx.sol\":3232:3458  function approveCourse(uint256 _courseId) external onlyOwner {... */\n    tag_13:\n      callvalue\n      dup1\n      iszero\n      tag_78\n      jumpi\n      0x00\n      dup1\n      revert\n    tag_78:\n      pop\n      tag_79\n      0x04\n      dup1\n      calldatasize\n      sub\n      dup2\n      add\n      swap1\n      tag_80\n      swap2\n      swap1\n      tag_69\n      jump\t// in\n    tag_80:\n      tag_81\n      jump\t// in\n    tag_79:\n      stop\n        /* \"contracts/moonx.sol\":6509:6570  function pause() external onlyOwner {... */\n    tag_14:\n      callvalue\n      dup1\n      iszero\n      tag_82\n      jumpi\n      0x00\n      dup1\n      revert\n    tag_82:\n      pop\n      tag_83\n      tag_84\n      jump\t// in\n    tag_83:\n      stop\n        /* \"contracts/moonx.sol\":327:372  IReputationContract public reputationContract */\n    tag_15:\n      callvalue\n      dup1\n      iszero\n      tag_85\n      jumpi\n      0x00\n      dup1\n      revert\n    tag_85:\n      pop\n      tag_86\n      tag_87\n      jump\t// in\n    tag_86:\n      mload(0x40)\n      tag_88\n      swap2\n      swap1\n      tag_89\n      jump\t// in\n    tag_88:\n      mload(0x40)\n      dup1\n      swap2\n      sub\n      swap1\n      return\n        /* \"@openzeppelin/contracts/access/Ownable.sol\":1638:1723  function owner() public view virtual returns (address) {... */\n    tag_16:\n      callvalue\n      dup1\n      iszero\n      tag_90\n      jumpi\n      0x00\n      dup1\n      revert\n    tag_90:\n      pop\n      tag_91\n      tag_92\n      jump\t// in\n    tag_91:\n      mload(0x40)\n      tag_93\n      swap2\n      swap1\n      tag_94\n      jump\t// in\n    tag_93:\n      mload(0x40)\n      dup1\n      swap2\n      sub\n      swap1\n      return\n        /* \"contracts/moonx.sol\":6647:6813  function updateReputationContract(address _newReputationContract) external onlyOwner {... */\n    tag_17:\n      callvalue\n      dup1\n      iszero\n      tag_95\n      jumpi\n      0x00\n      dup1\n      revert\n    tag_95:\n      pop\n      tag_96\n      0x04\n      dup1\n      calldatasize\n      sub\n      dup2\n      add\n      swap1\n      tag_97\n      swap2\n      swap1\n      tag_98\n      jump\t// in\n    tag_97:\n      tag_99\n      jump\t// in\n    tag_96:\n      stop\n        /* \"contracts/moonx.sol\":1355:1396  mapping(uint256 => Course) public courses */\n    tag_18:\n      callvalue\n      dup1\n      iszero\n      tag_100\n      jumpi\n      0x00\n      dup1\n      revert\n    tag_100:\n      pop\n      tag_101\n      0x04\n      dup1\n      calldatasize\n      sub\n      dup2\n      add\n      swap1\n      tag_102\n      swap2\n      swap1\n      tag_69\n      jump\t// in\n    tag_102:\n      tag_103\n      jump\t// in\n    tag_101:\n      mload(0x40)\n      tag_104\n      swap7\n      swap6\n      swap5\n      swap4\n      swap3\n      swap2\n      swap1\n      tag_105\n      jump\t// in\n    tag_104:\n      mload(0x40)\n      dup1\n      swap2\n      sub\n      swap1\n      return\n        /* \"contracts/moonx.sol\":5080:5605  function claimStudentReward(uint256 _courseId) external payable whenNotPaused collectTX {... */\n    tag_19:\n      tag_106\n      0x04\n      dup1\n      calldatasize\n      sub\n      dup2\n      add\n      swap1\n      tag_107\n      swap2\n      swap1\n      tag_69\n      jump\t// in\n    tag_107:\n      tag_108\n      jump\t// in\n    tag_106:\n      stop\n        /* \"contracts/moonx.sol\":478:520  uint256 public constant POST_THRESHOLD = 5 */\n    tag_20:\n      callvalue\n      dup1\n      iszero\n      tag_109\n      jumpi\n      0x00\n      dup1\n      revert\n    tag_109:\n      pop\n      tag_110\n      tag_111\n      jump\t// in\n    tag_110:\n      mload(0x40)\n      tag_112\n      swap2\n      swap1\n      tag_50\n      jump\t// in\n    tag_112:\n      mload(0x40)\n      dup1\n      swap2\n      sub\n      swap1\n      return\n        /* \"contracts/moonx.sol\":428:472  uint256 public constant ENROLL_THRESHOLD = 5 */\n    tag_21:\n      callvalue\n      dup1\n      iszero\n      tag_113\n      jumpi\n      0x00\n      dup1\n      revert\n    tag_113:\n      pop\n      tag_114\n      tag_115\n      jump\t// in\n    tag_114:\n      mload(0x40)\n      tag_116\n      swap2\n      swap1\n      tag_50\n      jump\t// in\n    tag_116:\n      mload(0x40)\n      dup1\n      swap2\n      sub\n      swap1\n      return\n        /* \"contracts/moonx.sol\":1477:1524  mapping(uint256 => Quiz[]) public courseQuizzes */\n    tag_22:\n      callvalue\n      dup1\n      iszero\n      tag_117\n      jumpi\n      0x00\n      dup1\n      revert\n    tag_117:\n      pop\n      tag_118\n      0x04\n      dup1\n      calldatasize\n      sub\n      dup2\n      add\n      swap1\n      tag_119\n      swap2\n      swap1\n      tag_120\n      jump\t// in\n    tag_119:\n      tag_121\n      jump\t// in\n    tag_118:\n      mload(0x40)\n      tag_122\n      swap8\n      swap7\n      swap6\n      swap5\n      swap4\n      swap3\n      swap2\n      swap1\n      tag_123\n      jump\t// in\n    tag_122:\n      mload(0x40)\n      dup1\n      swap2\n      sub\n      swap1\n      return\n        /* \"contracts/moonx.sol\":5611:6203  function claimCreatorReward(uint256 _courseId) external payable whenNotPaused collectTX {... */\n    tag_23:\n      tag_124\n      0x04\n      dup1\n      calldatasize\n      sub\n      dup2\n      add\n      swap1\n      tag_125\n      swap2\n      swap1\n      tag_69\n      jump\t// in\n    tag_125:\n      tag_126\n      jump\t// in\n    tag_124:\n      stop\n        /* \"contracts/moonx.sol\":606:661  uint256 public constant CREATOR_REWARD_AMOUNT = 1 ether */\n    tag_24:\n      callvalue\n      dup1\n      iszero\n      tag_127\n      jumpi\n      0x00\n      dup1\n      revert\n    tag_127:\n      pop\n      tag_128\n      tag_129\n      jump\t// in\n    tag_128:\n      mload(0x40)\n      tag_130\n      swap2\n      swap1\n      tag_50\n      jump\t// in\n    tag_130:\n      mload(0x40)\n      dup1\n      swap2\n      sub\n      swap1\n      return\n        /* \"contracts/moonx.sol\":379:422  uint256 public constant WATCH_THRESHOLD = 0 */\n    tag_25:\n      callvalue\n      dup1\n      iszero\n      tag_131\n      jumpi\n      0x00\n      dup1\n      revert\n    tag_131:\n      pop\n      tag_132\n      tag_133\n      jump\t// in\n    tag_132:\n      mload(0x40)\n      tag_134\n      swap2\n      swap1\n      tag_50\n      jump\t// in\n    tag_134:\n      mload(0x40)\n      dup1\n      swap2\n      sub\n      swap1\n      return\n        /* \"contracts/moonx.sol\":2673:3226  function createCourse(string memory _metadataURI, Quiz[] memory _quizzes) external payable whenNotPaused collectTX {... */\n    tag_26:\n      tag_135\n      0x04\n      dup1\n      calldatasize\n      sub\n      dup2\n      add\n      swap1\n      tag_136\n      swap2\n      swap1\n      tag_137\n      jump\t// in\n    tag_136:\n      tag_138\n      jump\t// in\n    tag_135:\n      stop\n        /* \"@openzeppelin/contracts/access/Ownable.sol\":2543:2758  function transferOwnership(address newOwner) public virtual onlyOwner {... */\n    tag_27:\n      callvalue\n      dup1\n      iszero\n      tag_139\n      jumpi\n      0x00\n      dup1\n      revert\n    tag_139:\n      pop\n      tag_140\n      0x04\n      dup1\n      calldatasize\n      sub\n      dup2\n      add\n      swap1\n      tag_141\n      swap2\n      swap1\n      tag_98\n      jump\t// in\n    tag_141:\n      tag_142\n      jump\t// in\n    tag_140:\n      stop\n        /* \"contracts/moonx.sol\":526:582  uint256 public constant STUDENT_REWARD_AMOUNT = 10 ether */\n    tag_28:\n      callvalue\n      dup1\n      iszero\n      tag_143\n      jumpi\n      0x00\n      dup1\n      revert\n    tag_143:\n      pop\n      tag_144\n      tag_145\n      jump\t// in\n    tag_144:\n      mload(0x40)\n      tag_146\n      swap2\n      swap1\n      tag_50\n      jump\t// in\n    tag_146:\n      mload(0x40)\n      dup1\n      swap2\n      sub\n      swap1\n      return\n        /* \"contracts/moonx.sol\":1402:1471  mapping(address => mapping(uint256 => Enrollment)) public enrollments */\n    tag_40:\n      mstore(0x20, 0x04)\n      dup2\n      0x00\n      mstore\n      mstore(0x20, keccak256(0x00, 0x40))\n      dup1\n      0x00\n      mstore\n      keccak256(0x00, 0x40)\n      0x00\n      swap2\n      pop\n      swap2\n      pop\n      pop\n      dup1\n      0x00\n      add\n      0x00\n      swap1\n      sload\n      swap1\n      0x0100\n      exp\n      swap1\n      div\n      0xff\n      and\n      swap1\n      dup1\n      0x00\n      add\n      0x01\n      swap1\n      sload\n      swap1\n      0x0100\n      exp\n      swap1\n      div\n      0xff\n      and\n      swap1\n      dup1\n      0x00\n      add\n      0x02\n      swap1\n      sload\n      swap1\n      0x0100\n      exp\n      swap1\n      div\n      0xff\n      and\n      swap1\n      dup1\n      0x01\n      add\n      sload\n      swap1\n      pop\n      dup5\n      jump\t// out\n        /* \"contracts/moonx.sol\":6576:6641  function unpause() external onlyOwner {... */\n    tag_45:\n        /* \"@openzeppelin/contracts/access/Ownable.sol\":1531:1544  _checkOwner() */\n      tag_148\n        /* \"@openzeppelin/contracts/access/Ownable.sol\":1531:1542  _checkOwner */\n      tag_149\n        /* \"@openzeppelin/contracts/access/Ownable.sol\":1531:1544  _checkOwner() */\n      jump\t// in\n    tag_148:\n        /* \"contracts/moonx.sol\":6624:6634  _unpause() */\n      tag_151\n        /* \"contracts/moonx.sol\":6624:6632  _unpause */\n      tag_152\n        /* \"contracts/moonx.sol\":6624:6634  _unpause() */\n      jump\t// in\n    tag_151:\n        /* \"contracts/moonx.sol\":6576:6641  function unpause() external onlyOwner {... */\n      jump\t// out\n        /* \"contracts/moonx.sol\":702:749  uint256 public constant platformTX = 0.75 ether */\n    tag_48:\n        /* \"contracts/moonx.sol\":739:749  0.75 ether */\n      0x0a688906bd8b0000\n        /* \"contracts/moonx.sol\":702:749  uint256 public constant platformTX = 0.75 ether */\n      dup2\n      jump\t// out\n        /* \"contracts/moonx.sol\":6209:6503  function withdrawPlatformTX() external onlyOwner {... */\n    tag_53:\n        /* \"@openzeppelin/contracts/access/Ownable.sol\":1531:1544  _checkOwner() */\n      tag_154\n        /* \"@openzeppelin/contracts/access/Ownable.sol\":1531:1542  _checkOwner */\n      tag_149\n        /* \"@openzeppelin/contracts/access/Ownable.sol\":1531:1544  _checkOwner() */\n      jump\t// in\n    tag_154:\n        /* \"contracts/moonx.sol\":6268:6282  uint256 amount */\n      0x00\n        /* \"contracts/moonx.sol\":6285:6300  accumulatedFees */\n      sload(0x02)\n        /* \"contracts/moonx.sol\":6268:6300  uint256 amount = accumulatedFees */\n      swap1\n      pop\n        /* \"contracts/moonx.sol\":6328:6329  0 */\n      0x00\n        /* \"contracts/moonx.sol\":6310:6325  accumulatedFees */\n      0x02\n        /* \"contracts/moonx.sol\":6310:6329  accumulatedFees = 0 */\n      dup2\n      swap1\n      sstore\n      pop\n        /* \"contracts/moonx.sol\":6341:6353  bool success */\n      0x00\n        /* \"contracts/moonx.sol\":6367:6374  owner() */\n      tag_156\n        /* \"contracts/moonx.sol\":6367:6372  owner */\n      tag_92\n        /* \"contracts/moonx.sol\":6367:6374  owner() */\n      jump\t// in\n    tag_156:\n        /* \"contracts/moonx.sol\":6359:6380  payable(owner()).call */\n      0xffffffffffffffffffffffffffffffffffffffff\n      and\n        /* \"contracts/moonx.sol\":6388:6394  amount */\n      dup3\n        /* \"contracts/moonx.sol\":6359:6399  payable(owner()).call{value: amount}(\"\") */\n      mload(0x40)\n      tag_157\n      swap1\n      tag_158\n      jump\t// in\n    tag_157:\n      0x00\n      mload(0x40)\n      dup1\n      dup4\n      sub\n      dup2\n      dup6\n      dup8\n      gas\n      call\n      swap3\n      pop\n      pop\n      pop\n      returndatasize\n      dup1\n      0x00\n      dup2\n      eq\n      tag_161\n      jumpi\n      mload(0x40)\n      swap2\n      pop\n      and(add(returndatasize, 0x3f), not(0x1f))\n      dup3\n      add\n      0x40\n      mstore\n      returndatasize\n      dup3\n      mstore\n      returndatasize\n      0x00\n      0x20\n      dup5\n      add\n      returndatacopy\n      jump(tag_160)\n    tag_161:\n      0x60\n      swap2\n      pop\n    tag_160:\n      pop\n        /* \"contracts/moonx.sol\":6340:6399  (bool success, ) = payable(owner()).call{value: amount}(\"\") */\n      pop\n      swap1\n      pop\n        /* \"contracts/moonx.sol\":6417:6424  success */\n      dup1\n        /* \"contracts/moonx.sol\":6409:6456  require(success, \"Failed to withdraw gas fees\") */\n      tag_162\n      jumpi\n      mload(0x40)\n      0x08c379a000000000000000000000000000000000000000000000000000000000\n      dup2\n      mstore\n      0x04\n      add\n      tag_163\n      swap1\n      tag_164\n      jump\t// in\n    tag_163:\n      mload(0x40)\n      dup1\n      swap2\n      sub\n      swap1\n      revert\n    tag_162:\n        /* \"contracts/moonx.sol\":6472:6496  GasFeesWithdrawn(amount) */\n      0x0d3c6acef4f1bd70f36dad19b43c6b794ac969b546734638671026f801d476fa\n        /* \"contracts/moonx.sol\":6489:6495  amount */\n      dup3\n        /* \"contracts/moonx.sol\":6472:6496  GasFeesWithdrawn(amount) */\n      mload(0x40)\n      tag_165\n      swap2\n      swap1\n      tag_50\n      jump\t// in\n    tag_165:\n      mload(0x40)\n      dup1\n      swap2\n      sub\n      swap1\n      log1\n        /* \"contracts/moonx.sol\":6258:6503  {... */\n      pop\n      pop\n        /* \"contracts/moonx.sol\":6209:6503  function withdrawPlatformTX() external onlyOwner {... */\n      jump\t// out\n        /* \"contracts/moonx.sol\":776:806  uint256 public accumulatedFees */\n    tag_56:\n      sload(0x02)\n      dup2\n      jump\t// out\n        /* \"@openzeppelin/contracts/security/Pausable.sol\":1615:1699  function paused() public view virtual returns (bool) {... */\n    tag_60:\n        /* \"@openzeppelin/contracts/security/Pausable.sol\":1662:1666  bool */\n      0x00\n        /* \"@openzeppelin/contracts/security/Pausable.sol\":1685:1692  _paused */\n      dup1\n      0x14\n      swap1\n      sload\n      swap1\n      0x0100\n      exp\n      swap1\n      div\n      0xff\n      and\n        /* \"@openzeppelin/contracts/security/Pausable.sol\":1678:1692  return _paused */\n      swap1\n      pop\n        /* \"@openzeppelin/contracts/security/Pausable.sol\":1615:1699  function paused() public view virtual returns (bool) {... */\n      swap1\n      jump\t// out\n        /* \"contracts/moonx.sol\":3989:5074  function attemptQuiz(uint256 _courseId, string[] memory _answers) external payable  {... */\n    tag_66:\n        /* \"contracts/moonx.sol\":4083:4112  Enrollment storage enrollment */\n      0x00\n        /* \"contracts/moonx.sol\":4115:4126  enrollments */\n      0x04\n        /* \"contracts/moonx.sol\":4115:4138  enrollments[msg.sender] */\n      0x00\n        /* \"contracts/moonx.sol\":4127:4137  msg.sender */\n      caller\n        /* \"contracts/moonx.sol\":4115:4138  enrollments[msg.sender] */\n      0xffffffffffffffffffffffffffffffffffffffff\n      and\n      0xffffffffffffffffffffffffffffffffffffffff\n      and\n      dup2\n      mstore\n      0x20\n      add\n      swap1\n      dup2\n      mstore\n      0x20\n      add\n      0x00\n      keccak256\n        /* \"contracts/moonx.sol\":4115:4149  enrollments[msg.sender][_courseId] */\n      0x00\n        /* \"contracts/moonx.sol\":4139:4148  _courseId */\n      dup5\n        /* \"contracts/moonx.sol\":4115:4149  enrollments[msg.sender][_courseId] */\n      dup2\n      mstore\n      0x20\n      add\n      swap1\n      dup2\n      mstore\n      0x20\n      add\n      0x00\n      keccak256\n        /* \"contracts/moonx.sol\":4083:4149  Enrollment storage enrollment = enrollments[msg.sender][_courseId] */\n      swap1\n      pop\n        /* \"contracts/moonx.sol\":4167:4177  enrollment */\n      dup1\n        /* \"contracts/moonx.sol\":4167:4188  enrollment.isEnrolled */\n      0x00\n      add\n      0x00\n      swap1\n      sload\n      swap1\n      0x0100\n      exp\n      swap1\n      div\n      0xff\n      and\n        /* \"contracts/moonx.sol\":4159:4225  require(enrollment.isEnrolled, \"User not enrolled in this course\") */\n      tag_168\n      jumpi\n      mload(0x40)\n      0x08c379a000000000000000000000000000000000000000000000000000000000\n      dup2\n      mstore\n      0x04\n      add\n      tag_169\n      swap1\n      tag_170\n      jump\t// in\n    tag_169:\n      mload(0x40)\n      dup1\n      swap2\n      sub\n      swap1\n      revert\n    tag_168:\n        /* \"contracts/moonx.sol\":4269:4270  2 */\n      0x02\n        /* \"contracts/moonx.sol\":4243:4253  enrollment */\n      dup2\n        /* \"contracts/moonx.sol\":4243:4266  enrollment.attemptCount */\n      0x00\n      add\n      0x01\n      swap1\n      sload\n      swap1\n      0x0100\n      exp\n      swap1\n      div\n      0xff\n      and\n        /* \"contracts/moonx.sol\":4243:4270  enrollment.attemptCount < 2 */\n      0xff\n      and\n      lt\n        /* \"contracts/moonx.sol\":4235:4299  require(enrollment.attemptCount < 2, \"Maximum attempts reached\") */\n      tag_171\n      jumpi\n      mload(0x40)\n      0x08c379a000000000000000000000000000000000000000000000000000000000\n      dup2\n      mstore\n      0x04\n      add\n      tag_172\n      swap1\n      tag_173\n      jump\t// in\n    tag_172:\n      mload(0x40)\n      dup1\n      swap2\n      sub\n      swap1\n      revert\n    tag_171:\n        /* \"contracts/moonx.sol\":4310:4320  enrollment */\n      dup1\n        /* \"contracts/moonx.sol\":4310:4333  enrollment.attemptCount */\n      0x00\n      add\n      0x01\n        /* \"contracts/moonx.sol\":4310:4335  enrollment.attemptCount++ */\n      dup2\n      dup2\n      swap1\n      sload\n      swap1\n      0x0100\n      exp\n      swap1\n      div\n      0xff\n      and\n      dup1\n      swap3\n      swap2\n      swap1\n      tag_174\n      swap1\n      tag_175\n      jump\t// in\n    tag_174:\n      swap2\n      swap1\n      0x0100\n      exp\n      dup2\n      sload\n      dup2\n      0xff\n      mul\n      not\n      and\n      swap1\n      dup4\n      0xff\n      and\n      mul\n      or\n      swap1\n      sstore\n      pop\n      pop\n        /* \"contracts/moonx.sol\":4345:4366  Quiz[] memory quizzes */\n      0x00\n        /* \"contracts/moonx.sol\":4369:4382  courseQuizzes */\n      0x05\n        /* \"contracts/moonx.sol\":4369:4393  courseQuizzes[_courseId] */\n      0x00\n        /* \"contracts/moonx.sol\":4383:4392  _courseId */\n      dup6\n        /* \"contracts/moonx.sol\":4369:4393  courseQuizzes[_courseId] */\n      dup2\n      mstore\n      0x20\n      add\n      swap1\n      dup2\n      mstore\n      0x20\n      add\n      0x00\n      keccak256\n        /* \"contracts/moonx.sol\":4345:4393  Quiz[] memory quizzes = courseQuizzes[_courseId] */\n      dup1\n      sload\n      dup1\n      0x20\n      mul\n      0x20\n      add\n      mload(0x40)\n      swap1\n      dup2\n      add\n      0x40\n      mstore\n      dup1\n      swap3\n      swap2\n      swap1\n      dup2\n      dup2\n      mstore\n      0x20\n      add\n      0x00\n      swap1\n    tag_176:\n      dup3\n      dup3\n      lt\n      iszero\n      tag_177\n      jumpi\n      dup4\n      dup3\n      swap1\n      0x00\n      mstore\n      keccak256(0x00, 0x20)\n      swap1\n      0x07\n      mul\n      add\n      mload(0x40)\n      dup1\n      0xe0\n      add\n      0x40\n      mstore\n      swap1\n      dup2\n      0x00\n      dup3\n      add\n      sload\n      dup2\n      mstore\n      0x20\n      add\n      0x01\n      dup3\n      add\n      dup1\n      sload\n      tag_179\n      swap1\n      tag_180\n      jump\t// in\n    tag_179:\n      dup1\n      0x1f\n      add\n      0x20\n      dup1\n      swap2\n      div\n      mul\n      0x20\n      add\n      mload(0x40)\n      swap1\n      dup2\n      add\n      0x40\n      mstore\n      dup1\n      swap3\n      swap2\n      swap1\n      dup2\n      dup2\n      mstore\n      0x20\n      add\n      dup3\n      dup1\n      sload\n      tag_181\n      swap1\n      tag_180\n      jump\t// in\n    tag_181:\n      dup1\n      iszero\n      tag_182\n      jumpi\n      dup1\n      0x1f\n      lt\n      tag_183\n      jumpi\n      0x0100\n      dup1\n      dup4\n      sload\n      div\n      mul\n      dup4\n      mstore\n      swap2\n      0x20\n      add\n      swap2\n      jump(tag_182)\n    tag_183:\n      dup3\n      add\n      swap2\n      swap1\n      0x00\n      mstore\n      keccak256(0x00, 0x20)\n      swap1\n    tag_184:\n      dup2\n      sload\n      dup2\n      mstore\n      swap1\n      0x01\n      add\n      swap1\n      0x20\n      add\n      dup1\n      dup4\n      gt\n      tag_184\n      jumpi\n      dup3\n      swap1\n      sub\n      0x1f\n      and\n      dup3\n      add\n      swap2\n    tag_182:\n      pop\n      pop\n      pop\n      pop\n      pop\n      dup2\n      mstore\n      0x20\n      add\n      0x02\n      dup3\n      add\n      dup1\n      sload\n      tag_185\n      swap1\n      tag_180\n      jump\t// in\n    tag_185:\n      dup1\n      0x1f\n      add\n      0x20\n      dup1\n      swap2\n      div\n      mul\n      0x20\n      add\n      mload(0x40)\n      swap1\n      dup2\n      add\n      0x40\n      mstore\n      dup1\n      swap3\n      swap2\n      swap1\n      dup2\n      dup2\n      mstore\n      0x20\n      add\n      dup3\n      dup1\n      sload\n      tag_186\n      swap1\n      tag_180\n      jump\t// in\n    tag_186:\n      dup1\n      iszero\n      tag_187\n      jumpi\n      dup1\n      0x1f\n      lt\n      tag_188\n      jumpi\n      0x0100\n      dup1\n      dup4\n      sload\n      div\n      mul\n      dup4\n      mstore\n      swap2\n      0x20\n      add\n      swap2\n      jump(tag_187)\n    tag_188:\n      dup3\n      add\n      swap2\n      swap1\n      0x00\n      mstore\n      keccak256(0x00, 0x20)\n      swap1\n    tag_189:\n      dup2\n      sload\n      dup2\n      mstore\n      swap1\n      0x01\n      add\n      swap1\n      0x20\n      add\n      dup1\n      dup4\n      gt\n      tag_189\n      jumpi\n      dup3\n      swap1\n      sub\n      0x1f\n      and\n      dup3\n      add\n      swap2\n    tag_187:\n      pop\n      pop\n      pop\n      pop\n      pop\n      dup2\n      mstore\n      0x20\n      add\n      0x03\n      dup3\n      add\n      dup1\n      sload\n      tag_190\n      swap1\n      tag_180\n      jump\t// in\n    tag_190:\n      dup1\n      0x1f\n      add\n      0x20\n      dup1\n      swap2\n      div\n      mul\n      0x20\n      add\n      mload(0x40)\n      swap1\n      dup2\n      add\n      0x40\n      mstore\n      dup1\n      swap3\n      swap2\n      swap1\n      dup2\n      dup2\n      mstore\n      0x20\n      add\n      dup3\n      dup1\n      sload\n      tag_191\n      swap1\n      tag_180\n      jump\t// in\n    tag_191:\n      dup1\n      iszero\n      tag_192\n      jumpi\n      dup1\n      0x1f\n      lt\n      tag_193\n      jumpi\n      0x0100\n      dup1\n      dup4\n      sload\n      div\n      mul\n      dup4\n      mstore\n      swap2\n      0x20\n      add\n      swap2\n      jump(tag_192)\n    tag_193:\n      dup3\n      add\n      swap2\n      swap1\n      0x00\n      mstore\n      keccak256(0x00, 0x20)\n      swap1\n    tag_194:\n      dup2\n      sload\n      dup2\n      mstore\n      swap1\n      0x01\n      add\n      swap1\n      0x20\n      add\n      dup1\n      dup4\n      gt\n      tag_194\n      jumpi\n      dup3\n      swap1\n      sub\n      0x1f\n      and\n      dup3\n      add\n      swap2\n    tag_192:\n      pop\n      pop\n      pop\n      pop\n      pop\n      dup2\n      mstore\n      0x20\n      add\n      0x04\n      dup3\n      add\n      dup1\n      sload\n      tag_195\n      swap1\n      tag_180\n      jump\t// in\n    tag_195:\n      dup1\n      0x1f\n      add\n      0x20\n      dup1\n      swap2\n      div\n      mul\n      0x20\n      add\n      mload(0x40)\n      swap1\n      dup2\n      add\n      0x40\n      mstore\n      dup1\n      swap3\n      swap2\n      swap1\n      dup2\n      dup2\n      mstore\n      0x20\n      add\n      dup3\n      dup1\n      sload\n      tag_196\n      swap1\n      tag_180\n      jump\t// in\n    tag_196:\n      dup1\n      iszero\n      tag_197\n      jumpi\n      dup1\n      0x1f\n      lt\n      tag_198\n      jumpi\n      0x0100\n      dup1\n      dup4\n      sload\n      div\n      mul\n      dup4\n      mstore\n      swap2\n      0x20\n      add\n      swap2\n      jump(tag_197)\n    tag_198:\n      dup3\n      add\n      swap2\n      swap1\n      0x00\n      mstore\n      keccak256(0x00, 0x20)\n      swap1\n    tag_199:\n      dup2\n      sload\n      dup2\n      mstore\n      swap1\n      0x01\n      add\n      swap1\n      0x20\n      add\n      dup1\n      dup4\n      gt\n      tag_199\n      jumpi\n      dup3\n      swap1\n      sub\n      0x1f\n      and\n      dup3\n      add\n      swap2\n    tag_197:\n      pop\n      pop\n      pop\n      pop\n      pop\n      dup2\n      mstore\n      0x20\n      add\n      0x05\n      dup3\n      add\n      dup1\n      sload\n      tag_200\n      swap1\n      tag_180\n      jump\t// in\n    tag_200:\n      dup1\n      0x1f\n      add\n      0x20\n      dup1\n      swap2\n      div\n      mul\n      0x20\n      add\n      mload(0x40)\n      swap1\n      dup2\n      add\n      0x40\n      mstore\n      dup1\n      swap3\n      swap2\n      swap1\n      dup2\n      dup2\n      mstore\n      0x20\n      add\n      dup3\n      dup1\n      sload\n      tag_201\n      swap1\n      tag_180\n      jump\t// in\n    tag_201:\n      dup1\n      iszero\n      tag_202\n      jumpi\n      dup1\n      0x1f\n      lt\n      tag_203\n      jumpi\n      0x0100\n      dup1\n      dup4\n      sload\n      div\n      mul\n      dup4\n      mstore\n      swap2\n      0x20\n      add\n      swap2\n      jump(tag_202)\n    tag_203:\n      dup3\n      add\n      swap2\n      swap1\n      0x00\n      mstore\n      keccak256(0x00, 0x20)\n      swap1\n    tag_204:\n      dup2\n      sload\n      dup2\n      mstore\n      swap1\n      0x01\n      add\n      swap1\n      0x20\n      add\n      dup1\n      dup4\n      gt\n      tag_204\n      jumpi\n      dup3\n      swap1\n      sub\n      0x1f\n      and\n      dup3\n      add\n      swap2\n    tag_202:\n      pop\n      pop\n      pop\n      pop\n      pop\n      dup2\n      mstore\n      0x20\n      add\n      0x06\n      dup3\n      add\n      sload\n      dup2\n      mstore\n      pop\n      pop\n      dup2\n      mstore\n      0x20\n      add\n      swap1\n      0x01\n      add\n      swap1\n      jump(tag_176)\n    tag_177:\n      pop\n      pop\n      pop\n      pop\n      swap1\n      pop\n        /* \"contracts/moonx.sol\":4430:4437  quizzes */\n      dup1\n        /* \"contracts/moonx.sol\":4430:4444  quizzes.length */\n      mload\n        /* \"contracts/moonx.sol\":4411:4419  _answers */\n      dup4\n        /* \"contracts/moonx.sol\":4411:4426  _answers.length */\n      mload\n        /* \"contracts/moonx.sol\":4411:4444  _answers.length == quizzes.length */\n      eq\n        /* \"contracts/moonx.sol\":4403:4470  require(_answers.length == quizzes.length, \"Answer count mismatch\") */\n      tag_205\n      jumpi\n      mload(0x40)\n      0x08c379a000000000000000000000000000000000000000000000000000000000\n      dup2\n      mstore\n      0x04\n      add\n      tag_206\n      swap1\n      tag_207\n      jump\t// in\n    tag_206:\n      mload(0x40)\n      dup1\n      swap2\n      sub\n      swap1\n      revert\n    tag_205:\n        /* \"contracts/moonx.sol\":4481:4492  bool passed */\n      0x00\n        /* \"contracts/moonx.sol\":4495:4499  true */\n      0x01\n        /* \"contracts/moonx.sol\":4481:4499  bool passed = true */\n      swap1\n      pop\n        /* \"contracts/moonx.sol\":4515:4524  uint256 i */\n      0x00\n        /* \"contracts/moonx.sol\":4510:4727  for (uint256 i = 0; i < quizzes.length; i++) {... */\n    tag_208:\n        /* \"contracts/moonx.sol\":4534:4541  quizzes */\n      dup3\n        /* \"contracts/moonx.sol\":4534:4548  quizzes.length */\n      mload\n        /* \"contracts/moonx.sol\":4530:4531  i */\n      dup2\n        /* \"contracts/moonx.sol\":4530:4548  i < quizzes.length */\n      lt\n        /* \"contracts/moonx.sol\":4510:4727  for (uint256 i = 0; i < quizzes.length; i++) {... */\n      iszero\n      tag_209\n      jumpi\n        /* \"contracts/moonx.sol\":4617:4624  quizzes */\n      dup3\n        /* \"contracts/moonx.sol\":4625:4626  i */\n      dup2\n        /* \"contracts/moonx.sol\":4617:4627  quizzes[i] */\n      dup2\n      mload\n      dup2\n      lt\n      tag_211\n      jumpi\n      tag_212\n      tag_213\n      jump\t// in\n    tag_212:\n    tag_211:\n      0x20\n      mul\n      0x20\n      add\n      add\n      mload\n        /* \"contracts/moonx.sol\":4617:4645  quizzes[i].correctAnswerHash */\n      0xc0\n      add\n      mload\n        /* \"contracts/moonx.sol\":4600:4608  _answers */\n      dup6\n        /* \"contracts/moonx.sol\":4609:4610  i */\n      dup3\n        /* \"contracts/moonx.sol\":4600:4611  _answers[i] */\n      dup2\n      mload\n      dup2\n      lt\n      tag_214\n      jumpi\n      tag_215\n      tag_213\n      jump\t// in\n    tag_215:\n    tag_214:\n      0x20\n      mul\n      0x20\n      add\n      add\n      mload\n        /* \"contracts/moonx.sol\":4583:4612  abi.encodePacked(_answers[i]) */\n      add(0x20, mload(0x40))\n      tag_216\n      swap2\n      swap1\n      tag_217\n      jump\t// in\n    tag_216:\n      mload(0x40)\n      0x20\n      dup2\n      dup4\n      sub\n      sub\n      dup2\n      mstore\n      swap1\n      0x40\n      mstore\n        /* \"contracts/moonx.sol\":4573:4613  keccak256(abi.encodePacked(_answers[i])) */\n      dup1\n      mload\n      swap1\n      0x20\n      add\n      keccak256\n        /* \"contracts/moonx.sol\":4573:4645  keccak256(abi.encodePacked(_answers[i])) != quizzes[i].correctAnswerHash */\n      eq\n        /* \"contracts/moonx.sol\":4569:4717  if (keccak256(abi.encodePacked(_answers[i])) != quizzes[i].correctAnswerHash) {... */\n      tag_218\n      jumpi\n        /* \"contracts/moonx.sol\":4674:4679  false */\n      0x00\n        /* \"contracts/moonx.sol\":4665:4679  passed = false */\n      swap2\n      pop\n        /* \"contracts/moonx.sol\":4697:4702  break */\n      jump(tag_209)\n        /* \"contracts/moonx.sol\":4569:4717  if (keccak256(abi.encodePacked(_answers[i])) != quizzes[i].correctAnswerHash) {... */\n    tag_218:\n        /* \"contracts/moonx.sol\":4550:4553  i++ */\n      dup1\n      dup1\n      0x01\n      add\n      swap2\n      pop\n      pop\n        /* \"contracts/moonx.sol\":4510:4727  for (uint256 i = 0; i < quizzes.length; i++) {... */\n      jump(tag_208)\n    tag_209:\n      pop\n        /* \"contracts/moonx.sol\":4741:4747  passed */\n      dup1\n        /* \"contracts/moonx.sol\":4741:4772  passed && !enrollment.hasPassed */\n      dup1\n      iszero\n      tag_219\n      jumpi\n      pop\n        /* \"contracts/moonx.sol\":4752:4762  enrollment */\n      dup3\n        /* \"contracts/moonx.sol\":4752:4772  enrollment.hasPassed */\n      0x00\n      add\n      0x02\n      swap1\n      sload\n      swap1\n      0x0100\n      exp\n      swap1\n      div\n      0xff\n      and\n        /* \"contracts/moonx.sol\":4751:4772  !enrollment.hasPassed */\n      iszero\n        /* \"contracts/moonx.sol\":4741:4772  passed && !enrollment.hasPassed */\n    tag_219:\n        /* \"contracts/moonx.sol\":4737:5008  if (passed && !enrollment.hasPassed) {... */\n      iszero\n      tag_220\n      jumpi\n        /* \"contracts/moonx.sol\":4811:4815  true */\n      0x01\n        /* \"contracts/moonx.sol\":4788:4798  enrollment */\n      dup4\n        /* \"contracts/moonx.sol\":4788:4808  enrollment.hasPassed */\n      0x00\n      add\n      0x02\n        /* \"contracts/moonx.sol\":4788:4815  enrollment.hasPassed = true */\n      0x0100\n      exp\n      dup2\n      sload\n      dup2\n      0xff\n      mul\n      not\n      and\n      swap1\n      dup4\n      iszero\n      iszero\n      mul\n      or\n      swap1\n      sstore\n      pop\n        /* \"contracts/moonx.sol\":574:582  10 ether */\n      0x8ac7230489e80000\n        /* \"contracts/moonx.sol\":4829:4839  enrollment */\n      dup4\n        /* \"contracts/moonx.sol\":4829:4851  enrollment.quizBalance */\n      0x01\n      add\n      0x00\n        /* \"contracts/moonx.sol\":4829:4876  enrollment.quizBalance += STUDENT_REWARD_AMOUNT */\n      dup3\n      dup3\n      sload\n      tag_221\n      swap2\n      swap1\n      tag_222\n      jump\t// in\n    tag_221:\n      swap3\n      pop\n      pop\n      dup2\n      swap1\n      sstore\n      pop\n        /* \"contracts/moonx.sol\":4890:4897  courses */\n      0x03\n        /* \"contracts/moonx.sol\":4890:4908  courses[_courseId] */\n      0x00\n        /* \"contracts/moonx.sol\":4898:4907  _courseId */\n      dup7\n        /* \"contracts/moonx.sol\":4890:4908  courses[_courseId] */\n      dup2\n      mstore\n      0x20\n      add\n      swap1\n      dup2\n      mstore\n      0x20\n      add\n      0x00\n      keccak256\n        /* \"contracts/moonx.sol\":4890:4923  courses[_courseId].passedStudents */\n      0x03\n      add\n      0x00\n        /* \"contracts/moonx.sol\":4890:4925  courses[_courseId].passedStudents++ */\n      dup2\n      sload\n      dup1\n      swap3\n      swap2\n      swap1\n      tag_223\n      swap1\n      tag_224\n      jump\t// in\n    tag_223:\n      swap2\n      swap1\n      pop\n      sstore\n      pop\n        /* \"contracts/moonx.sol\":654:661  1 ether */\n      0x0de0b6b3a7640000\n        /* \"contracts/moonx.sol\":4939:4946  courses */\n      0x03\n        /* \"contracts/moonx.sol\":4939:4957  courses[_courseId] */\n      0x00\n        /* \"contracts/moonx.sol\":4947:4956  _courseId */\n      dup8\n        /* \"contracts/moonx.sol\":4939:4957  courses[_courseId] */\n      dup2\n      mstore\n      0x20\n      add\n      swap1\n      dup2\n      mstore\n      0x20\n      add\n      0x00\n      keccak256\n        /* \"contracts/moonx.sol\":4939:4972  courses[_courseId].creatorBalance */\n      0x04\n      add\n      0x00\n        /* \"contracts/moonx.sol\":4939:4997  courses[_courseId].creatorBalance += CREATOR_REWARD_AMOUNT */\n      dup3\n      dup3\n      sload\n      tag_225\n      swap2\n      swap1\n      tag_222\n      jump\t// in\n    tag_225:\n      swap3\n      pop\n      pop\n      dup2\n      swap1\n      sstore\n      pop\n        /* \"contracts/moonx.sol\":4737:5008  if (passed && !enrollment.hasPassed) {... */\n    tag_220:\n        /* \"contracts/moonx.sol\":5048:5058  msg.sender */\n      caller\n        /* \"contracts/moonx.sol\":5023:5067  QuizAttempted(_courseId, msg.sender, passed) */\n      0xffffffffffffffffffffffffffffffffffffffff\n      and\n        /* \"contracts/moonx.sol\":5037:5046  _courseId */\n      dup6\n        /* \"contracts/moonx.sol\":5023:5067  QuizAttempted(_courseId, msg.sender, passed) */\n      0xaee8895c1bf669485cee2dd54d1eee9e65b02a244afb6f798f95d72405cdf7a5\n        /* \"contracts/moonx.sol\":5060:5066  passed */\n      dup4\n        /* \"contracts/moonx.sol\":5023:5067  QuizAttempted(_courseId, msg.sender, passed) */\n      mload(0x40)\n      tag_226\n      swap2\n      swap1\n      tag_62\n      jump\t// in\n    tag_226:\n      mload(0x40)\n      dup1\n      swap2\n      sub\n      swap1\n      log3\n        /* \"contracts/moonx.sol\":4073:5074  {... */\n      pop\n      pop\n      pop\n        /* \"contracts/moonx.sol\":3989:5074  function attemptQuiz(uint256 _courseId, string[] memory _answers) external payable  {... */\n      pop\n      pop\n      jump\t// out\n        /* \"contracts/moonx.sol\":3464:3983  function enrollInCourse(uint256 _courseId) external payable whenNotPaused collectTX {... */\n    tag_70:\n        /* \"@openzeppelin/contracts/security/Pausable.sol\":1239:1258  _requireNotPaused() */\n      tag_228\n        /* \"@openzeppelin/contracts/security/Pausable.sol\":1239:1256  _requireNotPaused */\n      tag_229\n        /* \"@openzeppelin/contracts/security/Pausable.sol\":1239:1258  _requireNotPaused() */\n      jump\t// in\n    tag_228:\n        /* \"contracts/moonx.sol\":739:749  0.75 ether */\n      0x0a688906bd8b0000\n        /* \"contracts/moonx.sol\":2427:2436  msg.value */\n      callvalue\n        /* \"contracts/moonx.sol\":2427:2450  msg.value >= platformTX */\n      lt\n      iszero\n        /* \"contracts/moonx.sol\":2419:2475  require(msg.value >= platformTX, \"Insufficient gas fee\") */\n      tag_231\n      jumpi\n      mload(0x40)\n      0x08c379a000000000000000000000000000000000000000000000000000000000\n      dup2\n      mstore\n      0x04\n      add\n      tag_232\n      swap1\n      tag_233\n      jump\t// in\n    tag_232:\n      mload(0x40)\n      dup1\n      swap2\n      sub\n      swap1\n      revert\n    tag_231:\n        /* \"contracts/moonx.sol\":739:749  0.75 ether */\n      0x0a688906bd8b0000\n        /* \"contracts/moonx.sol\":2485:2500  accumulatedFees */\n      0x02\n      0x00\n        /* \"contracts/moonx.sol\":2485:2514  accumulatedFees += platformTX */\n      dup3\n      dup3\n      sload\n      tag_234\n      swap2\n      swap1\n      tag_222\n      jump\t// in\n    tag_234:\n      swap3\n      pop\n      pop\n      dup2\n      swap1\n      sstore\n      pop\n        /* \"contracts/moonx.sol\":2524:2538  uint256 excess */\n      0x00\n        /* \"contracts/moonx.sol\":739:749  0.75 ether */\n      0x0a688906bd8b0000\n        /* \"contracts/moonx.sol\":2541:2550  msg.value */\n      callvalue\n        /* \"contracts/moonx.sol\":2541:2563  msg.value - platformTX */\n      tag_235\n      swap2\n      swap1\n      tag_236\n      jump\t// in\n    tag_235:\n        /* \"contracts/moonx.sol\":2524:2563  uint256 excess = msg.value - platformTX */\n      swap1\n      pop\n        /* \"contracts/moonx.sol\":2586:2587  0 */\n      0x00\n        /* \"contracts/moonx.sol\":2577:2583  excess */\n      dup2\n        /* \"contracts/moonx.sol\":2577:2587  excess > 0 */\n      gt\n        /* \"contracts/moonx.sol\":2573:2650  if (excess > 0) {... */\n      iszero\n      tag_237\n      jumpi\n        /* \"contracts/moonx.sol\":2611:2621  msg.sender */\n      caller\n        /* \"contracts/moonx.sol\":2603:2631  payable(msg.sender).transfer */\n      0xffffffffffffffffffffffffffffffffffffffff\n      and\n        /* \"contracts/moonx.sol\":2603:2639  payable(msg.sender).transfer(excess) */\n      0x08fc\n        /* \"contracts/moonx.sol\":2632:2638  excess */\n      dup3\n        /* \"contracts/moonx.sol\":2603:2639  payable(msg.sender).transfer(excess) */\n      swap1\n      dup2\n      iszero\n      mul\n      swap1\n      mload(0x40)\n      0x00\n      mload(0x40)\n      dup1\n      dup4\n      sub\n      dup2\n      dup6\n      dup9\n      dup9\n      call\n      swap4\n      pop\n      pop\n      pop\n      pop\n      iszero\n      dup1\n      iszero\n      tag_239\n      jumpi\n      returndatasize\n      0x00\n      dup1\n      returndatacopy\n      revert(0x00, returndatasize)\n    tag_239:\n      pop\n        /* \"contracts/moonx.sol\":2573:2650  if (excess > 0) {... */\n    tag_237:\n        /* \"contracts/moonx.sol\":471:472  5 */\n      0x05\n        /* \"contracts/moonx.sol\":3566:3584  reputationContract */\n      0x01\n      0x00\n      swap1\n      sload\n      swap1\n      0x0100\n      exp\n      swap1\n      div\n      0xffffffffffffffffffffffffffffffffffffffff\n      and\n        /* \"contracts/moonx.sol\":3566:3595  reputationContract.reputation */\n      0xffffffffffffffffffffffffffffffffffffffff\n      and\n      0xb9f79451\n        /* \"contracts/moonx.sol\":3596:3606  msg.sender */\n      caller\n        /* \"contracts/moonx.sol\":3566:3607  reputationContract.reputation(msg.sender) */\n      mload(0x40)\n      dup3\n      0xffffffff\n      and\n      0xe0\n      shl\n      dup2\n      mstore\n      0x04\n      add\n      tag_241\n      swap2\n      swap1\n      tag_94\n      jump\t// in\n    tag_241:\n      0x20\n      mload(0x40)\n      dup1\n      dup4\n      sub\n      dup2\n      dup7\n      gas\n      staticcall\n      iszero\n      dup1\n      iszero\n      tag_243\n      jumpi\n      returndatasize\n      0x00\n      dup1\n      returndatacopy\n      revert(0x00, returndatasize)\n    tag_243:\n      pop\n      pop\n      pop\n      pop\n      mload(0x40)\n      returndatasize\n      not(0x1f)\n      0x1f\n      dup3\n      add\n      and\n      dup3\n      add\n      dup1\n      0x40\n      mstore\n      pop\n      dup2\n      add\n      swap1\n      tag_244\n      swap2\n      swap1\n      tag_245\n      jump\t// in\n    tag_244:\n        /* \"contracts/moonx.sol\":3566:3627  reputationContract.reputation(msg.sender) >= ENROLL_THRESHOLD */\n      lt\n      iszero\n        /* \"contracts/moonx.sol\":3558:3665  require(reputationContract.reputation(msg.sender) >= ENROLL_THRESHOLD, \"Insufficient reputation to enroll\") */\n      tag_246\n      jumpi\n      mload(0x40)\n      0x08c379a000000000000000000000000000000000000000000000000000000000\n      dup2\n      mstore\n      0x04\n      add\n      tag_247\n      swap1\n      tag_248\n      jump\t// in\n    tag_247:\n      mload(0x40)\n      dup1\n      swap2\n      sub\n      swap1\n      revert\n    tag_246:\n        /* \"contracts/moonx.sol\":3683:3690  courses */\n      0x03\n        /* \"contracts/moonx.sol\":3683:3701  courses[_courseId] */\n      0x00\n        /* \"contracts/moonx.sol\":3691:3700  _courseId */\n      dup4\n        /* \"contracts/moonx.sol\":3683:3701  courses[_courseId] */\n      dup2\n      mstore\n      0x20\n      add\n      swap1\n      dup2\n      mstore\n      0x20\n      add\n      0x00\n      keccak256\n        /* \"contracts/moonx.sol\":3683:3710  courses[_courseId].approved */\n      0x02\n      add\n      0x00\n      swap1\n      sload\n      swap1\n      0x0100\n      exp\n      swap1\n      div\n      0xff\n      and\n        /* \"contracts/moonx.sol\":3675:3734  require(courses[_courseId].approved, \"Course not approved\") */\n      tag_249\n      jumpi\n      mload(0x40)\n      0x08c379a000000000000000000000000000000000000000000000000000000000\n      dup2\n      mstore\n      0x04\n      add\n      tag_250\n      swap1\n      tag_251\n      jump\t// in\n    tag_250:\n      mload(0x40)\n      dup1\n      swap2\n      sub\n      swap1\n      revert\n    tag_249:\n        /* \"contracts/moonx.sol\":3753:3764  enrollments */\n      0x04\n        /* \"contracts/moonx.sol\":3753:3776  enrollments[msg.sender] */\n      0x00\n        /* \"contracts/moonx.sol\":3765:3775  msg.sender */\n      caller\n        /* \"contracts/moonx.sol\":3753:3776  enrollments[msg.sender] */\n      0xffffffffffffffffffffffffffffffffffffffff\n      and\n      0xffffffffffffffffffffffffffffffffffffffff\n      and\n      dup2\n      mstore\n      0x20\n      add\n      swap1\n      dup2\n      mstore\n      0x20\n      add\n      0x00\n      keccak256\n        /* \"contracts/moonx.sol\":3753:3787  enrollments[msg.sender][_courseId] */\n      0x00\n        /* \"contracts/moonx.sol\":3777:3786  _courseId */\n      dup4\n        /* \"contracts/moonx.sol\":3753:3787  enrollments[msg.sender][_courseId] */\n      dup2\n      mstore\n      0x20\n      add\n      swap1\n      dup2\n      mstore\n      0x20\n      add\n      0x00\n      keccak256\n        /* \"contracts/moonx.sol\":3753:3798  enrollments[msg.sender][_courseId].isEnrolled */\n      0x00\n      add\n      0x00\n      swap1\n      sload\n      swap1\n      0x0100\n      exp\n      swap1\n      div\n      0xff\n      and\n        /* \"contracts/moonx.sol\":3752:3798  !enrollments[msg.sender][_courseId].isEnrolled */\n      iszero\n        /* \"contracts/moonx.sol\":3744:3819  require(!enrollments[msg.sender][_courseId].isEnrolled, \"Already enrolled\") */\n      tag_252\n      jumpi\n      mload(0x40)\n      0x08c379a000000000000000000000000000000000000000000000000000000000\n      dup2\n      mstore\n      0x04\n      add\n      tag_253\n      swap1\n      tag_254\n      jump\t// in\n    tag_253:\n      mload(0x40)\n      dup1\n      swap2\n      sub\n      swap1\n      revert\n    tag_252:\n        /* \"contracts/moonx.sol\":3878:3882  true */\n      0x01\n        /* \"contracts/moonx.sol\":3830:3841  enrollments */\n      0x04\n        /* \"contracts/moonx.sol\":3830:3853  enrollments[msg.sender] */\n      0x00\n        /* \"contracts/moonx.sol\":3842:3852  msg.sender */\n      caller\n        /* \"contracts/moonx.sol\":3830:3853  enrollments[msg.sender] */\n      0xffffffffffffffffffffffffffffffffffffffff\n      and\n      0xffffffffffffffffffffffffffffffffffffffff\n      and\n      dup2\n      mstore\n      0x20\n      add\n      swap1\n      dup2\n      mstore\n      0x20\n      add\n      0x00\n      keccak256\n        /* \"contracts/moonx.sol\":3830:3864  enrollments[msg.sender][_courseId] */\n      0x00\n        /* \"contracts/moonx.sol\":3854:3863  _courseId */\n      dup5\n        /* \"contracts/moonx.sol\":3830:3864  enrollments[msg.sender][_courseId] */\n      dup2\n      mstore\n      0x20\n      add\n      swap1\n      dup2\n      mstore\n      0x20\n      add\n      0x00\n      keccak256\n        /* \"contracts/moonx.sol\":3830:3875  enrollments[msg.sender][_courseId].isEnrolled */\n      0x00\n      add\n      0x00\n        /* \"contracts/moonx.sol\":3830:3882  enrollments[msg.sender][_courseId].isEnrolled = true */\n      0x0100\n      exp\n      dup2\n      sload\n      dup2\n      0xff\n      mul\n      not\n      and\n      swap1\n      dup4\n      iszero\n      iszero\n      mul\n      or\n      swap1\n      sstore\n      pop\n        /* \"contracts/moonx.sol\":3892:3899  courses */\n      0x03\n        /* \"contracts/moonx.sol\":3892:3910  courses[_courseId] */\n      0x00\n        /* \"contracts/moonx.sol\":3900:3909  _courseId */\n      dup4\n        /* \"contracts/moonx.sol\":3892:3910  courses[_courseId] */\n      dup2\n      mstore\n      0x20\n      add\n      swap1\n      dup2\n      mstore\n      0x20\n      add\n      0x00\n      keccak256\n        /* \"contracts/moonx.sol\":3892:3924  courses[_courseId].totalEnrolled */\n      0x05\n      add\n      0x00\n        /* \"contracts/moonx.sol\":3892:3926  courses[_courseId].totalEnrolled++ */\n      dup2\n      sload\n      dup1\n      swap3\n      swap2\n      swap1\n      tag_255\n      swap1\n      tag_224\n      jump\t// in\n    tag_255:\n      swap2\n      swap1\n      pop\n      sstore\n      pop\n        /* \"contracts/moonx.sol\":3965:3975  msg.sender */\n      caller\n        /* \"contracts/moonx.sol\":3941:3976  UserEnrolled(_courseId, msg.sender) */\n      0xffffffffffffffffffffffffffffffffffffffff\n      and\n        /* \"contracts/moonx.sol\":3954:3963  _courseId */\n      dup3\n        /* \"contracts/moonx.sol\":3941:3976  UserEnrolled(_courseId, msg.sender) */\n      0xfacf1a2842acbad124cbca0a047fe37bc246c68f814e0350c7bd8a022fd1dddb\n      mload(0x40)\n      mload(0x40)\n      dup1\n      swap2\n      sub\n      swap1\n      log3\n        /* \"contracts/moonx.sol\":2409:2667  {... */\n      pop\n        /* \"contracts/moonx.sol\":3464:3983  function enrollInCourse(uint256 _courseId) external payable whenNotPaused collectTX {... */\n      pop\n      jump\t// out\n        /* \"contracts/moonx.sol\":1530:1556  uint256 public courseCount */\n    tag_73:\n      sload(0x06)\n      dup2\n      jump\t// out\n        /* \"@openzeppelin/contracts/access/Ownable.sol\":2293:2394  function renounceOwnership() public virtual onlyOwner {... */\n    tag_77:\n        /* \"@openzeppelin/contracts/access/Ownable.sol\":1531:1544  _checkOwner() */\n      tag_257\n        /* \"@openzeppelin/contracts/access/Ownable.sol\":1531:1542  _checkOwner */\n      tag_149\n        /* \"@openzeppelin/contracts/access/Ownable.sol\":1531:1544  _checkOwner() */\n      jump\t// in\n    tag_257:\n        /* \"@openzeppelin/contracts/access/Ownable.sol\":2357:2387  _transferOwnership(address(0)) */\n      tag_259\n        /* \"@openzeppelin/contracts/access/Ownable.sol\":2384:2385  0 */\n      0x00\n        /* \"@openzeppelin/contracts/access/Ownable.sol\":2357:2375  _transferOwnership */\n      tag_260\n        /* \"@openzeppelin/contracts/access/Ownable.sol\":2357:2387  _transferOwnership(address(0)) */\n      jump\t// in\n    tag_259:\n        /* \"@openzeppelin/contracts/access/Ownable.sol\":2293:2394  function renounceOwnership() public virtual onlyOwner {... */\n      jump\t// out\n        /* \"contracts/moonx.sol\":3232:3458  function approveCourse(uint256 _courseId) external onlyOwner {... */\n    tag_81:\n        /* \"@openzeppelin/contracts/access/Ownable.sol\":1531:1544  _checkOwner() */\n      tag_262\n        /* \"@openzeppelin/contracts/access/Ownable.sol\":1531:1542  _checkOwner */\n      tag_149\n        /* \"@openzeppelin/contracts/access/Ownable.sol\":1531:1544  _checkOwner() */\n      jump\t// in\n    tag_262:\n        /* \"contracts/moonx.sol\":3312:3319  courses */\n      0x03\n        /* \"contracts/moonx.sol\":3312:3330  courses[_courseId] */\n      0x00\n        /* \"contracts/moonx.sol\":3320:3329  _courseId */\n      dup3\n        /* \"contracts/moonx.sol\":3312:3330  courses[_courseId] */\n      dup2\n      mstore\n      0x20\n      add\n      swap1\n      dup2\n      mstore\n      0x20\n      add\n      0x00\n      keccak256\n        /* \"contracts/moonx.sol\":3312:3339  courses[_courseId].approved */\n      0x02\n      add\n      0x00\n      swap1\n      sload\n      swap1\n      0x0100\n      exp\n      swap1\n      div\n      0xff\n      and\n        /* \"contracts/moonx.sol\":3311:3339  !courses[_courseId].approved */\n      iszero\n        /* \"contracts/moonx.sol\":3303:3367  require(!courses[_courseId].approved, \"Course already approved\") */\n      tag_264\n      jumpi\n      mload(0x40)\n      0x08c379a000000000000000000000000000000000000000000000000000000000\n      dup2\n      mstore\n      0x04\n      add\n      tag_265\n      swap1\n      tag_266\n      jump\t// in\n    tag_265:\n      mload(0x40)\n      dup1\n      swap2\n      sub\n      swap1\n      revert\n    tag_264:\n        /* \"contracts/moonx.sol\":3407:3411  true */\n      0x01\n        /* \"contracts/moonx.sol\":3377:3384  courses */\n      0x03\n        /* \"contracts/moonx.sol\":3377:3395  courses[_courseId] */\n      0x00\n        /* \"contracts/moonx.sol\":3385:3394  _courseId */\n      dup4\n        /* \"contracts/moonx.sol\":3377:3395  courses[_courseId] */\n      dup2\n      mstore\n      0x20\n      add\n      swap1\n      dup2\n      mstore\n      0x20\n      add\n      0x00\n      keccak256\n        /* \"contracts/moonx.sol\":3377:3404  courses[_courseId].approved */\n      0x02\n      add\n      0x00\n        /* \"contracts/moonx.sol\":3377:3411  courses[_courseId].approved = true */\n      0x0100\n      exp\n      dup2\n      sload\n      dup2\n      0xff\n      mul\n      not\n      and\n      swap1\n      dup4\n      iszero\n      iszero\n      mul\n      or\n      swap1\n      sstore\n      pop\n        /* \"contracts/moonx.sol\":3441:3450  _courseId */\n      dup1\n        /* \"contracts/moonx.sol\":3426:3451  CourseApproved(_courseId) */\n      0x87c1c0e5cd17beb8c61a3337b32c66021cb179dd6f97d6d9ce923a029092bd45\n      mload(0x40)\n      mload(0x40)\n      dup1\n      swap2\n      sub\n      swap1\n      log2\n        /* \"contracts/moonx.sol\":3232:3458  function approveCourse(uint256 _courseId) external onlyOwner {... */\n      pop\n      jump\t// out\n        /* \"contracts/moonx.sol\":6509:6570  function pause() external onlyOwner {... */\n    tag_84:\n        /* \"@openzeppelin/contracts/access/Ownable.sol\":1531:1544  _checkOwner() */\n      tag_268\n        /* \"@openzeppelin/contracts/access/Ownable.sol\":1531:1542  _checkOwner */\n      tag_149\n        /* \"@openzeppelin/contracts/access/Ownable.sol\":1531:1544  _checkOwner() */\n      jump\t// in\n    tag_268:\n        /* \"contracts/moonx.sol\":6555:6563  _pause() */\n      tag_270\n        /* \"contracts/moonx.sol\":6555:6561  _pause */\n      tag_271\n        /* \"contracts/moonx.sol\":6555:6563  _pause() */\n      jump\t// in\n    tag_270:\n        /* \"contracts/moonx.sol\":6509:6570  function pause() external onlyOwner {... */\n      jump\t// out\n        /* \"contracts/moonx.sol\":327:372  IReputationContract public reputationContract */\n    tag_87:\n      0x01\n      0x00\n      swap1\n      sload\n      swap1\n      0x0100\n      exp\n      swap1\n      div\n      0xffffffffffffffffffffffffffffffffffffffff\n      and\n      dup2\n      jump\t// out\n        /* \"@openzeppelin/contracts/access/Ownable.sol\":1638:1723  function owner() public view virtual returns (address) {... */\n    tag_92:\n        /* \"@openzeppelin/contracts/access/Ownable.sol\":1684:1691  address */\n      0x00\n        /* \"@openzeppelin/contracts/access/Ownable.sol\":1710:1716  _owner */\n      dup1\n      0x00\n      swap1\n      sload\n      swap1\n      0x0100\n      exp\n      swap1\n      div\n      0xffffffffffffffffffffffffffffffffffffffff\n      and\n        /* \"@openzeppelin/contracts/access/Ownable.sol\":1703:1716  return _owner */\n      swap1\n      pop\n        /* \"@openzeppelin/contracts/access/Ownable.sol\":1638:1723  function owner() public view virtual returns (address) {... */\n      swap1\n      jump\t// out\n        /* \"contracts/moonx.sol\":6647:6813  function updateReputationContract(address _newReputationContract) external onlyOwner {... */\n    tag_99:\n        /* \"@openzeppelin/contracts/access/Ownable.sol\":1531:1544  _checkOwner() */\n      tag_274\n        /* \"@openzeppelin/contracts/access/Ownable.sol\":1531:1542  _checkOwner */\n      tag_149\n        /* \"@openzeppelin/contracts/access/Ownable.sol\":1531:1544  _checkOwner() */\n      jump\t// in\n    tag_274:\n        /* \"contracts/moonx.sol\":6783:6805  _newReputationContract */\n      dup1\n        /* \"contracts/moonx.sol\":6742:6760  reputationContract */\n      0x01\n      0x00\n        /* \"contracts/moonx.sol\":6742:6806  reputationContract = IReputationContract(_newReputationContract) */\n      0x0100\n      exp\n      dup2\n      sload\n      dup2\n      0xffffffffffffffffffffffffffffffffffffffff\n      mul\n      not\n      and\n      swap1\n      dup4\n      0xffffffffffffffffffffffffffffffffffffffff\n      and\n      mul\n      or\n      swap1\n      sstore\n      pop\n        /* \"contracts/moonx.sol\":6647:6813  function updateReputationContract(address _newReputationContract) external onlyOwner {... */\n      pop\n      jump\t// out\n        /* \"contracts/moonx.sol\":1355:1396  mapping(uint256 => Course) public courses */\n    tag_103:\n      mstore(0x20, 0x03)\n      dup1\n      0x00\n      mstore\n      keccak256(0x00, 0x40)\n      0x00\n      swap2\n      pop\n      swap1\n      pop\n      dup1\n      0x00\n      add\n      0x00\n      swap1\n      sload\n      swap1\n      0x0100\n      exp\n      swap1\n      div\n      0xffffffffffffffffffffffffffffffffffffffff\n      and\n      swap1\n      dup1\n      0x01\n      add\n      dup1\n      sload\n      tag_276\n      swap1\n      tag_180\n      jump\t// in\n    tag_276:\n      dup1\n      0x1f\n      add\n      0x20\n      dup1\n      swap2\n      div\n      mul\n      0x20\n      add\n      mload(0x40)\n      swap1\n      dup2\n      add\n      0x40\n      mstore\n      dup1\n      swap3\n      swap2\n      swap1\n      dup2\n      dup2\n      mstore\n      0x20\n      add\n      dup3\n      dup1\n      sload\n      tag_277\n      swap1\n      tag_180\n      jump\t// in\n    tag_277:\n      dup1\n      iszero\n      tag_278\n      jumpi\n      dup1\n      0x1f\n      lt\n      tag_279\n      jumpi\n      0x0100\n      dup1\n      dup4\n      sload\n      div\n      mul\n      dup4\n      mstore\n      swap2\n      0x20\n      add\n      swap2\n      jump(tag_278)\n    tag_279:\n      dup3\n      add\n      swap2\n      swap1\n      0x00\n      mstore\n      keccak256(0x00, 0x20)\n      swap1\n    tag_280:\n      dup2\n      sload\n      dup2\n      mstore\n      swap1\n      0x01\n      add\n      swap1\n      0x20\n      add\n      dup1\n      dup4\n      gt\n      tag_280\n      jumpi\n      dup3\n      swap1\n      sub\n      0x1f\n      and\n      dup3\n      add\n      swap2\n    tag_278:\n      pop\n      pop\n      pop\n      pop\n      pop\n      swap1\n      dup1\n      0x02\n      add\n      0x00\n      swap1\n      sload\n      swap1\n      0x0100\n      exp\n      swap1\n      div\n      0xff\n      and\n      swap1\n      dup1\n      0x03\n      add\n      sload\n      swap1\n      dup1\n      0x04\n      add\n      sload\n      swap1\n      dup1\n      0x05\n      add\n      sload\n      swap1\n      pop\n      dup7\n      jump\t// out\n        /* \"contracts/moonx.sol\":5080:5605  function claimStudentReward(uint256 _courseId) external payable whenNotPaused collectTX {... */\n    tag_108:\n        /* \"@openzeppelin/contracts/security/Pausable.sol\":1239:1258  _requireNotPaused() */\n      tag_282\n        /* \"@openzeppelin/contracts/security/Pausable.sol\":1239:1256  _requireNotPaused */\n      tag_229\n        /* \"@openzeppelin/contracts/security/Pausable.sol\":1239:1258  _requireNotPaused() */\n      jump\t// in\n    tag_282:\n        /* \"contracts/moonx.sol\":739:749  0.75 ether */\n      0x0a688906bd8b0000\n        /* \"contracts/moonx.sol\":2427:2436  msg.value */\n      callvalue\n        /* \"contracts/moonx.sol\":2427:2450  msg.value >= platformTX */\n      lt\n      iszero\n        /* \"contracts/moonx.sol\":2419:2475  require(msg.value >= platformTX, \"Insufficient gas fee\") */\n      tag_284\n      jumpi\n      mload(0x40)\n      0x08c379a000000000000000000000000000000000000000000000000000000000\n      dup2\n      mstore\n      0x04\n      add\n      tag_285\n      swap1\n      tag_233\n      jump\t// in\n    tag_285:\n      mload(0x40)\n      dup1\n      swap2\n      sub\n      swap1\n      revert\n    tag_284:\n        /* \"contracts/moonx.sol\":739:749  0.75 ether */\n      0x0a688906bd8b0000\n        /* \"contracts/moonx.sol\":2485:2500  accumulatedFees */\n      0x02\n      0x00\n        /* \"contracts/moonx.sol\":2485:2514  accumulatedFees += platformTX */\n      dup3\n      dup3\n      sload\n      tag_286\n      swap2\n      swap1\n      tag_222\n      jump\t// in\n    tag_286:\n      swap3\n      pop\n      pop\n      dup2\n      swap1\n      sstore\n      pop\n        /* \"contracts/moonx.sol\":2524:2538  uint256 excess */\n      0x00\n        /* \"contracts/moonx.sol\":739:749  0.75 ether */\n      0x0a688906bd8b0000\n        /* \"contracts/moonx.sol\":2541:2550  msg.value */\n      callvalue\n        /* \"contracts/moonx.sol\":2541:2563  msg.value - platformTX */\n      tag_287\n      swap2\n      swap1\n      tag_236\n      jump\t// in\n    tag_287:\n        /* \"contracts/moonx.sol\":2524:2563  uint256 excess = msg.value - platformTX */\n      swap1\n      pop\n        /* \"contracts/moonx.sol\":2586:2587  0 */\n      0x00\n        /* \"contracts/moonx.sol\":2577:2583  excess */\n      dup2\n        /* \"contracts/moonx.sol\":2577:2587  excess > 0 */\n      gt\n        /* \"contracts/moonx.sol\":2573:2650  if (excess > 0) {... */\n      iszero\n      tag_288\n      jumpi\n        /* \"contracts/moonx.sol\":2611:2621  msg.sender */\n      caller\n        /* \"contracts/moonx.sol\":2603:2631  payable(msg.sender).transfer */\n      0xffffffffffffffffffffffffffffffffffffffff\n      and\n        /* \"contracts/moonx.sol\":2603:2639  payable(msg.sender).transfer(excess) */\n      0x08fc\n        /* \"contracts/moonx.sol\":2632:2638  excess */\n      dup3\n        /* \"contracts/moonx.sol\":2603:2639  payable(msg.sender).transfer(excess) */\n      swap1\n      dup2\n      iszero\n      mul\n      swap1\n      mload(0x40)\n      0x00\n      mload(0x40)\n      dup1\n      dup4\n      sub\n      dup2\n      dup6\n      dup9\n      dup9\n      call\n      swap4\n      pop\n      pop\n      pop\n      pop\n      iszero\n      dup1\n      iszero\n      tag_290\n      jumpi\n      returndatasize\n      0x00\n      dup1\n      returndatacopy\n      revert(0x00, returndatasize)\n    tag_290:\n      pop\n        /* \"contracts/moonx.sol\":2573:2650  if (excess > 0) {... */\n    tag_288:\n        /* \"contracts/moonx.sol\":5178:5207  Enrollment storage enrollment */\n      0x00\n        /* \"contracts/moonx.sol\":5210:5221  enrollments */\n      0x04\n        /* \"contracts/moonx.sol\":5210:5233  enrollments[msg.sender] */\n      0x00\n        /* \"contracts/moonx.sol\":5222:5232  msg.sender */\n      caller\n        /* \"contracts/moonx.sol\":5210:5233  enrollments[msg.sender] */\n      0xffffffffffffffffffffffffffffffffffffffff\n      and\n      0xffffffffffffffffffffffffffffffffffffffff\n      and\n      dup2\n      mstore\n      0x20\n      add\n      swap1\n      dup2\n      mstore\n      0x20\n      add\n      0x00\n      keccak256\n        /* \"contracts/moonx.sol\":5210:5244  enrollments[msg.sender][_courseId] */\n      0x00\n        /* \"contracts/moonx.sol\":5234:5243  _courseId */\n      dup5\n        /* \"contracts/moonx.sol\":5210:5244  enrollments[msg.sender][_courseId] */\n      dup2\n      mstore\n      0x20\n      add\n      swap1\n      dup2\n      mstore\n      0x20\n      add\n      0x00\n      keccak256\n        /* \"contracts/moonx.sol\":5178:5244  Enrollment storage enrollment = enrollments[msg.sender][_courseId] */\n      swap1\n      pop\n        /* \"contracts/moonx.sol\":5287:5288  0 */\n      0x00\n        /* \"contracts/moonx.sol\":5262:5272  enrollment */\n      dup2\n        /* \"contracts/moonx.sol\":5262:5284  enrollment.quizBalance */\n      0x01\n      add\n      sload\n        /* \"contracts/moonx.sol\":5262:5288  enrollment.quizBalance > 0 */\n      gt\n        /* \"contracts/moonx.sol\":5254:5312  require(enrollment.quizBalance > 0, \"No rewards to claim\") */\n      tag_292\n      jumpi\n      mload(0x40)\n      0x08c379a000000000000000000000000000000000000000000000000000000000\n      dup2\n      mstore\n      0x04\n      add\n      tag_293\n      swap1\n      tag_294\n      jump\t// in\n    tag_293:\n      mload(0x40)\n      dup1\n      swap2\n      sub\n      swap1\n      revert\n    tag_292:\n        /* \"contracts/moonx.sol\":5323:5343  uint256 rewardAmount */\n      0x00\n        /* \"contracts/moonx.sol\":5346:5356  enrollment */\n      dup2\n        /* \"contracts/moonx.sol\":5346:5368  enrollment.quizBalance */\n      0x01\n      add\n      sload\n        /* \"contracts/moonx.sol\":5323:5368  uint256 rewardAmount = enrollment.quizBalance */\n      swap1\n      pop\n        /* \"contracts/moonx.sol\":5403:5404  0 */\n      0x00\n        /* \"contracts/moonx.sol\":5378:5388  enrollment */\n      dup3\n        /* \"contracts/moonx.sol\":5378:5400  enrollment.quizBalance */\n      0x01\n      add\n        /* \"contracts/moonx.sol\":5378:5404  enrollment.quizBalance = 0 */\n      dup2\n      swap1\n      sstore\n      pop\n        /* \"contracts/moonx.sol\":5416:5428  bool success */\n      0x00\n        /* \"contracts/moonx.sol\":5442:5452  msg.sender */\n      caller\n        /* \"contracts/moonx.sol\":5434:5458  payable(msg.sender).call */\n      0xffffffffffffffffffffffffffffffffffffffff\n      and\n        /* \"contracts/moonx.sol\":5466:5478  rewardAmount */\n      dup3\n        /* \"contracts/moonx.sol\":5434:5483  payable(msg.sender).call{value: rewardAmount}(\"\") */\n      mload(0x40)\n      tag_295\n      swap1\n      tag_158\n      jump\t// in\n    tag_295:\n      0x00\n      mload(0x40)\n      dup1\n      dup4\n      sub\n      dup2\n      dup6\n      dup8\n      gas\n      call\n      swap3\n      pop\n      pop\n      pop\n      returndatasize\n      dup1\n      0x00\n      dup2\n      eq\n      tag_298\n      jumpi\n      mload(0x40)\n      swap2\n      pop\n      and(add(returndatasize, 0x3f), not(0x1f))\n      dup3\n      add\n      0x40\n      mstore\n      returndatasize\n      dup3\n      mstore\n      returndatasize\n      0x00\n      0x20\n      dup5\n      add\n      returndatacopy\n      jump(tag_297)\n    tag_298:\n      0x60\n      swap2\n      pop\n    tag_297:\n      pop\n        /* \"contracts/moonx.sol\":5415:5483  (bool success, ) = payable(msg.sender).call{value: rewardAmount}(\"\") */\n      pop\n      swap1\n      pop\n        /* \"contracts/moonx.sol\":5501:5508  success */\n      dup1\n        /* \"contracts/moonx.sol\":5493:5532  require(success, \"Failed to send MAND\") */\n      tag_299\n      jumpi\n      mload(0x40)\n      0x08c379a000000000000000000000000000000000000000000000000000000000\n      dup2\n      mstore\n      0x04\n      add\n      tag_300\n      swap1\n      tag_301\n      jump\t// in\n    tag_300:\n      mload(0x40)\n      dup1\n      swap2\n      sub\n      swap1\n      revert\n    tag_299:\n        /* \"contracts/moonx.sol\":5573:5583  msg.sender */\n      caller\n        /* \"contracts/moonx.sol\":5548:5598  RewardClaimed(_courseId, msg.sender, rewardAmount) */\n      0xffffffffffffffffffffffffffffffffffffffff\n      and\n        /* \"contracts/moonx.sol\":5562:5571  _courseId */\n      dup6\n        /* \"contracts/moonx.sol\":5548:5598  RewardClaimed(_courseId, msg.sender, rewardAmount) */\n      0x24b5efa61dd1cfc659205a97fb8ed868f3cb8c81922bab2b96423e5de1de2cb7\n        /* \"contracts/moonx.sol\":5585:5597  rewardAmount */\n      dup5\n        /* \"contracts/moonx.sol\":5548:5598  RewardClaimed(_courseId, msg.sender, rewardAmount) */\n      mload(0x40)\n      tag_302\n      swap2\n      swap1\n      tag_50\n      jump\t// in\n    tag_302:\n      mload(0x40)\n      dup1\n      swap2\n      sub\n      swap1\n      log3\n        /* \"contracts/moonx.sol\":5168:5605  {... */\n      pop\n      pop\n      pop\n        /* \"contracts/moonx.sol\":2409:2667  {... */\n      pop\n        /* \"contracts/moonx.sol\":5080:5605  function claimStudentReward(uint256 _courseId) external payable whenNotPaused collectTX {... */\n      pop\n      jump\t// out\n        /* \"contracts/moonx.sol\":478:520  uint256 public constant POST_THRESHOLD = 5 */\n    tag_111:\n        /* \"contracts/moonx.sol\":519:520  5 */\n      0x05\n        /* \"contracts/moonx.sol\":478:520  uint256 public constant POST_THRESHOLD = 5 */\n      dup2\n      jump\t// out\n        /* \"contracts/moonx.sol\":428:472  uint256 public constant ENROLL_THRESHOLD = 5 */\n    tag_115:\n        /* \"contracts/moonx.sol\":471:472  5 */\n      0x05\n        /* \"contracts/moonx.sol\":428:472  uint256 public constant ENROLL_THRESHOLD = 5 */\n      dup2\n      jump\t// out\n        /* \"contracts/moonx.sol\":1477:1524  mapping(uint256 => Quiz[]) public courseQuizzes */\n    tag_121:\n      mstore(0x20, 0x05)\n      dup2\n      0x00\n      mstore\n      keccak256(0x00, 0x40)\n      dup2\n      dup2\n      sload\n      dup2\n      lt\n      tag_303\n      jumpi\n      0x00\n      dup1\n      revert\n    tag_303:\n      swap1\n      0x00\n      mstore\n      keccak256(0x00, 0x20)\n      swap1\n      0x07\n      mul\n      add\n      0x00\n      swap2\n      pop\n      swap2\n      pop\n      pop\n      dup1\n      0x00\n      add\n      sload\n      swap1\n      dup1\n      0x01\n      add\n      dup1\n      sload\n      tag_305\n      swap1\n      tag_180\n      jump\t// in\n    tag_305:\n      dup1\n      0x1f\n      add\n      0x20\n      dup1\n      swap2\n      div\n      mul\n      0x20\n      add\n      mload(0x40)\n      swap1\n      dup2\n      add\n      0x40\n      mstore\n      dup1\n      swap3\n      swap2\n      swap1\n      dup2\n      dup2\n      mstore\n      0x20\n      add\n      dup3\n      dup1\n      sload\n      tag_306\n      swap1\n      tag_180\n      jump\t// in\n    tag_306:\n      dup1\n      iszero\n      tag_307\n      jumpi\n      dup1\n      0x1f\n      lt\n      tag_308\n      jumpi\n      0x0100\n      dup1\n      dup4\n      sload\n      div\n      mul\n      dup4\n      mstore\n      swap2\n      0x20\n      add\n      swap2\n      jump(tag_307)\n    tag_308:\n      dup3\n      add\n      swap2\n      swap1\n      0x00\n      mstore\n      keccak256(0x00, 0x20)\n      swap1\n    tag_309:\n      dup2\n      sload\n      dup2\n      mstore\n      swap1\n      0x01\n      add\n      swap1\n      0x20\n      add\n      dup1\n      dup4\n      gt\n      tag_309\n      jumpi\n      dup3\n      swap1\n      sub\n      0x1f\n      and\n      dup3\n      add\n      swap2\n    tag_307:\n      pop\n      pop\n      pop\n      pop\n      pop\n      swap1\n      dup1\n      0x02\n      add\n      dup1\n      sload\n      tag_310\n      swap1\n      tag_180\n      jump\t// in\n    tag_310:\n      dup1\n      0x1f\n      add\n      0x20\n      dup1\n      swap2\n      div\n      mul\n      0x20\n      add\n      mload(0x40)\n      swap1\n      dup2\n      add\n      0x40\n      mstore\n      dup1\n      swap3\n      swap2\n      swap1\n      dup2\n      dup2\n      mstore\n      0x20\n      add\n      dup3\n      dup1\n      sload\n      tag_311\n      swap1\n      tag_180\n      jump\t// in\n    tag_311:\n      dup1\n      iszero\n      tag_312\n      jumpi\n      dup1\n      0x1f\n      lt\n      tag_313\n      jumpi\n      0x0100\n      dup1\n      dup4\n      sload\n      div\n      mul\n      dup4\n      mstore\n      swap2\n      0x20\n      add\n      swap2\n      jump(tag_312)\n    tag_313:\n      dup3\n      add\n      swap2\n      swap1\n      0x00\n      mstore\n      keccak256(0x00, 0x20)\n      swap1\n    tag_314:\n      dup2\n      sload\n      dup2\n      mstore\n      swap1\n      0x01\n      add\n      swap1\n      0x20\n      add\n      dup1\n      dup4\n      gt\n      tag_314\n      jumpi\n      dup3\n      swap1\n      sub\n      0x1f\n      and\n      dup3\n      add\n      swap2\n    tag_312:\n      pop\n      pop\n      pop\n      pop\n      pop\n      swap1\n      dup1\n      0x03\n      add\n      dup1\n      sload\n      tag_315\n      swap1\n      tag_180\n      jump\t// in\n    tag_315:\n      dup1\n      0x1f\n      add\n      0x20\n      dup1\n      swap2\n      div\n      mul\n      0x20\n      add\n      mload(0x40)\n      swap1\n      dup2\n      add\n      0x40\n      mstore\n      dup1\n      swap3\n      swap2\n      swap1\n      dup2\n      dup2\n      mstore\n      0x20\n      add\n      dup3\n      dup1\n      sload\n      tag_316\n      swap1\n      tag_180\n      jump\t// in\n    tag_316:\n      dup1\n      iszero\n      tag_317\n      jumpi\n      dup1\n      0x1f\n      lt\n      tag_318\n      jumpi\n      0x0100\n      dup1\n      dup4\n      sload\n      div\n      mul\n      dup4\n      mstore\n      swap2\n      0x20\n      add\n      swap2\n      jump(tag_317)\n    tag_318:\n      dup3\n      add\n      swap2\n      swap1\n      0x00\n      mstore\n      keccak256(0x00, 0x20)\n      swap1\n    tag_319:\n      dup2\n      sload\n      dup2\n      mstore\n      swap1\n      0x01\n      add\n      swap1\n      0x20\n      add\n      dup1\n      dup4\n      gt\n      tag_319\n      jumpi\n      dup3\n      swap1\n      sub\n      0x1f\n      and\n      dup3\n      add\n      swap2\n    tag_317:\n      pop\n      pop\n      pop\n      pop\n      pop\n      swap1\n      dup1\n      0x04\n      add\n      dup1\n      sload\n      tag_320\n      swap1\n      tag_180\n      jump\t// in\n    tag_320:\n      dup1\n      0x1f\n      add\n      0x20\n      dup1\n      swap2\n      div\n      mul\n      0x20\n      add\n      mload(0x40)\n      swap1\n      dup2\n      add\n      0x40\n      mstore\n      dup1\n      swap3\n      swap2\n      swap1\n      dup2\n      dup2\n      mstore\n      0x20\n      add\n      dup3\n      dup1\n      sload\n      tag_321\n      swap1\n      tag_180\n      jump\t// in\n    tag_321:\n      dup1\n      iszero\n      tag_322\n      jumpi\n      dup1\n      0x1f\n      lt\n      tag_323\n      jumpi\n      0x0100\n      dup1\n      dup4\n      sload\n      div\n      mul\n      dup4\n      mstore\n      swap2\n      0x20\n      add\n      swap2\n      jump(tag_322)\n    tag_323:\n      dup3\n      add\n      swap2\n      swap1\n      0x00\n      mstore\n      keccak256(0x00, 0x20)\n      swap1\n    tag_324:\n      dup2\n      sload\n      dup2\n      mstore\n      swap1\n      0x01\n      add\n      swap1\n      0x20\n      add\n      dup1\n      dup4\n      gt\n      tag_324\n      jumpi\n      dup3\n      swap1\n      sub\n      0x1f\n      and\n      dup3\n      add\n      swap2\n    tag_322:\n      pop\n      pop\n      pop\n      pop\n      pop\n      swap1\n      dup1\n      0x05\n      add\n      dup1\n      sload\n      tag_325\n      swap1\n      tag_180\n      jump\t// in\n    tag_325:\n      dup1\n      0x1f\n      add\n      0x20\n      dup1\n      swap2\n      div\n      mul\n      0x20\n      add\n      mload(0x40)\n      swap1\n      dup2\n      add\n      0x40\n      mstore\n      dup1\n      swap3\n      swap2\n      swap1\n      dup2\n      dup2\n      mstore\n      0x20\n      add\n      dup3\n      dup1\n      sload\n      tag_326\n      swap1\n      tag_180\n      jump\t// in\n    tag_326:\n      dup1\n      iszero\n      tag_327\n      jumpi\n      dup1\n      0x1f\n      lt\n      tag_328\n      jumpi\n      0x0100\n      dup1\n      dup4\n      sload\n      div\n      mul\n      dup4\n      mstore\n      swap2\n      0x20\n      add\n      swap2\n      jump(tag_327)\n    tag_328:\n      dup3\n      add\n      swap2\n      swap1\n      0x00\n      mstore\n      keccak256(0x00, 0x20)\n      swap1\n    tag_329:\n      dup2\n      sload\n      dup2\n      mstore\n      swap1\n      0x01\n      add\n      swap1\n      0x20\n      add\n      dup1\n      dup4\n      gt\n      tag_329\n      jumpi\n      dup3\n      swap1\n      sub\n      0x1f\n      and\n      dup3\n      add\n      swap2\n    tag_327:\n      pop\n      pop\n      pop\n      pop\n      pop\n      swap1\n      dup1\n      0x06\n      add\n      sload\n      swap1\n      pop\n      dup8\n      jump\t// out\n        /* \"contracts/moonx.sol\":5611:6203  function claimCreatorReward(uint256 _courseId) external payable whenNotPaused collectTX {... */\n    tag_126:\n        /* \"@openzeppelin/contracts/security/Pausable.sol\":1239:1258  _requireNotPaused() */\n      tag_331\n        /* \"@openzeppelin/contracts/security/Pausable.sol\":1239:1256  _requireNotPaused */\n      tag_229\n        /* \"@openzeppelin/contracts/security/Pausable.sol\":1239:1258  _requireNotPaused() */\n      jump\t// in\n    tag_331:\n        /* \"contracts/moonx.sol\":739:749  0.75 ether */\n      0x0a688906bd8b0000\n        /* \"contracts/moonx.sol\":2427:2436  msg.value */\n      callvalue\n        /* \"contracts/moonx.sol\":2427:2450  msg.value >= platformTX */\n      lt\n      iszero\n        /* \"contracts/moonx.sol\":2419:2475  require(msg.value >= platformTX, \"Insufficient gas fee\") */\n      tag_333\n      jumpi\n      mload(0x40)\n      0x08c379a000000000000000000000000000000000000000000000000000000000\n      dup2\n      mstore\n      0x04\n      add\n      tag_334\n      swap1\n      tag_233\n      jump\t// in\n    tag_334:\n      mload(0x40)\n      dup1\n      swap2\n      sub\n      swap1\n      revert\n    tag_333:\n        /* \"contracts/moonx.sol\":739:749  0.75 ether */\n      0x0a688906bd8b0000\n        /* \"contracts/moonx.sol\":2485:2500  accumulatedFees */\n      0x02\n      0x00\n        /* \"contracts/moonx.sol\":2485:2514  accumulatedFees += platformTX */\n      dup3\n      dup3\n      sload\n      tag_335\n      swap2\n      swap1\n      tag_222\n      jump\t// in\n    tag_335:\n      swap3\n      pop\n      pop\n      dup2\n      swap1\n      sstore\n      pop\n        /* \"contracts/moonx.sol\":2524:2538  uint256 excess */\n      0x00\n        /* \"contracts/moonx.sol\":739:749  0.75 ether */\n      0x0a688906bd8b0000\n        /* \"contracts/moonx.sol\":2541:2550  msg.value */\n      callvalue\n        /* \"contracts/moonx.sol\":2541:2563  msg.value - platformTX */\n      tag_336\n      swap2\n      swap1\n      tag_236\n      jump\t// in\n    tag_336:\n        /* \"contracts/moonx.sol\":2524:2563  uint256 excess = msg.value - platformTX */\n      swap1\n      pop\n        /* \"contracts/moonx.sol\":2586:2587  0 */\n      0x00\n        /* \"contracts/moonx.sol\":2577:2583  excess */\n      dup2\n        /* \"contracts/moonx.sol\":2577:2587  excess > 0 */\n      gt\n        /* \"contracts/moonx.sol\":2573:2650  if (excess > 0) {... */\n      iszero\n      tag_337\n      jumpi\n        /* \"contracts/moonx.sol\":2611:2621  msg.sender */\n      caller\n        /* \"contracts/moonx.sol\":2603:2631  payable(msg.sender).transfer */\n      0xffffffffffffffffffffffffffffffffffffffff\n      and\n        /* \"contracts/moonx.sol\":2603:2639  payable(msg.sender).transfer(excess) */\n      0x08fc\n        /* \"contracts/moonx.sol\":2632:2638  excess */\n      dup3\n        /* \"contracts/moonx.sol\":2603:2639  payable(msg.sender).transfer(excess) */\n      swap1\n      dup2\n      iszero\n      mul\n      swap1\n      mload(0x40)\n      0x00\n      mload(0x40)\n      dup1\n      dup4\n      sub\n      dup2\n      dup6\n      dup9\n      dup9\n      call\n      swap4\n      pop\n      pop\n      pop\n      pop\n      iszero\n      dup1\n      iszero\n      tag_339\n      jumpi\n      returndatasize\n      0x00\n      dup1\n      returndatacopy\n      revert(0x00, returndatasize)\n    tag_339:\n      pop\n        /* \"contracts/moonx.sol\":2573:2650  if (excess > 0) {... */\n    tag_337:\n        /* \"contracts/moonx.sol\":5709:5730  Course storage course */\n      0x00\n        /* \"contracts/moonx.sol\":5733:5740  courses */\n      0x03\n        /* \"contracts/moonx.sol\":5733:5751  courses[_courseId] */\n      0x00\n        /* \"contracts/moonx.sol\":5741:5750  _courseId */\n      dup5\n        /* \"contracts/moonx.sol\":5733:5751  courses[_courseId] */\n      dup2\n      mstore\n      0x20\n      add\n      swap1\n      dup2\n      mstore\n      0x20\n      add\n      0x00\n      keccak256\n        /* \"contracts/moonx.sol\":5709:5751  Course storage course = courses[_courseId] */\n      swap1\n      pop\n        /* \"contracts/moonx.sol\":5783:5789  course */\n      dup1\n        /* \"contracts/moonx.sol\":5783:5797  course.creator */\n      0x00\n      add\n      0x00\n      swap1\n      sload\n      swap1\n      0x0100\n      exp\n      swap1\n      div\n      0xffffffffffffffffffffffffffffffffffffffff\n      and\n        /* \"contracts/moonx.sol\":5769:5797  msg.sender == course.creator */\n      0xffffffffffffffffffffffffffffffffffffffff\n      and\n        /* \"contracts/moonx.sol\":5769:5779  msg.sender */\n      caller\n        /* \"contracts/moonx.sol\":5769:5797  msg.sender == course.creator */\n      0xffffffffffffffffffffffffffffffffffffffff\n      and\n      eq\n        /* \"contracts/moonx.sol\":5761:5838  require(msg.sender == course.creator, \"Only course creator can claim reward\") */\n      tag_341\n      jumpi\n      mload(0x40)\n      0x08c379a000000000000000000000000000000000000000000000000000000000\n      dup2\n      mstore\n      0x04\n      add\n      tag_342\n      swap1\n      tag_343\n      jump\t// in\n    tag_342:\n      mload(0x40)\n      dup1\n      swap2\n      sub\n      swap1\n      revert\n    tag_341:\n        /* \"contracts/moonx.sol\":5880:5881  0 */\n      0x00\n        /* \"contracts/moonx.sol\":5856:5862  course */\n      dup2\n        /* \"contracts/moonx.sol\":5856:5877  course.creatorBalance */\n      0x04\n      add\n      sload\n        /* \"contracts/moonx.sol\":5856:5881  course.creatorBalance > 0 */\n      gt\n        /* \"contracts/moonx.sol\":5848:5905  require(course.creatorBalance > 0, \"No rewards to claim\") */\n      tag_344\n      jumpi\n      mload(0x40)\n      0x08c379a000000000000000000000000000000000000000000000000000000000\n      dup2\n      mstore\n      0x04\n      add\n      tag_345\n      swap1\n      tag_294\n      jump\t// in\n    tag_345:\n      mload(0x40)\n      dup1\n      swap2\n      sub\n      swap1\n      revert\n    tag_344:\n        /* \"contracts/moonx.sol\":5916:5936  uint256 rewardAmount */\n      0x00\n        /* \"contracts/moonx.sol\":5939:5945  course */\n      dup2\n        /* \"contracts/moonx.sol\":5939:5960  course.creatorBalance */\n      0x04\n      add\n      sload\n        /* \"contracts/moonx.sol\":5916:5960  uint256 rewardAmount = course.creatorBalance */\n      swap1\n      pop\n        /* \"contracts/moonx.sol\":5994:5995  0 */\n      0x00\n        /* \"contracts/moonx.sol\":5970:5976  course */\n      dup3\n        /* \"contracts/moonx.sol\":5970:5991  course.creatorBalance */\n      0x04\n      add\n        /* \"contracts/moonx.sol\":5970:5995  course.creatorBalance = 0 */\n      dup2\n      swap1\n      sstore\n      pop\n        /* \"contracts/moonx.sol\":6007:6019  bool success */\n      0x00\n        /* \"contracts/moonx.sol\":6033:6043  msg.sender */\n      caller\n        /* \"contracts/moonx.sol\":6025:6049  payable(msg.sender).call */\n      0xffffffffffffffffffffffffffffffffffffffff\n      and\n        /* \"contracts/moonx.sol\":6057:6069  rewardAmount */\n      dup3\n        /* \"contracts/moonx.sol\":6025:6074  payable(msg.sender).call{value: rewardAmount}(\"\") */\n      mload(0x40)\n      tag_346\n      swap1\n      tag_158\n      jump\t// in\n    tag_346:\n      0x00\n      mload(0x40)\n      dup1\n      dup4\n      sub\n      dup2\n      dup6\n      dup8\n      gas\n      call\n      swap3\n      pop\n      pop\n      pop\n      returndatasize\n      dup1\n      0x00\n      dup2\n      eq\n      tag_349\n      jumpi\n      mload(0x40)\n      swap2\n      pop\n      and(add(returndatasize, 0x3f), not(0x1f))\n      dup3\n      add\n      0x40\n      mstore\n      returndatasize\n      dup3\n      mstore\n      returndatasize\n      0x00\n      0x20\n      dup5\n      add\n      returndatacopy\n      jump(tag_348)\n    tag_349:\n      0x60\n      swap2\n      pop\n    tag_348:\n      pop\n        /* \"contracts/moonx.sol\":6006:6074  (bool success, ) = payable(msg.sender).call{value: rewardAmount}(\"\") */\n      pop\n      swap1\n      pop\n        /* \"contracts/moonx.sol\":6092:6099  success */\n      dup1\n        /* \"contracts/moonx.sol\":6084:6123  require(success, \"Failed to send MAND\") */\n      tag_350\n      jumpi\n      mload(0x40)\n      0x08c379a000000000000000000000000000000000000000000000000000000000\n      dup2\n      mstore\n      0x04\n      add\n      tag_351\n      swap1\n      tag_301\n      jump\t// in\n    tag_351:\n      mload(0x40)\n      dup1\n      swap2\n      sub\n      swap1\n      revert\n    tag_350:\n        /* \"contracts/moonx.sol\":6171:6181  msg.sender */\n      caller\n        /* \"contracts/moonx.sol\":6139:6196  CreatorRewardClaimed(_courseId, msg.sender, rewardAmount) */\n      0xffffffffffffffffffffffffffffffffffffffff\n      and\n        /* \"contracts/moonx.sol\":6160:6169  _courseId */\n      dup6\n        /* \"contracts/moonx.sol\":6139:6196  CreatorRewardClaimed(_courseId, msg.sender, rewardAmount) */\n      0xb67da43f4cc061f251c05601f44947d1be59a7ef5451a4a5230274da04f88246\n        /* \"contracts/moonx.sol\":6183:6195  rewardAmount */\n      dup5\n        /* \"contracts/moonx.sol\":6139:6196  CreatorRewardClaimed(_courseId, msg.sender, rewardAmount) */\n      mload(0x40)\n      tag_352\n      swap2\n      swap1\n      tag_50\n      jump\t// in\n    tag_352:\n      mload(0x40)\n      dup1\n      swap2\n      sub\n      swap1\n      log3\n        /* \"contracts/moonx.sol\":5699:6203  {... */\n      pop\n      pop\n      pop\n        /* \"contracts/moonx.sol\":2409:2667  {... */\n      pop\n        /* \"contracts/moonx.sol\":5611:6203  function claimCreatorReward(uint256 _courseId) external payable whenNotPaused collectTX {... */\n      pop\n      jump\t// out\n        /* \"contracts/moonx.sol\":606:661  uint256 public constant CREATOR_REWARD_AMOUNT = 1 ether */\n    tag_129:\n        /* \"contracts/moonx.sol\":654:661  1 ether */\n      0x0de0b6b3a7640000\n        /* \"contracts/moonx.sol\":606:661  uint256 public constant CREATOR_REWARD_AMOUNT = 1 ether */\n      dup2\n      jump\t// out\n        /* \"contracts/moonx.sol\":379:422  uint256 public constant WATCH_THRESHOLD = 0 */\n    tag_133:\n        /* \"contracts/moonx.sol\":421:422  0 */\n      0x00\n        /* \"contracts/moonx.sol\":379:422  uint256 public constant WATCH_THRESHOLD = 0 */\n      dup2\n      jump\t// out\n        /* \"contracts/moonx.sol\":2673:3226  function createCourse(string memory _metadataURI, Quiz[] memory _quizzes) external payable whenNotPaused collectTX {... */\n    tag_138:\n        /* \"@openzeppelin/contracts/security/Pausable.sol\":1239:1258  _requireNotPaused() */\n      tag_354\n        /* \"@openzeppelin/contracts/security/Pausable.sol\":1239:1256  _requireNotPaused */\n      tag_229\n        /* \"@openzeppelin/contracts/security/Pausable.sol\":1239:1258  _requireNotPaused() */\n      jump\t// in\n    tag_354:\n        /* \"contracts/moonx.sol\":739:749  0.75 ether */\n      0x0a688906bd8b0000\n        /* \"contracts/moonx.sol\":2427:2436  msg.value */\n      callvalue\n        /* \"contracts/moonx.sol\":2427:2450  msg.value >= platformTX */\n      lt\n      iszero\n        /* \"contracts/moonx.sol\":2419:2475  require(msg.value >= platformTX, \"Insufficient gas fee\") */\n      tag_356\n      jumpi\n      mload(0x40)\n      0x08c379a000000000000000000000000000000000000000000000000000000000\n      dup2\n      mstore\n      0x04\n      add\n      tag_357\n      swap1\n      tag_233\n      jump\t// in\n    tag_357:\n      mload(0x40)\n      dup1\n      swap2\n      sub\n      swap1\n      revert\n    tag_356:\n        /* \"contracts/moonx.sol\":739:749  0.75 ether */\n      0x0a688906bd8b0000\n        /* \"contracts/moonx.sol\":2485:2500  accumulatedFees */\n      0x02\n      0x00\n        /* \"contracts/moonx.sol\":2485:2514  accumulatedFees += platformTX */\n      dup3\n      dup3\n      sload\n      tag_358\n      swap2\n      swap1\n      tag_222\n      jump\t// in\n    tag_358:\n      swap3\n      pop\n      pop\n      dup2\n      swap1\n      sstore\n      pop\n        /* \"contracts/moonx.sol\":2524:2538  uint256 excess */\n      0x00\n        /* \"contracts/moonx.sol\":739:749  0.75 ether */\n      0x0a688906bd8b0000\n        /* \"contracts/moonx.sol\":2541:2550  msg.value */\n      callvalue\n        /* \"contracts/moonx.sol\":2541:2563  msg.value - platformTX */\n      tag_359\n      swap2\n      swap1\n      tag_236\n      jump\t// in\n    tag_359:\n        /* \"contracts/moonx.sol\":2524:2563  uint256 excess = msg.value - platformTX */\n      swap1\n      pop\n        /* \"contracts/moonx.sol\":2586:2587  0 */\n      0x00\n        /* \"contracts/moonx.sol\":2577:2583  excess */\n      dup2\n        /* \"contracts/moonx.sol\":2577:2587  excess > 0 */\n      gt\n        /* \"contracts/moonx.sol\":2573:2650  if (excess > 0) {... */\n      iszero\n      tag_360\n      jumpi\n        /* \"contracts/moonx.sol\":2611:2621  msg.sender */\n      caller\n        /* \"contracts/moonx.sol\":2603:2631  payable(msg.sender).transfer */\n      0xffffffffffffffffffffffffffffffffffffffff\n      and\n        /* \"contracts/moonx.sol\":2603:2639  payable(msg.sender).transfer(excess) */\n      0x08fc\n        /* \"contracts/moonx.sol\":2632:2638  excess */\n      dup3\n        /* \"contracts/moonx.sol\":2603:2639  payable(msg.sender).transfer(excess) */\n      swap1\n      dup2\n      iszero\n      mul\n      swap1\n      mload(0x40)\n      0x00\n      mload(0x40)\n      dup1\n      dup4\n      sub\n      dup2\n      dup6\n      dup9\n      dup9\n      call\n      swap4\n      pop\n      pop\n      pop\n      pop\n      iszero\n      dup1\n      iszero\n      tag_362\n      jumpi\n      returndatasize\n      0x00\n      dup1\n      returndatacopy\n      revert(0x00, returndatasize)\n    tag_362:\n      pop\n        /* \"contracts/moonx.sol\":2573:2650  if (excess > 0) {... */\n    tag_360:\n        /* \"contracts/moonx.sol\":519:520  5 */\n      0x05\n        /* \"contracts/moonx.sol\":2806:2824  reputationContract */\n      0x01\n      0x00\n      swap1\n      sload\n      swap1\n      0x0100\n      exp\n      swap1\n      div\n      0xffffffffffffffffffffffffffffffffffffffff\n      and\n        /* \"contracts/moonx.sol\":2806:2835  reputationContract.reputation */\n      0xffffffffffffffffffffffffffffffffffffffff\n      and\n      0xb9f79451\n        /* \"contracts/moonx.sol\":2836:2846  msg.sender */\n      caller\n        /* \"contracts/moonx.sol\":2806:2847  reputationContract.reputation(msg.sender) */\n      mload(0x40)\n      dup3\n      0xffffffff\n      and\n      0xe0\n      shl\n      dup2\n      mstore\n      0x04\n      add\n      tag_364\n      swap2\n      swap1\n      tag_94\n      jump\t// in\n    tag_364:\n      0x20\n      mload(0x40)\n      dup1\n      dup4\n      sub\n      dup2\n      dup7\n      gas\n      staticcall\n      iszero\n      dup1\n      iszero\n      tag_366\n      jumpi\n      returndatasize\n      0x00\n      dup1\n      returndatacopy\n      revert(0x00, returndatasize)\n    tag_366:\n      pop\n      pop\n      pop\n      pop\n      mload(0x40)\n      returndatasize\n      not(0x1f)\n      0x1f\n      dup3\n      add\n      and\n      dup3\n      add\n      dup1\n      0x40\n      mstore\n      pop\n      dup2\n      add\n      swap1\n      tag_367\n      swap2\n      swap1\n      tag_245\n      jump\t// in\n    tag_367:\n        /* \"contracts/moonx.sol\":2806:2865  reputationContract.reputation(msg.sender) >= POST_THRESHOLD */\n      lt\n      iszero\n        /* \"contracts/moonx.sol\":2798:2910  require(reputationContract.reputation(msg.sender) >= POST_THRESHOLD, \"Insufficient reputation to create course\") */\n      tag_368\n      jumpi\n      mload(0x40)\n      0x08c379a000000000000000000000000000000000000000000000000000000000\n      dup2\n      mstore\n      0x04\n      add\n      tag_369\n      swap1\n      tag_370\n      jump\t// in\n    tag_369:\n      mload(0x40)\n      dup1\n      swap2\n      sub\n      swap1\n      revert\n    tag_368:\n        /* \"contracts/moonx.sol\":2920:2936  uint256 courseId */\n      0x00\n        /* \"contracts/moonx.sol\":2939:2950  courseCount */\n      0x06\n      0x00\n        /* \"contracts/moonx.sol\":2939:2952  courseCount++ */\n      dup2\n      sload\n      dup1\n      swap3\n      swap2\n      swap1\n      tag_371\n      swap1\n      tag_224\n      jump\t// in\n    tag_371:\n      swap2\n      swap1\n      pop\n      sstore\n        /* \"contracts/moonx.sol\":2920:2952  uint256 courseId = courseCount++ */\n      swap1\n      pop\n        /* \"contracts/moonx.sol\":2982:3030  Course(msg.sender, _metadataURI, false, 0, 0, 0) */\n      mload(0x40)\n      dup1\n      0xc0\n      add\n      0x40\n      mstore\n      dup1\n        /* \"contracts/moonx.sol\":2989:2999  msg.sender */\n      caller\n        /* \"contracts/moonx.sol\":2982:3030  Course(msg.sender, _metadataURI, false, 0, 0, 0) */\n      0xffffffffffffffffffffffffffffffffffffffff\n      and\n      dup2\n      mstore\n      0x20\n      add\n        /* \"contracts/moonx.sol\":3001:3013  _metadataURI */\n      dup6\n        /* \"contracts/moonx.sol\":2982:3030  Course(msg.sender, _metadataURI, false, 0, 0, 0) */\n      dup2\n      mstore\n      0x20\n      add\n        /* \"contracts/moonx.sol\":3015:3020  false */\n      0x00\n        /* \"contracts/moonx.sol\":2982:3030  Course(msg.sender, _metadataURI, false, 0, 0, 0) */\n      iszero\n      iszero\n      dup2\n      mstore\n      0x20\n      add\n        /* \"contracts/moonx.sol\":3022:3023  0 */\n      0x00\n        /* \"contracts/moonx.sol\":2982:3030  Course(msg.sender, _metadataURI, false, 0, 0, 0) */\n      dup2\n      mstore\n      0x20\n      add\n        /* \"contracts/moonx.sol\":3025:3026  0 */\n      0x00\n        /* \"contracts/moonx.sol\":2982:3030  Course(msg.sender, _metadataURI, false, 0, 0, 0) */\n      dup2\n      mstore\n      0x20\n      add\n        /* \"contracts/moonx.sol\":3028:3029  0 */\n      0x00\n        /* \"contracts/moonx.sol\":2982:3030  Course(msg.sender, _metadataURI, false, 0, 0, 0) */\n      dup2\n      mstore\n      pop\n        /* \"contracts/moonx.sol\":2962:2969  courses */\n      0x03\n        /* \"contracts/moonx.sol\":2962:2979  courses[courseId] */\n      0x00\n        /* \"contracts/moonx.sol\":2970:2978  courseId */\n      dup4\n        /* \"contracts/moonx.sol\":2962:2979  courses[courseId] */\n      dup2\n      mstore\n      0x20\n      add\n      swap1\n      dup2\n      mstore\n      0x20\n      add\n      0x00\n      keccak256\n        /* \"contracts/moonx.sol\":2962:3030  courses[courseId] = Course(msg.sender, _metadataURI, false, 0, 0, 0) */\n      0x00\n      dup3\n      add\n      mload\n      dup2\n      0x00\n      add\n      exp(0x0100, 0x00)\n      dup2\n      sload\n      dup2\n      0xffffffffffffffffffffffffffffffffffffffff\n      mul\n      not\n      and\n      swap1\n      dup4\n      0xffffffffffffffffffffffffffffffffffffffff\n      and\n      mul\n      or\n      swap1\n      sstore\n      pop\n      0x20\n      dup3\n      add\n      mload\n      dup2\n      0x01\n      add\n      swap1\n      dup2\n      tag_372\n      swap2\n      swap1\n      tag_373\n      jump\t// in\n    tag_372:\n      pop\n      0x40\n      dup3\n      add\n      mload\n      dup2\n      0x02\n      add\n      exp(0x0100, 0x00)\n      dup2\n      sload\n      dup2\n      0xff\n      mul\n      not\n      and\n      swap1\n      dup4\n      iszero\n      iszero\n      mul\n      or\n      swap1\n      sstore\n      pop\n      0x60\n      dup3\n      add\n      mload\n      dup2\n      0x03\n      add\n      sstore\n      0x80\n      dup3\n      add\n      mload\n      dup2\n      0x04\n      add\n      sstore\n      0xa0\n      dup3\n      add\n      mload\n      dup2\n      0x05\n      add\n      sstore\n      swap1\n      pop\n      pop\n        /* \"contracts/moonx.sol\":3054:3063  uint256 i */\n      0x00\n        /* \"contracts/moonx.sol\":3049:3161  for (uint256 i = 0; i < _quizzes.length; i++) {... */\n    tag_374:\n        /* \"contracts/moonx.sol\":3073:3081  _quizzes */\n      dup4\n        /* \"contracts/moonx.sol\":3073:3088  _quizzes.length */\n      mload\n        /* \"contracts/moonx.sol\":3069:3070  i */\n      dup2\n        /* \"contracts/moonx.sol\":3069:3088  i < _quizzes.length */\n      lt\n        /* \"contracts/moonx.sol\":3049:3161  for (uint256 i = 0; i < _quizzes.length; i++) {... */\n      iszero\n      tag_375\n      jumpi\n        /* \"contracts/moonx.sol\":3109:3122  courseQuizzes */\n      0x05\n        /* \"contracts/moonx.sol\":3109:3132  courseQuizzes[courseId] */\n      0x00\n        /* \"contracts/moonx.sol\":3123:3131  courseId */\n      dup4\n        /* \"contracts/moonx.sol\":3109:3132  courseQuizzes[courseId] */\n      dup2\n      mstore\n      0x20\n      add\n      swap1\n      dup2\n      mstore\n      0x20\n      add\n      0x00\n      keccak256\n        /* \"contracts/moonx.sol\":3138:3146  _quizzes */\n      dup5\n        /* \"contracts/moonx.sol\":3147:3148  i */\n      dup3\n        /* \"contracts/moonx.sol\":3138:3149  _quizzes[i] */\n      dup2\n      mload\n      dup2\n      lt\n      tag_377\n      jumpi\n      tag_378\n      tag_213\n      jump\t// in\n    tag_378:\n    tag_377:\n      0x20\n      mul\n      0x20\n      add\n      add\n      mload\n        /* \"contracts/moonx.sol\":3109:3150  courseQuizzes[courseId].push(_quizzes[i]) */\n      swap1\n      dup1\n      0x01\n      dup2\n      sload\n      add\n      dup1\n      dup3\n      sstore\n      dup1\n      swap2\n      pop\n      pop\n      0x01\n      swap1\n      sub\n      swap1\n      0x00\n      mstore\n      keccak256(0x00, 0x20)\n      swap1\n      0x07\n      mul\n      add\n      0x00\n      swap1\n      swap2\n      swap1\n      swap2\n      swap1\n      swap2\n      pop\n      0x00\n      dup3\n      add\n      mload\n      dup2\n      0x00\n      add\n      sstore\n      0x20\n      dup3\n      add\n      mload\n      dup2\n      0x01\n      add\n      swap1\n      dup2\n      tag_380\n      swap2\n      swap1\n      tag_373\n      jump\t// in\n    tag_380:\n      pop\n      0x40\n      dup3\n      add\n      mload\n      dup2\n      0x02\n      add\n      swap1\n      dup2\n      tag_381\n      swap2\n      swap1\n      tag_373\n      jump\t// in\n    tag_381:\n      pop\n      0x60\n      dup3\n      add\n      mload\n      dup2\n      0x03\n      add\n      swap1\n      dup2\n      tag_382\n      swap2\n      swap1\n      tag_373\n      jump\t// in\n    tag_382:\n      pop\n      0x80\n      dup3\n      add\n      mload\n      dup2\n      0x04\n      add\n      swap1\n      dup2\n      tag_383\n      swap2\n      swap1\n      tag_373\n      jump\t// in\n    tag_383:\n      pop\n      0xa0\n      dup3\n      add\n      mload\n      dup2\n      0x05\n      add\n      swap1\n      dup2\n      tag_384\n      swap2\n      swap1\n      tag_373\n      jump\t// in\n    tag_384:\n      pop\n      0xc0\n      dup3\n      add\n      mload\n      dup2\n      0x06\n      add\n      sstore\n      pop\n      pop\n        /* \"contracts/moonx.sol\":3090:3093  i++ */\n      dup1\n      dup1\n      0x01\n      add\n      swap2\n      pop\n      pop\n        /* \"contracts/moonx.sol\":3049:3161  for (uint256 i = 0; i < _quizzes.length; i++) {... */\n      jump(tag_374)\n    tag_375:\n      pop\n        /* \"contracts/moonx.sol\":3208:3218  msg.sender */\n      caller\n        /* \"contracts/moonx.sol\":3184:3219  CourseCreated(courseId, msg.sender) */\n      0xffffffffffffffffffffffffffffffffffffffff\n      and\n        /* \"contracts/moonx.sol\":3198:3206  courseId */\n      dup2\n        /* \"contracts/moonx.sol\":3184:3219  CourseCreated(courseId, msg.sender) */\n      0xa68f79aa37f9cdc81c2757cfb3e11e9d7d89ca0a5410fbcf1b61125bc17fb1b7\n      mload(0x40)\n      mload(0x40)\n      dup1\n      swap2\n      sub\n      swap1\n      log3\n        /* \"contracts/moonx.sol\":2788:3226  {... */\n      pop\n        /* \"contracts/moonx.sol\":2409:2667  {... */\n      pop\n        /* \"contracts/moonx.sol\":2673:3226  function createCourse(string memory _metadataURI, Quiz[] memory _quizzes) external payable whenNotPaused collectTX {... */\n      pop\n      pop\n      jump\t// out\n        /* \"@openzeppelin/contracts/access/Ownable.sol\":2543:2758  function transferOwnership(address newOwner) public virtual onlyOwner {... */\n    tag_142:\n        /* \"@openzeppelin/contracts/access/Ownable.sol\":1531:1544  _checkOwner() */\n      tag_386\n        /* \"@openzeppelin/contracts/access/Ownable.sol\":1531:1542  _checkOwner */\n      tag_149\n        /* \"@openzeppelin/contracts/access/Ownable.sol\":1531:1544  _checkOwner() */\n      jump\t// in\n    tag_386:\n        /* \"@openzeppelin/contracts/access/Ownable.sol\":2647:2648  0 */\n      0x00\n        /* \"@openzeppelin/contracts/access/Ownable.sol\":2627:2649  newOwner == address(0) */\n      0xffffffffffffffffffffffffffffffffffffffff\n      and\n        /* \"@openzeppelin/contracts/access/Ownable.sol\":2627:2635  newOwner */\n      dup2\n        /* \"@openzeppelin/contracts/access/Ownable.sol\":2627:2649  newOwner == address(0) */\n      0xffffffffffffffffffffffffffffffffffffffff\n      and\n      sub\n        /* \"@openzeppelin/contracts/access/Ownable.sol\":2623:2714  if (newOwner == address(0)) {... */\n      tag_388\n      jumpi\n        /* \"@openzeppelin/contracts/access/Ownable.sol\":2700:2701  0 */\n      0x00\n        /* \"@openzeppelin/contracts/access/Ownable.sol\":2672:2703  OwnableInvalidOwner(address(0)) */\n      mload(0x40)\n      0x1e4fbdf700000000000000000000000000000000000000000000000000000000\n      dup2\n      mstore\n      0x04\n      add\n      tag_389\n      swap2\n      swap1\n      tag_94\n      jump\t// in\n    tag_389:\n      mload(0x40)\n      dup1\n      swap2\n      sub\n      swap1\n      revert\n        /* \"@openzeppelin/contracts/access/Ownable.sol\":2623:2714  if (newOwner == address(0)) {... */\n    tag_388:\n        /* \"@openzeppelin/contracts/access/Ownable.sol\":2723:2751  _transferOwnership(newOwner) */\n      tag_390\n        /* \"@openzeppelin/contracts/access/Ownable.sol\":2742:2750  newOwner */\n      dup2\n        /* \"@openzeppelin/contracts/access/Ownable.sol\":2723:2741  _transferOwnership */\n      tag_260\n        /* \"@openzeppelin/contracts/access/Ownable.sol\":2723:2751  _transferOwnership(newOwner) */\n      jump\t// in\n    tag_390:\n        /* \"@openzeppelin/contracts/access/Ownable.sol\":2543:2758  function transferOwnership(address newOwner) public virtual onlyOwner {... */\n      pop\n      jump\t// out\n        /* \"contracts/moonx.sol\":526:582  uint256 public constant STUDENT_REWARD_AMOUNT = 10 ether */\n    tag_145:\n        /* \"contracts/moonx.sol\":574:582  10 ether */\n      0x8ac7230489e80000\n        /* \"contracts/moonx.sol\":526:582  uint256 public constant STUDENT_REWARD_AMOUNT = 10 ether */\n      dup2\n      jump\t// out\n        /* \"@openzeppelin/contracts/access/Ownable.sol\":1796:1958  function _checkOwner() internal view virtual {... */\n    tag_149:\n        /* \"@openzeppelin/contracts/access/Ownable.sol\":1866:1878  _msgSender() */\n      tag_392\n        /* \"@openzeppelin/contracts/access/Ownable.sol\":1866:1876  _msgSender */\n      tag_393\n        /* \"@openzeppelin/contracts/access/Ownable.sol\":1866:1878  _msgSender() */\n      jump\t// in\n    tag_392:\n        /* \"@openzeppelin/contracts/access/Ownable.sol\":1855:1878  owner() != _msgSender() */\n      0xffffffffffffffffffffffffffffffffffffffff\n      and\n        /* \"@openzeppelin/contracts/access/Ownable.sol\":1855:1862  owner() */\n      tag_394\n        /* \"@openzeppelin/contracts/access/Ownable.sol\":1855:1860  owner */\n      tag_92\n        /* \"@openzeppelin/contracts/access/Ownable.sol\":1855:1862  owner() */\n      jump\t// in\n    tag_394:\n        /* \"@openzeppelin/contracts/access/Ownable.sol\":1855:1878  owner() != _msgSender() */\n      0xffffffffffffffffffffffffffffffffffffffff\n      and\n      eq\n        /* \"@openzeppelin/contracts/access/Ownable.sol\":1851:1952  if (owner() != _msgSender()) {... */\n      tag_395\n      jumpi\n        /* \"@openzeppelin/contracts/access/Ownable.sol\":1928:1940  _msgSender() */\n      tag_396\n        /* \"@openzeppelin/contracts/access/Ownable.sol\":1928:1938  _msgSender */\n      tag_393\n        /* \"@openzeppelin/contracts/access/Ownable.sol\":1928:1940  _msgSender() */\n      jump\t// in\n    tag_396:\n        /* \"@openzeppelin/contracts/access/Ownable.sol\":1901:1941  OwnableUnauthorizedAccount(_msgSender()) */\n      mload(0x40)\n      0x118cdaa700000000000000000000000000000000000000000000000000000000\n      dup2\n      mstore\n      0x04\n      add\n      tag_397\n      swap2\n      swap1\n      tag_94\n      jump\t// in\n    tag_397:\n      mload(0x40)\n      dup1\n      swap2\n      sub\n      swap1\n      revert\n        /* \"@openzeppelin/contracts/access/Ownable.sol\":1851:1952  if (owner() != _msgSender()) {... */\n    tag_395:\n        /* \"@openzeppelin/contracts/access/Ownable.sol\":1796:1958  function _checkOwner() internal view virtual {... */\n      jump\t// out\n        /* \"@openzeppelin/contracts/security/Pausable.sol\":2433:2550  function _unpause() internal virtual whenPaused {... */\n    tag_152:\n        /* \"@openzeppelin/contracts/security/Pausable.sol\":1486:1502  _requirePaused() */\n      tag_399\n        /* \"@openzeppelin/contracts/security/Pausable.sol\":1486:1500  _requirePaused */\n      tag_400\n        /* \"@openzeppelin/contracts/security/Pausable.sol\":1486:1502  _requirePaused() */\n      jump\t// in\n    tag_399:\n        /* \"@openzeppelin/contracts/security/Pausable.sol\":2501:2506  false */\n      0x00\n        /* \"@openzeppelin/contracts/security/Pausable.sol\":2491:2498  _paused */\n      dup1\n      0x14\n        /* \"@openzeppelin/contracts/security/Pausable.sol\":2491:2506  _paused = false */\n      0x0100\n      exp\n      dup2\n      sload\n      dup2\n      0xff\n      mul\n      not\n      and\n      swap1\n      dup4\n      iszero\n      iszero\n      mul\n      or\n      swap1\n      sstore\n      pop\n        /* \"@openzeppelin/contracts/security/Pausable.sol\":2521:2543  Unpaused(_msgSender()) */\n      0x5db9ee0a495bf2e6ff9c91a7834c1ba4fdd244a5e8aa4e537bd38aeae4b073aa\n        /* \"@openzeppelin/contracts/security/Pausable.sol\":2530:2542  _msgSender() */\n      tag_402\n        /* \"@openzeppelin/contracts/security/Pausable.sol\":2530:2540  _msgSender */\n      tag_393\n        /* \"@openzeppelin/contracts/security/Pausable.sol\":2530:2542  _msgSender() */\n      jump\t// in\n    tag_402:\n        /* \"@openzeppelin/contracts/security/Pausable.sol\":2521:2543  Unpaused(_msgSender()) */\n      mload(0x40)\n      tag_403\n      swap2\n      swap1\n      tag_94\n      jump\t// in\n    tag_403:\n      mload(0x40)\n      dup1\n      swap2\n      sub\n      swap1\n      log1\n        /* \"@openzeppelin/contracts/security/Pausable.sol\":2433:2550  function _unpause() internal virtual whenPaused {... */\n      jump\t// out\n        /* \"@openzeppelin/contracts/security/Pausable.sol\":1767:1873  function _requireNotPaused() internal view virtual {... */\n    tag_229:\n        /* \"@openzeppelin/contracts/security/Pausable.sol\":1837:1845  paused() */\n      tag_405\n        /* \"@openzeppelin/contracts/security/Pausable.sol\":1837:1843  paused */\n      tag_60\n        /* \"@openzeppelin/contracts/security/Pausable.sol\":1837:1845  paused() */\n      jump\t// in\n    tag_405:\n        /* \"@openzeppelin/contracts/security/Pausable.sol\":1836:1845  !paused() */\n      iszero\n        /* \"@openzeppelin/contracts/security/Pausable.sol\":1828:1866  require(!paused(), \"Pausable: paused\") */\n      tag_406\n      jumpi\n      mload(0x40)\n      0x08c379a000000000000000000000000000000000000000000000000000000000\n      dup2\n      mstore\n      0x04\n      add\n      tag_407\n      swap1\n      tag_408\n      jump\t// in\n    tag_407:\n      mload(0x40)\n      dup1\n      swap2\n      sub\n      swap1\n      revert\n    tag_406:\n        /* \"@openzeppelin/contracts/security/Pausable.sol\":1767:1873  function _requireNotPaused() internal view virtual {... */\n      jump\t// out\n        /* \"@openzeppelin/contracts/access/Ownable.sol\":2912:3099  function _transferOwnership(address newOwner) internal virtual {... */\n    tag_260:\n        /* \"@openzeppelin/contracts/access/Ownable.sol\":2985:3001  address oldOwner */\n      0x00\n        /* \"@openzeppelin/contracts/access/Ownable.sol\":3004:3010  _owner */\n      dup1\n      0x00\n      swap1\n      sload\n      swap1\n      0x0100\n      exp\n      swap1\n      div\n      0xffffffffffffffffffffffffffffffffffffffff\n      and\n        /* \"@openzeppelin/contracts/access/Ownable.sol\":2985:3010  address oldOwner = _owner */\n      swap1\n      pop\n        /* \"@openzeppelin/contracts/access/Ownable.sol\":3029:3037  newOwner */\n      dup2\n        /* \"@openzeppelin/contracts/access/Ownable.sol\":3020:3026  _owner */\n      0x00\n      dup1\n        /* \"@openzeppelin/contracts/access/Ownable.sol\":3020:3037  _owner = newOwner */\n      0x0100\n      exp\n      dup2\n      sload\n      dup2\n      0xffffffffffffffffffffffffffffffffffffffff\n      mul\n      not\n      and\n      swap1\n      dup4\n      0xffffffffffffffffffffffffffffffffffffffff\n      and\n      mul\n      or\n      swap1\n      sstore\n      pop\n        /* \"@openzeppelin/contracts/access/Ownable.sol\":3083:3091  newOwner */\n      dup2\n        /* \"@openzeppelin/contracts/access/Ownable.sol\":3052:3092  OwnershipTransferred(oldOwner, newOwner) */\n      0xffffffffffffffffffffffffffffffffffffffff\n      and\n        /* \"@openzeppelin/contracts/access/Ownable.sol\":3073:3081  oldOwner */\n      dup2\n        /* \"@openzeppelin/contracts/access/Ownable.sol\":3052:3092  OwnershipTransferred(oldOwner, newOwner) */\n      0xffffffffffffffffffffffffffffffffffffffff\n      and\n      0x8be0079c531659141344cd1fd0a4f28419497f9722a3daafe3b4186f6b6457e0\n      mload(0x40)\n      mload(0x40)\n      dup1\n      swap2\n      sub\n      swap1\n      log3\n        /* \"@openzeppelin/contracts/access/Ownable.sol\":2975:3099  {... */\n      pop\n        /* \"@openzeppelin/contracts/access/Ownable.sol\":2912:3099  function _transferOwnership(address newOwner) internal virtual {... */\n      pop\n      jump\t// out\n        /* \"@openzeppelin/contracts/security/Pausable.sol\":2186:2301  function _pause() internal virtual whenNotPaused {... */\n    tag_271:\n        /* \"@openzeppelin/contracts/security/Pausable.sol\":1239:1258  _requireNotPaused() */\n      tag_411\n        /* \"@openzeppelin/contracts/security/Pausable.sol\":1239:1256  _requireNotPaused */\n      tag_229\n        /* \"@openzeppelin/contracts/security/Pausable.sol\":1239:1258  _requireNotPaused() */\n      jump\t// in\n    tag_411:\n        /* \"@openzeppelin/contracts/security/Pausable.sol\":2255:2259  true */\n      0x01\n        /* \"@openzeppelin/contracts/security/Pausable.sol\":2245:2252  _paused */\n      0x00\n      0x14\n        /* \"@openzeppelin/contracts/security/Pausable.sol\":2245:2259  _paused = true */\n      0x0100\n      exp\n      dup2\n      sload\n      dup2\n      0xff\n      mul\n      not\n      and\n      swap1\n      dup4\n      iszero\n      iszero\n      mul\n      or\n      swap1\n      sstore\n      pop\n        /* \"@openzeppelin/contracts/security/Pausable.sol\":2274:2294  Paused(_msgSender()) */\n      0x62e78cea01bee320cd4e420270b5ea74000d11b0c9f74754ebdbfc544b05a258\n        /* \"@openzeppelin/contracts/security/Pausable.sol\":2281:2293  _msgSender() */\n      tag_413\n        /* \"@openzeppelin/contracts/security/Pausable.sol\":2281:2291  _msgSender */\n      tag_393\n        /* \"@openzeppelin/contracts/security/Pausable.sol\":2281:2293  _msgSender() */\n      jump\t// in\n    tag_413:\n        /* \"@openzeppelin/contracts/security/Pausable.sol\":2274:2294  Paused(_msgSender()) */\n      mload(0x40)\n      tag_414\n      swap2\n      swap1\n      tag_94\n      jump\t// in\n    tag_414:\n      mload(0x40)\n      dup1\n      swap2\n      sub\n      swap1\n      log1\n        /* \"@openzeppelin/contracts/security/Pausable.sol\":2186:2301  function _pause() internal virtual whenNotPaused {... */\n      jump\t// out\n        /* \"@openzeppelin/contracts/utils/Context.sol\":656:752  function _msgSender() internal view virtual returns (address) {... */\n    tag_393:\n        /* \"@openzeppelin/contracts/utils/Context.sol\":709:716  address */\n      0x00\n        /* \"@openzeppelin/contracts/utils/Context.sol\":735:745  msg.sender */\n      caller\n        /* \"@openzeppelin/contracts/utils/Context.sol\":728:745  return msg.sender */\n      swap1\n      pop\n        /* \"@openzeppelin/contracts/utils/Context.sol\":656:752  function _msgSender() internal view virtual returns (address) {... */\n      swap1\n      jump\t// out\n        /* \"@openzeppelin/contracts/security/Pausable.sol\":1945:2051  function _requirePaused() internal view virtual {... */\n    tag_400:\n        /* \"@openzeppelin/contracts/security/Pausable.sol\":2011:2019  paused() */\n      tag_417\n        /* \"@openzeppelin/contracts/security/Pausable.sol\":2011:2017  paused */\n      tag_60\n        /* \"@openzeppelin/contracts/security/Pausable.sol\":2011:2019  paused() */\n      jump\t// in\n    tag_417:\n        /* \"@openzeppelin/contracts/security/Pausable.sol\":2003:2044  require(paused(), \"Pausable: not paused\") */\n      tag_418\n      jumpi\n      mload(0x40)\n      0x08c379a000000000000000000000000000000000000000000000000000000000\n      dup2\n      mstore\n      0x04\n      add\n      tag_419\n      swap1\n      tag_420\n      jump\t// in\n    tag_419:\n      mload(0x40)\n      dup1\n      swap2\n      sub\n      swap1\n      revert\n    tag_418:\n        /* \"@openzeppelin/contracts/security/Pausable.sol\":1945:2051  function _requirePaused() internal view virtual {... */\n      jump\t// out\n        /* \"#utility.yul\":7:82   */\n    tag_421:\n        /* \"#utility.yul\":40:46   */\n      0x00\n        /* \"#utility.yul\":73:75   */\n      0x40\n        /* \"#utility.yul\":67:76   */\n      mload\n        /* \"#utility.yul\":57:76   */\n      swap1\n      pop\n        /* \"#utility.yul\":7:82   */\n      swap1\n      jump\t// out\n        /* \"#utility.yul\":88:205   */\n    tag_422:\n        /* \"#utility.yul\":197:198   */\n      0x00\n        /* \"#utility.yul\":194:195   */\n      dup1\n        /* \"#utility.yul\":187:199   */\n      revert\n        /* \"#utility.yul\":211:328   */\n    tag_423:\n        /* \"#utility.yul\":320:321   */\n      0x00\n        /* \"#utility.yul\":317:318   */\n      dup1\n        /* \"#utility.yul\":310:322   */\n      revert\n        /* \"#utility.yul\":334:460   */\n    tag_424:\n        /* \"#utility.yul\":371:378   */\n      0x00\n        /* \"#utility.yul\":411:453   */\n      0xffffffffffffffffffffffffffffffffffffffff\n        /* \"#utility.yul\":404:409   */\n      dup3\n        /* \"#utility.yul\":400:454   */\n      and\n        /* \"#utility.yul\":389:454   */\n      swap1\n      pop\n        /* \"#utility.yul\":334:460   */\n      swap2\n      swap1\n      pop\n      jump\t// out\n        /* \"#utility.yul\":466:562   */\n    tag_425:\n        /* \"#utility.yul\":503:510   */\n      0x00\n        /* \"#utility.yul\":532:556   */\n      tag_528\n        /* \"#utility.yul\":550:555   */\n      dup3\n        /* \"#utility.yul\":532:556   */\n      tag_424\n      jump\t// in\n    tag_528:\n        /* \"#utility.yul\":521:556   */\n      swap1\n      pop\n        /* \"#utility.yul\":466:562   */\n      swap2\n      swap1\n      pop\n      jump\t// out\n        /* \"#utility.yul\":568:690   */\n    tag_426:\n        /* \"#utility.yul\":641:665   */\n      tag_530\n        /* \"#utility.yul\":659:664   */\n      dup2\n        /* \"#utility.yul\":641:665   */\n      tag_425\n      jump\t// in\n    tag_530:\n        /* \"#utility.yul\":634:639   */\n      dup2\n        /* \"#utility.yul\":631:666   */\n      eq\n        /* \"#utility.yul\":621:684   */\n      tag_531\n      jumpi\n        /* \"#utility.yul\":680:681   */\n      0x00\n        /* \"#utility.yul\":677:678   */\n      dup1\n        /* \"#utility.yul\":670:682   */\n      revert\n        /* \"#utility.yul\":621:684   */\n    tag_531:\n        /* \"#utility.yul\":568:690   */\n      pop\n      jump\t// out\n        /* \"#utility.yul\":696:835   */\n    tag_427:\n        /* \"#utility.yul\":742:747   */\n      0x00\n        /* \"#utility.yul\":780:786   */\n      dup2\n        /* \"#utility.yul\":767:787   */\n      calldataload\n        /* \"#utility.yul\":758:787   */\n      swap1\n      pop\n        /* \"#utility.yul\":796:829   */\n      tag_533\n        /* \"#utility.yul\":823:828   */\n      dup2\n        /* \"#utility.yul\":796:829   */\n      tag_426\n      jump\t// in\n    tag_533:\n        /* \"#utility.yul\":696:835   */\n      swap3\n      swap2\n      pop\n      pop\n      jump\t// out\n        /* \"#utility.yul\":841:918   */\n    tag_428:\n        /* \"#utility.yul\":878:885   */\n      0x00\n        /* \"#utility.yul\":907:912   */\n      dup2\n        /* \"#utility.yul\":896:912   */\n      swap1\n      pop\n        /* \"#utility.yul\":841:918   */\n      swap2\n      swap1\n      pop\n      jump\t// out\n        /* \"#utility.yul\":924:1046   */\n    tag_429:\n        /* \"#utility.yul\":997:1021   */\n      tag_536\n        /* \"#utility.yul\":1015:1020   */\n      dup2\n        /* \"#utility.yul\":997:1021   */\n      tag_428\n      jump\t// in\n    tag_536:\n        /* \"#utility.yul\":990:995   */\n      dup2\n        /* \"#utility.yul\":987:1022   */\n      eq\n        /* \"#utility.yul\":977:1040   */\n      tag_537\n      jumpi\n        /* \"#utility.yul\":1036:1037   */\n      0x00\n        /* \"#utility.yul\":1033:1034   */\n      dup1\n        /* \"#utility.yul\":1026:1038   */\n      revert\n        /* \"#utility.yul\":977:1040   */\n    tag_537:\n        /* \"#utility.yul\":924:1046   */\n      pop\n      jump\t// out\n        /* \"#utility.yul\":1052:1191   */\n    tag_430:\n        /* \"#utility.yul\":1098:1103   */\n      0x00\n        /* \"#utility.yul\":1136:1142   */\n      dup2\n        /* \"#utility.yul\":1123:1143   */\n      calldataload\n        /* \"#utility.yul\":1114:1143   */\n      swap1\n      pop\n        /* \"#utility.yul\":1152:1185   */\n      tag_539\n        /* \"#utility.yul\":1179:1184   */\n      dup2\n        /* \"#utility.yul\":1152:1185   */\n      tag_429\n      jump\t// in\n    tag_539:\n        /* \"#utility.yul\":1052:1191   */\n      swap3\n      swap2\n      pop\n      pop\n      jump\t// out\n        /* \"#utility.yul\":1197:1671   */\n    tag_39:\n        /* \"#utility.yul\":1265:1271   */\n      0x00\n        /* \"#utility.yul\":1273:1279   */\n      dup1\n        /* \"#utility.yul\":1322:1324   */\n      0x40\n        /* \"#utility.yul\":1310:1319   */\n      dup4\n        /* \"#utility.yul\":1301:1308   */\n      dup6\n        /* \"#utility.yul\":1297:1320   */\n      sub\n        /* \"#utility.yul\":1293:1325   */\n      slt\n        /* \"#utility.yul\":1290:1409   */\n      iszero\n      tag_541\n      jumpi\n        /* \"#utility.yul\":1328:1407   */\n      tag_542\n      tag_422\n      jump\t// in\n    tag_542:\n        /* \"#utility.yul\":1290:1409   */\n    tag_541:\n        /* \"#utility.yul\":1448:1449   */\n      0x00\n        /* \"#utility.yul\":1473:1526   */\n      tag_543\n        /* \"#utility.yul\":1518:1525   */\n      dup6\n        /* \"#utility.yul\":1509:1515   */\n      dup3\n        /* \"#utility.yul\":1498:1507   */\n      dup7\n        /* \"#utility.yul\":1494:1516   */\n      add\n        /* \"#utility.yul\":1473:1526   */\n      tag_427\n      jump\t// in\n    tag_543:\n        /* \"#utility.yul\":1463:1526   */\n      swap3\n      pop\n        /* \"#utility.yul\":1419:1536   */\n      pop\n        /* \"#utility.yul\":1575:1577   */\n      0x20\n        /* \"#utility.yul\":1601:1654   */\n      tag_544\n        /* \"#utility.yul\":1646:1653   */\n      dup6\n        /* \"#utility.yul\":1637:1643   */\n      dup3\n        /* \"#utility.yul\":1626:1635   */\n      dup7\n        /* \"#utility.yul\":1622:1644   */\n      add\n        /* \"#utility.yul\":1601:1654   */\n      tag_430\n      jump\t// in\n    tag_544:\n        /* \"#utility.yul\":1591:1654   */\n      swap2\n      pop\n        /* \"#utility.yul\":1546:1664   */\n      pop\n        /* \"#utility.yul\":1197:1671   */\n      swap3\n      pop\n      swap3\n      swap1\n      pop\n      jump\t// out\n        /* \"#utility.yul\":1677:1767   */\n    tag_431:\n        /* \"#utility.yul\":1711:1718   */\n      0x00\n        /* \"#utility.yul\":1754:1759   */\n      dup2\n        /* \"#utility.yul\":1747:1760   */\n      iszero\n        /* \"#utility.yul\":1740:1761   */\n      iszero\n        /* \"#utility.yul\":1729:1761   */\n      swap1\n      pop\n        /* \"#utility.yul\":1677:1767   */\n      swap2\n      swap1\n      pop\n      jump\t// out\n        /* \"#utility.yul\":1773:1882   */\n    tag_432:\n        /* \"#utility.yul\":1854:1875   */\n      tag_547\n        /* \"#utility.yul\":1869:1874   */\n      dup2\n        /* \"#utility.yul\":1854:1875   */\n      tag_431\n      jump\t// in\n    tag_547:\n        /* \"#utility.yul\":1849:1852   */\n      dup3\n        /* \"#utility.yul\":1842:1876   */\n      mstore\n        /* \"#utility.yul\":1773:1882   */\n      pop\n      pop\n      jump\t// out\n        /* \"#utility.yul\":1888:1974   */\n    tag_433:\n        /* \"#utility.yul\":1923:1930   */\n      0x00\n        /* \"#utility.yul\":1963:1967   */\n      0xff\n        /* \"#utility.yul\":1956:1961   */\n      dup3\n        /* \"#utility.yul\":1952:1968   */\n      and\n        /* \"#utility.yul\":1941:1968   */\n      swap1\n      pop\n        /* \"#utility.yul\":1888:1974   */\n      swap2\n      swap1\n      pop\n      jump\t// out\n        /* \"#utility.yul\":1980:2092   */\n    tag_434:\n        /* \"#utility.yul\":2063:2085   */\n      tag_550\n        /* \"#utility.yul\":2079:2084   */\n      dup2\n        /* \"#utility.yul\":2063:2085   */\n      tag_433\n      jump\t// in\n    tag_550:\n        /* \"#utility.yul\":2058:2061   */\n      dup3\n        /* \"#utility.yul\":2051:2086   */\n      mstore\n        /* \"#utility.yul\":1980:2092   */\n      pop\n      pop\n      jump\t// out\n        /* \"#utility.yul\":2098:2216   */\n    tag_435:\n        /* \"#utility.yul\":2185:2209   */\n      tag_552\n        /* \"#utility.yul\":2203:2208   */\n      dup2\n        /* \"#utility.yul\":2185:2209   */\n      tag_428\n      jump\t// in\n    tag_552:\n        /* \"#utility.yul\":2180:2183   */\n      dup3\n        /* \"#utility.yul\":2173:2210   */\n      mstore\n        /* \"#utility.yul\":2098:2216   */\n      pop\n      pop\n      jump\t// out\n        /* \"#utility.yul\":2222:2743   */\n    tag_42:\n        /* \"#utility.yul\":2383:2387   */\n      0x00\n        /* \"#utility.yul\":2421:2424   */\n      0x80\n        /* \"#utility.yul\":2410:2419   */\n      dup3\n        /* \"#utility.yul\":2406:2425   */\n      add\n        /* \"#utility.yul\":2398:2425   */\n      swap1\n      pop\n        /* \"#utility.yul\":2435:2500   */\n      tag_554\n        /* \"#utility.yul\":2497:2498   */\n      0x00\n        /* \"#utility.yul\":2486:2495   */\n      dup4\n        /* \"#utility.yul\":2482:2499   */\n      add\n        /* \"#utility.yul\":2473:2479   */\n      dup8\n        /* \"#utility.yul\":2435:2500   */\n      tag_432\n      jump\t// in\n    tag_554:\n        /* \"#utility.yul\":2510:2578   */\n      tag_555\n        /* \"#utility.yul\":2574:2576   */\n      0x20\n        /* \"#utility.yul\":2563:2572   */\n      dup4\n        /* \"#utility.yul\":2559:2577   */\n      add\n        /* \"#utility.yul\":2550:2556   */\n      dup7\n        /* \"#utility.yul\":2510:2578   */\n      tag_434\n      jump\t// in\n    tag_555:\n        /* \"#utility.yul\":2588:2654   */\n      tag_556\n        /* \"#utility.yul\":2650:2652   */\n      0x40\n        /* \"#utility.yul\":2639:2648   */\n      dup4\n        /* \"#utility.yul\":2635:2653   */\n      add\n        /* \"#utility.yul\":2626:2632   */\n      dup6\n        /* \"#utility.yul\":2588:2654   */\n      tag_432\n      jump\t// in\n    tag_556:\n        /* \"#utility.yul\":2664:2736   */\n      tag_557\n        /* \"#utility.yul\":2732:2734   */\n      0x60\n        /* \"#utility.yul\":2721:2730   */\n      dup4\n        /* \"#utility.yul\":2717:2735   */\n      add\n        /* \"#utility.yul\":2708:2714   */\n      dup5\n        /* \"#utility.yul\":2664:2736   */\n      tag_435\n      jump\t// in\n    tag_557:\n        /* \"#utility.yul\":2222:2743   */\n      swap6\n      swap5\n      pop\n      pop\n      pop\n      pop\n      pop\n      jump\t// out\n        /* \"#utility.yul\":2749:2971   */\n    tag_50:\n        /* \"#utility.yul\":2842:2846   */\n      0x00\n        /* \"#utility.yul\":2880:2882   */\n      0x20\n        /* \"#utility.yul\":2869:2878   */\n      dup3\n        /* \"#utility.yul\":2865:2883   */\n      add\n        /* \"#utility.yul\":2857:2883   */\n      swap1\n      pop\n        /* \"#utility.yul\":2893:2964   */\n      tag_559\n        /* \"#utility.yul\":2961:2962   */\n      0x00\n        /* \"#utility.yul\":2950:2959   */\n      dup4\n        /* \"#utility.yul\":2946:2963   */\n      add\n        /* \"#utility.yul\":2937:2943   */\n      dup5\n        /* \"#utility.yul\":2893:2964   */\n      tag_435\n      jump\t// in\n    tag_559:\n        /* \"#utility.yul\":2749:2971   */\n      swap3\n      swap2\n      pop\n      pop\n      jump\t// out\n        /* \"#utility.yul\":2977:3187   */\n    tag_62:\n        /* \"#utility.yul\":3064:3068   */\n      0x00\n        /* \"#utility.yul\":3102:3104   */\n      0x20\n        /* \"#utility.yul\":3091:3100   */\n      dup3\n        /* \"#utility.yul\":3087:3105   */\n      add\n        /* \"#utility.yul\":3079:3105   */\n      swap1\n      pop\n        /* \"#utility.yul\":3115:3180   */\n      tag_561\n        /* \"#utility.yul\":3177:3178   */\n      0x00\n        /* \"#utility.yul\":3166:3175   */\n      dup4\n        /* \"#utility.yul\":3162:3179   */\n      add\n        /* \"#utility.yul\":3153:3159   */\n      dup5\n        /* \"#utility.yul\":3115:3180   */\n      tag_432\n      jump\t// in\n    tag_561:\n        /* \"#utility.yul\":2977:3187   */\n      swap3\n      swap2\n      pop\n      pop\n      jump\t// out\n        /* \"#utility.yul\":3193:3310   */\n    tag_436:\n        /* \"#utility.yul\":3302:3303   */\n      0x00\n        /* \"#utility.yul\":3299:3300   */\n      dup1\n        /* \"#utility.yul\":3292:3304   */\n      revert\n        /* \"#utility.yul\":3316:3418   */\n    tag_437:\n        /* \"#utility.yul\":3357:3363   */\n      0x00\n        /* \"#utility.yul\":3408:3410   */\n      0x1f\n        /* \"#utility.yul\":3404:3411   */\n      not\n        /* \"#utility.yul\":3399:3401   */\n      0x1f\n        /* \"#utility.yul\":3392:3397   */\n      dup4\n        /* \"#utility.yul\":3388:3402   */\n      add\n        /* \"#utility.yul\":3384:3412   */\n      and\n        /* \"#utility.yul\":3374:3412   */\n      swap1\n      pop\n        /* \"#utility.yul\":3316:3418   */\n      swap2\n      swap1\n      pop\n      jump\t// out\n        /* \"#utility.yul\":3424:3604   */\n    tag_438:\n        /* \"#utility.yul\":3472:3549   */\n      0x4e487b7100000000000000000000000000000000000000000000000000000000\n        /* \"#utility.yul\":3469:3470   */\n      0x00\n        /* \"#utility.yul\":3462:3550   */\n      mstore\n        /* \"#utility.yul\":3569:3573   */\n      0x41\n        /* \"#utility.yul\":3566:3567   */\n      0x04\n        /* \"#utility.yul\":3559:3574   */\n      mstore\n        /* \"#utility.yul\":3593:3597   */\n      0x24\n        /* \"#utility.yul\":3590:3591   */\n      0x00\n        /* \"#utility.yul\":3583:3598   */\n      revert\n        /* \"#utility.yul\":3610:3891   */\n    tag_439:\n        /* \"#utility.yul\":3693:3720   */\n      tag_566\n        /* \"#utility.yul\":3715:3719   */\n      dup3\n        /* \"#utility.yul\":3693:3720   */\n      tag_437\n      jump\t// in\n    tag_566:\n        /* \"#utility.yul\":3685:3691   */\n      dup2\n        /* \"#utility.yul\":3681:3721   */\n      add\n        /* \"#utility.yul\":3823:3829   */\n      dup2\n        /* \"#utility.yul\":3811:3821   */\n      dup2\n        /* \"#utility.yul\":3808:3830   */\n      lt\n        /* \"#utility.yul\":3787:3805   */\n      0xffffffffffffffff\n        /* \"#utility.yul\":3775:3785   */\n      dup3\n        /* \"#utility.yul\":3772:3806   */\n      gt\n        /* \"#utility.yul\":3769:3831   */\n      or\n        /* \"#utility.yul\":3766:3854   */\n      iszero\n      tag_567\n      jumpi\n        /* \"#utility.yul\":3834:3852   */\n      tag_568\n      tag_438\n      jump\t// in\n    tag_568:\n        /* \"#utility.yul\":3766:3854   */\n    tag_567:\n        /* \"#utility.yul\":3874:3884   */\n      dup1\n        /* \"#utility.yul\":3870:3872   */\n      0x40\n        /* \"#utility.yul\":3863:3885   */\n      mstore\n        /* \"#utility.yul\":3653:3891   */\n      pop\n        /* \"#utility.yul\":3610:3891   */\n      pop\n      pop\n      jump\t// out\n        /* \"#utility.yul\":3897:4026   */\n    tag_440:\n        /* \"#utility.yul\":3931:3937   */\n      0x00\n        /* \"#utility.yul\":3958:3978   */\n      tag_570\n      tag_421\n      jump\t// in\n    tag_570:\n        /* \"#utility.yul\":3948:3978   */\n      swap1\n      pop\n        /* \"#utility.yul\":3987:4020   */\n      tag_571\n        /* \"#utility.yul\":4015:4019   */\n      dup3\n        /* \"#utility.yul\":4007:4013   */\n      dup3\n        /* \"#utility.yul\":3987:4020   */\n      tag_439\n      jump\t// in\n    tag_571:\n        /* \"#utility.yul\":3897:4026   */\n      swap2\n      swap1\n      pop\n      jump\t// out\n        /* \"#utility.yul\":4032:4353   */\n    tag_441:\n        /* \"#utility.yul\":4119:4123   */\n      0x00\n        /* \"#utility.yul\":4209:4227   */\n      0xffffffffffffffff\n        /* \"#utility.yul\":4201:4207   */\n      dup3\n        /* \"#utility.yul\":4198:4228   */\n      gt\n        /* \"#utility.yul\":4195:4251   */\n      iszero\n      tag_573\n      jumpi\n        /* \"#utility.yul\":4231:4249   */\n      tag_574\n      tag_438\n      jump\t// in\n    tag_574:\n        /* \"#utility.yul\":4195:4251   */\n    tag_573:\n        /* \"#utility.yul\":4281:4285   */\n      0x20\n        /* \"#utility.yul\":4273:4279   */\n      dup3\n        /* \"#utility.yul\":4269:4286   */\n      mul\n        /* \"#utility.yul\":4261:4286   */\n      swap1\n      pop\n        /* \"#utility.yul\":4341:4345   */\n      0x20\n        /* \"#utility.yul\":4335:4339   */\n      dup2\n        /* \"#utility.yul\":4331:4346   */\n      add\n        /* \"#utility.yul\":4323:4346   */\n      swap1\n      pop\n        /* \"#utility.yul\":4032:4353   */\n      swap2\n      swap1\n      pop\n      jump\t// out\n        /* \"#utility.yul\":4359:4476   */\n    tag_442:\n        /* \"#utility.yul\":4468:4469   */\n      0x00\n        /* \"#utility.yul\":4465:4466   */\n      dup1\n        /* \"#utility.yul\":4458:4470   */\n      revert\n        /* \"#utility.yul\":4482:4599   */\n    tag_443:\n        /* \"#utility.yul\":4591:4592   */\n      0x00\n        /* \"#utility.yul\":4588:4589   */\n      dup1\n        /* \"#utility.yul\":4581:4593   */\n      revert\n        /* \"#utility.yul\":4605:4913   */\n    tag_444:\n        /* \"#utility.yul\":4667:4671   */\n      0x00\n        /* \"#utility.yul\":4757:4775   */\n      0xffffffffffffffff\n        /* \"#utility.yul\":4749:4755   */\n      dup3\n        /* \"#utility.yul\":4746:4776   */\n      gt\n        /* \"#utility.yul\":4743:4799   */\n      iszero\n      tag_578\n      jumpi\n        /* \"#utility.yul\":4779:4797   */\n      tag_579\n      tag_438\n      jump\t// in\n    tag_579:\n        /* \"#utility.yul\":4743:4799   */\n    tag_578:\n        /* \"#utility.yul\":4817:4846   */\n      tag_580\n        /* \"#utility.yul\":4839:4845   */\n      dup3\n        /* \"#utility.yul\":4817:4846   */\n      tag_437\n      jump\t// in\n    tag_580:\n        /* \"#utility.yul\":4809:4846   */\n      swap1\n      pop\n        /* \"#utility.yul\":4901:4905   */\n      0x20\n        /* \"#utility.yul\":4895:4899   */\n      dup2\n        /* \"#utility.yul\":4891:4906   */\n      add\n        /* \"#utility.yul\":4883:4906   */\n      swap1\n      pop\n        /* \"#utility.yul\":4605:4913   */\n      swap2\n      swap1\n      pop\n      jump\t// out\n        /* \"#utility.yul\":4919:5067   */\n    tag_445:\n        /* \"#utility.yul\":5017:5023   */\n      dup3\n        /* \"#utility.yul\":5012:5015   */\n      dup2\n        /* \"#utility.yul\":5007:5010   */\n      dup4\n        /* \"#utility.yul\":4994:5024   */\n      calldatacopy\n        /* \"#utility.yul\":5058:5059   */\n      0x00\n        /* \"#utility.yul\":5049:5055   */\n      dup4\n        /* \"#utility.yul\":5044:5047   */\n      dup4\n        /* \"#utility.yul\":5040:5056   */\n      add\n        /* \"#utility.yul\":5033:5060   */\n      mstore\n        /* \"#utility.yul\":4919:5067   */\n      pop\n      pop\n      pop\n      jump\t// out\n        /* \"#utility.yul\":5073:5498   */\n    tag_446:\n        /* \"#utility.yul\":5151:5156   */\n      0x00\n        /* \"#utility.yul\":5176:5242   */\n      tag_583\n        /* \"#utility.yul\":5192:5241   */\n      tag_584\n        /* \"#utility.yul\":5234:5240   */\n      dup5\n        /* \"#utility.yul\":5192:5241   */\n      tag_444\n      jump\t// in\n    tag_584:\n        /* \"#utility.yul\":5176:5242   */\n      tag_440\n      jump\t// in\n    tag_583:\n        /* \"#utility.yul\":5167:5242   */\n      swap1\n      pop\n        /* \"#utility.yul\":5265:5271   */\n      dup3\n        /* \"#utility.yul\":5258:5263   */\n      dup2\n        /* \"#utility.yul\":5251:5272   */\n      mstore\n        /* \"#utility.yul\":5303:5307   */\n      0x20\n        /* \"#utility.yul\":5296:5301   */\n      dup2\n        /* \"#utility.yul\":5292:5308   */\n      add\n        /* \"#utility.yul\":5341:5344   */\n      dup5\n        /* \"#utility.yul\":5332:5338   */\n      dup5\n        /* \"#utility.yul\":5327:5330   */\n      dup5\n        /* \"#utility.yul\":5323:5339   */\n      add\n        /* \"#utility.yul\":5320:5345   */\n      gt\n        /* \"#utility.yul\":5317:5429   */\n      iszero\n      tag_585\n      jumpi\n        /* \"#utility.yul\":5348:5427   */\n      tag_586\n      tag_443\n      jump\t// in\n    tag_586:\n        /* \"#utility.yul\":5317:5429   */\n    tag_585:\n        /* \"#utility.yul\":5438:5492   */\n      tag_587\n        /* \"#utility.yul\":5485:5491   */\n      dup5\n        /* \"#utility.yul\":5480:5483   */\n      dup3\n        /* \"#utility.yul\":5475:5478   */\n      dup6\n        /* \"#utility.yul\":5438:5492   */\n      tag_445\n      jump\t// in\n    tag_587:\n        /* \"#utility.yul\":5157:5498   */\n      pop\n        /* \"#utility.yul\":5073:5498   */\n      swap4\n      swap3\n      pop\n      pop\n      pop\n      jump\t// out\n        /* \"#utility.yul\":5518:5858   */\n    tag_447:\n        /* \"#utility.yul\":5574:5579   */\n      0x00\n        /* \"#utility.yul\":5623:5626   */\n      dup3\n        /* \"#utility.yul\":5616:5620   */\n      0x1f\n        /* \"#utility.yul\":5608:5614   */\n      dup4\n        /* \"#utility.yul\":5604:5621   */\n      add\n        /* \"#utility.yul\":5600:5627   */\n      slt\n        /* \"#utility.yul\":5590:5712   */\n      tag_589\n      jumpi\n        /* \"#utility.yul\":5631:5710   */\n      tag_590\n      tag_436\n      jump\t// in\n    tag_590:\n        /* \"#utility.yul\":5590:5712   */\n    tag_589:\n        /* \"#utility.yul\":5748:5754   */\n      dup2\n        /* \"#utility.yul\":5735:5755   */\n      calldataload\n        /* \"#utility.yul\":5773:5852   */\n      tag_591\n        /* \"#utility.yul\":5848:5851   */\n      dup5\n        /* \"#utility.yul\":5840:5846   */\n      dup3\n        /* \"#utility.yul\":5833:5837   */\n      0x20\n        /* \"#utility.yul\":5825:5831   */\n      dup7\n        /* \"#utility.yul\":5821:5838   */\n      add\n        /* \"#utility.yul\":5773:5852   */\n      tag_446\n      jump\t// in\n    tag_591:\n        /* \"#utility.yul\":5764:5852   */\n      swap2\n      pop\n        /* \"#utility.yul\":5580:5858   */\n      pop\n        /* \"#utility.yul\":5518:5858   */\n      swap3\n      swap2\n      pop\n      pop\n      jump\t// out\n        /* \"#utility.yul\":5880:6825   */\n    tag_448:\n        /* \"#utility.yul\":5986:5991   */\n      0x00\n        /* \"#utility.yul\":6011:6102   */\n      tag_593\n        /* \"#utility.yul\":6027:6101   */\n      tag_594\n        /* \"#utility.yul\":6094:6100   */\n      dup5\n        /* \"#utility.yul\":6027:6101   */\n      tag_441\n      jump\t// in\n    tag_594:\n        /* \"#utility.yul\":6011:6102   */\n      tag_440\n      jump\t// in\n    tag_593:\n        /* \"#utility.yul\":6002:6102   */\n      swap1\n      pop\n        /* \"#utility.yul\":6122:6127   */\n      dup1\n        /* \"#utility.yul\":6151:6157   */\n      dup4\n        /* \"#utility.yul\":6144:6149   */\n      dup3\n        /* \"#utility.yul\":6137:6158   */\n      mstore\n        /* \"#utility.yul\":6185:6189   */\n      0x20\n        /* \"#utility.yul\":6178:6183   */\n      dup3\n        /* \"#utility.yul\":6174:6190   */\n      add\n        /* \"#utility.yul\":6167:6190   */\n      swap1\n      pop\n        /* \"#utility.yul\":6238:6242   */\n      0x20\n        /* \"#utility.yul\":6230:6236   */\n      dup5\n        /* \"#utility.yul\":6226:6243   */\n      mul\n        /* \"#utility.yul\":6218:6224   */\n      dup4\n        /* \"#utility.yul\":6214:6244   */\n      add\n        /* \"#utility.yul\":6267:6270   */\n      dup6\n        /* \"#utility.yul\":6259:6265   */\n      dup2\n        /* \"#utility.yul\":6256:6271   */\n      gt\n        /* \"#utility.yul\":6253:6375   */\n      iszero\n      tag_595\n      jumpi\n        /* \"#utility.yul\":6286:6365   */\n      tag_596\n      tag_442\n      jump\t// in\n    tag_596:\n        /* \"#utility.yul\":6253:6375   */\n    tag_595:\n        /* \"#utility.yul\":6401:6407   */\n      dup4\n        /* \"#utility.yul\":6384:6819   */\n    tag_597:\n        /* \"#utility.yul\":6418:6424   */\n      dup2\n        /* \"#utility.yul\":6413:6416   */\n      dup2\n        /* \"#utility.yul\":6410:6425   */\n      lt\n        /* \"#utility.yul\":6384:6819   */\n      iszero\n      tag_599\n      jumpi\n        /* \"#utility.yul\":6507:6510   */\n      dup1\n        /* \"#utility.yul\":6494:6511   */\n      calldataload\n        /* \"#utility.yul\":6543:6561   */\n      0xffffffffffffffff\n        /* \"#utility.yul\":6530:6541   */\n      dup2\n        /* \"#utility.yul\":6527:6562   */\n      gt\n        /* \"#utility.yul\":6524:6646   */\n      iszero\n      tag_600\n      jumpi\n        /* \"#utility.yul\":6565:6644   */\n      tag_601\n      tag_436\n      jump\t// in\n    tag_601:\n        /* \"#utility.yul\":6524:6646   */\n    tag_600:\n        /* \"#utility.yul\":6689:6700   */\n      dup1\n        /* \"#utility.yul\":6681:6687   */\n      dup7\n        /* \"#utility.yul\":6677:6701   */\n      add\n        /* \"#utility.yul\":6727:6774   */\n      tag_602\n        /* \"#utility.yul\":6770:6773   */\n      dup10\n        /* \"#utility.yul\":6758:6768   */\n      dup3\n        /* \"#utility.yul\":6727:6774   */\n      tag_447\n      jump\t// in\n    tag_602:\n        /* \"#utility.yul\":6722:6725   */\n      dup6\n        /* \"#utility.yul\":6715:6775   */\n      mstore\n        /* \"#utility.yul\":6804:6808   */\n      0x20\n        /* \"#utility.yul\":6799:6802   */\n      dup6\n        /* \"#utility.yul\":6795:6809   */\n      add\n        /* \"#utility.yul\":6788:6809   */\n      swap5\n      pop\n        /* \"#utility.yul\":6460:6819   */\n      pop\n      pop\n        /* \"#utility.yul\":6444:6448   */\n      0x20\n        /* \"#utility.yul\":6439:6442   */\n      dup2\n        /* \"#utility.yul\":6435:6449   */\n      add\n        /* \"#utility.yul\":6428:6449   */\n      swap1\n      pop\n        /* \"#utility.yul\":6384:6819   */\n      jump(tag_597)\n    tag_599:\n        /* \"#utility.yul\":6388:6409   */\n      pop\n        /* \"#utility.yul\":5992:6825   */\n      pop\n      pop\n        /* \"#utility.yul\":5880:6825   */\n      swap4\n      swap3\n      pop\n      pop\n      pop\n      jump\t// out\n        /* \"#utility.yul\":6847:7237   */\n    tag_449:\n        /* \"#utility.yul\":6928:6933   */\n      0x00\n        /* \"#utility.yul\":6977:6980   */\n      dup3\n        /* \"#utility.yul\":6970:6974   */\n      0x1f\n        /* \"#utility.yul\":6962:6968   */\n      dup4\n        /* \"#utility.yul\":6958:6975   */\n      add\n        /* \"#utility.yul\":6954:6981   */\n      slt\n        /* \"#utility.yul\":6944:7066   */\n      tag_604\n      jumpi\n        /* \"#utility.yul\":6985:7064   */\n      tag_605\n      tag_436\n      jump\t// in\n    tag_605:\n        /* \"#utility.yul\":6944:7066   */\n    tag_604:\n        /* \"#utility.yul\":7102:7108   */\n      dup2\n        /* \"#utility.yul\":7089:7109   */\n      calldataload\n        /* \"#utility.yul\":7127:7231   */\n      tag_606\n        /* \"#utility.yul\":7227:7230   */\n      dup5\n        /* \"#utility.yul\":7219:7225   */\n      dup3\n        /* \"#utility.yul\":7212:7216   */\n      0x20\n        /* \"#utility.yul\":7204:7210   */\n      dup7\n        /* \"#utility.yul\":7200:7217   */\n      add\n        /* \"#utility.yul\":7127:7231   */\n      tag_448\n      jump\t// in\n    tag_606:\n        /* \"#utility.yul\":7118:7231   */\n      swap2\n      pop\n        /* \"#utility.yul\":6934:7237   */\n      pop\n        /* \"#utility.yul\":6847:7237   */\n      swap3\n      swap2\n      pop\n      pop\n      jump\t// out\n        /* \"#utility.yul\":7243:7947   */\n    tag_65:\n        /* \"#utility.yul\":7346:7352   */\n      0x00\n        /* \"#utility.yul\":7354:7360   */\n      dup1\n        /* \"#utility.yul\":7403:7405   */\n      0x40\n        /* \"#utility.yul\":7391:7400   */\n      dup4\n        /* \"#utility.yul\":7382:7389   */\n      dup6\n        /* \"#utility.yul\":7378:7401   */\n      sub\n        /* \"#utility.yul\":7374:7406   */\n      slt\n        /* \"#utility.yul\":7371:7490   */\n      iszero\n      tag_608\n      jumpi\n        /* \"#utility.yul\":7409:7488   */\n      tag_609\n      tag_422\n      jump\t// in\n    tag_609:\n        /* \"#utility.yul\":7371:7490   */\n    tag_608:\n        /* \"#utility.yul\":7529:7530   */\n      0x00\n        /* \"#utility.yul\":7554:7607   */\n      tag_610\n        /* \"#utility.yul\":7599:7606   */\n      dup6\n        /* \"#utility.yul\":7590:7596   */\n      dup3\n        /* \"#utility.yul\":7579:7588   */\n      dup7\n        /* \"#utility.yul\":7575:7597   */\n      add\n        /* \"#utility.yul\":7554:7607   */\n      tag_430\n      jump\t// in\n    tag_610:\n        /* \"#utility.yul\":7544:7607   */\n      swap3\n      pop\n        /* \"#utility.yul\":7500:7617   */\n      pop\n        /* \"#utility.yul\":7684:7686   */\n      0x20\n        /* \"#utility.yul\":7673:7682   */\n      dup4\n        /* \"#utility.yul\":7669:7687   */\n      add\n        /* \"#utility.yul\":7656:7688   */\n      calldataload\n        /* \"#utility.yul\":7715:7733   */\n      0xffffffffffffffff\n        /* \"#utility.yul\":7707:7713   */\n      dup2\n        /* \"#utility.yul\":7704:7734   */\n      gt\n        /* \"#utility.yul\":7701:7818   */\n      iszero\n      tag_611\n      jumpi\n        /* \"#utility.yul\":7737:7816   */\n      tag_612\n      tag_423\n      jump\t// in\n    tag_612:\n        /* \"#utility.yul\":7701:7818   */\n    tag_611:\n        /* \"#utility.yul\":7842:7930   */\n      tag_613\n        /* \"#utility.yul\":7922:7929   */\n      dup6\n        /* \"#utility.yul\":7913:7919   */\n      dup3\n        /* \"#utility.yul\":7902:7911   */\n      dup7\n        /* \"#utility.yul\":7898:7920   */\n      add\n        /* \"#utility.yul\":7842:7930   */\n      tag_449\n      jump\t// in\n    tag_613:\n        /* \"#utility.yul\":7832:7930   */\n      swap2\n      pop\n        /* \"#utility.yul\":7627:7940   */\n      pop\n        /* \"#utility.yul\":7243:7947   */\n      swap3\n      pop\n      swap3\n      swap1\n      pop\n      jump\t// out\n        /* \"#utility.yul\":7953:8282   */\n    tag_69:\n        /* \"#utility.yul\":8012:8018   */\n      0x00\n        /* \"#utility.yul\":8061:8063   */\n      0x20\n        /* \"#utility.yul\":8049:8058   */\n      dup3\n        /* \"#utility.yul\":8040:8047   */\n      dup5\n        /* \"#utility.yul\":8036:8059   */\n      sub\n        /* \"#utility.yul\":8032:8064   */\n      slt\n        /* \"#utility.yul\":8029:8148   */\n      iszero\n      tag_615\n      jumpi\n        /* \"#utility.yul\":8067:8146   */\n      tag_616\n      tag_422\n      jump\t// in\n    tag_616:\n        /* \"#utility.yul\":8029:8148   */\n    tag_615:\n        /* \"#utility.yul\":8187:8188   */\n      0x00\n        /* \"#utility.yul\":8212:8265   */\n      tag_617\n        /* \"#utility.yul\":8257:8264   */\n      dup5\n        /* \"#utility.yul\":8248:8254   */\n      dup3\n        /* \"#utility.yul\":8237:8246   */\n      dup6\n        /* \"#utility.yul\":8233:8255   */\n      add\n        /* \"#utility.yul\":8212:8265   */\n      tag_430\n      jump\t// in\n    tag_617:\n        /* \"#utility.yul\":8202:8265   */\n      swap2\n      pop\n        /* \"#utility.yul\":8158:8275   */\n      pop\n        /* \"#utility.yul\":7953:8282   */\n      swap3\n      swap2\n      pop\n      pop\n      jump\t// out\n        /* \"#utility.yul\":8288:8348   */\n    tag_450:\n        /* \"#utility.yul\":8316:8319   */\n      0x00\n        /* \"#utility.yul\":8337:8342   */\n      dup2\n        /* \"#utility.yul\":8330:8342   */\n      swap1\n      pop\n        /* \"#utility.yul\":8288:8348   */\n      swap2\n      swap1\n      pop\n      jump\t// out\n        /* \"#utility.yul\":8354:8496   */\n    tag_451:\n        /* \"#utility.yul\":8404:8413   */\n      0x00\n        /* \"#utility.yul\":8437:8490   */\n      tag_620\n        /* \"#utility.yul\":8455:8489   */\n      tag_621\n        /* \"#utility.yul\":8464:8488   */\n      tag_622\n        /* \"#utility.yul\":8482:8487   */\n      dup5\n        /* \"#utility.yul\":8464:8488   */\n      tag_424\n      jump\t// in\n    tag_622:\n        /* \"#utility.yul\":8455:8489   */\n      tag_450\n      jump\t// in\n    tag_621:\n        /* \"#utility.yul\":8437:8490   */\n      tag_424\n      jump\t// in\n    tag_620:\n        /* \"#utility.yul\":8424:8490   */\n      swap1\n      pop\n        /* \"#utility.yul\":8354:8496   */\n      swap2\n      swap1\n      pop\n      jump\t// out\n        /* \"#utility.yul\":8502:8628   */\n    tag_452:\n        /* \"#utility.yul\":8552:8561   */\n      0x00\n        /* \"#utility.yul\":8585:8622   */\n      tag_624\n        /* \"#utility.yul\":8616:8621   */\n      dup3\n        /* \"#utility.yul\":8585:8622   */\n      tag_451\n      jump\t// in\n    tag_624:\n        /* \"#utility.yul\":8572:8622   */\n      swap1\n      pop\n        /* \"#utility.yul\":8502:8628   */\n      swap2\n      swap1\n      pop\n      jump\t// out\n        /* \"#utility.yul\":8634:8787   */\n    tag_453:\n        /* \"#utility.yul\":8711:8720   */\n      0x00\n        /* \"#utility.yul\":8744:8781   */\n      tag_626\n        /* \"#utility.yul\":8775:8780   */\n      dup3\n        /* \"#utility.yul\":8744:8781   */\n      tag_452\n      jump\t// in\n    tag_626:\n        /* \"#utility.yul\":8731:8781   */\n      swap1\n      pop\n        /* \"#utility.yul\":8634:8787   */\n      swap2\n      swap1\n      pop\n      jump\t// out\n        /* \"#utility.yul\":8793:8978   */\n    tag_454:\n        /* \"#utility.yul\":8907:8971   */\n      tag_628\n        /* \"#utility.yul\":8965:8970   */\n      dup2\n        /* \"#utility.yul\":8907:8971   */\n      tag_453\n      jump\t// in\n    tag_628:\n        /* \"#utility.yul\":8902:8905   */\n      dup3\n        /* \"#utility.yul\":8895:8972   */\n      mstore\n        /* \"#utility.yul\":8793:8978   */\n      pop\n      pop\n      jump\t// out\n        /* \"#utility.yul\":8984:9260   */\n    tag_89:\n        /* \"#utility.yul\":9104:9108   */\n      0x00\n        /* \"#utility.yul\":9142:9144   */\n      0x20\n        /* \"#utility.yul\":9131:9140   */\n      dup3\n        /* \"#utility.yul\":9127:9145   */\n      add\n        /* \"#utility.yul\":9119:9145   */\n      swap1\n      pop\n        /* \"#utility.yul\":9155:9253   */\n      tag_630\n        /* \"#utility.yul\":9250:9251   */\n      0x00\n        /* \"#utility.yul\":9239:9248   */\n      dup4\n        /* \"#utility.yul\":9235:9252   */\n      add\n        /* \"#utility.yul\":9226:9232   */\n      dup5\n        /* \"#utility.yul\":9155:9253   */\n      tag_454\n      jump\t// in\n    tag_630:\n        /* \"#utility.yul\":8984:9260   */\n      swap3\n      swap2\n      pop\n      pop\n      jump\t// out\n        /* \"#utility.yul\":9266:9384   */\n    tag_455:\n        /* \"#utility.yul\":9353:9377   */\n      tag_632\n        /* \"#utility.yul\":9371:9376   */\n      dup2\n        /* \"#utility.yul\":9353:9377   */\n      tag_425\n      jump\t// in\n    tag_632:\n        /* \"#utility.yul\":9348:9351   */\n      dup3\n        /* \"#utility.yul\":9341:9378   */\n      mstore\n        /* \"#utility.yul\":9266:9384   */\n      pop\n      pop\n      jump\t// out\n        /* \"#utility.yul\":9390:9612   */\n    tag_94:\n        /* \"#utility.yul\":9483:9487   */\n      0x00\n        /* \"#utility.yul\":9521:9523   */\n      0x20\n        /* \"#utility.yul\":9510:9519   */\n      dup3\n        /* \"#utility.yul\":9506:9524   */\n      add\n        /* \"#utility.yul\":9498:9524   */\n      swap1\n      pop\n        /* \"#utility.yul\":9534:9605   */\n      tag_634\n        /* \"#utility.yul\":9602:9603   */\n      0x00\n        /* \"#utility.yul\":9591:9600   */\n      dup4\n        /* \"#utility.yul\":9587:9604   */\n      add\n        /* \"#utility.yul\":9578:9584   */\n      dup5\n        /* \"#utility.yul\":9534:9605   */\n      tag_455\n      jump\t// in\n    tag_634:\n        /* \"#utility.yul\":9390:9612   */\n      swap3\n      swap2\n      pop\n      pop\n      jump\t// out\n        /* \"#utility.yul\":9618:9947   */\n    tag_98:\n        /* \"#utility.yul\":9677:9683   */\n      0x00\n        /* \"#utility.yul\":9726:9728   */\n      0x20\n        /* \"#utility.yul\":9714:9723   */\n      dup3\n        /* \"#utility.yul\":9705:9712   */\n      dup5\n        /* \"#utility.yul\":9701:9724   */\n      sub\n        /* \"#utility.yul\":9697:9729   */\n      slt\n        /* \"#utility.yul\":9694:9813   */\n      iszero\n      tag_636\n      jumpi\n        /* \"#utility.yul\":9732:9811   */\n      tag_637\n      tag_422\n      jump\t// in\n    tag_637:\n        /* \"#utility.yul\":9694:9813   */\n    tag_636:\n        /* \"#utility.yul\":9852:9853   */\n      0x00\n        /* \"#utility.yul\":9877:9930   */\n      tag_638\n        /* \"#utility.yul\":9922:9929   */\n      dup5\n        /* \"#utility.yul\":9913:9919   */\n      dup3\n        /* \"#utility.yul\":9902:9911   */\n      dup6\n        /* \"#utility.yul\":9898:9920   */\n      add\n        /* \"#utility.yul\":9877:9930   */\n      tag_427\n      jump\t// in\n    tag_638:\n        /* \"#utility.yul\":9867:9930   */\n      swap2\n      pop\n        /* \"#utility.yul\":9823:9940   */\n      pop\n        /* \"#utility.yul\":9618:9947   */\n      swap3\n      swap2\n      pop\n      pop\n      jump\t// out\n        /* \"#utility.yul\":9953:10052   */\n    tag_456:\n        /* \"#utility.yul\":10005:10011   */\n      0x00\n        /* \"#utility.yul\":10039:10044   */\n      dup2\n        /* \"#utility.yul\":10033:10045   */\n      mload\n        /* \"#utility.yul\":10023:10045   */\n      swap1\n      pop\n        /* \"#utility.yul\":9953:10052   */\n      swap2\n      swap1\n      pop\n      jump\t// out\n        /* \"#utility.yul\":10058:10227   */\n    tag_457:\n        /* \"#utility.yul\":10142:10153   */\n      0x00\n        /* \"#utility.yul\":10176:10182   */\n      dup3\n        /* \"#utility.yul\":10171:10174   */\n      dup3\n        /* \"#utility.yul\":10164:10183   */\n      mstore\n        /* \"#utility.yul\":10216:10220   */\n      0x20\n        /* \"#utility.yul\":10211:10214   */\n      dup3\n        /* \"#utility.yul\":10207:10221   */\n      add\n        /* \"#utility.yul\":10192:10221   */\n      swap1\n      pop\n        /* \"#utility.yul\":10058:10227   */\n      swap3\n      swap2\n      pop\n      pop\n      jump\t// out\n        /* \"#utility.yul\":10233:10372   */\n    tag_458:\n        /* \"#utility.yul\":10322:10328   */\n      dup3\n        /* \"#utility.yul\":10317:10320   */\n      dup2\n        /* \"#utility.yul\":10312:10315   */\n      dup4\n        /* \"#utility.yul\":10306:10329   */\n      mcopy\n        /* \"#utility.yul\":10363:10364   */\n      0x00\n        /* \"#utility.yul\":10354:10360   */\n      dup4\n        /* \"#utility.yul\":10349:10352   */\n      dup4\n        /* \"#utility.yul\":10345:10361   */\n      add\n        /* \"#utility.yul\":10338:10365   */\n      mstore\n        /* \"#utility.yul\":10233:10372   */\n      pop\n      pop\n      pop\n      jump\t// out\n        /* \"#utility.yul\":10378:10755   */\n    tag_459:\n        /* \"#utility.yul\":10466:10469   */\n      0x00\n        /* \"#utility.yul\":10494:10533   */\n      tag_643\n        /* \"#utility.yul\":10527:10532   */\n      dup3\n        /* \"#utility.yul\":10494:10533   */\n      tag_456\n      jump\t// in\n    tag_643:\n        /* \"#utility.yul\":10549:10620   */\n      tag_644\n        /* \"#utility.yul\":10613:10619   */\n      dup2\n        /* \"#utility.yul\":10608:10611   */\n      dup6\n        /* \"#utility.yul\":10549:10620   */\n      tag_457\n      jump\t// in\n    tag_644:\n        /* \"#utility.yul\":10542:10620   */\n      swap4\n      pop\n        /* \"#utility.yul\":10629:10694   */\n      tag_645\n        /* \"#utility.yul\":10687:10693   */\n      dup2\n        /* \"#utility.yul\":10682:10685   */\n      dup6\n        /* \"#utility.yul\":10675:10679   */\n      0x20\n        /* \"#utility.yul\":10668:10673   */\n      dup7\n        /* \"#utility.yul\":10664:10680   */\n      add\n        /* \"#utility.yul\":10629:10694   */\n      tag_458\n      jump\t// in\n    tag_645:\n        /* \"#utility.yul\":10719:10748   */\n      tag_646\n        /* \"#utility.yul\":10741:10747   */\n      dup2\n        /* \"#utility.yul\":10719:10748   */\n      tag_437\n      jump\t// in\n    tag_646:\n        /* \"#utility.yul\":10714:10717   */\n      dup5\n        /* \"#utility.yul\":10710:10749   */\n      add\n        /* \"#utility.yul\":10703:10749   */\n      swap2\n      pop\n        /* \"#utility.yul\":10470:10755   */\n      pop\n        /* \"#utility.yul\":10378:10755   */\n      swap3\n      swap2\n      pop\n      pop\n      jump\t// out\n        /* \"#utility.yul\":10761:11615   */\n    tag_105:\n        /* \"#utility.yul\":11008:11012   */\n      0x00\n        /* \"#utility.yul\":11046:11049   */\n      0xc0\n        /* \"#utility.yul\":11035:11044   */\n      dup3\n        /* \"#utility.yul\":11031:11050   */\n      add\n        /* \"#utility.yul\":11023:11050   */\n      swap1\n      pop\n        /* \"#utility.yul\":11060:11131   */\n      tag_648\n        /* \"#utility.yul\":11128:11129   */\n      0x00\n        /* \"#utility.yul\":11117:11126   */\n      dup4\n        /* \"#utility.yul\":11113:11130   */\n      add\n        /* \"#utility.yul\":11104:11110   */\n      dup10\n        /* \"#utility.yul\":11060:11131   */\n      tag_455\n      jump\t// in\n    tag_648:\n        /* \"#utility.yul\":11178:11187   */\n      dup2\n        /* \"#utility.yul\":11172:11176   */\n      dup2\n        /* \"#utility.yul\":11168:11188   */\n      sub\n        /* \"#utility.yul\":11163:11165   */\n      0x20\n        /* \"#utility.yul\":11152:11161   */\n      dup4\n        /* \"#utility.yul\":11148:11166   */\n      add\n        /* \"#utility.yul\":11141:11189   */\n      mstore\n        /* \"#utility.yul\":11206:11284   */\n      tag_649\n        /* \"#utility.yul\":11279:11283   */\n      dup2\n        /* \"#utility.yul\":11270:11276   */\n      dup9\n        /* \"#utility.yul\":11206:11284   */\n      tag_459\n      jump\t// in\n    tag_649:\n        /* \"#utility.yul\":11198:11284   */\n      swap1\n      pop\n        /* \"#utility.yul\":11294:11360   */\n      tag_650\n        /* \"#utility.yul\":11356:11358   */\n      0x40\n        /* \"#utility.yul\":11345:11354   */\n      dup4\n        /* \"#utility.yul\":11341:11359   */\n      add\n        /* \"#utility.yul\":11332:11338   */\n      dup8\n        /* \"#utility.yul\":11294:11360   */\n      tag_432\n      jump\t// in\n    tag_650:\n        /* \"#utility.yul\":11370:11442   */\n      tag_651\n        /* \"#utility.yul\":11438:11440   */\n      0x60\n        /* \"#utility.yul\":11427:11436   */\n      dup4\n        /* \"#utility.yul\":11423:11441   */\n      add\n        /* \"#utility.yul\":11414:11420   */\n      dup7\n        /* \"#utility.yul\":11370:11442   */\n      tag_435\n      jump\t// in\n    tag_651:\n        /* \"#utility.yul\":11452:11525   */\n      tag_652\n        /* \"#utility.yul\":11520:11523   */\n      0x80\n        /* \"#utility.yul\":11509:11518   */\n      dup4\n        /* \"#utility.yul\":11505:11524   */\n      add\n        /* \"#utility.yul\":11496:11502   */\n      dup6\n        /* \"#utility.yul\":11452:11525   */\n      tag_435\n      jump\t// in\n    tag_652:\n        /* \"#utility.yul\":11535:11608   */\n      tag_653\n        /* \"#utility.yul\":11603:11606   */\n      0xa0\n        /* \"#utility.yul\":11592:11601   */\n      dup4\n        /* \"#utility.yul\":11588:11607   */\n      add\n        /* \"#utility.yul\":11579:11585   */\n      dup5\n        /* \"#utility.yul\":11535:11608   */\n      tag_435\n      jump\t// in\n    tag_653:\n        /* \"#utility.yul\":10761:11615   */\n      swap8\n      swap7\n      pop\n      pop\n      pop\n      pop\n      pop\n      pop\n      pop\n      jump\t// out\n        /* \"#utility.yul\":11621:12095   */\n    tag_120:\n        /* \"#utility.yul\":11689:11695   */\n      0x00\n        /* \"#utility.yul\":11697:11703   */\n      dup1\n        /* \"#utility.yul\":11746:11748   */\n      0x40\n        /* \"#utility.yul\":11734:11743   */\n      dup4\n        /* \"#utility.yul\":11725:11732   */\n      dup6\n        /* \"#utility.yul\":11721:11744   */\n      sub\n        /* \"#utility.yul\":11717:11749   */\n      slt\n        /* \"#utility.yul\":11714:11833   */\n      iszero\n      tag_655\n      jumpi\n        /* \"#utility.yul\":11752:11831   */\n      tag_656\n      tag_422\n      jump\t// in\n    tag_656:\n        /* \"#utility.yul\":11714:11833   */\n    tag_655:\n        /* \"#utility.yul\":11872:11873   */\n      0x00\n        /* \"#utility.yul\":11897:11950   */\n      tag_657\n        /* \"#utility.yul\":11942:11949   */\n      dup6\n        /* \"#utility.yul\":11933:11939   */\n      dup3\n        /* \"#utility.yul\":11922:11931   */\n      dup7\n        /* \"#utility.yul\":11918:11940   */\n      add\n        /* \"#utility.yul\":11897:11950   */\n      tag_430\n      jump\t// in\n    tag_657:\n        /* \"#utility.yul\":11887:11950   */\n      swap3\n      pop\n        /* \"#utility.yul\":11843:11960   */\n      pop\n        /* \"#utility.yul\":11999:12001   */\n      0x20\n        /* \"#utility.yul\":12025:12078   */\n      tag_658\n        /* \"#utility.yul\":12070:12077   */\n      dup6\n        /* \"#utility.yul\":12061:12067   */\n      dup3\n        /* \"#utility.yul\":12050:12059   */\n      dup7\n        /* \"#utility.yul\":12046:12068   */\n      add\n        /* \"#utility.yul\":12025:12078   */\n      tag_430\n      jump\t// in\n    tag_658:\n        /* \"#utility.yul\":12015:12078   */\n      swap2\n      pop\n        /* \"#utility.yul\":11970:12088   */\n      pop\n        /* \"#utility.yul\":11621:12095   */\n      swap3\n      pop\n      swap3\n      swap1\n      pop\n      jump\t// out\n        /* \"#utility.yul\":12101:12178   */\n    tag_460:\n        /* \"#utility.yul\":12138:12145   */\n      0x00\n        /* \"#utility.yul\":12167:12172   */\n      dup2\n        /* \"#utility.yul\":12156:12172   */\n      swap1\n      pop\n        /* \"#utility.yul\":12101:12178   */\n      swap2\n      swap1\n      pop\n      jump\t// out\n        /* \"#utility.yul\":12184:12302   */\n    tag_461:\n        /* \"#utility.yul\":12271:12295   */\n      tag_661\n        /* \"#utility.yul\":12289:12294   */\n      dup2\n        /* \"#utility.yul\":12271:12295   */\n      tag_460\n      jump\t// in\n    tag_661:\n        /* \"#utility.yul\":12266:12269   */\n      dup3\n        /* \"#utility.yul\":12259:12296   */\n      mstore\n        /* \"#utility.yul\":12184:12302   */\n      pop\n      pop\n      jump\t// out\n        /* \"#utility.yul\":12308:13649   */\n    tag_123:\n        /* \"#utility.yul\":12669:12673   */\n      0x00\n        /* \"#utility.yul\":12707:12710   */\n      0xe0\n        /* \"#utility.yul\":12696:12705   */\n      dup3\n        /* \"#utility.yul\":12692:12711   */\n      add\n        /* \"#utility.yul\":12684:12711   */\n      swap1\n      pop\n        /* \"#utility.yul\":12721:12792   */\n      tag_663\n        /* \"#utility.yul\":12789:12790   */\n      0x00\n        /* \"#utility.yul\":12778:12787   */\n      dup4\n        /* \"#utility.yul\":12774:12791   */\n      add\n        /* \"#utility.yul\":12765:12771   */\n      dup11\n        /* \"#utility.yul\":12721:12792   */\n      tag_435\n      jump\t// in\n    tag_663:\n        /* \"#utility.yul\":12839:12848   */\n      dup2\n        /* \"#utility.yul\":12833:12837   */\n      dup2\n        /* \"#utility.yul\":12829:12849   */\n      sub\n        /* \"#utility.yul\":12824:12826   */\n      0x20\n        /* \"#utility.yul\":12813:12822   */\n      dup4\n        /* \"#utility.yul\":12809:12827   */\n      add\n        /* \"#utility.yul\":12802:12850   */\n      mstore\n        /* \"#utility.yul\":12867:12945   */\n      tag_664\n        /* \"#utility.yul\":12940:12944   */\n      dup2\n        /* \"#utility.yul\":12931:12937   */\n      dup10\n        /* \"#utility.yul\":12867:12945   */\n      tag_459\n      jump\t// in\n    tag_664:\n        /* \"#utility.yul\":12859:12945   */\n      swap1\n      pop\n        /* \"#utility.yul\":12992:13001   */\n      dup2\n        /* \"#utility.yul\":12986:12990   */\n      dup2\n        /* \"#utility.yul\":12982:13002   */\n      sub\n        /* \"#utility.yul\":12977:12979   */\n      0x40\n        /* \"#utility.yul\":12966:12975   */\n      dup4\n        /* \"#utility.yul\":12962:12980   */\n      add\n        /* \"#utility.yul\":12955:13003   */\n      mstore\n        /* \"#utility.yul\":13020:13098   */\n      tag_665\n        /* \"#utility.yul\":13093:13097   */\n      dup2\n        /* \"#utility.yul\":13084:13090   */\n      dup9\n        /* \"#utility.yul\":13020:13098   */\n      tag_459\n      jump\t// in\n    tag_665:\n        /* \"#utility.yul\":13012:13098   */\n      swap1\n      pop\n        /* \"#utility.yul\":13145:13154   */\n      dup2\n        /* \"#utility.yul\":13139:13143   */\n      dup2\n        /* \"#utility.yul\":13135:13155   */\n      sub\n        /* \"#utility.yul\":13130:13132   */\n      0x60\n        /* \"#utility.yul\":13119:13128   */\n      dup4\n        /* \"#utility.yul\":13115:13133   */\n      add\n        /* \"#utility.yul\":13108:13156   */\n      mstore\n        /* \"#utility.yul\":13173:13251   */\n      tag_666\n        /* \"#utility.yul\":13246:13250   */\n      dup2\n        /* \"#utility.yul\":13237:13243   */\n      dup8\n        /* \"#utility.yul\":13173:13251   */\n      tag_459\n      jump\t// in\n    tag_666:\n        /* \"#utility.yul\":13165:13251   */\n      swap1\n      pop\n        /* \"#utility.yul\":13299:13308   */\n      dup2\n        /* \"#utility.yul\":13293:13297   */\n      dup2\n        /* \"#utility.yul\":13289:13309   */\n      sub\n        /* \"#utility.yul\":13283:13286   */\n      0x80\n        /* \"#utility.yul\":13272:13281   */\n      dup4\n        /* \"#utility.yul\":13268:13287   */\n      add\n        /* \"#utility.yul\":13261:13310   */\n      mstore\n        /* \"#utility.yul\":13327:13405   */\n      tag_667\n        /* \"#utility.yul\":13400:13404   */\n      dup2\n        /* \"#utility.yul\":13391:13397   */\n      dup7\n        /* \"#utility.yul\":13327:13405   */\n      tag_459\n      jump\t// in\n    tag_667:\n        /* \"#utility.yul\":13319:13405   */\n      swap1\n      pop\n        /* \"#utility.yul\":13453:13462   */\n      dup2\n        /* \"#utility.yul\":13447:13451   */\n      dup2\n        /* \"#utility.yul\":13443:13463   */\n      sub\n        /* \"#utility.yul\":13437:13440   */\n      0xa0\n        /* \"#utility.yul\":13426:13435   */\n      dup4\n        /* \"#utility.yul\":13422:13441   */\n      add\n        /* \"#utility.yul\":13415:13464   */\n      mstore\n        /* \"#utility.yul\":13481:13559   */\n      tag_668\n        /* \"#utility.yul\":13554:13558   */\n      dup2\n        /* \"#utility.yul\":13545:13551   */\n      dup6\n        /* \"#utility.yul\":13481:13559   */\n      tag_459\n      jump\t// in\n    tag_668:\n        /* \"#utility.yul\":13473:13559   */\n      swap1\n      pop\n        /* \"#utility.yul\":13569:13642   */\n      tag_669\n        /* \"#utility.yul\":13637:13640   */\n      0xc0\n        /* \"#utility.yul\":13626:13635   */\n      dup4\n        /* \"#utility.yul\":13622:13641   */\n      add\n        /* \"#utility.yul\":13613:13619   */\n      dup5\n        /* \"#utility.yul\":13569:13642   */\n      tag_461\n      jump\t// in\n    tag_669:\n        /* \"#utility.yul\":12308:13649   */\n      swap9\n      swap8\n      pop\n      pop\n      pop\n      pop\n      pop\n      pop\n      pop\n      pop\n      jump\t// out\n        /* \"#utility.yul\":13655:13987   */\n    tag_462:\n        /* \"#utility.yul\":13753:13757   */\n      0x00\n        /* \"#utility.yul\":13843:13861   */\n      0xffffffffffffffff\n        /* \"#utility.yul\":13835:13841   */\n      dup3\n        /* \"#utility.yul\":13832:13862   */\n      gt\n        /* \"#utility.yul\":13829:13885   */\n      iszero\n      tag_671\n      jumpi\n        /* \"#utility.yul\":13865:13883   */\n      tag_672\n      tag_438\n      jump\t// in\n    tag_672:\n        /* \"#utility.yul\":13829:13885   */\n    tag_671:\n        /* \"#utility.yul\":13915:13919   */\n      0x20\n        /* \"#utility.yul\":13907:13913   */\n      dup3\n        /* \"#utility.yul\":13903:13920   */\n      mul\n        /* \"#utility.yul\":13895:13920   */\n      swap1\n      pop\n        /* \"#utility.yul\":13975:13979   */\n      0x20\n        /* \"#utility.yul\":13969:13973   */\n      dup2\n        /* \"#utility.yul\":13965:13980   */\n      add\n        /* \"#utility.yul\":13957:13980   */\n      swap1\n      pop\n        /* \"#utility.yul\":13655:13987   */\n      swap2\n      swap1\n      pop\n      jump\t// out\n        /* \"#utility.yul\":13993:14110   */\n    tag_463:\n        /* \"#utility.yul\":14102:14103   */\n      0x00\n        /* \"#utility.yul\":14099:14100   */\n      dup1\n        /* \"#utility.yul\":14092:14104   */\n      revert\n        /* \"#utility.yul\":14116:14233   */\n    tag_464:\n        /* \"#utility.yul\":14225:14226   */\n      0x00\n        /* \"#utility.yul\":14222:14223   */\n      dup1\n        /* \"#utility.yul\":14215:14227   */\n      revert\n        /* \"#utility.yul\":14239:14361   */\n    tag_465:\n        /* \"#utility.yul\":14312:14336   */\n      tag_676\n        /* \"#utility.yul\":14330:14335   */\n      dup2\n        /* \"#utility.yul\":14312:14336   */\n      tag_460\n      jump\t// in\n    tag_676:\n        /* \"#utility.yul\":14305:14310   */\n      dup2\n        /* \"#utility.yul\":14302:14337   */\n      eq\n        /* \"#utility.yul\":14292:14355   */\n      tag_677\n      jumpi\n        /* \"#utility.yul\":14351:14352   */\n      0x00\n        /* \"#utility.yul\":14348:14349   */\n      dup1\n        /* \"#utility.yul\":14341:14353   */\n      revert\n        /* \"#utility.yul\":14292:14355   */\n    tag_677:\n        /* \"#utility.yul\":14239:14361   */\n      pop\n      jump\t// out\n        /* \"#utility.yul\":14367:14506   */\n    tag_466:\n        /* \"#utility.yul\":14413:14418   */\n      0x00\n        /* \"#utility.yul\":14451:14457   */\n      dup2\n        /* \"#utility.yul\":14438:14458   */\n      calldataload\n        /* \"#utility.yul\":14429:14458   */\n      swap1\n      pop\n        /* \"#utility.yul\":14467:14500   */\n      tag_679\n        /* \"#utility.yul\":14494:14499   */\n      dup2\n        /* \"#utility.yul\":14467:14500   */\n      tag_465\n      jump\t// in\n    tag_679:\n        /* \"#utility.yul\":14367:14506   */\n      swap3\n      swap2\n      pop\n      pop\n      jump\t// out\n        /* \"#utility.yul\":14549:16810   */\n    tag_467:\n        /* \"#utility.yul\":14619:14624   */\n      0x00\n        /* \"#utility.yul\":14663:14667   */\n      0xe0\n        /* \"#utility.yul\":14651:14660   */\n      dup3\n        /* \"#utility.yul\":14646:14649   */\n      dup5\n        /* \"#utility.yul\":14642:14661   */\n      sub\n        /* \"#utility.yul\":14638:14668   */\n      slt\n        /* \"#utility.yul\":14635:14752   */\n      iszero\n      tag_681\n      jumpi\n        /* \"#utility.yul\":14671:14750   */\n      tag_682\n      tag_463\n      jump\t// in\n    tag_682:\n        /* \"#utility.yul\":14635:14752   */\n    tag_681:\n        /* \"#utility.yul\":14770:14791   */\n      tag_683\n        /* \"#utility.yul\":14786:14790   */\n      0xe0\n        /* \"#utility.yul\":14770:14791   */\n      tag_440\n      jump\t// in\n    tag_683:\n        /* \"#utility.yul\":14761:14791   */\n      swap1\n      pop\n        /* \"#utility.yul\":14854:14855   */\n      0x00\n        /* \"#utility.yul\":14894:14943   */\n      tag_684\n        /* \"#utility.yul\":14939:14942   */\n      dup5\n        /* \"#utility.yul\":14930:14936   */\n      dup3\n        /* \"#utility.yul\":14919:14928   */\n      dup6\n        /* \"#utility.yul\":14915:14937   */\n      add\n        /* \"#utility.yul\":14894:14943   */\n      tag_430\n      jump\t// in\n    tag_684:\n        /* \"#utility.yul\":14887:14891   */\n      0x00\n        /* \"#utility.yul\":14880:14885   */\n      dup4\n        /* \"#utility.yul\":14876:14892   */\n      add\n        /* \"#utility.yul\":14869:14944   */\n      mstore\n        /* \"#utility.yul\":14801:14955   */\n      pop\n        /* \"#utility.yul\":15046:15048   */\n      0x20\n        /* \"#utility.yul\":15035:15044   */\n      dup3\n        /* \"#utility.yul\":15031:15049   */\n      add\n        /* \"#utility.yul\":15018:15050   */\n      calldataload\n        /* \"#utility.yul\":15077:15095   */\n      0xffffffffffffffff\n        /* \"#utility.yul\":15069:15075   */\n      dup2\n        /* \"#utility.yul\":15066:15096   */\n      gt\n        /* \"#utility.yul\":15063:15180   */\n      iszero\n      tag_685\n      jumpi\n        /* \"#utility.yul\":15099:15178   */\n      tag_686\n      tag_464\n      jump\t// in\n    tag_686:\n        /* \"#utility.yul\":15063:15180   */\n    tag_685:\n        /* \"#utility.yul\":15219:15278   */\n      tag_687\n        /* \"#utility.yul\":15274:15277   */\n      dup5\n        /* \"#utility.yul\":15265:15271   */\n      dup3\n        /* \"#utility.yul\":15254:15263   */\n      dup6\n        /* \"#utility.yul\":15250:15272   */\n      add\n        /* \"#utility.yul\":15219:15278   */\n      tag_447\n      jump\t// in\n    tag_687:\n        /* \"#utility.yul\":15212:15216   */\n      0x20\n        /* \"#utility.yul\":15205:15210   */\n      dup4\n        /* \"#utility.yul\":15201:15217   */\n      add\n        /* \"#utility.yul\":15194:15279   */\n      mstore\n        /* \"#utility.yul\":14965:15290   */\n      pop\n        /* \"#utility.yul\":15380:15382   */\n      0x40\n        /* \"#utility.yul\":15369:15378   */\n      dup3\n        /* \"#utility.yul\":15365:15383   */\n      add\n        /* \"#utility.yul\":15352:15384   */\n      calldataload\n        /* \"#utility.yul\":15411:15429   */\n      0xffffffffffffffff\n        /* \"#utility.yul\":15403:15409   */\n      dup2\n        /* \"#utility.yul\":15400:15430   */\n      gt\n        /* \"#utility.yul\":15397:15514   */\n      iszero\n      tag_688\n      jumpi\n        /* \"#utility.yul\":15433:15512   */\n      tag_689\n      tag_464\n      jump\t// in\n    tag_689:\n        /* \"#utility.yul\":15397:15514   */\n    tag_688:\n        /* \"#utility.yul\":15553:15612   */\n      tag_690\n        /* \"#utility.yul\":15608:15611   */\n      dup5\n        /* \"#utility.yul\":15599:15605   */\n      dup3\n        /* \"#utility.yul\":15588:15597   */\n      dup6\n        /* \"#utility.yul\":15584:15606   */\n      add\n        /* \"#utility.yul\":15553:15612   */\n      tag_447\n      jump\t// in\n    tag_690:\n        /* \"#utility.yul\":15546:15550   */\n      0x40\n        /* \"#utility.yul\":15539:15544   */\n      dup4\n        /* \"#utility.yul\":15535:15551   */\n      add\n        /* \"#utility.yul\":15528:15613   */\n      mstore\n        /* \"#utility.yul\":15300:15624   */\n      pop\n        /* \"#utility.yul\":15714:15716   */\n      0x60\n        /* \"#utility.yul\":15703:15712   */\n      dup3\n        /* \"#utility.yul\":15699:15717   */\n      add\n        /* \"#utility.yul\":15686:15718   */\n      calldataload\n        /* \"#utility.yul\":15745:15763   */\n      0xffffffffffffffff\n        /* \"#utility.yul\":15737:15743   */\n      dup2\n        /* \"#utility.yul\":15734:15764   */\n      gt\n        /* \"#utility.yul\":15731:15848   */\n      iszero\n      tag_691\n      jumpi\n        /* \"#utility.yul\":15767:15846   */\n      tag_692\n      tag_464\n      jump\t// in\n    tag_692:\n        /* \"#utility.yul\":15731:15848   */\n    tag_691:\n        /* \"#utility.yul\":15887:15946   */\n      tag_693\n        /* \"#utility.yul\":15942:15945   */\n      dup5\n        /* \"#utility.yul\":15933:15939   */\n      dup3\n        /* \"#utility.yul\":15922:15931   */\n      dup6\n        /* \"#utility.yul\":15918:15940   */\n      add\n        /* \"#utility.yul\":15887:15946   */\n      tag_447\n      jump\t// in\n    tag_693:\n        /* \"#utility.yul\":15880:15884   */\n      0x60\n        /* \"#utility.yul\":15873:15878   */\n      dup4\n        /* \"#utility.yul\":15869:15885   */\n      add\n        /* \"#utility.yul\":15862:15947   */\n      mstore\n        /* \"#utility.yul\":15634:15958   */\n      pop\n        /* \"#utility.yul\":16048:16051   */\n      0x80\n        /* \"#utility.yul\":16037:16046   */\n      dup3\n        /* \"#utility.yul\":16033:16052   */\n      add\n        /* \"#utility.yul\":16020:16053   */\n      calldataload\n        /* \"#utility.yul\":16080:16098   */\n      0xffffffffffffffff\n        /* \"#utility.yul\":16072:16078   */\n      dup2\n        /* \"#utility.yul\":16069:16099   */\n      gt\n        /* \"#utility.yul\":16066:16183   */\n      iszero\n      tag_694\n      jumpi\n        /* \"#utility.yul\":16102:16181   */\n      tag_695\n      tag_464\n      jump\t// in\n    tag_695:\n        /* \"#utility.yul\":16066:16183   */\n    tag_694:\n        /* \"#utility.yul\":16222:16281   */\n      tag_696\n        /* \"#utility.yul\":16277:16280   */\n      dup5\n        /* \"#utility.yul\":16268:16274   */\n      dup3\n        /* \"#utility.yul\":16257:16266   */\n      dup6\n        /* \"#utility.yul\":16253:16275   */\n      add\n        /* \"#utility.yul\":16222:16281   */\n      tag_447\n      jump\t// in\n    tag_696:\n        /* \"#utility.yul\":16215:16219   */\n      0x80\n        /* \"#utility.yul\":16208:16213   */\n      dup4\n        /* \"#utility.yul\":16204:16220   */\n      add\n        /* \"#utility.yul\":16197:16282   */\n      mstore\n        /* \"#utility.yul\":15968:16293   */\n      pop\n        /* \"#utility.yul\":16383:16386   */\n      0xa0\n        /* \"#utility.yul\":16372:16381   */\n      dup3\n        /* \"#utility.yul\":16368:16387   */\n      add\n        /* \"#utility.yul\":16355:16388   */\n      calldataload\n        /* \"#utility.yul\":16415:16433   */\n      0xffffffffffffffff\n        /* \"#utility.yul\":16407:16413   */\n      dup2\n        /* \"#utility.yul\":16404:16434   */\n      gt\n        /* \"#utility.yul\":16401:16518   */\n      iszero\n      tag_697\n      jumpi\n        /* \"#utility.yul\":16437:16516   */\n      tag_698\n      tag_464\n      jump\t// in\n    tag_698:\n        /* \"#utility.yul\":16401:16518   */\n    tag_697:\n        /* \"#utility.yul\":16557:16616   */\n      tag_699\n        /* \"#utility.yul\":16612:16615   */\n      dup5\n        /* \"#utility.yul\":16603:16609   */\n      dup3\n        /* \"#utility.yul\":16592:16601   */\n      dup6\n        /* \"#utility.yul\":16588:16610   */\n      add\n        /* \"#utility.yul\":16557:16616   */\n      tag_447\n      jump\t// in\n    tag_699:\n        /* \"#utility.yul\":16550:16554   */\n      0xa0\n        /* \"#utility.yul\":16543:16548   */\n      dup4\n        /* \"#utility.yul\":16539:16555   */\n      add\n        /* \"#utility.yul\":16532:16617   */\n      mstore\n        /* \"#utility.yul\":16303:16628   */\n      pop\n        /* \"#utility.yul\":16700:16703   */\n      0xc0\n        /* \"#utility.yul\":16742:16791   */\n      tag_700\n        /* \"#utility.yul\":16787:16790   */\n      dup5\n        /* \"#utility.yul\":16778:16784   */\n      dup3\n        /* \"#utility.yul\":16767:16776   */\n      dup6\n        /* \"#utility.yul\":16763:16785   */\n      add\n        /* \"#utility.yul\":16742:16791   */\n      tag_466\n      jump\t// in\n    tag_700:\n        /* \"#utility.yul\":16735:16739   */\n      0xc0\n        /* \"#utility.yul\":16728:16733   */\n      dup4\n        /* \"#utility.yul\":16724:16740   */\n      add\n        /* \"#utility.yul\":16717:16792   */\n      mstore\n        /* \"#utility.yul\":16638:16803   */\n      pop\n        /* \"#utility.yul\":14549:16810   */\n      swap3\n      swap2\n      pop\n      pop\n      jump\t// out\n        /* \"#utility.yul\":16855:17833   */\n    tag_468:\n        /* \"#utility.yul\":16972:16977   */\n      0x00\n        /* \"#utility.yul\":16997:17099   */\n      tag_702\n        /* \"#utility.yul\":17013:17098   */\n      tag_703\n        /* \"#utility.yul\":17091:17097   */\n      dup5\n        /* \"#utility.yul\":17013:17098   */\n      tag_462\n      jump\t// in\n    tag_703:\n        /* \"#utility.yul\":16997:17099   */\n      tag_440\n      jump\t// in\n    tag_702:\n        /* \"#utility.yul\":16988:17099   */\n      swap1\n      pop\n        /* \"#utility.yul\":17119:17124   */\n      dup1\n        /* \"#utility.yul\":17148:17154   */\n      dup4\n        /* \"#utility.yul\":17141:17146   */\n      dup3\n        /* \"#utility.yul\":17134:17155   */\n      mstore\n        /* \"#utility.yul\":17182:17186   */\n      0x20\n        /* \"#utility.yul\":17175:17180   */\n      dup3\n        /* \"#utility.yul\":17171:17187   */\n      add\n        /* \"#utility.yul\":17164:17187   */\n      swap1\n      pop\n        /* \"#utility.yul\":17235:17239   */\n      0x20\n        /* \"#utility.yul\":17227:17233   */\n      dup5\n        /* \"#utility.yul\":17223:17240   */\n      mul\n        /* \"#utility.yul\":17215:17221   */\n      dup4\n        /* \"#utility.yul\":17211:17241   */\n      add\n        /* \"#utility.yul\":17264:17267   */\n      dup6\n        /* \"#utility.yul\":17256:17262   */\n      dup2\n        /* \"#utility.yul\":17253:17268   */\n      gt\n        /* \"#utility.yul\":17250:17372   */\n      iszero\n      tag_704\n      jumpi\n        /* \"#utility.yul\":17283:17362   */\n      tag_705\n      tag_442\n      jump\t// in\n    tag_705:\n        /* \"#utility.yul\":17250:17372   */\n    tag_704:\n        /* \"#utility.yul\":17398:17404   */\n      dup4\n        /* \"#utility.yul\":17381:17827   */\n    tag_706:\n        /* \"#utility.yul\":17415:17421   */\n      dup2\n        /* \"#utility.yul\":17410:17413   */\n      dup2\n        /* \"#utility.yul\":17407:17422   */\n      lt\n        /* \"#utility.yul\":17381:17827   */\n      iszero\n      tag_708\n      jumpi\n        /* \"#utility.yul\":17504:17507   */\n      dup1\n        /* \"#utility.yul\":17491:17508   */\n      calldataload\n        /* \"#utility.yul\":17540:17558   */\n      0xffffffffffffffff\n        /* \"#utility.yul\":17527:17538   */\n      dup2\n        /* \"#utility.yul\":17524:17559   */\n      gt\n        /* \"#utility.yul\":17521:17643   */\n      iszero\n      tag_709\n      jumpi\n        /* \"#utility.yul\":17562:17641   */\n      tag_710\n      tag_436\n      jump\t// in\n    tag_710:\n        /* \"#utility.yul\":17521:17643   */\n    tag_709:\n        /* \"#utility.yul\":17686:17697   */\n      dup1\n        /* \"#utility.yul\":17678:17684   */\n      dup7\n        /* \"#utility.yul\":17674:17698   */\n      add\n        /* \"#utility.yul\":17724:17782   */\n      tag_711\n        /* \"#utility.yul\":17778:17781   */\n      dup10\n        /* \"#utility.yul\":17766:17776   */\n      dup3\n        /* \"#utility.yul\":17724:17782   */\n      tag_467\n      jump\t// in\n    tag_711:\n        /* \"#utility.yul\":17719:17722   */\n      dup6\n        /* \"#utility.yul\":17712:17783   */\n      mstore\n        /* \"#utility.yul\":17812:17816   */\n      0x20\n        /* \"#utility.yul\":17807:17810   */\n      dup6\n        /* \"#utility.yul\":17803:17817   */\n      add\n        /* \"#utility.yul\":17796:17817   */\n      swap5\n      pop\n        /* \"#utility.yul\":17457:17827   */\n      pop\n      pop\n        /* \"#utility.yul\":17441:17445   */\n      0x20\n        /* \"#utility.yul\":17436:17439   */\n      dup2\n        /* \"#utility.yul\":17432:17446   */\n      add\n        /* \"#utility.yul\":17425:17446   */\n      swap1\n      pop\n        /* \"#utility.yul\":17381:17827   */\n      jump(tag_706)\n    tag_708:\n        /* \"#utility.yul\":17385:17406   */\n      pop\n        /* \"#utility.yul\":16978:17833   */\n      pop\n      pop\n        /* \"#utility.yul\":16855:17833   */\n      swap4\n      swap3\n      pop\n      pop\n      pop\n      jump\t// out\n        /* \"#utility.yul\":17878:18290   */\n    tag_469:\n        /* \"#utility.yul\":17970:17975   */\n      0x00\n        /* \"#utility.yul\":18019:18022   */\n      dup3\n        /* \"#utility.yul\":18012:18016   */\n      0x1f\n        /* \"#utility.yul\":18004:18010   */\n      dup4\n        /* \"#utility.yul\":18000:18017   */\n      add\n        /* \"#utility.yul\":17996:18023   */\n      slt\n        /* \"#utility.yul\":17986:18108   */\n      tag_713\n      jumpi\n        /* \"#utility.yul\":18027:18106   */\n      tag_714\n      tag_436\n      jump\t// in\n    tag_714:\n        /* \"#utility.yul\":17986:18108   */\n    tag_713:\n        /* \"#utility.yul\":18144:18150   */\n      dup2\n        /* \"#utility.yul\":18131:18151   */\n      calldataload\n        /* \"#utility.yul\":18169:18284   */\n      tag_715\n        /* \"#utility.yul\":18280:18283   */\n      dup5\n        /* \"#utility.yul\":18272:18278   */\n      dup3\n        /* \"#utility.yul\":18265:18269   */\n      0x20\n        /* \"#utility.yul\":18257:18263   */\n      dup7\n        /* \"#utility.yul\":18253:18270   */\n      add\n        /* \"#utility.yul\":18169:18284   */\n      tag_468\n      jump\t// in\n    tag_715:\n        /* \"#utility.yul\":18160:18284   */\n      swap2\n      pop\n        /* \"#utility.yul\":17976:18290   */\n      pop\n        /* \"#utility.yul\":17878:18290   */\n      swap3\n      swap2\n      pop\n      pop\n      jump\t// out\n        /* \"#utility.yul\":18296:19202   */\n    tag_137:\n        /* \"#utility.yul\":18420:18426   */\n      0x00\n        /* \"#utility.yul\":18428:18434   */\n      dup1\n        /* \"#utility.yul\":18477:18479   */\n      0x40\n        /* \"#utility.yul\":18465:18474   */\n      dup4\n        /* \"#utility.yul\":18456:18463   */\n      dup6\n        /* \"#utility.yul\":18452:18475   */\n      sub\n        /* \"#utility.yul\":18448:18480   */\n      slt\n        /* \"#utility.yul\":18445:18564   */\n      iszero\n      tag_717\n      jumpi\n        /* \"#utility.yul\":18483:18562   */\n      tag_718\n      tag_422\n      jump\t// in\n    tag_718:\n        /* \"#utility.yul\":18445:18564   */\n    tag_717:\n        /* \"#utility.yul\":18631:18632   */\n      0x00\n        /* \"#utility.yul\":18620:18629   */\n      dup4\n        /* \"#utility.yul\":18616:18633   */\n      add\n        /* \"#utility.yul\":18603:18634   */\n      calldataload\n        /* \"#utility.yul\":18661:18679   */\n      0xffffffffffffffff\n        /* \"#utility.yul\":18653:18659   */\n      dup2\n        /* \"#utility.yul\":18650:18680   */\n      gt\n        /* \"#utility.yul\":18647:18764   */\n      iszero\n      tag_719\n      jumpi\n        /* \"#utility.yul\":18683:18762   */\n      tag_720\n      tag_423\n      jump\t// in\n    tag_720:\n        /* \"#utility.yul\":18647:18764   */\n    tag_719:\n        /* \"#utility.yul\":18788:18851   */\n      tag_721\n        /* \"#utility.yul\":18843:18850   */\n      dup6\n        /* \"#utility.yul\":18834:18840   */\n      dup3\n        /* \"#utility.yul\":18823:18832   */\n      dup7\n        /* \"#utility.yul\":18819:18841   */\n      add\n        /* \"#utility.yul\":18788:18851   */\n      tag_447\n      jump\t// in\n    tag_721:\n        /* \"#utility.yul\":18778:18851   */\n      swap3\n      pop\n        /* \"#utility.yul\":18574:18861   */\n      pop\n        /* \"#utility.yul\":18928:18930   */\n      0x20\n        /* \"#utility.yul\":18917:18926   */\n      dup4\n        /* \"#utility.yul\":18913:18931   */\n      add\n        /* \"#utility.yul\":18900:18932   */\n      calldataload\n        /* \"#utility.yul\":18959:18977   */\n      0xffffffffffffffff\n        /* \"#utility.yul\":18951:18957   */\n      dup2\n        /* \"#utility.yul\":18948:18978   */\n      gt\n        /* \"#utility.yul\":18945:19062   */\n      iszero\n      tag_722\n      jumpi\n        /* \"#utility.yul\":18981:19060   */\n      tag_723\n      tag_423\n      jump\t// in\n    tag_723:\n        /* \"#utility.yul\":18945:19062   */\n    tag_722:\n        /* \"#utility.yul\":19086:19185   */\n      tag_724\n        /* \"#utility.yul\":19177:19184   */\n      dup6\n        /* \"#utility.yul\":19168:19174   */\n      dup3\n        /* \"#utility.yul\":19157:19166   */\n      dup7\n        /* \"#utility.yul\":19153:19175   */\n      add\n        /* \"#utility.yul\":19086:19185   */\n      tag_469\n      jump\t// in\n    tag_724:\n        /* \"#utility.yul\":19076:19185   */\n      swap2\n      pop\n        /* \"#utility.yul\":18871:19195   */\n      pop\n        /* \"#utility.yul\":18296:19202   */\n      swap3\n      pop\n      swap3\n      swap1\n      pop\n      jump\t// out\n        /* \"#utility.yul\":19208:19355   */\n    tag_470:\n        /* \"#utility.yul\":19309:19320   */\n      0x00\n        /* \"#utility.yul\":19346:19349   */\n      dup2\n        /* \"#utility.yul\":19331:19349   */\n      swap1\n      pop\n        /* \"#utility.yul\":19208:19355   */\n      swap3\n      swap2\n      pop\n      pop\n      jump\t// out\n        /* \"#utility.yul\":19361:19475   */\n    tag_471:\n      pop\n      jump\t// out\n        /* \"#utility.yul\":19481:19879   */\n    tag_472:\n        /* \"#utility.yul\":19640:19643   */\n      0x00\n        /* \"#utility.yul\":19661:19744   */\n      tag_728\n        /* \"#utility.yul\":19742:19743   */\n      0x00\n        /* \"#utility.yul\":19737:19740   */\n      dup4\n        /* \"#utility.yul\":19661:19744   */\n      tag_470\n      jump\t// in\n    tag_728:\n        /* \"#utility.yul\":19654:19744   */\n      swap2\n      pop\n        /* \"#utility.yul\":19753:19846   */\n      tag_729\n        /* \"#utility.yul\":19842:19845   */\n      dup3\n        /* \"#utility.yul\":19753:19846   */\n      tag_471\n      jump\t// in\n    tag_729:\n        /* \"#utility.yul\":19871:19872   */\n      0x00\n        /* \"#utility.yul\":19866:19869   */\n      dup3\n        /* \"#utility.yul\":19862:19873   */\n      add\n        /* \"#utility.yul\":19855:19873   */\n      swap1\n      pop\n        /* \"#utility.yul\":19481:19879   */\n      swap2\n      swap1\n      pop\n      jump\t// out\n        /* \"#utility.yul\":19885:20264   */\n    tag_158:\n        /* \"#utility.yul\":20069:20072   */\n      0x00\n        /* \"#utility.yul\":20091:20238   */\n      tag_731\n        /* \"#utility.yul\":20234:20237   */\n      dup3\n        /* \"#utility.yul\":20091:20238   */\n      tag_472\n      jump\t// in\n    tag_731:\n        /* \"#utility.yul\":20084:20238   */\n      swap2\n      pop\n        /* \"#utility.yul\":20255:20258   */\n      dup2\n        /* \"#utility.yul\":20248:20258   */\n      swap1\n      pop\n        /* \"#utility.yul\":19885:20264   */\n      swap2\n      swap1\n      pop\n      jump\t// out\n        /* \"#utility.yul\":20270:20447   */\n    tag_473:\n        /* \"#utility.yul\":20410:20439   */\n      0x4661696c656420746f2077697468647261772067617320666565730000000000\n        /* \"#utility.yul\":20406:20407   */\n      0x00\n        /* \"#utility.yul\":20398:20404   */\n      dup3\n        /* \"#utility.yul\":20394:20408   */\n      add\n        /* \"#utility.yul\":20387:20440   */\n      mstore\n        /* \"#utility.yul\":20270:20447   */\n      pop\n      jump\t// out\n        /* \"#utility.yul\":20453:20819   */\n    tag_474:\n        /* \"#utility.yul\":20595:20598   */\n      0x00\n        /* \"#utility.yul\":20616:20683   */\n      tag_734\n        /* \"#utility.yul\":20680:20682   */\n      0x1b\n        /* \"#utility.yul\":20675:20678   */\n      dup4\n        /* \"#utility.yul\":20616:20683   */\n      tag_457\n      jump\t// in\n    tag_734:\n        /* \"#utility.yul\":20609:20683   */\n      swap2\n      pop\n        /* \"#utility.yul\":20692:20785   */\n      tag_735\n        /* \"#utility.yul\":20781:20784   */\n      dup3\n        /* \"#utility.yul\":20692:20785   */\n      tag_473\n      jump\t// in\n    tag_735:\n        /* \"#utility.yul\":20810:20812   */\n      0x20\n        /* \"#utility.yul\":20805:20808   */\n      dup3\n        /* \"#utility.yul\":20801:20813   */\n      add\n        /* \"#utility.yul\":20794:20813   */\n      swap1\n      pop\n        /* \"#utility.yul\":20453:20819   */\n      swap2\n      swap1\n      pop\n      jump\t// out\n        /* \"#utility.yul\":20825:21244   */\n    tag_164:\n        /* \"#utility.yul\":20991:20995   */\n      0x00\n        /* \"#utility.yul\":21029:21031   */\n      0x20\n        /* \"#utility.yul\":21018:21027   */\n      dup3\n        /* \"#utility.yul\":21014:21032   */\n      add\n        /* \"#utility.yul\":21006:21032   */\n      swap1\n      pop\n        /* \"#utility.yul\":21078:21087   */\n      dup2\n        /* \"#utility.yul\":21072:21076   */\n      dup2\n        /* \"#utility.yul\":21068:21088   */\n      sub\n        /* \"#utility.yul\":21064:21065   */\n      0x00\n        /* \"#utility.yul\":21053:21062   */\n      dup4\n        /* \"#utility.yul\":21049:21066   */\n      add\n        /* \"#utility.yul\":21042:21089   */\n      mstore\n        /* \"#utility.yul\":21106:21237   */\n      tag_737\n        /* \"#utility.yul\":21232:21236   */\n      dup2\n        /* \"#utility.yul\":21106:21237   */\n      tag_474\n      jump\t// in\n    tag_737:\n        /* \"#utility.yul\":21098:21237   */\n      swap1\n      pop\n        /* \"#utility.yul\":20825:21244   */\n      swap2\n      swap1\n      pop\n      jump\t// out\n        /* \"#utility.yul\":21250:21432   */\n    tag_475:\n        /* \"#utility.yul\":21390:21424   */\n      0x55736572206e6f7420656e726f6c6c656420696e207468697320636f75727365\n        /* \"#utility.yul\":21386:21387   */\n      0x00\n        /* \"#utility.yul\":21378:21384   */\n      dup3\n        /* \"#utility.yul\":21374:21388   */\n      add\n        /* \"#utility.yul\":21367:21425   */\n      mstore\n        /* \"#utility.yul\":21250:21432   */\n      pop\n      jump\t// out\n        /* \"#utility.yul\":21438:21804   */\n    tag_476:\n        /* \"#utility.yul\":21580:21583   */\n      0x00\n        /* \"#utility.yul\":21601:21668   */\n      tag_740\n        /* \"#utility.yul\":21665:21667   */\n      0x20\n        /* \"#utility.yul\":21660:21663   */\n      dup4\n        /* \"#utility.yul\":21601:21668   */\n      tag_457\n      jump\t// in\n    tag_740:\n        /* \"#utility.yul\":21594:21668   */\n      swap2\n      pop\n        /* \"#utility.yul\":21677:21770   */\n      tag_741\n        /* \"#utility.yul\":21766:21769   */\n      dup3\n        /* \"#utility.yul\":21677:21770   */\n      tag_475\n      jump\t// in\n    tag_741:\n        /* \"#utility.yul\":21795:21797   */\n      0x20\n        /* \"#utility.yul\":21790:21793   */\n      dup3\n        /* \"#utility.yul\":21786:21798   */\n      add\n        /* \"#utility.yul\":21779:21798   */\n      swap1\n      pop\n        /* \"#utility.yul\":21438:21804   */\n      swap2\n      swap1\n      pop\n      jump\t// out\n        /* \"#utility.yul\":21810:22229   */\n    tag_170:\n        /* \"#utility.yul\":21976:21980   */\n      0x00\n        /* \"#utility.yul\":22014:22016   */\n      0x20\n        /* \"#utility.yul\":22003:22012   */\n      dup3\n        /* \"#utility.yul\":21999:22017   */\n      add\n        /* \"#utility.yul\":21991:22017   */\n      swap1\n      pop\n        /* \"#utility.yul\":22063:22072   */\n      dup2\n        /* \"#utility.yul\":22057:22061   */\n      dup2\n        /* \"#utility.yul\":22053:22073   */\n      sub\n        /* \"#utility.yul\":22049:22050   */\n      0x00\n        /* \"#utility.yul\":22038:22047   */\n      dup4\n        /* \"#utility.yul\":22034:22051   */\n      add\n        /* \"#utility.yul\":22027:22074   */\n      mstore\n        /* \"#utility.yul\":22091:22222   */\n      tag_743\n        /* \"#utility.yul\":22217:22221   */\n      dup2\n        /* \"#utility.yul\":22091:22222   */\n      tag_476\n      jump\t// in\n    tag_743:\n        /* \"#utility.yul\":22083:22222   */\n      swap1\n      pop\n        /* \"#utility.yul\":21810:22229   */\n      swap2\n      swap1\n      pop\n      jump\t// out\n        /* \"#utility.yul\":22235:22409   */\n    tag_477:\n        /* \"#utility.yul\":22375:22401   */\n      0x4d6178696d756d20617474656d70747320726561636865640000000000000000\n        /* \"#utility.yul\":22371:22372   */\n      0x00\n        /* \"#utility.yul\":22363:22369   */\n      dup3\n        /* \"#utility.yul\":22359:22373   */\n      add\n        /* \"#utility.yul\":22352:22402   */\n      mstore\n        /* \"#utility.yul\":22235:22409   */\n      pop\n      jump\t// out\n        /* \"#utility.yul\":22415:22781   */\n    tag_478:\n        /* \"#utility.yul\":22557:22560   */\n      0x00\n        /* \"#utility.yul\":22578:22645   */\n      tag_746\n        /* \"#utility.yul\":22642:22644   */\n      0x18\n        /* \"#utility.yul\":22637:22640   */\n      dup4\n        /* \"#utility.yul\":22578:22645   */\n      tag_457\n      jump\t// in\n    tag_746:\n        /* \"#utility.yul\":22571:22645   */\n      swap2\n      pop\n        /* \"#utility.yul\":22654:22747   */\n      tag_747\n        /* \"#utility.yul\":22743:22746   */\n      dup3\n        /* \"#utility.yul\":22654:22747   */\n      tag_477\n      jump\t// in\n    tag_747:\n        /* \"#utility.yul\":22772:22774   */\n      0x20\n        /* \"#utility.yul\":22767:22770   */\n      dup3\n        /* \"#utility.yul\":22763:22775   */\n      add\n        /* \"#utility.yul\":22756:22775   */\n      swap1\n      pop\n        /* \"#utility.yul\":22415:22781   */\n      swap2\n      swap1\n      pop\n      jump\t// out\n        /* \"#utility.yul\":22787:23206   */\n    tag_173:\n        /* \"#utility.yul\":22953:22957   */\n      0x00\n        /* \"#utility.yul\":22991:22993   */\n      0x20\n        /* \"#utility.yul\":22980:22989   */\n      dup3\n        /* \"#utility.yul\":22976:22994   */\n      add\n        /* \"#utility.yul\":22968:22994   */\n      swap1\n      pop\n        /* \"#utility.yul\":23040:23049   */\n      dup2\n        /* \"#utility.yul\":23034:23038   */\n      dup2\n        /* \"#utility.yul\":23030:23050   */\n      sub\n        /* \"#utility.yul\":23026:23027   */\n      0x00\n        /* \"#utility.yul\":23015:23024   */\n      dup4\n        /* \"#utility.yul\":23011:23028   */\n      add\n        /* \"#utility.yul\":23004:23051   */\n      mstore\n        /* \"#utility.yul\":23068:23199   */\n      tag_749\n        /* \"#utility.yul\":23194:23198   */\n      dup2\n        /* \"#utility.yul\":23068:23199   */\n      tag_478\n      jump\t// in\n    tag_749:\n        /* \"#utility.yul\":23060:23199   */\n      swap1\n      pop\n        /* \"#utility.yul\":22787:23206   */\n      swap2\n      swap1\n      pop\n      jump\t// out\n        /* \"#utility.yul\":23212:23392   */\n    tag_479:\n        /* \"#utility.yul\":23260:23337   */\n      0x4e487b7100000000000000000000000000000000000000000000000000000000\n        /* \"#utility.yul\":23257:23258   */\n      0x00\n        /* \"#utility.yul\":23250:23338   */\n      mstore\n        /* \"#utility.yul\":23357:23361   */\n      0x11\n        /* \"#utility.yul\":23354:23355   */\n      0x04\n        /* \"#utility.yul\":23347:23362   */\n      mstore\n        /* \"#utility.yul\":23381:23385   */\n      0x24\n        /* \"#utility.yul\":23378:23379   */\n      0x00\n        /* \"#utility.yul\":23371:23386   */\n      revert\n        /* \"#utility.yul\":23398:23565   */\n    tag_175:\n        /* \"#utility.yul\":23435:23438   */\n      0x00\n        /* \"#utility.yul\":23458:23480   */\n      tag_752\n        /* \"#utility.yul\":23474:23479   */\n      dup3\n        /* \"#utility.yul\":23458:23480   */\n      tag_433\n      jump\t// in\n    tag_752:\n        /* \"#utility.yul\":23449:23480   */\n      swap2\n      pop\n        /* \"#utility.yul\":23502:23506   */\n      0xff\n        /* \"#utility.yul\":23495:23500   */\n      dup3\n        /* \"#utility.yul\":23492:23507   */\n      sub\n        /* \"#utility.yul\":23489:23530   */\n      tag_753\n      jumpi\n        /* \"#utility.yul\":23510:23528   */\n      tag_754\n      tag_479\n      jump\t// in\n    tag_754:\n        /* \"#utility.yul\":23489:23530   */\n    tag_753:\n        /* \"#utility.yul\":23557:23558   */\n      0x01\n        /* \"#utility.yul\":23550:23555   */\n      dup3\n        /* \"#utility.yul\":23546:23559   */\n      add\n        /* \"#utility.yul\":23539:23559   */\n      swap1\n      pop\n        /* \"#utility.yul\":23398:23565   */\n      swap2\n      swap1\n      pop\n      jump\t// out\n        /* \"#utility.yul\":23571:23751   */\n    tag_480:\n        /* \"#utility.yul\":23619:23696   */\n      0x4e487b7100000000000000000000000000000000000000000000000000000000\n        /* \"#utility.yul\":23616:23617   */\n      0x00\n        /* \"#utility.yul\":23609:23697   */\n      mstore\n        /* \"#utility.yul\":23716:23720   */\n      0x22\n        /* \"#utility.yul\":23713:23714   */\n      0x04\n        /* \"#utility.yul\":23706:23721   */\n      mstore\n        /* \"#utility.yul\":23740:23744   */\n      0x24\n        /* \"#utility.yul\":23737:23738   */\n      0x00\n        /* \"#utility.yul\":23730:23745   */\n      revert\n        /* \"#utility.yul\":23757:24077   */\n    tag_180:\n        /* \"#utility.yul\":23801:23807   */\n      0x00\n        /* \"#utility.yul\":23838:23839   */\n      0x02\n        /* \"#utility.yul\":23832:23836   */\n      dup3\n        /* \"#utility.yul\":23828:23840   */\n      div\n        /* \"#utility.yul\":23818:23840   */\n      swap1\n      pop\n        /* \"#utility.yul\":23885:23886   */\n      0x01\n        /* \"#utility.yul\":23879:23883   */\n      dup3\n        /* \"#utility.yul\":23875:23887   */\n      and\n        /* \"#utility.yul\":23906:23924   */\n      dup1\n        /* \"#utility.yul\":23896:23977   */\n      tag_757\n      jumpi\n        /* \"#utility.yul\":23962:23966   */\n      0x7f\n        /* \"#utility.yul\":23954:23960   */\n      dup3\n        /* \"#utility.yul\":23950:23967   */\n      and\n        /* \"#utility.yul\":23940:23967   */\n      swap2\n      pop\n        /* \"#utility.yul\":23896:23977   */\n    tag_757:\n        /* \"#utility.yul\":24024:24026   */\n      0x20\n        /* \"#utility.yul\":24016:24022   */\n      dup3\n        /* \"#utility.yul\":24013:24027   */\n      lt\n        /* \"#utility.yul\":23993:24011   */\n      dup2\n        /* \"#utility.yul\":23990:24028   */\n      sub\n        /* \"#utility.yul\":23987:24071   */\n      tag_758\n      jumpi\n        /* \"#utility.yul\":24043:24061   */\n      tag_759\n      tag_480\n      jump\t// in\n    tag_759:\n        /* \"#utility.yul\":23987:24071   */\n    tag_758:\n        /* \"#utility.yul\":23808:24077   */\n      pop\n        /* \"#utility.yul\":23757:24077   */\n      swap2\n      swap1\n      pop\n      jump\t// out\n        /* \"#utility.yul\":24083:24254   */\n    tag_481:\n        /* \"#utility.yul\":24223:24246   */\n      0x416e7377657220636f756e74206d69736d617463680000000000000000000000\n        /* \"#utility.yul\":24219:24220   */\n      0x00\n        /* \"#utility.yul\":24211:24217   */\n      dup3\n        /* \"#utility.yul\":24207:24221   */\n      add\n        /* \"#utility.yul\":24200:24247   */\n      mstore\n        /* \"#utility.yul\":24083:24254   */\n      pop\n      jump\t// out\n        /* \"#utility.yul\":24260:24626   */\n    tag_482:\n        /* \"#utility.yul\":24402:24405   */\n      0x00\n        /* \"#utility.yul\":24423:24490   */\n      tag_762\n        /* \"#utility.yul\":24487:24489   */\n      0x15\n        /* \"#utility.yul\":24482:24485   */\n      dup4\n        /* \"#utility.yul\":24423:24490   */\n      tag_457\n      jump\t// in\n    tag_762:\n        /* \"#utility.yul\":24416:24490   */\n      swap2\n      pop\n        /* \"#utility.yul\":24499:24592   */\n      tag_763\n        /* \"#utility.yul\":24588:24591   */\n      dup3\n        /* \"#utility.yul\":24499:24592   */\n      tag_481\n      jump\t// in\n    tag_763:\n        /* \"#utility.yul\":24617:24619   */\n      0x20\n        /* \"#utility.yul\":24612:24615   */\n      dup3\n        /* \"#utility.yul\":24608:24620   */\n      add\n        /* \"#utility.yul\":24601:24620   */\n      swap1\n      pop\n        /* \"#utility.yul\":24260:24626   */\n      swap2\n      swap1\n      pop\n      jump\t// out\n        /* \"#utility.yul\":24632:25051   */\n    tag_207:\n        /* \"#utility.yul\":24798:24802   */\n      0x00\n        /* \"#utility.yul\":24836:24838   */\n      0x20\n        /* \"#utility.yul\":24825:24834   */\n      dup3\n        /* \"#utility.yul\":24821:24839   */\n      add\n        /* \"#utility.yul\":24813:24839   */\n      swap1\n      pop\n        /* \"#utility.yul\":24885:24894   */\n      dup2\n        /* \"#utility.yul\":24879:24883   */\n      dup2\n        /* \"#utility.yul\":24875:24895   */\n      sub\n        /* \"#utility.yul\":24871:24872   */\n      0x00\n        /* \"#utility.yul\":24860:24869   */\n      dup4\n        /* \"#utility.yul\":24856:24873   */\n      add\n        /* \"#utility.yul\":24849:24896   */\n      mstore\n        /* \"#utility.yul\":24913:25044   */\n      tag_765\n        /* \"#utility.yul\":25039:25043   */\n      dup2\n        /* \"#utility.yul\":24913:25044   */\n      tag_482\n      jump\t// in\n    tag_765:\n        /* \"#utility.yul\":24905:25044   */\n      swap1\n      pop\n        /* \"#utility.yul\":24632:25051   */\n      swap2\n      swap1\n      pop\n      jump\t// out\n        /* \"#utility.yul\":25057:25237   */\n    tag_213:\n        /* \"#utility.yul\":25105:25182   */\n      0x4e487b7100000000000000000000000000000000000000000000000000000000\n        /* \"#utility.yul\":25102:25103   */\n      0x00\n        /* \"#utility.yul\":25095:25183   */\n      mstore\n        /* \"#utility.yul\":25202:25206   */\n      0x32\n        /* \"#utility.yul\":25199:25200   */\n      0x04\n        /* \"#utility.yul\":25192:25207   */\n      mstore\n        /* \"#utility.yul\":25226:25230   */\n      0x24\n        /* \"#utility.yul\":25223:25224   */\n      0x00\n        /* \"#utility.yul\":25216:25231   */\n      revert\n        /* \"#utility.yul\":25243:25391   */\n    tag_483:\n        /* \"#utility.yul\":25345:25356   */\n      0x00\n        /* \"#utility.yul\":25382:25385   */\n      dup2\n        /* \"#utility.yul\":25367:25385   */\n      swap1\n      pop\n        /* \"#utility.yul\":25243:25391   */\n      swap3\n      swap2\n      pop\n      pop\n      jump\t// out\n        /* \"#utility.yul\":25397:25787   */\n    tag_484:\n        /* \"#utility.yul\":25503:25506   */\n      0x00\n        /* \"#utility.yul\":25531:25570   */\n      tag_769\n        /* \"#utility.yul\":25564:25569   */\n      dup3\n        /* \"#utility.yul\":25531:25570   */\n      tag_456\n      jump\t// in\n    tag_769:\n        /* \"#utility.yul\":25586:25675   */\n      tag_770\n        /* \"#utility.yul\":25668:25674   */\n      dup2\n        /* \"#utility.yul\":25663:25666   */\n      dup6\n        /* \"#utility.yul\":25586:25675   */\n      tag_483\n      jump\t// in\n    tag_770:\n        /* \"#utility.yul\":25579:25675   */\n      swap4\n      pop\n        /* \"#utility.yul\":25684:25749   */\n      tag_771\n        /* \"#utility.yul\":25742:25748   */\n      dup2\n        /* \"#utility.yul\":25737:25740   */\n      dup6\n        /* \"#utility.yul\":25730:25734   */\n      0x20\n        /* \"#utility.yul\":25723:25728   */\n      dup7\n        /* \"#utility.yul\":25719:25735   */\n      add\n        /* \"#utility.yul\":25684:25749   */\n      tag_458\n      jump\t// in\n    tag_771:\n        /* \"#utility.yul\":25774:25780   */\n      dup1\n        /* \"#utility.yul\":25769:25772   */\n      dup5\n        /* \"#utility.yul\":25765:25781   */\n      add\n        /* \"#utility.yul\":25758:25781   */\n      swap2\n      pop\n        /* \"#utility.yul\":25507:25787   */\n      pop\n        /* \"#utility.yul\":25397:25787   */\n      swap3\n      swap2\n      pop\n      pop\n      jump\t// out\n        /* \"#utility.yul\":25793:26068   */\n    tag_217:\n        /* \"#utility.yul\":25925:25928   */\n      0x00\n        /* \"#utility.yul\":25947:26042   */\n      tag_773\n        /* \"#utility.yul\":26038:26041   */\n      dup3\n        /* \"#utility.yul\":26029:26035   */\n      dup5\n        /* \"#utility.yul\":25947:26042   */\n      tag_484\n      jump\t// in\n    tag_773:\n        /* \"#utility.yul\":25940:26042   */\n      swap2\n      pop\n        /* \"#utility.yul\":26059:26062   */\n      dup2\n        /* \"#utility.yul\":26052:26062   */\n      swap1\n      pop\n        /* \"#utility.yul\":25793:26068   */\n      swap3\n      swap2\n      pop\n      pop\n      jump\t// out\n        /* \"#utility.yul\":26074:26265   */\n    tag_222:\n        /* \"#utility.yul\":26114:26117   */\n      0x00\n        /* \"#utility.yul\":26133:26153   */\n      tag_775\n        /* \"#utility.yul\":26151:26152   */\n      dup3\n        /* \"#utility.yul\":26133:26153   */\n      tag_428\n      jump\t// in\n    tag_775:\n        /* \"#utility.yul\":26128:26153   */\n      swap2\n      pop\n        /* \"#utility.yul\":26167:26187   */\n      tag_776\n        /* \"#utility.yul\":26185:26186   */\n      dup4\n        /* \"#utility.yul\":26167:26187   */\n      tag_428\n      jump\t// in\n    tag_776:\n        /* \"#utility.yul\":26162:26187   */\n      swap3\n      pop\n        /* \"#utility.yul\":26210:26211   */\n      dup3\n        /* \"#utility.yul\":26207:26208   */\n      dup3\n        /* \"#utility.yul\":26203:26212   */\n      add\n        /* \"#utility.yul\":26196:26212   */\n      swap1\n      pop\n        /* \"#utility.yul\":26231:26234   */\n      dup1\n        /* \"#utility.yul\":26228:26229   */\n      dup3\n        /* \"#utility.yul\":26225:26235   */\n      gt\n        /* \"#utility.yul\":26222:26258   */\n      iszero\n      tag_777\n      jumpi\n        /* \"#utility.yul\":26238:26256   */\n      tag_778\n      tag_479\n      jump\t// in\n    tag_778:\n        /* \"#utility.yul\":26222:26258   */\n    tag_777:\n        /* \"#utility.yul\":26074:26265   */\n      swap3\n      swap2\n      pop\n      pop\n      jump\t// out\n        /* \"#utility.yul\":26271:26504   */\n    tag_224:\n        /* \"#utility.yul\":26310:26313   */\n      0x00\n        /* \"#utility.yul\":26333:26357   */\n      tag_780\n        /* \"#utility.yul\":26351:26356   */\n      dup3\n        /* \"#utility.yul\":26333:26357   */\n      tag_428\n      jump\t// in\n    tag_780:\n        /* \"#utility.yul\":26324:26357   */\n      swap2\n      pop\n        /* \"#utility.yul\":26379:26445   */\n      0xffffffffffffffffffffffffffffffffffffffffffffffffffffffffffffffff\n        /* \"#utility.yul\":26372:26377   */\n      dup3\n        /* \"#utility.yul\":26369:26446   */\n      sub\n        /* \"#utility.yul\":26366:26469   */\n      tag_781\n      jumpi\n        /* \"#utility.yul\":26449:26467   */\n      tag_782\n      tag_479\n      jump\t// in\n    tag_782:\n        /* \"#utility.yul\":26366:26469   */\n    tag_781:\n        /* \"#utility.yul\":26496:26497   */\n      0x01\n        /* \"#utility.yul\":26489:26494   */\n      dup3\n        /* \"#utility.yul\":26485:26498   */\n      add\n        /* \"#utility.yul\":26478:26498   */\n      swap1\n      pop\n        /* \"#utility.yul\":26271:26504   */\n      swap2\n      swap1\n      pop\n      jump\t// out\n        /* \"#utility.yul\":26510:26680   */\n    tag_485:\n        /* \"#utility.yul\":26650:26672   */\n      0x496e73756666696369656e742067617320666565000000000000000000000000\n        /* \"#utility.yul\":26646:26647   */\n      0x00\n        /* \"#utility.yul\":26638:26644   */\n      dup3\n        /* \"#utility.yul\":26634:26648   */\n      add\n        /* \"#utility.yul\":26627:26673   */\n      mstore\n        /* \"#utility.yul\":26510:26680   */\n      pop\n      jump\t// out\n        /* \"#utility.yul\":26686:27052   */\n    tag_486:\n        /* \"#utility.yul\":26828:26831   */\n      0x00\n        /* \"#utility.yul\":26849:26916   */\n      tag_785\n        /* \"#utility.yul\":26913:26915   */\n      0x14\n        /* \"#utility.yul\":26908:26911   */\n      dup4\n        /* \"#utility.yul\":26849:26916   */\n      tag_457\n      jump\t// in\n    tag_785:\n        /* \"#utility.yul\":26842:26916   */\n      swap2\n      pop\n        /* \"#utility.yul\":26925:27018   */\n      tag_786\n        /* \"#utility.yul\":27014:27017   */\n      dup3\n        /* \"#utility.yul\":26925:27018   */\n      tag_485\n      jump\t// in\n    tag_786:\n        /* \"#utility.yul\":27043:27045   */\n      0x20\n        /* \"#utility.yul\":27038:27041   */\n      dup3\n        /* \"#utility.yul\":27034:27046   */\n      add\n        /* \"#utility.yul\":27027:27046   */\n      swap1\n      pop\n        /* \"#utility.yul\":26686:27052   */\n      swap2\n      swap1\n      pop\n      jump\t// out\n        /* \"#utility.yul\":27058:27477   */\n    tag_233:\n        /* \"#utility.yul\":27224:27228   */\n      0x00\n        /* \"#utility.yul\":27262:27264   */\n      0x20\n        /* \"#utility.yul\":27251:27260   */\n      dup3\n        /* \"#utility.yul\":27247:27265   */\n      add\n        /* \"#utility.yul\":27239:27265   */\n      swap1\n      pop\n        /* \"#utility.yul\":27311:27320   */\n      dup2\n        /* \"#utility.yul\":27305:27309   */\n      dup2\n        /* \"#utility.yul\":27301:27321   */\n      sub\n        /* \"#utility.yul\":27297:27298   */\n      0x00\n        /* \"#utility.yul\":27286:27295   */\n      dup4\n        /* \"#utility.yul\":27282:27299   */\n      add\n        /* \"#utility.yul\":27275:27322   */\n      mstore\n        /* \"#utility.yul\":27339:27470   */\n      tag_788\n        /* \"#utility.yul\":27465:27469   */\n      dup2\n        /* \"#utility.yul\":27339:27470   */\n      tag_486\n      jump\t// in\n    tag_788:\n        /* \"#utility.yul\":27331:27470   */\n      swap1\n      pop\n        /* \"#utility.yul\":27058:27477   */\n      swap2\n      swap1\n      pop\n      jump\t// out\n        /* \"#utility.yul\":27483:27677   */\n    tag_236:\n        /* \"#utility.yul\":27523:27527   */\n      0x00\n        /* \"#utility.yul\":27543:27563   */\n      tag_790\n        /* \"#utility.yul\":27561:27562   */\n      dup3\n        /* \"#utility.yul\":27543:27563   */\n      tag_428\n      jump\t// in\n    tag_790:\n        /* \"#utility.yul\":27538:27563   */\n      swap2\n      pop\n        /* \"#utility.yul\":27577:27597   */\n      tag_791\n        /* \"#utility.yul\":27595:27596   */\n      dup4\n        /* \"#utility.yul\":27577:27597   */\n      tag_428\n      jump\t// in\n    tag_791:\n        /* \"#utility.yul\":27572:27597   */\n      swap3\n      pop\n        /* \"#utility.yul\":27621:27622   */\n      dup3\n        /* \"#utility.yul\":27618:27619   */\n      dup3\n        /* \"#utility.yul\":27614:27623   */\n      sub\n        /* \"#utility.yul\":27606:27623   */\n      swap1\n      pop\n        /* \"#utility.yul\":27645:27646   */\n      dup2\n        /* \"#utility.yul\":27639:27643   */\n      dup2\n        /* \"#utility.yul\":27636:27647   */\n      gt\n        /* \"#utility.yul\":27633:27670   */\n      iszero\n      tag_792\n      jumpi\n        /* \"#utility.yul\":27650:27668   */\n      tag_793\n      tag_479\n      jump\t// in\n    tag_793:\n        /* \"#utility.yul\":27633:27670   */\n    tag_792:\n        /* \"#utility.yul\":27483:27677   */\n      swap3\n      swap2\n      pop\n      pop\n      jump\t// out\n        /* \"#utility.yul\":27683:27826   */\n    tag_487:\n        /* \"#utility.yul\":27740:27745   */\n      0x00\n        /* \"#utility.yul\":27771:27777   */\n      dup2\n        /* \"#utility.yul\":27765:27778   */\n      mload\n        /* \"#utility.yul\":27756:27778   */\n      swap1\n      pop\n        /* \"#utility.yul\":27787:27820   */\n      tag_795\n        /* \"#utility.yul\":27814:27819   */\n      dup2\n        /* \"#utility.yul\":27787:27820   */\n      tag_429\n      jump\t// in\n    tag_795:\n        /* \"#utility.yul\":27683:27826   */\n      swap3\n      swap2\n      pop\n      pop\n      jump\t// out\n        /* \"#utility.yul\":27832:28183   */\n    tag_245:\n        /* \"#utility.yul\":27902:27908   */\n      0x00\n        /* \"#utility.yul\":27951:27953   */\n      0x20\n        /* \"#utility.yul\":27939:27948   */\n      dup3\n        /* \"#utility.yul\":27930:27937   */\n      dup5\n        /* \"#utility.yul\":27926:27949   */\n      sub\n        /* \"#utility.yul\":27922:27954   */\n      slt\n        /* \"#utility.yul\":27919:28038   */\n      iszero\n      tag_797\n      jumpi\n        /* \"#utility.yul\":27957:28036   */\n      tag_798\n      tag_422\n      jump\t// in\n    tag_798:\n        /* \"#utility.yul\":27919:28038   */\n    tag_797:\n        /* \"#utility.yul\":28077:28078   */\n      0x00\n        /* \"#utility.yul\":28102:28166   */\n      tag_799\n        /* \"#utility.yul\":28158:28165   */\n      dup5\n        /* \"#utility.yul\":28149:28155   */\n      dup3\n        /* \"#utility.yul\":28138:28147   */\n      dup6\n        /* \"#utility.yul\":28134:28156   */\n      add\n        /* \"#utility.yul\":28102:28166   */\n      tag_487\n      jump\t// in\n    tag_799:\n        /* \"#utility.yul\":28092:28166   */\n      swap2\n      pop\n        /* \"#utility.yul\":28048:28176   */\n      pop\n        /* \"#utility.yul\":27832:28183   */\n      swap3\n      swap2\n      pop\n      pop\n      jump\t// out\n        /* \"#utility.yul\":28189:28409   */\n    tag_488:\n        /* \"#utility.yul\":28329:28363   */\n      0x496e73756666696369656e742072657075746174696f6e20746f20656e726f6c\n        /* \"#utility.yul\":28325:28326   */\n      0x00\n        /* \"#utility.yul\":28317:28323   */\n      dup3\n        /* \"#utility.yul\":28313:28327   */\n      add\n        /* \"#utility.yul\":28306:28364   */\n      mstore\n        /* \"#utility.yul\":28398:28401   */\n      0x6c00000000000000000000000000000000000000000000000000000000000000\n        /* \"#utility.yul\":28393:28395   */\n      0x20\n        /* \"#utility.yul\":28385:28391   */\n      dup3\n        /* \"#utility.yul\":28381:28396   */\n      add\n        /* \"#utility.yul\":28374:28402   */\n      mstore\n        /* \"#utility.yul\":28189:28409   */\n      pop\n      jump\t// out\n        /* \"#utility.yul\":28415:28781   */\n    tag_489:\n        /* \"#utility.yul\":28557:28560   */\n      0x00\n        /* \"#utility.yul\":28578:28645   */\n      tag_802\n        /* \"#utility.yul\":28642:28644   */\n      0x21\n        /* \"#utility.yul\":28637:28640   */\n      dup4\n        /* \"#utility.yul\":28578:28645   */\n      tag_457\n      jump\t// in\n    tag_802:\n        /* \"#utility.yul\":28571:28645   */\n      swap2\n      pop\n        /* \"#utility.yul\":28654:28747   */\n      tag_803\n        /* \"#utility.yul\":28743:28746   */\n      dup3\n        /* \"#utility.yul\":28654:28747   */\n      tag_488\n      jump\t// in\n    tag_803:\n        /* \"#utility.yul\":28772:28774   */\n      0x40\n        /* \"#utility.yul\":28767:28770   */\n      dup3\n        /* \"#utility.yul\":28763:28775   */\n      add\n        /* \"#utility.yul\":28756:28775   */\n      swap1\n      pop\n        /* \"#utility.yul\":28415:28781   */\n      swap2\n      swap1\n      pop\n      jump\t// out\n        /* \"#utility.yul\":28787:29206   */\n    tag_248:\n        /* \"#utility.yul\":28953:28957   */\n      0x00\n        /* \"#utility.yul\":28991:28993   */\n      0x20\n        /* \"#utility.yul\":28980:28989   */\n      dup3\n        /* \"#utility.yul\":28976:28994   */\n      add\n        /* \"#utility.yul\":28968:28994   */\n      swap1\n      pop\n        /* \"#utility.yul\":29040:29049   */\n      dup2\n        /* \"#utility.yul\":29034:29038   */\n      dup2\n        /* \"#utility.yul\":29030:29050   */\n      sub\n        /* \"#utility.yul\":29026:29027   */\n      0x00\n        /* \"#utility.yul\":29015:29024   */\n      dup4\n        /* \"#utility.yul\":29011:29028   */\n      add\n        /* \"#utility.yul\":29004:29051   */\n      mstore\n        /* \"#utility.yul\":29068:29199   */\n      tag_805\n        /* \"#utility.yul\":29194:29198   */\n      dup2\n        /* \"#utility.yul\":29068:29199   */\n      tag_489\n      jump\t// in\n    tag_805:\n        /* \"#utility.yul\":29060:29199   */\n      swap1\n      pop\n        /* \"#utility.yul\":28787:29206   */\n      swap2\n      swap1\n      pop\n      jump\t// out\n        /* \"#utility.yul\":29212:29381   */\n    tag_490:\n        /* \"#utility.yul\":29352:29373   */\n      0x436f75727365206e6f7420617070726f76656400000000000000000000000000\n        /* \"#utility.yul\":29348:29349   */\n      0x00\n        /* \"#utility.yul\":29340:29346   */\n      dup3\n        /* \"#utility.yul\":29336:29350   */\n      add\n        /* \"#utility.yul\":29329:29374   */\n      mstore\n        /* \"#utility.yul\":29212:29381   */\n      pop\n      jump\t// out\n        /* \"#utility.yul\":29387:29753   */\n    tag_491:\n        /* \"#utility.yul\":29529:29532   */\n      0x00\n        /* \"#utility.yul\":29550:29617   */\n      tag_808\n        /* \"#utility.yul\":29614:29616   */\n      0x13\n        /* \"#utility.yul\":29609:29612   */\n      dup4\n        /* \"#utility.yul\":29550:29617   */\n      tag_457\n      jump\t// in\n    tag_808:\n        /* \"#utility.yul\":29543:29617   */\n      swap2\n      pop\n        /* \"#utility.yul\":29626:29719   */\n      tag_809\n        /* \"#utility.yul\":29715:29718   */\n      dup3\n        /* \"#utility.yul\":29626:29719   */\n      tag_490\n      jump\t// in\n    tag_809:\n        /* \"#utility.yul\":29744:29746   */\n      0x20\n        /* \"#utility.yul\":29739:29742   */\n      dup3\n        /* \"#utility.yul\":29735:29747   */\n      add\n        /* \"#utility.yul\":29728:29747   */\n      swap1\n      pop\n        /* \"#utility.yul\":29387:29753   */\n      swap2\n      swap1\n      pop\n      jump\t// out\n        /* \"#utility.yul\":29759:30178   */\n    tag_251:\n        /* \"#utility.yul\":29925:29929   */\n      0x00\n        /* \"#utility.yul\":29963:29965   */\n      0x20\n        /* \"#utility.yul\":29952:29961   */\n      dup3\n        /* \"#utility.yul\":29948:29966   */\n      add\n        /* \"#utility.yul\":29940:29966   */\n      swap1\n      pop\n        /* \"#utility.yul\":30012:30021   */\n      dup2\n        /* \"#utility.yul\":30006:30010   */\n      dup2\n        /* \"#utility.yul\":30002:30022   */\n      sub\n        /* \"#utility.yul\":29998:29999   */\n      0x00\n        /* \"#utility.yul\":29987:29996   */\n      dup4\n        /* \"#utility.yul\":29983:30000   */\n      add\n        /* \"#utility.yul\":29976:30023   */\n      mstore\n        /* \"#utility.yul\":30040:30171   */\n      tag_811\n        /* \"#utility.yul\":30166:30170   */\n      dup2\n        /* \"#utility.yul\":30040:30171   */\n      tag_491\n      jump\t// in\n    tag_811:\n        /* \"#utility.yul\":30032:30171   */\n      swap1\n      pop\n        /* \"#utility.yul\":29759:30178   */\n      swap2\n      swap1\n      pop\n      jump\t// out\n        /* \"#utility.yul\":30184:30350   */\n    tag_492:\n        /* \"#utility.yul\":30324:30342   */\n      0x416c726561647920656e726f6c6c656400000000000000000000000000000000\n        /* \"#utility.yul\":30320:30321   */\n      0x00\n        /* \"#utility.yul\":30312:30318   */\n      dup3\n        /* \"#utility.yul\":30308:30322   */\n      add\n        /* \"#utility.yul\":30301:30343   */\n      mstore\n        /* \"#utility.yul\":30184:30350   */\n      pop\n      jump\t// out\n        /* \"#utility.yul\":30356:30722   */\n    tag_493:\n        /* \"#utility.yul\":30498:30501   */\n      0x00\n        /* \"#utility.yul\":30519:30586   */\n      tag_814\n        /* \"#utility.yul\":30583:30585   */\n      0x10\n        /* \"#utility.yul\":30578:30581   */\n      dup4\n        /* \"#utility.yul\":30519:30586   */\n      tag_457\n      jump\t// in\n    tag_814:\n        /* \"#utility.yul\":30512:30586   */\n      swap2\n      pop\n        /* \"#utility.yul\":30595:30688   */\n      tag_815\n        /* \"#utility.yul\":30684:30687   */\n      dup3\n        /* \"#utility.yul\":30595:30688   */\n      tag_492\n      jump\t// in\n    tag_815:\n        /* \"#utility.yul\":30713:30715   */\n      0x20\n        /* \"#utility.yul\":30708:30711   */\n      dup3\n        /* \"#utility.yul\":30704:30716   */\n      add\n        /* \"#utility.yul\":30697:30716   */\n      swap1\n      pop\n        /* \"#utility.yul\":30356:30722   */\n      swap2\n      swap1\n      pop\n      jump\t// out\n        /* \"#utility.yul\":30728:31147   */\n    tag_254:\n        /* \"#utility.yul\":30894:30898   */\n      0x00\n        /* \"#utility.yul\":30932:30934   */\n      0x20\n        /* \"#utility.yul\":30921:30930   */\n      dup3\n        /* \"#utility.yul\":30917:30935   */\n      add\n        /* \"#utility.yul\":30909:30935   */\n      swap1\n      pop\n        /* \"#utility.yul\":30981:30990   */\n      dup2\n        /* \"#utility.yul\":30975:30979   */\n      dup2\n        /* \"#utility.yul\":30971:30991   */\n      sub\n        /* \"#utility.yul\":30967:30968   */\n      0x00\n        /* \"#utility.yul\":30956:30965   */\n      dup4\n        /* \"#utility.yul\":30952:30969   */\n      add\n        /* \"#utility.yul\":30945:30992   */\n      mstore\n        /* \"#utility.yul\":31009:31140   */\n      tag_817\n        /* \"#utility.yul\":31135:31139   */\n      dup2\n        /* \"#utility.yul\":31009:31140   */\n      tag_493\n      jump\t// in\n    tag_817:\n        /* \"#utility.yul\":31001:31140   */\n      swap1\n      pop\n        /* \"#utility.yul\":30728:31147   */\n      swap2\n      swap1\n      pop\n      jump\t// out\n        /* \"#utility.yul\":31153:31326   */\n    tag_494:\n        /* \"#utility.yul\":31293:31318   */\n      0x436f7572736520616c726561647920617070726f766564000000000000000000\n        /* \"#utility.yul\":31289:31290   */\n      0x00\n        /* \"#utility.yul\":31281:31287   */\n      dup3\n        /* \"#utility.yul\":31277:31291   */\n      add\n        /* \"#utility.yul\":31270:31319   */\n      mstore\n        /* \"#utility.yul\":31153:31326   */\n      pop\n      jump\t// out\n        /* \"#utility.yul\":31332:31698   */\n    tag_495:\n        /* \"#utility.yul\":31474:31477   */\n      0x00\n        /* \"#utility.yul\":31495:31562   */\n      tag_820\n        /* \"#utility.yul\":31559:31561   */\n      0x17\n        /* \"#utility.yul\":31554:31557   */\n      dup4\n        /* \"#utility.yul\":31495:31562   */\n      tag_457\n      jump\t// in\n    tag_820:\n        /* \"#utility.yul\":31488:31562   */\n      swap2\n      pop\n        /* \"#utility.yul\":31571:31664   */\n      tag_821\n        /* \"#utility.yul\":31660:31663   */\n      dup3\n        /* \"#utility.yul\":31571:31664   */\n      tag_494\n      jump\t// in\n    tag_821:\n        /* \"#utility.yul\":31689:31691   */\n      0x20\n        /* \"#utility.yul\":31684:31687   */\n      dup3\n        /* \"#utility.yul\":31680:31692   */\n      add\n        /* \"#utility.yul\":31673:31692   */\n      swap1\n      pop\n        /* \"#utility.yul\":31332:31698   */\n      swap2\n      swap1\n      pop\n      jump\t// out\n        /* \"#utility.yul\":31704:32123   */\n    tag_266:\n        /* \"#utility.yul\":31870:31874   */\n      0x00\n        /* \"#utility.yul\":31908:31910   */\n      0x20\n        /* \"#utility.yul\":31897:31906   */\n      dup3\n        /* \"#utility.yul\":31893:31911   */\n      add\n        /* \"#utility.yul\":31885:31911   */\n      swap1\n      pop\n        /* \"#utility.yul\":31957:31966   */\n      dup2\n        /* \"#utility.yul\":31951:31955   */\n      dup2\n        /* \"#utility.yul\":31947:31967   */\n      sub\n        /* \"#utility.yul\":31943:31944   */\n      0x00\n        /* \"#utility.yul\":31932:31941   */\n      dup4\n        /* \"#utility.yul\":31928:31945   */\n      add\n        /* \"#utility.yul\":31921:31968   */\n      mstore\n        /* \"#utility.yul\":31985:32116   */\n      tag_823\n        /* \"#utility.yul\":32111:32115   */\n      dup2\n        /* \"#utility.yul\":31985:32116   */\n      tag_495\n      jump\t// in\n    tag_823:\n        /* \"#utility.yul\":31977:32116   */\n      swap1\n      pop\n        /* \"#utility.yul\":31704:32123   */\n      swap2\n      swap1\n      pop\n      jump\t// out\n        /* \"#utility.yul\":32129:32298   */\n    tag_496:\n        /* \"#utility.yul\":32269:32290   */\n      0x4e6f207265776172647320746f20636c61696d00000000000000000000000000\n        /* \"#utility.yul\":32265:32266   */\n      0x00\n        /* \"#utility.yul\":32257:32263   */\n      dup3\n        /* \"#utility.yul\":32253:32267   */\n      add\n        /* \"#utility.yul\":32246:32291   */\n      mstore\n        /* \"#utility.yul\":32129:32298   */\n      pop\n      jump\t// out\n        /* \"#utility.yul\":32304:32670   */\n    tag_497:\n        /* \"#utility.yul\":32446:32449   */\n      0x00\n        /* \"#utility.yul\":32467:32534   */\n      tag_826\n        /* \"#utility.yul\":32531:32533   */\n      0x13\n        /* \"#utility.yul\":32526:32529   */\n      dup4\n        /* \"#utility.yul\":32467:32534   */\n      tag_457\n      jump\t// in\n    tag_826:\n        /* \"#utility.yul\":32460:32534   */\n      swap2\n      pop\n        /* \"#utility.yul\":32543:32636   */\n      tag_827\n        /* \"#utility.yul\":32632:32635   */\n      dup3\n        /* \"#utility.yul\":32543:32636   */\n      tag_496\n      jump\t// in\n    tag_827:\n        /* \"#utility.yul\":32661:32663   */\n      0x20\n        /* \"#utility.yul\":32656:32659   */\n      dup3\n        /* \"#utility.yul\":32652:32664   */\n      add\n        /* \"#utility.yul\":32645:32664   */\n      swap1\n      pop\n        /* \"#utility.yul\":32304:32670   */\n      swap2\n      swap1\n      pop\n      jump\t// out\n        /* \"#utility.yul\":32676:33095   */\n    tag_294:\n        /* \"#utility.yul\":32842:32846   */\n      0x00\n        /* \"#utility.yul\":32880:32882   */\n      0x20\n        /* \"#utility.yul\":32869:32878   */\n      dup3\n        /* \"#utility.yul\":32865:32883   */\n      add\n        /* \"#utility.yul\":32857:32883   */\n      swap1\n      pop\n        /* \"#utility.yul\":32929:32938   */\n      dup2\n        /* \"#utility.yul\":32923:32927   */\n      dup2\n        /* \"#utility.yul\":32919:32939   */\n      sub\n        /* \"#utility.yul\":32915:32916   */\n      0x00\n        /* \"#utility.yul\":32904:32913   */\n      dup4\n        /* \"#utility.yul\":32900:32917   */\n      add\n        /* \"#utility.yul\":32893:32940   */\n      mstore\n        /* \"#utility.yul\":32957:33088   */\n      tag_829\n        /* \"#utility.yul\":33083:33087   */\n      dup2\n        /* \"#utility.yul\":32957:33088   */\n      tag_497\n      jump\t// in\n    tag_829:\n        /* \"#utility.yul\":32949:33088   */\n      swap1\n      pop\n        /* \"#utility.yul\":32676:33095   */\n      swap2\n      swap1\n      pop\n      jump\t// out\n        /* \"#utility.yul\":33101:33270   */\n    tag_498:\n        /* \"#utility.yul\":33241:33262   */\n      0x4661696c656420746f2073656e64204d414e4400000000000000000000000000\n        /* \"#utility.yul\":33237:33238   */\n      0x00\n        /* \"#utility.yul\":33229:33235   */\n      dup3\n        /* \"#utility.yul\":33225:33239   */\n      add\n        /* \"#utility.yul\":33218:33263   */\n      mstore\n        /* \"#utility.yul\":33101:33270   */\n      pop\n      jump\t// out\n        /* \"#utility.yul\":33276:33642   */\n    tag_499:\n        /* \"#utility.yul\":33418:33421   */\n      0x00\n        /* \"#utility.yul\":33439:33506   */\n      tag_832\n        /* \"#utility.yul\":33503:33505   */\n      0x13\n        /* \"#utility.yul\":33498:33501   */\n      dup4\n        /* \"#utility.yul\":33439:33506   */\n      tag_457\n      jump\t// in\n    tag_832:\n        /* \"#utility.yul\":33432:33506   */\n      swap2\n      pop\n        /* \"#utility.yul\":33515:33608   */\n      tag_833\n        /* \"#utility.yul\":33604:33607   */\n      dup3\n        /* \"#utility.yul\":33515:33608   */\n      tag_498\n      jump\t// in\n    tag_833:\n        /* \"#utility.yul\":33633:33635   */\n      0x20\n        /* \"#utility.yul\":33628:33631   */\n      dup3\n        /* \"#utility.yul\":33624:33636   */\n      add\n        /* \"#utility.yul\":33617:33636   */\n      swap1\n      pop\n        /* \"#utility.yul\":33276:33642   */\n      swap2\n      swap1\n      pop\n      jump\t// out\n        /* \"#utility.yul\":33648:34067   */\n    tag_301:\n        /* \"#utility.yul\":33814:33818   */\n      0x00\n        /* \"#utility.yul\":33852:33854   */\n      0x20\n        /* \"#utility.yul\":33841:33850   */\n      dup3\n        /* \"#utility.yul\":33837:33855   */\n      add\n        /* \"#utility.yul\":33829:33855   */\n      swap1\n      pop\n        /* \"#utility.yul\":33901:33910   */\n      dup2\n        /* \"#utility.yul\":33895:33899   */\n      dup2\n        /* \"#utility.yul\":33891:33911   */\n      sub\n        /* \"#utility.yul\":33887:33888   */\n      0x00\n        /* \"#utility.yul\":33876:33885   */\n      dup4\n        /* \"#utility.yul\":33872:33889   */\n      add\n        /* \"#utility.yul\":33865:33912   */\n      mstore\n        /* \"#utility.yul\":33929:34060   */\n      tag_835\n        /* \"#utility.yul\":34055:34059   */\n      dup2\n        /* \"#utility.yul\":33929:34060   */\n      tag_499\n      jump\t// in\n    tag_835:\n        /* \"#utility.yul\":33921:34060   */\n      swap1\n      pop\n        /* \"#utility.yul\":33648:34067   */\n      swap2\n      swap1\n      pop\n      jump\t// out\n        /* \"#utility.yul\":34073:34296   */\n    tag_500:\n        /* \"#utility.yul\":34213:34247   */\n      0x4f6e6c7920636f757273652063726561746f722063616e20636c61696d207265\n        /* \"#utility.yul\":34209:34210   */\n      0x00\n        /* \"#utility.yul\":34201:34207   */\n      dup3\n        /* \"#utility.yul\":34197:34211   */\n      add\n        /* \"#utility.yul\":34190:34248   */\n      mstore\n        /* \"#utility.yul\":34282:34288   */\n      0x7761726400000000000000000000000000000000000000000000000000000000\n        /* \"#utility.yul\":34277:34279   */\n      0x20\n        /* \"#utility.yul\":34269:34275   */\n      dup3\n        /* \"#utility.yul\":34265:34280   */\n      add\n        /* \"#utility.yul\":34258:34289   */\n      mstore\n        /* \"#utility.yul\":34073:34296   */\n      pop\n      jump\t// out\n        /* \"#utility.yul\":34302:34668   */\n    tag_501:\n        /* \"#utility.yul\":34444:34447   */\n      0x00\n        /* \"#utility.yul\":34465:34532   */\n      tag_838\n        /* \"#utility.yul\":34529:34531   */\n      0x24\n        /* \"#utility.yul\":34524:34527   */\n      dup4\n        /* \"#utility.yul\":34465:34532   */\n      tag_457\n      jump\t// in\n    tag_838:\n        /* \"#utility.yul\":34458:34532   */\n      swap2\n      pop\n        /* \"#utility.yul\":34541:34634   */\n      tag_839\n        /* \"#utility.yul\":34630:34633   */\n      dup3\n        /* \"#utility.yul\":34541:34634   */\n      tag_500\n      jump\t// in\n    tag_839:\n        /* \"#utility.yul\":34659:34661   */\n      0x40\n        /* \"#utility.yul\":34654:34657   */\n      dup3\n        /* \"#utility.yul\":34650:34662   */\n      add\n        /* \"#utility.yul\":34643:34662   */\n      swap1\n      pop\n        /* \"#utility.yul\":34302:34668   */\n      swap2\n      swap1\n      pop\n      jump\t// out\n        /* \"#utility.yul\":34674:35093   */\n    tag_343:\n        /* \"#utility.yul\":34840:34844   */\n      0x00\n        /* \"#utility.yul\":34878:34880   */\n      0x20\n        /* \"#utility.yul\":34867:34876   */\n      dup3\n        /* \"#utility.yul\":34863:34881   */\n      add\n        /* \"#utility.yul\":34855:34881   */\n      swap1\n      pop\n        /* \"#utility.yul\":34927:34936   */\n      dup2\n        /* \"#utility.yul\":34921:34925   */\n      dup2\n        /* \"#utility.yul\":34917:34937   */\n      sub\n        /* \"#utility.yul\":34913:34914   */\n      0x00\n        /* \"#utility.yul\":34902:34911   */\n      dup4\n        /* \"#utility.yul\":34898:34915   */\n      add\n        /* \"#utility.yul\":34891:34938   */\n      mstore\n        /* \"#utility.yul\":34955:35086   */\n      tag_841\n        /* \"#utility.yul\":35081:35085   */\n      dup2\n        /* \"#utility.yul\":34955:35086   */\n      tag_501\n      jump\t// in\n    tag_841:\n        /* \"#utility.yul\":34947:35086   */\n      swap1\n      pop\n        /* \"#utility.yul\":34674:35093   */\n      swap2\n      swap1\n      pop\n      jump\t// out\n        /* \"#utility.yul\":35099:35326   */\n    tag_502:\n        /* \"#utility.yul\":35239:35273   */\n      0x496e73756666696369656e742072657075746174696f6e20746f206372656174\n        /* \"#utility.yul\":35235:35236   */\n      0x00\n        /* \"#utility.yul\":35227:35233   */\n      dup3\n        /* \"#utility.yul\":35223:35237   */\n      add\n        /* \"#utility.yul\":35216:35274   */\n      mstore\n        /* \"#utility.yul\":35308:35318   */\n      0x6520636f75727365000000000000000000000000000000000000000000000000\n        /* \"#utility.yul\":35303:35305   */\n      0x20\n        /* \"#utility.yul\":35295:35301   */\n      dup3\n        /* \"#utility.yul\":35291:35306   */\n      add\n        /* \"#utility.yul\":35284:35319   */\n      mstore\n        /* \"#utility.yul\":35099:35326   */\n      pop\n      jump\t// out\n        /* \"#utility.yul\":35332:35698   */\n    tag_503:\n        /* \"#utility.yul\":35474:35477   */\n      0x00\n        /* \"#utility.yul\":35495:35562   */\n      tag_844\n        /* \"#utility.yul\":35559:35561   */\n      0x28\n        /* \"#utility.yul\":35554:35557   */\n      dup4\n        /* \"#utility.yul\":35495:35562   */\n      tag_457\n      jump\t// in\n    tag_844:\n        /* \"#utility.yul\":35488:35562   */\n      swap2\n      pop\n        /* \"#utility.yul\":35571:35664   */\n      tag_845\n        /* \"#utility.yul\":35660:35663   */\n      dup3\n        /* \"#utility.yul\":35571:35664   */\n      tag_502\n      jump\t// in\n    tag_845:\n        /* \"#utility.yul\":35689:35691   */\n      0x40\n        /* \"#utility.yul\":35684:35687   */\n      dup3\n        /* \"#utility.yul\":35680:35692   */\n      add\n        /* \"#utility.yul\":35673:35692   */\n      swap1\n      pop\n        /* \"#utility.yul\":35332:35698   */\n      swap2\n      swap1\n      pop\n      jump\t// out\n        /* \"#utility.yul\":35704:36123   */\n    tag_370:\n        /* \"#utility.yul\":35870:35874   */\n      0x00\n        /* \"#utility.yul\":35908:35910   */\n      0x20\n        /* \"#utility.yul\":35897:35906   */\n      dup3\n        /* \"#utility.yul\":35893:35911   */\n      add\n        /* \"#utility.yul\":35885:35911   */\n      swap1\n      pop\n        /* \"#utility.yul\":35957:35966   */\n      dup2\n        /* \"#utility.yul\":35951:35955   */\n      dup2\n        /* \"#utility.yul\":35947:35967   */\n      sub\n        /* \"#utility.yul\":35943:35944   */\n      0x00\n        /* \"#utility.yul\":35932:35941   */\n      dup4\n        /* \"#utility.yul\":35928:35945   */\n      add\n        /* \"#utility.yul\":35921:35968   */\n      mstore\n        /* \"#utility.yul\":35985:36116   */\n      tag_847\n        /* \"#utility.yul\":36111:36115   */\n      dup2\n        /* \"#utility.yul\":35985:36116   */\n      tag_503\n      jump\t// in\n    tag_847:\n        /* \"#utility.yul\":35977:36116   */\n      swap1\n      pop\n        /* \"#utility.yul\":35704:36123   */\n      swap2\n      swap1\n      pop\n      jump\t// out\n        /* \"#utility.yul\":36129:36270   */\n    tag_504:\n        /* \"#utility.yul\":36178:36182   */\n      0x00\n        /* \"#utility.yul\":36201:36204   */\n      dup2\n        /* \"#utility.yul\":36193:36204   */\n      swap1\n      pop\n        /* \"#utility.yul\":36224:36227   */\n      dup2\n        /* \"#utility.yul\":36221:36222   */\n      0x00\n        /* \"#utility.yul\":36214:36228   */\n      mstore\n        /* \"#utility.yul\":36258:36262   */\n      0x20\n        /* \"#utility.yul\":36255:36256   */\n      0x00\n        /* \"#utility.yul\":36245:36263   */\n      keccak256\n        /* \"#utility.yul\":36237:36263   */\n      swap1\n      pop\n        /* \"#utility.yul\":36129:36270   */\n      swap2\n      swap1\n      pop\n      jump\t// out\n        /* \"#utility.yul\":36276:36369   */\n    tag_505:\n        /* \"#utility.yul\":36313:36319   */\n      0x00\n        /* \"#utility.yul\":36360:36362   */\n      0x20\n        /* \"#utility.yul\":36355:36357   */\n      0x1f\n        /* \"#utility.yul\":36348:36353   */\n      dup4\n        /* \"#utility.yul\":36344:36358   */\n      add\n        /* \"#utility.yul\":36340:36363   */\n      div\n        /* \"#utility.yul\":36330:36363   */\n      swap1\n      pop\n        /* \"#utility.yul\":36276:36369   */\n      swap2\n      swap1\n      pop\n      jump\t// out\n        /* \"#utility.yul\":36375:36482   */\n    tag_506:\n        /* \"#utility.yul\":36419:36427   */\n      0x00\n        /* \"#utility.yul\":36469:36474   */\n      dup3\n        /* \"#utility.yul\":36463:36467   */\n      dup3\n        /* \"#utility.yul\":36459:36475   */\n      shl\n        /* \"#utility.yul\":36438:36475   */\n      swap1\n      pop\n        /* \"#utility.yul\":36375:36482   */\n      swap3\n      swap2\n      pop\n      pop\n      jump\t// out\n        /* \"#utility.yul\":36488:36881   */\n    tag_507:\n        /* \"#utility.yul\":36557:36563   */\n      0x00\n        /* \"#utility.yul\":36607:36608   */\n      0x08\n        /* \"#utility.yul\":36595:36605   */\n      dup4\n        /* \"#utility.yul\":36591:36609   */\n      mul\n        /* \"#utility.yul\":36630:36727   */\n      tag_852\n        /* \"#utility.yul\":36660:36726   */\n      0xffffffffffffffffffffffffffffffffffffffffffffffffffffffffffffffff\n        /* \"#utility.yul\":36649:36658   */\n      dup3\n        /* \"#utility.yul\":36630:36727   */\n      tag_506\n      jump\t// in\n    tag_852:\n        /* \"#utility.yul\":36748:36787   */\n      tag_853\n        /* \"#utility.yul\":36778:36786   */\n      dup7\n        /* \"#utility.yul\":36767:36776   */\n      dup4\n        /* \"#utility.yul\":36748:36787   */\n      tag_506\n      jump\t// in\n    tag_853:\n        /* \"#utility.yul\":36736:36787   */\n      swap6\n      pop\n        /* \"#utility.yul\":36820:36824   */\n      dup1\n        /* \"#utility.yul\":36816:36825   */\n      not\n        /* \"#utility.yul\":36809:36814   */\n      dup5\n        /* \"#utility.yul\":36805:36826   */\n      and\n        /* \"#utility.yul\":36796:36826   */\n      swap4\n      pop\n        /* \"#utility.yul\":36869:36873   */\n      dup1\n        /* \"#utility.yul\":36859:36867   */\n      dup7\n        /* \"#utility.yul\":36855:36874   */\n      and\n        /* \"#utility.yul\":36848:36853   */\n      dup5\n        /* \"#utility.yul\":36845:36875   */\n      or\n        /* \"#utility.yul\":36835:36875   */\n      swap3\n      pop\n        /* \"#utility.yul\":36564:36881   */\n      pop\n      pop\n        /* \"#utility.yul\":36488:36881   */\n      swap4\n      swap3\n      pop\n      pop\n      pop\n      jump\t// out\n        /* \"#utility.yul\":36887:37029   */\n    tag_508:\n        /* \"#utility.yul\":36937:36946   */\n      0x00\n        /* \"#utility.yul\":36970:37023   */\n      tag_855\n        /* \"#utility.yul\":36988:37022   */\n      tag_856\n        /* \"#utility.yul\":36997:37021   */\n      tag_857\n        /* \"#utility.yul\":37015:37020   */\n      dup5\n        /* \"#utility.yul\":36997:37021   */\n      tag_428\n      jump\t// in\n    tag_857:\n        /* \"#utility.yul\":36988:37022   */\n      tag_450\n      jump\t// in\n    tag_856:\n        /* \"#utility.yul\":36970:37023   */\n      tag_428\n      jump\t// in\n    tag_855:\n        /* \"#utility.yul\":36957:37023   */\n      swap1\n      pop\n        /* \"#utility.yul\":36887:37029   */\n      swap2\n      swap1\n      pop\n      jump\t// out\n        /* \"#utility.yul\":37035:37110   */\n    tag_509:\n        /* \"#utility.yul\":37078:37081   */\n      0x00\n        /* \"#utility.yul\":37099:37104   */\n      dup2\n        /* \"#utility.yul\":37092:37104   */\n      swap1\n      pop\n        /* \"#utility.yul\":37035:37110   */\n      swap2\n      swap1\n      pop\n      jump\t// out\n        /* \"#utility.yul\":37116:37385   */\n    tag_510:\n        /* \"#utility.yul\":37226:37265   */\n      tag_860\n        /* \"#utility.yul\":37257:37264   */\n      dup4\n        /* \"#utility.yul\":37226:37265   */\n      tag_508\n      jump\t// in\n    tag_860:\n        /* \"#utility.yul\":37287:37378   */\n      tag_861\n        /* \"#utility.yul\":37336:37377   */\n      tag_862\n        /* \"#utility.yul\":37360:37376   */\n      dup3\n        /* \"#utility.yul\":37336:37377   */\n      tag_509\n      jump\t// in\n    tag_862:\n        /* \"#utility.yul\":37328:37334   */\n      dup5\n        /* \"#utility.yul\":37321:37325   */\n      dup5\n        /* \"#utility.yul\":37315:37326   */\n      sload\n        /* \"#utility.yul\":37287:37378   */\n      tag_507\n      jump\t// in\n    tag_861:\n        /* \"#utility.yul\":37281:37285   */\n      dup3\n        /* \"#utility.yul\":37274:37379   */\n      sstore\n        /* \"#utility.yul\":37192:37385   */\n      pop\n        /* \"#utility.yul\":37116:37385   */\n      pop\n      pop\n      pop\n      jump\t// out\n        /* \"#utility.yul\":37391:37464   */\n    tag_511:\n        /* \"#utility.yul\":37436:37439   */\n      0x00\n        /* \"#utility.yul\":37391:37464   */\n      swap1\n      jump\t// out\n        /* \"#utility.yul\":37470:37659   */\n    tag_512:\n        /* \"#utility.yul\":37547:37579   */\n      tag_865\n      tag_511\n      jump\t// in\n    tag_865:\n        /* \"#utility.yul\":37588:37653   */\n      tag_866\n        /* \"#utility.yul\":37646:37652   */\n      dup2\n        /* \"#utility.yul\":37638:37644   */\n      dup5\n        /* \"#utility.yul\":37632:37636   */\n      dup5\n        /* \"#utility.yul\":37588:37653   */\n      tag_510\n      jump\t// in\n    tag_866:\n        /* \"#utility.yul\":37523:37659   */\n      pop\n        /* \"#utility.yul\":37470:37659   */\n      pop\n      pop\n      jump\t// out\n        /* \"#utility.yul\":37665:37851   */\n    tag_513:\n        /* \"#utility.yul\":37725:37845   */\n    tag_868:\n        /* \"#utility.yul\":37742:37745   */\n      dup2\n        /* \"#utility.yul\":37735:37740   */\n      dup2\n        /* \"#utility.yul\":37732:37746   */\n      lt\n        /* \"#utility.yul\":37725:37845   */\n      iszero\n      tag_870\n      jumpi\n        /* \"#utility.yul\":37796:37835   */\n      tag_871\n        /* \"#utility.yul\":37833:37834   */\n      0x00\n        /* \"#utility.yul\":37826:37831   */\n      dup3\n        /* \"#utility.yul\":37796:37835   */\n      tag_512\n      jump\t// in\n    tag_871:\n        /* \"#utility.yul\":37769:37770   */\n      0x01\n        /* \"#utility.yul\":37762:37767   */\n      dup2\n        /* \"#utility.yul\":37758:37771   */\n      add\n        /* \"#utility.yul\":37749:37771   */\n      swap1\n      pop\n        /* \"#utility.yul\":37725:37845   */\n      jump(tag_868)\n    tag_870:\n        /* \"#utility.yul\":37665:37851   */\n      pop\n      pop\n      jump\t// out\n        /* \"#utility.yul\":37857:38400   */\n    tag_514:\n        /* \"#utility.yul\":37958:37960   */\n      0x1f\n        /* \"#utility.yul\":37953:37956   */\n      dup3\n        /* \"#utility.yul\":37950:37961   */\n      gt\n        /* \"#utility.yul\":37947:38393   */\n      iszero\n      tag_873\n      jumpi\n        /* \"#utility.yul\":37992:38030   */\n      tag_874\n        /* \"#utility.yul\":38024:38029   */\n      dup2\n        /* \"#utility.yul\":37992:38030   */\n      tag_504\n      jump\t// in\n    tag_874:\n        /* \"#utility.yul\":38076:38105   */\n      tag_875\n        /* \"#utility.yul\":38094:38104   */\n      dup5\n        /* \"#utility.yul\":38076:38105   */\n      tag_505\n      jump\t// in\n    tag_875:\n        /* \"#utility.yul\":38066:38074   */\n      dup2\n        /* \"#utility.yul\":38062:38106   */\n      add\n        /* \"#utility.yul\":38259:38261   */\n      0x20\n        /* \"#utility.yul\":38247:38257   */\n      dup6\n        /* \"#utility.yul\":38244:38262   */\n      lt\n        /* \"#utility.yul\":38241:38290   */\n      iszero\n      tag_876\n      jumpi\n        /* \"#utility.yul\":38280:38288   */\n      dup2\n        /* \"#utility.yul\":38265:38288   */\n      swap1\n      pop\n        /* \"#utility.yul\":38241:38290   */\n    tag_876:\n        /* \"#utility.yul\":38303:38383   */\n      tag_877\n        /* \"#utility.yul\":38359:38381   */\n      tag_878\n        /* \"#utility.yul\":38377:38380   */\n      dup6\n        /* \"#utility.yul\":38359:38381   */\n      tag_505\n      jump\t// in\n    tag_878:\n        /* \"#utility.yul\":38349:38357   */\n      dup4\n        /* \"#utility.yul\":38345:38382   */\n      add\n        /* \"#utility.yul\":38332:38343   */\n      dup3\n        /* \"#utility.yul\":38303:38383   */\n      tag_513\n      jump\t// in\n    tag_877:\n        /* \"#utility.yul\":37962:38393   */\n      pop\n      pop\n        /* \"#utility.yul\":37947:38393   */\n    tag_873:\n        /* \"#utility.yul\":37857:38400   */\n      pop\n      pop\n      pop\n      jump\t// out\n        /* \"#utility.yul\":38406:38523   */\n    tag_515:\n        /* \"#utility.yul\":38460:38468   */\n      0x00\n        /* \"#utility.yul\":38510:38515   */\n      dup3\n        /* \"#utility.yul\":38504:38508   */\n      dup3\n        /* \"#utility.yul\":38500:38516   */\n      shr\n        /* \"#utility.yul\":38479:38516   */\n      swap1\n      pop\n        /* \"#utility.yul\":38406:38523   */\n      swap3\n      swap2\n      pop\n      pop\n      jump\t// out\n        /* \"#utility.yul\":38529:38698   */\n    tag_516:\n        /* \"#utility.yul\":38573:38579   */\n      0x00\n        /* \"#utility.yul\":38606:38657   */\n      tag_881\n        /* \"#utility.yul\":38654:38655   */\n      0x00\n        /* \"#utility.yul\":38650:38656   */\n      not\n        /* \"#utility.yul\":38642:38647   */\n      dup5\n        /* \"#utility.yul\":38639:38640   */\n      0x08\n        /* \"#utility.yul\":38635:38648   */\n      mul\n        /* \"#utility.yul\":38606:38657   */\n      tag_515\n      jump\t// in\n    tag_881:\n        /* \"#utility.yul\":38602:38658   */\n      not\n        /* \"#utility.yul\":38687:38691   */\n      dup1\n        /* \"#utility.yul\":38681:38685   */\n      dup4\n        /* \"#utility.yul\":38677:38692   */\n      and\n        /* \"#utility.yul\":38667:38692   */\n      swap2\n      pop\n        /* \"#utility.yul\":38580:38698   */\n      pop\n        /* \"#utility.yul\":38529:38698   */\n      swap3\n      swap2\n      pop\n      pop\n      jump\t// out\n        /* \"#utility.yul\":38703:38998   */\n    tag_517:\n        /* \"#utility.yul\":38779:38783   */\n      0x00\n        /* \"#utility.yul\":38925:38954   */\n      tag_883\n        /* \"#utility.yul\":38950:38953   */\n      dup4\n        /* \"#utility.yul\":38944:38948   */\n      dup4\n        /* \"#utility.yul\":38925:38954   */\n      tag_516\n      jump\t// in\n    tag_883:\n        /* \"#utility.yul\":38917:38954   */\n      swap2\n      pop\n        /* \"#utility.yul\":38987:38990   */\n      dup3\n        /* \"#utility.yul\":38984:38985   */\n      0x02\n        /* \"#utility.yul\":38980:38991   */\n      mul\n        /* \"#utility.yul\":38974:38978   */\n      dup3\n        /* \"#utility.yul\":38971:38992   */\n      or\n        /* \"#utility.yul\":38963:38992   */\n      swap1\n      pop\n        /* \"#utility.yul\":38703:38998   */\n      swap3\n      swap2\n      pop\n      pop\n      jump\t// out\n        /* \"#utility.yul\":39003:40398   */\n    tag_373:\n        /* \"#utility.yul\":39120:39157   */\n      tag_885\n        /* \"#utility.yul\":39153:39156   */\n      dup3\n        /* \"#utility.yul\":39120:39157   */\n      tag_456\n      jump\t// in\n    tag_885:\n        /* \"#utility.yul\":39222:39240   */\n      0xffffffffffffffff\n        /* \"#utility.yul\":39214:39220   */\n      dup2\n        /* \"#utility.yul\":39211:39241   */\n      gt\n        /* \"#utility.yul\":39208:39264   */\n      iszero\n      tag_886\n      jumpi\n        /* \"#utility.yul\":39244:39262   */\n      tag_887\n      tag_438\n      jump\t// in\n    tag_887:\n        /* \"#utility.yul\":39208:39264   */\n    tag_886:\n        /* \"#utility.yul\":39288:39326   */\n      tag_888\n        /* \"#utility.yul\":39320:39324   */\n      dup3\n        /* \"#utility.yul\":39314:39325   */\n      sload\n        /* \"#utility.yul\":39288:39326   */\n      tag_180\n      jump\t// in\n    tag_888:\n        /* \"#utility.yul\":39373:39440   */\n      tag_889\n        /* \"#utility.yul\":39433:39439   */\n      dup3\n        /* \"#utility.yul\":39425:39431   */\n      dup3\n        /* \"#utility.yul\":39419:39423   */\n      dup6\n        /* \"#utility.yul\":39373:39440   */\n      tag_514\n      jump\t// in\n    tag_889:\n        /* \"#utility.yul\":39467:39468   */\n      0x00\n        /* \"#utility.yul\":39491:39495   */\n      0x20\n        /* \"#utility.yul\":39478:39495   */\n      swap1\n      pop\n        /* \"#utility.yul\":39523:39525   */\n      0x1f\n        /* \"#utility.yul\":39515:39521   */\n      dup4\n        /* \"#utility.yul\":39512:39526   */\n      gt\n        /* \"#utility.yul\":39540:39541   */\n      0x01\n        /* \"#utility.yul\":39535:40153   */\n      dup2\n      eq\n      tag_891\n      jumpi\n        /* \"#utility.yul\":40197:40198   */\n      0x00\n        /* \"#utility.yul\":40214:40220   */\n      dup5\n        /* \"#utility.yul\":40211:40288   */\n      iszero\n      tag_892\n      jumpi\n        /* \"#utility.yul\":40263:40272   */\n      dup3\n        /* \"#utility.yul\":40258:40261   */\n      dup8\n        /* \"#utility.yul\":40254:40273   */\n      add\n        /* \"#utility.yul\":40248:40274   */\n      mload\n        /* \"#utility.yul\":40239:40274   */\n      swap1\n      pop\n        /* \"#utility.yul\":40211:40288   */\n    tag_892:\n        /* \"#utility.yul\":40314:40381   */\n      tag_893\n        /* \"#utility.yul\":40374:40380   */\n      dup6\n        /* \"#utility.yul\":40367:40372   */\n      dup3\n        /* \"#utility.yul\":40314:40381   */\n      tag_517\n      jump\t// in\n    tag_893:\n        /* \"#utility.yul\":40308:40312   */\n      dup7\n        /* \"#utility.yul\":40301:40382   */\n      sstore\n        /* \"#utility.yul\":40170:40392   */\n      pop\n        /* \"#utility.yul\":39505:40392   */\n      jump(tag_890)\n        /* \"#utility.yul\":39535:40153   */\n    tag_891:\n        /* \"#utility.yul\":39587:39591   */\n      0x1f\n        /* \"#utility.yul\":39583:39592   */\n      not\n        /* \"#utility.yul\":39575:39581   */\n      dup5\n        /* \"#utility.yul\":39571:39593   */\n      and\n        /* \"#utility.yul\":39621:39658   */\n      tag_894\n        /* \"#utility.yul\":39653:39657   */\n      dup7\n        /* \"#utility.yul\":39621:39658   */\n      tag_504\n      jump\t// in\n    tag_894:\n        /* \"#utility.yul\":39680:39681   */\n      0x00\n        /* \"#utility.yul\":39694:39902   */\n    tag_895:\n        /* \"#utility.yul\":39708:39715   */\n      dup3\n        /* \"#utility.yul\":39705:39706   */\n      dup2\n        /* \"#utility.yul\":39702:39716   */\n      lt\n        /* \"#utility.yul\":39694:39902   */\n      iszero\n      tag_897\n      jumpi\n        /* \"#utility.yul\":39787:39796   */\n      dup5\n        /* \"#utility.yul\":39782:39785   */\n      dup10\n        /* \"#utility.yul\":39778:39797   */\n      add\n        /* \"#utility.yul\":39772:39798   */\n      mload\n        /* \"#utility.yul\":39764:39770   */\n      dup3\n        /* \"#utility.yul\":39757:39799   */\n      sstore\n        /* \"#utility.yul\":39838:39839   */\n      0x01\n        /* \"#utility.yul\":39830:39836   */\n      dup3\n        /* \"#utility.yul\":39826:39840   */\n      add\n        /* \"#utility.yul\":39816:39840   */\n      swap2\n      pop\n        /* \"#utility.yul\":39885:39887   */\n      0x20\n        /* \"#utility.yul\":39874:39883   */\n      dup6\n        /* \"#utility.yul\":39870:39888   */\n      add\n        /* \"#utility.yul\":39857:39888   */\n      swap5\n      pop\n        /* \"#utility.yul\":39731:39735   */\n      0x20\n        /* \"#utility.yul\":39728:39729   */\n      dup2\n        /* \"#utility.yul\":39724:39736   */\n      add\n        /* \"#utility.yul\":39719:39736   */\n      swap1\n      pop\n        /* \"#utility.yul\":39694:39902   */\n      jump(tag_895)\n    tag_897:\n        /* \"#utility.yul\":39930:39936   */\n      dup7\n        /* \"#utility.yul\":39921:39928   */\n      dup4\n        /* \"#utility.yul\":39918:39937   */\n      lt\n        /* \"#utility.yul\":39915:40094   */\n      iszero\n      tag_898\n      jumpi\n        /* \"#utility.yul\":39988:39997   */\n      dup5\n        /* \"#utility.yul\":39983:39986   */\n      dup10\n        /* \"#utility.yul\":39979:39998   */\n      add\n        /* \"#utility.yul\":39973:39999   */\n      mload\n        /* \"#utility.yul\":40031:40079   */\n      tag_899\n        /* \"#utility.yul\":40073:40077   */\n      0x1f\n        /* \"#utility.yul\":40065:40071   */\n      dup10\n        /* \"#utility.yul\":40061:40078   */\n      and\n        /* \"#utility.yul\":40050:40059   */\n      dup3\n        /* \"#utility.yul\":40031:40079   */\n      tag_516\n      jump\t// in\n    tag_899:\n        /* \"#utility.yul\":40023:40029   */\n      dup4\n        /* \"#utility.yul\":40016:40080   */\n      sstore\n        /* \"#utility.yul\":39938:40094   */\n      pop\n        /* \"#utility.yul\":39915:40094   */\n    tag_898:\n        /* \"#utility.yul\":40140:40141   */\n      0x01\n        /* \"#utility.yul\":40136:40137   */\n      0x02\n        /* \"#utility.yul\":40128:40134   */\n      dup9\n        /* \"#utility.yul\":40124:40138   */\n      mul\n        /* \"#utility.yul\":40120:40142   */\n      add\n        /* \"#utility.yul\":40114:40118   */\n      dup9\n        /* \"#utility.yul\":40107:40143   */\n      sstore\n        /* \"#utility.yul\":39542:40153   */\n      pop\n      pop\n      pop\n        /* \"#utility.yul\":39505:40392   */\n    tag_890:\n      pop\n        /* \"#utility.yul\":39095:40398   */\n      pop\n      pop\n      pop\n        /* \"#utility.yul\":39003:40398   */\n      pop\n      pop\n      jump\t// out\n        /* \"#utility.yul\":40404:40570   */\n    tag_518:\n        /* \"#utility.yul\":40544:40562   */\n      0x5061757361626c653a2070617573656400000000000000000000000000000000\n        /* \"#utility.yul\":40540:40541   */\n      0x00\n        /* \"#utility.yul\":40532:40538   */\n      dup3\n        /* \"#utility.yul\":40528:40542   */\n      add\n        /* \"#utility.yul\":40521:40563   */\n      mstore\n        /* \"#utility.yul\":40404:40570   */\n      pop\n      jump\t// out\n        /* \"#utility.yul\":40576:40942   */\n    tag_519:\n        /* \"#utility.yul\":40718:40721   */\n      0x00\n        /* \"#utility.yul\":40739:40806   */\n      tag_902\n        /* \"#utility.yul\":40803:40805   */\n      0x10\n        /* \"#utility.yul\":40798:40801   */\n      dup4\n        /* \"#utility.yul\":40739:40806   */\n      tag_457\n      jump\t// in\n    tag_902:\n        /* \"#utility.yul\":40732:40806   */\n      swap2\n      pop\n        /* \"#utility.yul\":40815:40908   */\n      tag_903\n        /* \"#utility.yul\":40904:40907   */\n      dup3\n        /* \"#utility.yul\":40815:40908   */\n      tag_518\n      jump\t// in\n    tag_903:\n        /* \"#utility.yul\":40933:40935   */\n      0x20\n        /* \"#utility.yul\":40928:40931   */\n      dup3\n        /* \"#utility.yul\":40924:40936   */\n      add\n        /* \"#utility.yul\":40917:40936   */\n      swap1\n      pop\n        /* \"#utility.yul\":40576:40942   */\n      swap2\n      swap1\n      pop\n      jump\t// out\n        /* \"#utility.yul\":40948:41367   */\n    tag_408:\n        /* \"#utility.yul\":41114:41118   */\n      0x00\n        /* \"#utility.yul\":41152:41154   */\n      0x20\n        /* \"#utility.yul\":41141:41150   */\n      dup3\n        /* \"#utility.yul\":41137:41155   */\n      add\n        /* \"#utility.yul\":41129:41155   */\n      swap1\n      pop\n        /* \"#utility.yul\":41201:41210   */\n      dup2\n        /* \"#utility.yul\":41195:41199   */\n      dup2\n        /* \"#utility.yul\":41191:41211   */\n      sub\n        /* \"#utility.yul\":41187:41188   */\n      0x00\n        /* \"#utility.yul\":41176:41185   */\n      dup4\n        /* \"#utility.yul\":41172:41189   */\n      add\n        /* \"#utility.yul\":41165:41212   */\n      mstore\n        /* \"#utility.yul\":41229:41360   */\n      tag_905\n        /* \"#utility.yul\":41355:41359   */\n      dup2\n        /* \"#utility.yul\":41229:41360   */\n      tag_519\n      jump\t// in\n    tag_905:\n        /* \"#utility.yul\":41221:41360   */\n      swap1\n      pop\n        /* \"#utility.yul\":40948:41367   */\n      swap2\n      swap1\n      pop\n      jump\t// out\n        /* \"#utility.yul\":41373:41543   */\n    tag_520:\n        /* \"#utility.yul\":41513:41535   */\n      0x5061757361626c653a206e6f7420706175736564000000000000000000000000\n        /* \"#utility.yul\":41509:41510   */\n      0x00\n        /* \"#utility.yul\":41501:41507   */\n      dup3\n        /* \"#utility.yul\":41497:41511   */\n      add\n        /* \"#utility.yul\":41490:41536   */\n      mstore\n        /* \"#utility.yul\":41373:41543   */\n      pop\n      jump\t// out\n        /* \"#utility.yul\":41549:41915   */\n    tag_521:\n        /* \"#utility.yul\":41691:41694   */\n      0x00\n        /* \"#utility.yul\":41712:41779   */\n      tag_908\n        /* \"#utility.yul\":41776:41778   */\n      0x14\n        /* \"#utility.yul\":41771:41774   */\n      dup4\n        /* \"#utility.yul\":41712:41779   */\n      tag_457\n      jump\t// in\n    tag_908:\n        /* \"#utility.yul\":41705:41779   */\n      swap2\n      pop\n        /* \"#utility.yul\":41788:41881   */\n      tag_909\n        /* \"#utility.yul\":41877:41880   */\n      dup3\n        /* \"#utility.yul\":41788:41881   */\n      tag_520\n      jump\t// in\n    tag_909:\n        /* \"#utility.yul\":41906:41908   */\n      0x20\n        /* \"#utility.yul\":41901:41904   */\n      dup3\n        /* \"#utility.yul\":41897:41909   */\n      add\n        /* \"#utility.yul\":41890:41909   */\n      swap1\n      pop\n        /* \"#utility.yul\":41549:41915   */\n      swap2\n      swap1\n      pop\n      jump\t// out\n        /* \"#utility.yul\":41921:42340   */\n    tag_420:\n        /* \"#utility.yul\":42087:42091   */\n      0x00\n        /* \"#utility.yul\":42125:42127   */\n      0x20\n        /* \"#utility.yul\":42114:42123   */\n      dup3\n        /* \"#utility.yul\":42110:42128   */\n      add\n        /* \"#utility.yul\":42102:42128   */\n      swap1\n      pop\n        /* \"#utility.yul\":42174:42183   */\n      dup2\n        /* \"#utility.yul\":42168:42172   */\n      dup2\n        /* \"#utility.yul\":42164:42184   */\n      sub\n        /* \"#utility.yul\":42160:42161   */\n      0x00\n        /* \"#utility.yul\":42149:42158   */\n      dup4\n        /* \"#utility.yul\":42145:42162   */\n      add\n        /* \"#utility.yul\":42138:42185   */\n      mstore\n        /* \"#utility.yul\":42202:42333   */\n      tag_911\n        /* \"#utility.yul\":42328:42332   */\n      dup2\n        /* \"#utility.yul\":42202:42333   */\n      tag_521\n      jump\t// in\n    tag_911:\n        /* \"#utility.yul\":42194:42333   */\n      swap1\n      pop\n        /* \"#utility.yul\":41921:42340   */\n      swap2\n      swap1\n      pop\n      jump\t// out\n\n    auxdata: 0xa26469706673582212200dd64ca306202e2b6577405e60a42657387eb1cfb4e2f13437314949d30bc03464736f6c634300081a0033\n}\n",
				"bytecode": {
					"linkReferences": {},
					"object": "608060405234801561000f575f80fd5b50604051613a59380380613a5983398181016040528101906100319190610230565b335f73ffffffffffffffffffffffffffffffffffffffff168173ffffffffffffffffffffffffffffffffffffffff16036100a2575f6040517f1e4fbdf7000000000000000000000000000000000000000000000000000000008152600401610099919061026a565b60405180910390fd5b6100b18161011160201b60201c565b505f8060146101000a81548160ff0219169083151502179055508060015f6101000a81548173ffffffffffffffffffffffffffffffffffffffff021916908373ffffffffffffffffffffffffffffffffffffffff16021790555050610283565b5f805f9054906101000a900473ffffffffffffffffffffffffffffffffffffffff169050815f806101000a81548173ffffffffffffffffffffffffffffffffffffffff021916908373ffffffffffffffffffffffffffffffffffffffff1602179055508173ffffffffffffffffffffffffffffffffffffffff168173ffffffffffffffffffffffffffffffffffffffff167f8be0079c531659141344cd1fd0a4f28419497f9722a3daafe3b4186f6b6457e060405160405180910390a35050565b5f80fd5b5f73ffffffffffffffffffffffffffffffffffffffff82169050919050565b5f6101ff826101d6565b9050919050565b61020f816101f5565b8114610219575f80fd5b50565b5f8151905061022a81610206565b92915050565b5f60208284031215610245576102446101d2565b5b5f6102528482850161021c565b91505092915050565b610264816101f5565b82525050565b5f60208201905061027d5f83018461025b565b92915050565b6137c9806102905f395ff3fe608060405260043610610184575f3560e01c80638da5cb5b116100d0578063b0aaefd611610089578063d2c69bd411610063578063d2c69bd4146104e3578063d76f044a1461050d578063f2fde38b14610529578063fbf1aded146105515761018b565b8063b0aaefd61461045b578063ba2f03621461049d578063cf90b3be146104b95761018b565b80638da5cb5b14610358578063905baa611461038257806396f979d2146103aa578063996b5d8e146103eb578063a4e1f03314610407578063ae24f005146104315761018b565b80635cb45cb51161013d578063715018a611610117578063715018a6146102da57806375284998146102f05780638456cb591461031857806387bc14251461032e5761018b565b80635cb45cb5146102785780635e52da271461029457806366055159146102b05761018b565b806307f910f81461018f5780633f4ba83a146101ce5780633faa5ef6146101e4578063542fd03a1461020e578063587f5ed7146102245780635c975abb1461024e5761018b565b3661018b57005b5f80fd5b34801561019a575f80fd5b506101b560048036038101906101b0919061237a565b61057b565b6040516101c594939291906123fc565b60405180910390f35b3480156101d9575f80fd5b506101e26105d6565b005b3480156101ef575f80fd5b506101f86105e8565b604051610205919061243f565b60405180910390f35b348015610219575f80fd5b506102226105f4565b005b34801561022f575f80fd5b506102386106f3565b604051610245919061243f565b60405180910390f35b348015610259575f80fd5b506102626106f9565b60405161026f9190612458565b60405180910390f35b610292600480360381019061028d919061268f565b61070e565b005b6102ae60048036038101906102a991906126e9565b610d64565b005b3480156102bb575f80fd5b506102c46110e9565b6040516102d1919061243f565b60405180910390f35b3480156102e5575f80fd5b506102ee6110ef565b005b3480156102fb575f80fd5b50610316600480360381019061031191906126e9565b611102565b005b348015610323575f80fd5b5061032c6111c7565b005b348015610339575f80fd5b506103426111d9565b60405161034f919061276f565b60405180910390f35b348015610363575f80fd5b5061036c6111fe565b6040516103799190612797565b60405180910390f35b34801561038d575f80fd5b506103a860048036038101906103a391906127b0565b611225565b005b3480156103b5575f80fd5b506103d060048036038101906103cb91906126e9565b611270565b6040516103e29695949392919061283b565b60405180910390f35b610405600480360381019061040091906126e9565b611359565b005b348015610412575f80fd5b5061041b6115d4565b604051610428919061243f565b60405180910390f35b34801561043c575f80fd5b506104456115d9565b604051610452919061243f565b60405180910390f35b348015610466575f80fd5b50610481600480360381019061047c91906128a1565b6115de565b60405161049497969594939291906128f7565b60405180910390f35b6104b760048036038101906104b291906126e9565b6118d4565b005b3480156104c4575f80fd5b506104cd611ba4565b6040516104da919061243f565b60405180910390f35b3480156104ee575f80fd5b506104f7611bb0565b604051610504919061243f565b60405180910390f35b61052760048036038101906105229190612bd4565b611bb4565b005b348015610534575f80fd5b5061054f600480360381019061054a91906127b0565b611fa7565b005b34801561055c575f80fd5b5061056561202b565b604051610572919061243f565b60405180910390f35b6004602052815f5260405f20602052805f5260405f205f9150915050805f015f9054906101000a900460ff1690805f0160019054906101000a900460ff1690805f0160029054906101000a900460ff16908060010154905084565b6105de612037565b6105e66120be565b565b670a688906bd8b000081565b6105fc612037565b5f60025490505f6002819055505f6106126111fe565b73ffffffffffffffffffffffffffffffffffffffff168260405161063590612c77565b5f6040518083038185875af1925050503d805f811461066f576040519150601f19603f3d011682016040523d82523d5f602084013e610674565b606091505b50509050806106b8576040517f08c379a00000000000000000000000000000000000000000000000000000000081526004016106af90612cd5565b60405180910390fd5b7f0d3c6acef4f1bd70f36dad19b43c6b794ac969b546734638671026f801d476fa826040516106e7919061243f565b60405180910390a15050565b60025481565b5f8060149054906101000a900460ff16905090565b5f60045f3373ffffffffffffffffffffffffffffffffffffffff1673ffffffffffffffffffffffffffffffffffffffff1681526020019081526020015f205f8481526020019081526020015f209050805f015f9054906101000a900460ff166107ac576040517f08c379a00000000000000000000000000000000000000000000000000000000081526004016107a390612d3d565b60405180910390fd5b6002815f0160019054906101000a900460ff1660ff1610610802576040517f08c379a00000000000000000000000000000000000000000000000000000000081526004016107f990612da5565b60405180910390fd5b805f01600181819054906101000a900460ff168092919061082290612df0565b91906101000a81548160ff021916908360ff160217905550505f60055f8581526020019081526020015f20805480602002602001604051908101604052809291908181526020015f905b82821015610b7f578382905f5260205f2090600702016040518060e00160405290815f82015481526020016001820180546108a690612e45565b80601f01602080910402602001604051908101604052809291908181526020018280546108d290612e45565b801561091d5780601f106108f45761010080835404028352916020019161091d565b820191905f5260205f20905b81548152906001019060200180831161090057829003601f168201915b5050505050815260200160028201805461093690612e45565b80601f016020809104026020016040519081016040528092919081815260200182805461096290612e45565b80156109ad5780601f10610984576101008083540402835291602001916109ad565b820191905f5260205f20905b81548152906001019060200180831161099057829003601f168201915b505050505081526020016003820180546109c690612e45565b80601f01602080910402602001604051908101604052809291908181526020018280546109f290612e45565b8015610a3d5780601f10610a1457610100808354040283529160200191610a3d565b820191905f5260205f20905b815481529060010190602001808311610a2057829003601f168201915b50505050508152602001600482018054610a5690612e45565b80601f0160208091040260200160405190810160405280929190818152602001828054610a8290612e45565b8015610acd5780601f10610aa457610100808354040283529160200191610acd565b820191905f5260205f20905b815481529060010190602001808311610ab057829003601f168201915b50505050508152602001600582018054610ae690612e45565b80601f0160208091040260200160405190810160405280929190818152602001828054610b1290612e45565b8015610b5d5780601f10610b3457610100808354040283529160200191610b5d565b820191905f5260205f20905b815481529060010190602001808311610b4057829003601f168201915b505050505081526020016006820154815250508152602001906001019061086c565b5050505090508051835114610bc9576040517f08c379a0000000000000000000000000000000000000000000000000000000008152600401610bc090612ebf565b60405180910390fd5b5f600190505f5b8251811015610c5357828181518110610bec57610beb612edd565b5b602002602001015160c00151858281518110610c0b57610c0a612edd565b5b6020026020010151604051602001610c239190612f44565b6040516020818303038152906040528051906020012014610c46575f9150610c53565b8080600101915050610bd0565b50808015610c6f5750825f0160029054906101000a900460ff16155b15610d0e576001835f0160026101000a81548160ff021916908315150217905550678ac7230489e80000836001015f828254610cab9190612f5a565b9250508190555060035f8681526020019081526020015f206003015f815480929190610cd690612f8d565b9190505550670de0b6b3a764000060035f8781526020019081526020015f206004015f828254610d069190612f5a565b925050819055505b3373ffffffffffffffffffffffffffffffffffffffff16857faee8895c1bf669485cee2dd54d1eee9e65b02a244afb6f798f95d72405cdf7a583604051610d559190612458565b60405180910390a35050505050565b610d6c61211f565b670a688906bd8b0000341015610db7576040517f08c379a0000000000000000000000000000000000000000000000000000000008152600401610dae9061301e565b60405180910390fd5b670a688906bd8b000060025f828254610dd09190612f5a565b925050819055505f670a688906bd8b000034610dec919061303c565b90505f811115610e3b573373ffffffffffffffffffffffffffffffffffffffff166108fc8290811502906040515f60405180830381858888f19350505050158015610e39573d5f803e3d5ffd5b505b600560015f9054906101000a900473ffffffffffffffffffffffffffffffffffffffff1673ffffffffffffffffffffffffffffffffffffffff1663b9f79451336040518263ffffffff1660e01b8152600401610e979190612797565b602060405180830381865afa158015610eb2573d5f803e3d5ffd5b505050506040513d601f19601f82011682018060405250810190610ed69190613083565b1015610f17576040517f08c379a0000000000000000000000000000000000000000000000000000000008152600401610f0e9061311e565b60405180910390fd5b60035f8381526020019081526020015f206002015f9054906101000a900460ff16610f77576040517f08c379a0000000000000000000000000000000000000000000000000000000008152600401610f6e90613186565b60405180910390fd5b60045f3373ffffffffffffffffffffffffffffffffffffffff1673ffffffffffffffffffffffffffffffffffffffff1681526020019081526020015f205f8381526020019081526020015f205f015f9054906101000a900460ff1615611012576040517f08c379a0000000000000000000000000000000000000000000000000000000008152600401611009906131ee565b60405180910390fd5b600160045f3373ffffffffffffffffffffffffffffffffffffffff1673ffffffffffffffffffffffffffffffffffffffff1681526020019081526020015f205f8481526020019081526020015f205f015f6101000a81548160ff02191690831515021790555060035f8381526020019081526020015f206005015f81548092919061109c90612f8d565b91905055503373ffffffffffffffffffffffffffffffffffffffff16827ffacf1a2842acbad124cbca0a047fe37bc246c68f814e0350c7bd8a022fd1dddb60405160405180910390a35050565b60065481565b6110f7612037565b6111005f612169565b565b61110a612037565b60035f8281526020019081526020015f206002015f9054906101000a900460ff161561116b576040517f08c379a000000000000000000000000000000000000000000000000000000000815260040161116290613256565b60405180910390fd5b600160035f8381526020019081526020015f206002015f6101000a81548160ff021916908315150217905550807f87c1c0e5cd17beb8c61a3337b32c66021cb179dd6f97d6d9ce923a029092bd4560405160405180910390a250565b6111cf612037565b6111d761222a565b565b60015f9054906101000a900473ffffffffffffffffffffffffffffffffffffffff1681565b5f805f9054906101000a900473ffffffffffffffffffffffffffffffffffffffff16905090565b61122d612037565b8060015f6101000a81548173ffffffffffffffffffffffffffffffffffffffff021916908373ffffffffffffffffffffffffffffffffffffffff16021790555050565b6003602052805f5260405f205f91509050805f015f9054906101000a900473ffffffffffffffffffffffffffffffffffffffff16908060010180546112b490612e45565b80601f01602080910402602001604051908101604052809291908181526020018280546112e090612e45565b801561132b5780601f106113025761010080835404028352916020019161132b565b820191905f5260205f20905b81548152906001019060200180831161130e57829003601f168201915b505050505090806002015f9054906101000a900460ff16908060030154908060040154908060050154905086565b61136161211f565b670a688906bd8b00003410156113ac576040517f08c379a00000000000000000000000000000000000000000000000000000000081526004016113a39061301e565b60405180910390fd5b670a688906bd8b000060025f8282546113c59190612f5a565b925050819055505f670a688906bd8b0000346113e1919061303c565b90505f811115611430573373ffffffffffffffffffffffffffffffffffffffff166108fc8290811502906040515f60405180830381858888f1935050505015801561142e573d5f803e3d5ffd5b505b5f60045f3373ffffffffffffffffffffffffffffffffffffffff1673ffffffffffffffffffffffffffffffffffffffff1681526020019081526020015f205f8481526020019081526020015f2090505f8160010154116114c5576040517f08c379a00000000000000000000000000000000000000000000000000000000081526004016114bc906132be565b60405180910390fd5b5f816001015490505f82600101819055505f3373ffffffffffffffffffffffffffffffffffffffff16826040516114fb90612c77565b5f6040518083038185875af1925050503d805f8114611535576040519150601f19603f3d011682016040523d82523d5f602084013e61153a565b606091505b505090508061157e576040517f08c379a000000000000000000000000000000000000000000000000000000000815260040161157590613326565b60405180910390fd5b3373ffffffffffffffffffffffffffffffffffffffff16857f24b5efa61dd1cfc659205a97fb8ed868f3cb8c81922bab2b96423e5de1de2cb7846040516115c5919061243f565b60405180910390a35050505050565b600581565b600581565b6005602052815f5260405f2081815481106115f7575f80fd5b905f5260205f2090600702015f9150915050805f01549080600101805461161d90612e45565b80601f016020809104026020016040519081016040528092919081815260200182805461164990612e45565b80156116945780601f1061166b57610100808354040283529160200191611694565b820191905f5260205f20905b81548152906001019060200180831161167757829003601f168201915b5050505050908060020180546116a990612e45565b80601f01602080910402602001604051908101604052809291908181526020018280546116d590612e45565b80156117205780601f106116f757610100808354040283529160200191611720565b820191905f5260205f20905b81548152906001019060200180831161170357829003601f168201915b50505050509080600301805461173590612e45565b80601f016020809104026020016040519081016040528092919081815260200182805461176190612e45565b80156117ac5780601f10611783576101008083540402835291602001916117ac565b820191905f5260205f20905b81548152906001019060200180831161178f57829003601f168201915b5050505050908060040180546117c190612e45565b80601f01602080910402602001604051908101604052809291908181526020018280546117ed90612e45565b80156118385780601f1061180f57610100808354040283529160200191611838565b820191905f5260205f20905b81548152906001019060200180831161181b57829003601f168201915b50505050509080600501805461184d90612e45565b80601f016020809104026020016040519081016040528092919081815260200182805461187990612e45565b80156118c45780601f1061189b576101008083540402835291602001916118c4565b820191905f5260205f20905b8154815290600101906020018083116118a757829003601f168201915b5050505050908060060154905087565b6118dc61211f565b670a688906bd8b0000341015611927576040517f08c379a000000000000000000000000000000000000000000000000000000000815260040161191e9061301e565b60405180910390fd5b670a688906bd8b000060025f8282546119409190612f5a565b925050819055505f670a688906bd8b00003461195c919061303c565b90505f8111156119ab573373ffffffffffffffffffffffffffffffffffffffff166108fc8290811502906040515f60405180830381858888f193505050501580156119a9573d5f803e3d5ffd5b505b5f60035f8481526020019081526020015f209050805f015f9054906101000a900473ffffffffffffffffffffffffffffffffffffffff1673ffffffffffffffffffffffffffffffffffffffff163373ffffffffffffffffffffffffffffffffffffffff1614611a4f576040517f08c379a0000000000000000000000000000000000000000000000000000000008152600401611a46906133b4565b60405180910390fd5b5f816004015411611a95576040517f08c379a0000000000000000000000000000000000000000000000000000000008152600401611a8c906132be565b60405180910390fd5b5f816004015490505f82600401819055505f3373ffffffffffffffffffffffffffffffffffffffff1682604051611acb90612c77565b5f6040518083038185875af1925050503d805f8114611b05576040519150601f19603f3d011682016040523d82523d5f602084013e611b0a565b606091505b5050905080611b4e576040517f08c379a0000000000000000000000000000000000000000000000000000000008152600401611b4590613326565b60405180910390fd5b3373ffffffffffffffffffffffffffffffffffffffff16857fb67da43f4cc061f251c05601f44947d1be59a7ef5451a4a5230274da04f8824684604051611b95919061243f565b60405180910390a35050505050565b670de0b6b3a764000081565b5f81565b611bbc61211f565b670a688906bd8b0000341015611c07576040517f08c379a0000000000000000000000000000000000000000000000000000000008152600401611bfe9061301e565b60405180910390fd5b670a688906bd8b000060025f828254611c209190612f5a565b925050819055505f670a688906bd8b000034611c3c919061303c565b90505f811115611c8b573373ffffffffffffffffffffffffffffffffffffffff166108fc8290811502906040515f60405180830381858888f19350505050158015611c89573d5f803e3d5ffd5b505b600560015f9054906101000a900473ffffffffffffffffffffffffffffffffffffffff1673ffffffffffffffffffffffffffffffffffffffff1663b9f79451336040518263ffffffff1660e01b8152600401611ce79190612797565b602060405180830381865afa158015611d02573d5f803e3d5ffd5b505050506040513d601f19601f82011682018060405250810190611d269190613083565b1015611d67576040517f08c379a0000000000000000000000000000000000000000000000000000000008152600401611d5e90613442565b60405180910390fd5b5f60065f815480929190611d7a90612f8d565b9190505590506040518060c001604052803373ffffffffffffffffffffffffffffffffffffffff1681526020018581526020015f151581526020015f81526020015f81526020015f81525060035f8381526020019081526020015f205f820151815f015f6101000a81548173ffffffffffffffffffffffffffffffffffffffff021916908373ffffffffffffffffffffffffffffffffffffffff1602179055506020820151816001019081611e2f91906135f4565b506040820151816002015f6101000a81548160ff021916908315150217905550606082015181600301556080820151816004015560a082015181600501559050505f5b8351811015611f5c5760055f8381526020019081526020015f20848281518110611e9f57611e9e612edd565b5b6020026020010151908060018154018082558091505060019003905f5260205f2090600702015f909190919091505f820151815f01556020820151816001019081611eea91906135f4565b506040820151816002019081611f0091906135f4565b506060820151816003019081611f1691906135f4565b506080820151816004019081611f2c91906135f4565b5060a0820151816005019081611f4291906135f4565b5060c0820151816006015550508080600101915050611e72565b503373ffffffffffffffffffffffffffffffffffffffff16817fa68f79aa37f9cdc81c2757cfb3e11e9d7d89ca0a5410fbcf1b61125bc17fb1b760405160405180910390a350505050565b611faf612037565b5f73ffffffffffffffffffffffffffffffffffffffff168173ffffffffffffffffffffffffffffffffffffffff160361201f575f6040517f1e4fbdf70000000000000000000000000000000000000000000000000000000081526004016120169190612797565b60405180910390fd5b61202881612169565b50565b678ac7230489e8000081565b61203f61228c565b73ffffffffffffffffffffffffffffffffffffffff1661205d6111fe565b73ffffffffffffffffffffffffffffffffffffffff16146120bc5761208061228c565b6040517f118cdaa70000000000000000000000000000000000000000000000000000000081526004016120b39190612797565b60405180910390fd5b565b6120c6612293565b5f8060146101000a81548160ff0219169083151502179055507f5db9ee0a495bf2e6ff9c91a7834c1ba4fdd244a5e8aa4e537bd38aeae4b073aa61210861228c565b6040516121159190612797565b60405180910390a1565b6121276106f9565b15612167576040517f08c379a000000000000000000000000000000000000000000000000000000000815260040161215e9061370d565b60405180910390fd5b565b5f805f9054906101000a900473ffffffffffffffffffffffffffffffffffffffff169050815f806101000a81548173ffffffffffffffffffffffffffffffffffffffff021916908373ffffffffffffffffffffffffffffffffffffffff1602179055508173ffffffffffffffffffffffffffffffffffffffff168173ffffffffffffffffffffffffffffffffffffffff167f8be0079c531659141344cd1fd0a4f28419497f9722a3daafe3b4186f6b6457e060405160405180910390a35050565b61223261211f565b60015f60146101000a81548160ff0219169083151502179055507f62e78cea01bee320cd4e420270b5ea74000d11b0c9f74754ebdbfc544b05a25861227561228c565b6040516122829190612797565b60405180910390a1565b5f33905090565b61229b6106f9565b6122da576040517f08c379a00000000000000000000000000000000000000000000000000000000081526004016122d190613775565b60405180910390fd5b565b5f604051905090565b5f80fd5b5f80fd5b5f73ffffffffffffffffffffffffffffffffffffffff82169050919050565b5f612316826122ed565b9050919050565b6123268161230c565b8114612330575f80fd5b50565b5f813590506123418161231d565b92915050565b5f819050919050565b61235981612347565b8114612363575f80fd5b50565b5f8135905061237481612350565b92915050565b5f80604083850312156123905761238f6122e5565b5b5f61239d85828601612333565b92505060206123ae85828601612366565b9150509250929050565b5f8115159050919050565b6123cc816123b8565b82525050565b5f60ff82169050919050565b6123e7816123d2565b82525050565b6123f681612347565b82525050565b5f60808201905061240f5f8301876123c3565b61241c60208301866123de565b61242960408301856123c3565b61243660608301846123ed565b95945050505050565b5f6020820190506124525f8301846123ed565b92915050565b5f60208201905061246b5f8301846123c3565b92915050565b5f80fd5b5f601f19601f8301169050919050565b7f4e487b71000000000000000000000000000000000000000000000000000000005f52604160045260245ffd5b6124bb82612475565b810181811067ffffffffffffffff821117156124da576124d9612485565b5b80604052505050565b5f6124ec6122dc565b90506124f882826124b2565b919050565b5f67ffffffffffffffff82111561251757612516612485565b5b602082029050602081019050919050565b5f80fd5b5f80fd5b5f67ffffffffffffffff82111561254a57612549612485565b5b61255382612475565b9050602081019050919050565b828183375f83830152505050565b5f61258061257b84612530565b6124e3565b90508281526020810184848401111561259c5761259b61252c565b5b6125a7848285612560565b509392505050565b5f82601f8301126125c3576125c2612471565b5b81356125d384826020860161256e565b91505092915050565b5f6125ee6125e9846124fd565b6124e3565b9050808382526020820190506020840283018581111561261157612610612528565b5b835b8181101561265857803567ffffffffffffffff81111561263657612635612471565b5b80860161264389826125af565b85526020850194505050602081019050612613565b5050509392505050565b5f82601f83011261267657612675612471565b5b81356126868482602086016125dc565b91505092915050565b5f80604083850312156126a5576126a46122e5565b5b5f6126b285828601612366565b925050602083013567ffffffffffffffff8111156126d3576126d26122e9565b5b6126df85828601612662565b9150509250929050565b5f602082840312156126fe576126fd6122e5565b5b5f61270b84828501612366565b91505092915050565b5f819050919050565b5f61273761273261272d846122ed565b612714565b6122ed565b9050919050565b5f6127488261271d565b9050919050565b5f6127598261273e565b9050919050565b6127698161274f565b82525050565b5f6020820190506127825f830184612760565b92915050565b6127918161230c565b82525050565b5f6020820190506127aa5f830184612788565b92915050565b5f602082840312156127c5576127c46122e5565b5b5f6127d284828501612333565b91505092915050565b5f81519050919050565b5f82825260208201905092915050565b8281835e5f83830152505050565b5f61280d826127db565b61281781856127e5565b93506128278185602086016127f5565b61283081612475565b840191505092915050565b5f60c08201905061284e5f830189612788565b81810360208301526128608188612803565b905061286f60408301876123c3565b61287c60608301866123ed565b61288960808301856123ed565b61289660a08301846123ed565b979650505050505050565b5f80604083850312156128b7576128b66122e5565b5b5f6128c485828601612366565b92505060206128d585828601612366565b9150509250929050565b5f819050919050565b6128f1816128df565b82525050565b5f60e08201905061290a5f83018a6123ed565b818103602083015261291c8189612803565b905081810360408301526129308188612803565b905081810360608301526129448187612803565b905081810360808301526129588186612803565b905081810360a083015261296c8185612803565b905061297b60c08301846128e8565b98975050505050505050565b5f67ffffffffffffffff8211156129a1576129a0612485565b5b602082029050602081019050919050565b5f80fd5b5f80fd5b6129c3816128df565b81146129cd575f80fd5b50565b5f813590506129de816129ba565b92915050565b5f60e082840312156129f9576129f86129b2565b5b612a0360e06124e3565b90505f612a1284828501612366565b5f83015250602082013567ffffffffffffffff811115612a3557612a346129b6565b5b612a41848285016125af565b602083015250604082013567ffffffffffffffff811115612a6557612a646129b6565b5b612a71848285016125af565b604083015250606082013567ffffffffffffffff811115612a9557612a946129b6565b5b612aa1848285016125af565b606083015250608082013567ffffffffffffffff811115612ac557612ac46129b6565b5b612ad1848285016125af565b60808301525060a082013567ffffffffffffffff811115612af557612af46129b6565b5b612b01848285016125af565b60a08301525060c0612b15848285016129d0565b60c08301525092915050565b5f612b33612b2e84612987565b6124e3565b90508083825260208201905060208402830185811115612b5657612b55612528565b5b835b81811015612b9d57803567ffffffffffffffff811115612b7b57612b7a612471565b5b808601612b8889826129e4565b85526020850194505050602081019050612b58565b5050509392505050565b5f82601f830112612bbb57612bba612471565b5b8135612bcb848260208601612b21565b91505092915050565b5f8060408385031215612bea57612be96122e5565b5b5f83013567ffffffffffffffff811115612c0757612c066122e9565b5b612c13858286016125af565b925050602083013567ffffffffffffffff811115612c3457612c336122e9565b5b612c4085828601612ba7565b9150509250929050565b5f81905092915050565b50565b5f612c625f83612c4a565b9150612c6d82612c54565b5f82019050919050565b5f612c8182612c57565b9150819050919050565b7f4661696c656420746f20776974686472617720676173206665657300000000005f82015250565b5f612cbf601b836127e5565b9150612cca82612c8b565b602082019050919050565b5f6020820190508181035f830152612cec81612cb3565b9050919050565b7f55736572206e6f7420656e726f6c6c656420696e207468697320636f757273655f82015250565b5f612d276020836127e5565b9150612d3282612cf3565b602082019050919050565b5f6020820190508181035f830152612d5481612d1b565b9050919050565b7f4d6178696d756d20617474656d707473207265616368656400000000000000005f82015250565b5f612d8f6018836127e5565b9150612d9a82612d5b565b602082019050919050565b5f6020820190508181035f830152612dbc81612d83565b9050919050565b7f4e487b71000000000000000000000000000000000000000000000000000000005f52601160045260245ffd5b5f612dfa826123d2565b915060ff8203612e0d57612e0c612dc3565b5b600182019050919050565b7f4e487b71000000000000000000000000000000000000000000000000000000005f52602260045260245ffd5b5f6002820490506001821680612e5c57607f821691505b602082108103612e6f57612e6e612e18565b5b50919050565b7f416e7377657220636f756e74206d69736d6174636800000000000000000000005f82015250565b5f612ea96015836127e5565b9150612eb482612e75565b602082019050919050565b5f6020820190508181035f830152612ed681612e9d565b9050919050565b7f4e487b71000000000000000000000000000000000000000000000000000000005f52603260045260245ffd5b5f81905092915050565b5f612f1e826127db565b612f288185612f0a565b9350612f388185602086016127f5565b80840191505092915050565b5f612f4f8284612f14565b915081905092915050565b5f612f6482612347565b9150612f6f83612347565b9250828201905080821115612f8757612f86612dc3565b5b92915050565b5f612f9782612347565b91507fffffffffffffffffffffffffffffffffffffffffffffffffffffffffffffffff8203612fc957612fc8612dc3565b5b600182019050919050565b7f496e73756666696369656e7420676173206665650000000000000000000000005f82015250565b5f6130086014836127e5565b915061301382612fd4565b602082019050919050565b5f6020820190508181035f83015261303581612ffc565b9050919050565b5f61304682612347565b915061305183612347565b925082820390508181111561306957613068612dc3565b5b92915050565b5f8151905061307d81612350565b92915050565b5f60208284031215613098576130976122e5565b5b5f6130a58482850161306f565b91505092915050565b7f496e73756666696369656e742072657075746174696f6e20746f20656e726f6c5f8201527f6c00000000000000000000000000000000000000000000000000000000000000602082015250565b5f6131086021836127e5565b9150613113826130ae565b604082019050919050565b5f6020820190508181035f830152613135816130fc565b9050919050565b7f436f75727365206e6f7420617070726f766564000000000000000000000000005f82015250565b5f6131706013836127e5565b915061317b8261313c565b602082019050919050565b5f6020820190508181035f83015261319d81613164565b9050919050565b7f416c726561647920656e726f6c6c6564000000000000000000000000000000005f82015250565b5f6131d86010836127e5565b91506131e3826131a4565b602082019050919050565b5f6020820190508181035f830152613205816131cc565b9050919050565b7f436f7572736520616c726561647920617070726f7665640000000000000000005f82015250565b5f6132406017836127e5565b915061324b8261320c565b602082019050919050565b5f6020820190508181035f83015261326d81613234565b9050919050565b7f4e6f207265776172647320746f20636c61696d000000000000000000000000005f82015250565b5f6132a86013836127e5565b91506132b382613274565b602082019050919050565b5f6020820190508181035f8301526132d58161329c565b9050919050565b7f4661696c656420746f2073656e64204d414e44000000000000000000000000005f82015250565b5f6133106013836127e5565b915061331b826132dc565b602082019050919050565b5f6020820190508181035f83015261333d81613304565b9050919050565b7f4f6e6c7920636f757273652063726561746f722063616e20636c61696d2072655f8201527f7761726400000000000000000000000000000000000000000000000000000000602082015250565b5f61339e6024836127e5565b91506133a982613344565b604082019050919050565b5f6020820190508181035f8301526133cb81613392565b9050919050565b7f496e73756666696369656e742072657075746174696f6e20746f2063726561745f8201527f6520636f75727365000000000000000000000000000000000000000000000000602082015250565b5f61342c6028836127e5565b9150613437826133d2565b604082019050919050565b5f6020820190508181035f83015261345981613420565b9050919050565b5f819050815f5260205f209050919050565b5f6020601f8301049050919050565b5f82821b905092915050565b5f600883026134bc7fffffffffffffffffffffffffffffffffffffffffffffffffffffffffffffffff82613481565b6134c68683613481565b95508019841693508086168417925050509392505050565b5f6134f86134f36134ee84612347565b612714565b612347565b9050919050565b5f819050919050565b613511836134de565b61352561351d826134ff565b84845461348d565b825550505050565b5f90565b61353961352d565b613544818484613508565b505050565b5b818110156135675761355c5f82613531565b60018101905061354a565b5050565b601f8211156135ac5761357d81613460565b61358684613472565b81016020851015613595578190505b6135a96135a185613472565b830182613549565b50505b505050565b5f82821c905092915050565b5f6135cc5f19846008026135b1565b1980831691505092915050565b5f6135e483836135bd565b9150826002028217905092915050565b6135fd826127db565b67ffffffffffffffff81111561361657613615612485565b5b6136208254612e45565b61362b82828561356b565b5f60209050601f83116001811461365c575f841561364a578287015190505b61365485826135d9565b8655506136bb565b601f19841661366a86613460565b5f5b828110156136915784890151825560018201915060208501945060208101905061366c565b868310156136ae57848901516136aa601f8916826135bd565b8355505b6001600288020188555050505b505050505050565b7f5061757361626c653a20706175736564000000000000000000000000000000005f82015250565b5f6136f76010836127e5565b9150613702826136c3565b602082019050919050565b5f6020820190508181035f830152613724816136eb565b9050919050565b7f5061757361626c653a206e6f74207061757365640000000000000000000000005f82015250565b5f61375f6014836127e5565b915061376a8261372b565b602082019050919050565b5f6020820190508181035f83015261378c81613753565b905091905056fea26469706673582212200dd64ca306202e2b6577405e60a42657387eb1cfb4e2f13437314949d30bc03464736f6c634300081a0033",
					"opcodes": "PUSH1 0x80 PUSH1 0x40 MSTORE CALLVALUE DUP1 ISZERO PUSH2 0xF JUMPI PUSH0 DUP1 REVERT JUMPDEST POP PUSH1 0x40 MLOAD PUSH2 0x3A59 CODESIZE SUB DUP1 PUSH2 0x3A59 DUP4 CODECOPY DUP2 DUP2 ADD PUSH1 0x40 MSTORE DUP2 ADD SWAP1 PUSH2 0x31 SWAP2 SWAP1 PUSH2 0x230 JUMP JUMPDEST CALLER PUSH0 PUSH20 0xFFFFFFFFFFFFFFFFFFFFFFFFFFFFFFFFFFFFFFFF AND DUP2 PUSH20 0xFFFFFFFFFFFFFFFFFFFFFFFFFFFFFFFFFFFFFFFF AND SUB PUSH2 0xA2 JUMPI PUSH0 PUSH1 0x40 MLOAD PUSH32 0x1E4FBDF700000000000000000000000000000000000000000000000000000000 DUP2 MSTORE PUSH1 0x4 ADD PUSH2 0x99 SWAP2 SWAP1 PUSH2 0x26A JUMP JUMPDEST PUSH1 0x40 MLOAD DUP1 SWAP2 SUB SWAP1 REVERT JUMPDEST PUSH2 0xB1 DUP2 PUSH2 0x111 PUSH1 0x20 SHL PUSH1 0x20 SHR JUMP JUMPDEST POP PUSH0 DUP1 PUSH1 0x14 PUSH2 0x100 EXP DUP2 SLOAD DUP2 PUSH1 0xFF MUL NOT AND SWAP1 DUP4 ISZERO ISZERO MUL OR SWAP1 SSTORE POP DUP1 PUSH1 0x1 PUSH0 PUSH2 0x100 EXP DUP2 SLOAD DUP2 PUSH20 0xFFFFFFFFFFFFFFFFFFFFFFFFFFFFFFFFFFFFFFFF MUL NOT AND SWAP1 DUP4 PUSH20 0xFFFFFFFFFFFFFFFFFFFFFFFFFFFFFFFFFFFFFFFF AND MUL OR SWAP1 SSTORE POP POP PUSH2 0x283 JUMP JUMPDEST PUSH0 DUP1 PUSH0 SWAP1 SLOAD SWAP1 PUSH2 0x100 EXP SWAP1 DIV PUSH20 0xFFFFFFFFFFFFFFFFFFFFFFFFFFFFFFFFFFFFFFFF AND SWAP1 POP DUP2 PUSH0 DUP1 PUSH2 0x100 EXP DUP2 SLOAD DUP2 PUSH20 0xFFFFFFFFFFFFFFFFFFFFFFFFFFFFFFFFFFFFFFFF MUL NOT AND SWAP1 DUP4 PUSH20 0xFFFFFFFFFFFFFFFFFFFFFFFFFFFFFFFFFFFFFFFF AND MUL OR SWAP1 SSTORE POP DUP2 PUSH20 0xFFFFFFFFFFFFFFFFFFFFFFFFFFFFFFFFFFFFFFFF AND DUP2 PUSH20 0xFFFFFFFFFFFFFFFFFFFFFFFFFFFFFFFFFFFFFFFF AND PUSH32 0x8BE0079C531659141344CD1FD0A4F28419497F9722A3DAAFE3B4186F6B6457E0 PUSH1 0x40 MLOAD PUSH1 0x40 MLOAD DUP1 SWAP2 SUB SWAP1 LOG3 POP POP JUMP JUMPDEST PUSH0 DUP1 REVERT JUMPDEST PUSH0 PUSH20 0xFFFFFFFFFFFFFFFFFFFFFFFFFFFFFFFFFFFFFFFF DUP3 AND SWAP1 POP SWAP2 SWAP1 POP JUMP JUMPDEST PUSH0 PUSH2 0x1FF DUP3 PUSH2 0x1D6 JUMP JUMPDEST SWAP1 POP SWAP2 SWAP1 POP JUMP JUMPDEST PUSH2 0x20F DUP2 PUSH2 0x1F5 JUMP JUMPDEST DUP2 EQ PUSH2 0x219 JUMPI PUSH0 DUP1 REVERT JUMPDEST POP JUMP JUMPDEST PUSH0 DUP2 MLOAD SWAP1 POP PUSH2 0x22A DUP2 PUSH2 0x206 JUMP JUMPDEST SWAP3 SWAP2 POP POP JUMP JUMPDEST PUSH0 PUSH1 0x20 DUP3 DUP5 SUB SLT ISZERO PUSH2 0x245 JUMPI PUSH2 0x244 PUSH2 0x1D2 JUMP JUMPDEST JUMPDEST PUSH0 PUSH2 0x252 DUP5 DUP3 DUP6 ADD PUSH2 0x21C JUMP JUMPDEST SWAP2 POP POP SWAP3 SWAP2 POP POP JUMP JUMPDEST PUSH2 0x264 DUP2 PUSH2 0x1F5 JUMP JUMPDEST DUP3 MSTORE POP POP JUMP JUMPDEST PUSH0 PUSH1 0x20 DUP3 ADD SWAP1 POP PUSH2 0x27D PUSH0 DUP4 ADD DUP5 PUSH2 0x25B JUMP JUMPDEST SWAP3 SWAP2 POP POP JUMP JUMPDEST PUSH2 0x37C9 DUP1 PUSH2 0x290 PUSH0 CODECOPY PUSH0 RETURN INVALID PUSH1 0x80 PUSH1 0x40 MSTORE PUSH1 0x4 CALLDATASIZE LT PUSH2 0x184 JUMPI PUSH0 CALLDATALOAD PUSH1 0xE0 SHR DUP1 PUSH4 0x8DA5CB5B GT PUSH2 0xD0 JUMPI DUP1 PUSH4 0xB0AAEFD6 GT PUSH2 0x89 JUMPI DUP1 PUSH4 0xD2C69BD4 GT PUSH2 0x63 JUMPI DUP1 PUSH4 0xD2C69BD4 EQ PUSH2 0x4E3 JUMPI DUP1 PUSH4 0xD76F044A EQ PUSH2 0x50D JUMPI DUP1 PUSH4 0xF2FDE38B EQ PUSH2 0x529 JUMPI DUP1 PUSH4 0xFBF1ADED EQ PUSH2 0x551 JUMPI PUSH2 0x18B JUMP JUMPDEST DUP1 PUSH4 0xB0AAEFD6 EQ PUSH2 0x45B JUMPI DUP1 PUSH4 0xBA2F0362 EQ PUSH2 0x49D JUMPI DUP1 PUSH4 0xCF90B3BE EQ PUSH2 0x4B9 JUMPI PUSH2 0x18B JUMP JUMPDEST DUP1 PUSH4 0x8DA5CB5B EQ PUSH2 0x358 JUMPI DUP1 PUSH4 0x905BAA61 EQ PUSH2 0x382 JUMPI DUP1 PUSH4 0x96F979D2 EQ PUSH2 0x3AA JUMPI DUP1 PUSH4 0x996B5D8E EQ PUSH2 0x3EB JUMPI DUP1 PUSH4 0xA4E1F033 EQ PUSH2 0x407 JUMPI DUP1 PUSH4 0xAE24F005 EQ PUSH2 0x431 JUMPI PUSH2 0x18B JUMP JUMPDEST DUP1 PUSH4 0x5CB45CB5 GT PUSH2 0x13D JUMPI DUP1 PUSH4 0x715018A6 GT PUSH2 0x117 JUMPI DUP1 PUSH4 0x715018A6 EQ PUSH2 0x2DA JUMPI DUP1 PUSH4 0x75284998 EQ PUSH2 0x2F0 JUMPI DUP1 PUSH4 0x8456CB59 EQ PUSH2 0x318 JUMPI DUP1 PUSH4 0x87BC1425 EQ PUSH2 0x32E JUMPI PUSH2 0x18B JUMP JUMPDEST DUP1 PUSH4 0x5CB45CB5 EQ PUSH2 0x278 JUMPI DUP1 PUSH4 0x5E52DA27 EQ PUSH2 0x294 JUMPI DUP1 PUSH4 0x66055159 EQ PUSH2 0x2B0 JUMPI PUSH2 0x18B JUMP JUMPDEST DUP1 PUSH4 0x7F910F8 EQ PUSH2 0x18F JUMPI DUP1 PUSH4 0x3F4BA83A EQ PUSH2 0x1CE JUMPI DUP1 PUSH4 0x3FAA5EF6 EQ PUSH2 0x1E4 JUMPI DUP1 PUSH4 0x542FD03A EQ PUSH2 0x20E JUMPI DUP1 PUSH4 0x587F5ED7 EQ PUSH2 0x224 JUMPI DUP1 PUSH4 0x5C975ABB EQ PUSH2 0x24E JUMPI PUSH2 0x18B JUMP JUMPDEST CALLDATASIZE PUSH2 0x18B JUMPI STOP JUMPDEST PUSH0 DUP1 REVERT JUMPDEST CALLVALUE DUP1 ISZERO PUSH2 0x19A JUMPI PUSH0 DUP1 REVERT JUMPDEST POP PUSH2 0x1B5 PUSH1 0x4 DUP1 CALLDATASIZE SUB DUP2 ADD SWAP1 PUSH2 0x1B0 SWAP2 SWAP1 PUSH2 0x237A JUMP JUMPDEST PUSH2 0x57B JUMP JUMPDEST PUSH1 0x40 MLOAD PUSH2 0x1C5 SWAP5 SWAP4 SWAP3 SWAP2 SWAP1 PUSH2 0x23FC JUMP JUMPDEST PUSH1 0x40 MLOAD DUP1 SWAP2 SUB SWAP1 RETURN JUMPDEST CALLVALUE DUP1 ISZERO PUSH2 0x1D9 JUMPI PUSH0 DUP1 REVERT JUMPDEST POP PUSH2 0x1E2 PUSH2 0x5D6 JUMP JUMPDEST STOP JUMPDEST CALLVALUE DUP1 ISZERO PUSH2 0x1EF JUMPI PUSH0 DUP1 REVERT JUMPDEST POP PUSH2 0x1F8 PUSH2 0x5E8 JUMP JUMPDEST PUSH1 0x40 MLOAD PUSH2 0x205 SWAP2 SWAP1 PUSH2 0x243F JUMP JUMPDEST PUSH1 0x40 MLOAD DUP1 SWAP2 SUB SWAP1 RETURN JUMPDEST CALLVALUE DUP1 ISZERO PUSH2 0x219 JUMPI PUSH0 DUP1 REVERT JUMPDEST POP PUSH2 0x222 PUSH2 0x5F4 JUMP JUMPDEST STOP JUMPDEST CALLVALUE DUP1 ISZERO PUSH2 0x22F JUMPI PUSH0 DUP1 REVERT JUMPDEST POP PUSH2 0x238 PUSH2 0x6F3 JUMP JUMPDEST PUSH1 0x40 MLOAD PUSH2 0x245 SWAP2 SWAP1 PUSH2 0x243F JUMP JUMPDEST PUSH1 0x40 MLOAD DUP1 SWAP2 SUB SWAP1 RETURN JUMPDEST CALLVALUE DUP1 ISZERO PUSH2 0x259 JUMPI PUSH0 DUP1 REVERT JUMPDEST POP PUSH2 0x262 PUSH2 0x6F9 JUMP JUMPDEST PUSH1 0x40 MLOAD PUSH2 0x26F SWAP2 SWAP1 PUSH2 0x2458 JUMP JUMPDEST PUSH1 0x40 MLOAD DUP1 SWAP2 SUB SWAP1 RETURN JUMPDEST PUSH2 0x292 PUSH1 0x4 DUP1 CALLDATASIZE SUB DUP2 ADD SWAP1 PUSH2 0x28D SWAP2 SWAP1 PUSH2 0x268F JUMP JUMPDEST PUSH2 0x70E JUMP JUMPDEST STOP JUMPDEST PUSH2 0x2AE PUSH1 0x4 DUP1 CALLDATASIZE SUB DUP2 ADD SWAP1 PUSH2 0x2A9 SWAP2 SWAP1 PUSH2 0x26E9 JUMP JUMPDEST PUSH2 0xD64 JUMP JUMPDEST STOP JUMPDEST CALLVALUE DUP1 ISZERO PUSH2 0x2BB JUMPI PUSH0 DUP1 REVERT JUMPDEST POP PUSH2 0x2C4 PUSH2 0x10E9 JUMP JUMPDEST PUSH1 0x40 MLOAD PUSH2 0x2D1 SWAP2 SWAP1 PUSH2 0x243F JUMP JUMPDEST PUSH1 0x40 MLOAD DUP1 SWAP2 SUB SWAP1 RETURN JUMPDEST CALLVALUE DUP1 ISZERO PUSH2 0x2E5 JUMPI PUSH0 DUP1 REVERT JUMPDEST POP PUSH2 0x2EE PUSH2 0x10EF JUMP JUMPDEST STOP JUMPDEST CALLVALUE DUP1 ISZERO PUSH2 0x2FB JUMPI PUSH0 DUP1 REVERT JUMPDEST POP PUSH2 0x316 PUSH1 0x4 DUP1 CALLDATASIZE SUB DUP2 ADD SWAP1 PUSH2 0x311 SWAP2 SWAP1 PUSH2 0x26E9 JUMP JUMPDEST PUSH2 0x1102 JUMP JUMPDEST STOP JUMPDEST CALLVALUE DUP1 ISZERO PUSH2 0x323 JUMPI PUSH0 DUP1 REVERT JUMPDEST POP PUSH2 0x32C PUSH2 0x11C7 JUMP JUMPDEST STOP JUMPDEST CALLVALUE DUP1 ISZERO PUSH2 0x339 JUMPI PUSH0 DUP1 REVERT JUMPDEST POP PUSH2 0x342 PUSH2 0x11D9 JUMP JUMPDEST PUSH1 0x40 MLOAD PUSH2 0x34F SWAP2 SWAP1 PUSH2 0x276F JUMP JUMPDEST PUSH1 0x40 MLOAD DUP1 SWAP2 SUB SWAP1 RETURN JUMPDEST CALLVALUE DUP1 ISZERO PUSH2 0x363 JUMPI PUSH0 DUP1 REVERT JUMPDEST POP PUSH2 0x36C PUSH2 0x11FE JUMP JUMPDEST PUSH1 0x40 MLOAD PUSH2 0x379 SWAP2 SWAP1 PUSH2 0x2797 JUMP JUMPDEST PUSH1 0x40 MLOAD DUP1 SWAP2 SUB SWAP1 RETURN JUMPDEST CALLVALUE DUP1 ISZERO PUSH2 0x38D JUMPI PUSH0 DUP1 REVERT JUMPDEST POP PUSH2 0x3A8 PUSH1 0x4 DUP1 CALLDATASIZE SUB DUP2 ADD SWAP1 PUSH2 0x3A3 SWAP2 SWAP1 PUSH2 0x27B0 JUMP JUMPDEST PUSH2 0x1225 JUMP JUMPDEST STOP JUMPDEST CALLVALUE DUP1 ISZERO PUSH2 0x3B5 JUMPI PUSH0 DUP1 REVERT JUMPDEST POP PUSH2 0x3D0 PUSH1 0x4 DUP1 CALLDATASIZE SUB DUP2 ADD SWAP1 PUSH2 0x3CB SWAP2 SWAP1 PUSH2 0x26E9 JUMP JUMPDEST PUSH2 0x1270 JUMP JUMPDEST PUSH1 0x40 MLOAD PUSH2 0x3E2 SWAP7 SWAP6 SWAP5 SWAP4 SWAP3 SWAP2 SWAP1 PUSH2 0x283B JUMP JUMPDEST PUSH1 0x40 MLOAD DUP1 SWAP2 SUB SWAP1 RETURN JUMPDEST PUSH2 0x405 PUSH1 0x4 DUP1 CALLDATASIZE SUB DUP2 ADD SWAP1 PUSH2 0x400 SWAP2 SWAP1 PUSH2 0x26E9 JUMP JUMPDEST PUSH2 0x1359 JUMP JUMPDEST STOP JUMPDEST CALLVALUE DUP1 ISZERO PUSH2 0x412 JUMPI PUSH0 DUP1 REVERT JUMPDEST POP PUSH2 0x41B PUSH2 0x15D4 JUMP JUMPDEST PUSH1 0x40 MLOAD PUSH2 0x428 SWAP2 SWAP1 PUSH2 0x243F JUMP JUMPDEST PUSH1 0x40 MLOAD DUP1 SWAP2 SUB SWAP1 RETURN JUMPDEST CALLVALUE DUP1 ISZERO PUSH2 0x43C JUMPI PUSH0 DUP1 REVERT JUMPDEST POP PUSH2 0x445 PUSH2 0x15D9 JUMP JUMPDEST PUSH1 0x40 MLOAD PUSH2 0x452 SWAP2 SWAP1 PUSH2 0x243F JUMP JUMPDEST PUSH1 0x40 MLOAD DUP1 SWAP2 SUB SWAP1 RETURN JUMPDEST CALLVALUE DUP1 ISZERO PUSH2 0x466 JUMPI PUSH0 DUP1 REVERT JUMPDEST POP PUSH2 0x481 PUSH1 0x4 DUP1 CALLDATASIZE SUB DUP2 ADD SWAP1 PUSH2 0x47C SWAP2 SWAP1 PUSH2 0x28A1 JUMP JUMPDEST PUSH2 0x15DE JUMP JUMPDEST PUSH1 0x40 MLOAD PUSH2 0x494 SWAP8 SWAP7 SWAP6 SWAP5 SWAP4 SWAP3 SWAP2 SWAP1 PUSH2 0x28F7 JUMP JUMPDEST PUSH1 0x40 MLOAD DUP1 SWAP2 SUB SWAP1 RETURN JUMPDEST PUSH2 0x4B7 PUSH1 0x4 DUP1 CALLDATASIZE SUB DUP2 ADD SWAP1 PUSH2 0x4B2 SWAP2 SWAP1 PUSH2 0x26E9 JUMP JUMPDEST PUSH2 0x18D4 JUMP JUMPDEST STOP JUMPDEST CALLVALUE DUP1 ISZERO PUSH2 0x4C4 JUMPI PUSH0 DUP1 REVERT JUMPDEST POP PUSH2 0x4CD PUSH2 0x1BA4 JUMP JUMPDEST PUSH1 0x40 MLOAD PUSH2 0x4DA SWAP2 SWAP1 PUSH2 0x243F JUMP JUMPDEST PUSH1 0x40 MLOAD DUP1 SWAP2 SUB SWAP1 RETURN JUMPDEST CALLVALUE DUP1 ISZERO PUSH2 0x4EE JUMPI PUSH0 DUP1 REVERT JUMPDEST POP PUSH2 0x4F7 PUSH2 0x1BB0 JUMP JUMPDEST PUSH1 0x40 MLOAD PUSH2 0x504 SWAP2 SWAP1 PUSH2 0x243F JUMP JUMPDEST PUSH1 0x40 MLOAD DUP1 SWAP2 SUB SWAP1 RETURN JUMPDEST PUSH2 0x527 PUSH1 0x4 DUP1 CALLDATASIZE SUB DUP2 ADD SWAP1 PUSH2 0x522 SWAP2 SWAP1 PUSH2 0x2BD4 JUMP JUMPDEST PUSH2 0x1BB4 JUMP JUMPDEST STOP JUMPDEST CALLVALUE DUP1 ISZERO PUSH2 0x534 JUMPI PUSH0 DUP1 REVERT JUMPDEST POP PUSH2 0x54F PUSH1 0x4 DUP1 CALLDATASIZE SUB DUP2 ADD SWAP1 PUSH2 0x54A SWAP2 SWAP1 PUSH2 0x27B0 JUMP JUMPDEST PUSH2 0x1FA7 JUMP JUMPDEST STOP JUMPDEST CALLVALUE DUP1 ISZERO PUSH2 0x55C JUMPI PUSH0 DUP1 REVERT JUMPDEST POP PUSH2 0x565 PUSH2 0x202B JUMP JUMPDEST PUSH1 0x40 MLOAD PUSH2 0x572 SWAP2 SWAP1 PUSH2 0x243F JUMP JUMPDEST PUSH1 0x40 MLOAD DUP1 SWAP2 SUB SWAP1 RETURN JUMPDEST PUSH1 0x4 PUSH1 0x20 MSTORE DUP2 PUSH0 MSTORE PUSH1 0x40 PUSH0 KECCAK256 PUSH1 0x20 MSTORE DUP1 PUSH0 MSTORE PUSH1 0x40 PUSH0 KECCAK256 PUSH0 SWAP2 POP SWAP2 POP POP DUP1 PUSH0 ADD PUSH0 SWAP1 SLOAD SWAP1 PUSH2 0x100 EXP SWAP1 DIV PUSH1 0xFF AND SWAP1 DUP1 PUSH0 ADD PUSH1 0x1 SWAP1 SLOAD SWAP1 PUSH2 0x100 EXP SWAP1 DIV PUSH1 0xFF AND SWAP1 DUP1 PUSH0 ADD PUSH1 0x2 SWAP1 SLOAD SWAP1 PUSH2 0x100 EXP SWAP1 DIV PUSH1 0xFF AND SWAP1 DUP1 PUSH1 0x1 ADD SLOAD SWAP1 POP DUP5 JUMP JUMPDEST PUSH2 0x5DE PUSH2 0x2037 JUMP JUMPDEST PUSH2 0x5E6 PUSH2 0x20BE JUMP JUMPDEST JUMP JUMPDEST PUSH8 0xA688906BD8B0000 DUP2 JUMP JUMPDEST PUSH2 0x5FC PUSH2 0x2037 JUMP JUMPDEST PUSH0 PUSH1 0x2 SLOAD SWAP1 POP PUSH0 PUSH1 0x2 DUP2 SWAP1 SSTORE POP PUSH0 PUSH2 0x612 PUSH2 0x11FE JUMP JUMPDEST PUSH20 0xFFFFFFFFFFFFFFFFFFFFFFFFFFFFFFFFFFFFFFFF AND DUP3 PUSH1 0x40 MLOAD PUSH2 0x635 SWAP1 PUSH2 0x2C77 JUMP JUMPDEST PUSH0 PUSH1 0x40 MLOAD DUP1 DUP4 SUB DUP2 DUP6 DUP8 GAS CALL SWAP3 POP POP POP RETURNDATASIZE DUP1 PUSH0 DUP2 EQ PUSH2 0x66F JUMPI PUSH1 0x40 MLOAD SWAP2 POP PUSH1 0x1F NOT PUSH1 0x3F RETURNDATASIZE ADD AND DUP3 ADD PUSH1 0x40 MSTORE RETURNDATASIZE DUP3 MSTORE RETURNDATASIZE PUSH0 PUSH1 0x20 DUP5 ADD RETURNDATACOPY PUSH2 0x674 JUMP JUMPDEST PUSH1 0x60 SWAP2 POP JUMPDEST POP POP SWAP1 POP DUP1 PUSH2 0x6B8 JUMPI PUSH1 0x40 MLOAD PUSH32 0x8C379A000000000000000000000000000000000000000000000000000000000 DUP2 MSTORE PUSH1 0x4 ADD PUSH2 0x6AF SWAP1 PUSH2 0x2CD5 JUMP JUMPDEST PUSH1 0x40 MLOAD DUP1 SWAP2 SUB SWAP1 REVERT JUMPDEST PUSH32 0xD3C6ACEF4F1BD70F36DAD19B43C6B794AC969B546734638671026F801D476FA DUP3 PUSH1 0x40 MLOAD PUSH2 0x6E7 SWAP2 SWAP1 PUSH2 0x243F JUMP JUMPDEST PUSH1 0x40 MLOAD DUP1 SWAP2 SUB SWAP1 LOG1 POP POP JUMP JUMPDEST PUSH1 0x2 SLOAD DUP2 JUMP JUMPDEST PUSH0 DUP1 PUSH1 0x14 SWAP1 SLOAD SWAP1 PUSH2 0x100 EXP SWAP1 DIV PUSH1 0xFF AND SWAP1 POP SWAP1 JUMP JUMPDEST PUSH0 PUSH1 0x4 PUSH0 CALLER PUSH20 0xFFFFFFFFFFFFFFFFFFFFFFFFFFFFFFFFFFFFFFFF AND PUSH20 0xFFFFFFFFFFFFFFFFFFFFFFFFFFFFFFFFFFFFFFFF AND DUP2 MSTORE PUSH1 0x20 ADD SWAP1 DUP2 MSTORE PUSH1 0x20 ADD PUSH0 KECCAK256 PUSH0 DUP5 DUP2 MSTORE PUSH1 0x20 ADD SWAP1 DUP2 MSTORE PUSH1 0x20 ADD PUSH0 KECCAK256 SWAP1 POP DUP1 PUSH0 ADD PUSH0 SWAP1 SLOAD SWAP1 PUSH2 0x100 EXP SWAP1 DIV PUSH1 0xFF AND PUSH2 0x7AC JUMPI PUSH1 0x40 MLOAD PUSH32 0x8C379A000000000000000000000000000000000000000000000000000000000 DUP2 MSTORE PUSH1 0x4 ADD PUSH2 0x7A3 SWAP1 PUSH2 0x2D3D JUMP JUMPDEST PUSH1 0x40 MLOAD DUP1 SWAP2 SUB SWAP1 REVERT JUMPDEST PUSH1 0x2 DUP2 PUSH0 ADD PUSH1 0x1 SWAP1 SLOAD SWAP1 PUSH2 0x100 EXP SWAP1 DIV PUSH1 0xFF AND PUSH1 0xFF AND LT PUSH2 0x802 JUMPI PUSH1 0x40 MLOAD PUSH32 0x8C379A000000000000000000000000000000000000000000000000000000000 DUP2 MSTORE PUSH1 0x4 ADD PUSH2 0x7F9 SWAP1 PUSH2 0x2DA5 JUMP JUMPDEST PUSH1 0x40 MLOAD DUP1 SWAP2 SUB SWAP1 REVERT JUMPDEST DUP1 PUSH0 ADD PUSH1 0x1 DUP2 DUP2 SWAP1 SLOAD SWAP1 PUSH2 0x100 EXP SWAP1 DIV PUSH1 0xFF AND DUP1 SWAP3 SWAP2 SWAP1 PUSH2 0x822 SWAP1 PUSH2 0x2DF0 JUMP JUMPDEST SWAP2 SWAP1 PUSH2 0x100 EXP DUP2 SLOAD DUP2 PUSH1 0xFF MUL NOT AND SWAP1 DUP4 PUSH1 0xFF AND MUL OR SWAP1 SSTORE POP POP PUSH0 PUSH1 0x5 PUSH0 DUP6 DUP2 MSTORE PUSH1 0x20 ADD SWAP1 DUP2 MSTORE PUSH1 0x20 ADD PUSH0 KECCAK256 DUP1 SLOAD DUP1 PUSH1 0x20 MUL PUSH1 0x20 ADD PUSH1 0x40 MLOAD SWAP1 DUP2 ADD PUSH1 0x40 MSTORE DUP1 SWAP3 SWAP2 SWAP1 DUP2 DUP2 MSTORE PUSH1 0x20 ADD PUSH0 SWAP1 JUMPDEST DUP3 DUP3 LT ISZERO PUSH2 0xB7F JUMPI DUP4 DUP3 SWAP1 PUSH0 MSTORE PUSH1 0x20 PUSH0 KECCAK256 SWAP1 PUSH1 0x7 MUL ADD PUSH1 0x40 MLOAD DUP1 PUSH1 0xE0 ADD PUSH1 0x40 MSTORE SWAP1 DUP2 PUSH0 DUP3 ADD SLOAD DUP2 MSTORE PUSH1 0x20 ADD PUSH1 0x1 DUP3 ADD DUP1 SLOAD PUSH2 0x8A6 SWAP1 PUSH2 0x2E45 JUMP JUMPDEST DUP1 PUSH1 0x1F ADD PUSH1 0x20 DUP1 SWAP2 DIV MUL PUSH1 0x20 ADD PUSH1 0x40 MLOAD SWAP1 DUP2 ADD PUSH1 0x40 MSTORE DUP1 SWAP3 SWAP2 SWAP1 DUP2 DUP2 MSTORE PUSH1 0x20 ADD DUP3 DUP1 SLOAD PUSH2 0x8D2 SWAP1 PUSH2 0x2E45 JUMP JUMPDEST DUP1 ISZERO PUSH2 0x91D JUMPI DUP1 PUSH1 0x1F LT PUSH2 0x8F4 JUMPI PUSH2 0x100 DUP1 DUP4 SLOAD DIV MUL DUP4 MSTORE SWAP2 PUSH1 0x20 ADD SWAP2 PUSH2 0x91D JUMP JUMPDEST DUP3 ADD SWAP2 SWAP1 PUSH0 MSTORE PUSH1 0x20 PUSH0 KECCAK256 SWAP1 JUMPDEST DUP2 SLOAD DUP2 MSTORE SWAP1 PUSH1 0x1 ADD SWAP1 PUSH1 0x20 ADD DUP1 DUP4 GT PUSH2 0x900 JUMPI DUP3 SWAP1 SUB PUSH1 0x1F AND DUP3 ADD SWAP2 JUMPDEST POP POP POP POP POP DUP2 MSTORE PUSH1 0x20 ADD PUSH1 0x2 DUP3 ADD DUP1 SLOAD PUSH2 0x936 SWAP1 PUSH2 0x2E45 JUMP JUMPDEST DUP1 PUSH1 0x1F ADD PUSH1 0x20 DUP1 SWAP2 DIV MUL PUSH1 0x20 ADD PUSH1 0x40 MLOAD SWAP1 DUP2 ADD PUSH1 0x40 MSTORE DUP1 SWAP3 SWAP2 SWAP1 DUP2 DUP2 MSTORE PUSH1 0x20 ADD DUP3 DUP1 SLOAD PUSH2 0x962 SWAP1 PUSH2 0x2E45 JUMP JUMPDEST DUP1 ISZERO PUSH2 0x9AD JUMPI DUP1 PUSH1 0x1F LT PUSH2 0x984 JUMPI PUSH2 0x100 DUP1 DUP4 SLOAD DIV MUL DUP4 MSTORE SWAP2 PUSH1 0x20 ADD SWAP2 PUSH2 0x9AD JUMP JUMPDEST DUP3 ADD SWAP2 SWAP1 PUSH0 MSTORE PUSH1 0x20 PUSH0 KECCAK256 SWAP1 JUMPDEST DUP2 SLOAD DUP2 MSTORE SWAP1 PUSH1 0x1 ADD SWAP1 PUSH1 0x20 ADD DUP1 DUP4 GT PUSH2 0x990 JUMPI DUP3 SWAP1 SUB PUSH1 0x1F AND DUP3 ADD SWAP2 JUMPDEST POP POP POP POP POP DUP2 MSTORE PUSH1 0x20 ADD PUSH1 0x3 DUP3 ADD DUP1 SLOAD PUSH2 0x9C6 SWAP1 PUSH2 0x2E45 JUMP JUMPDEST DUP1 PUSH1 0x1F ADD PUSH1 0x20 DUP1 SWAP2 DIV MUL PUSH1 0x20 ADD PUSH1 0x40 MLOAD SWAP1 DUP2 ADD PUSH1 0x40 MSTORE DUP1 SWAP3 SWAP2 SWAP1 DUP2 DUP2 MSTORE PUSH1 0x20 ADD DUP3 DUP1 SLOAD PUSH2 0x9F2 SWAP1 PUSH2 0x2E45 JUMP JUMPDEST DUP1 ISZERO PUSH2 0xA3D JUMPI DUP1 PUSH1 0x1F LT PUSH2 0xA14 JUMPI PUSH2 0x100 DUP1 DUP4 SLOAD DIV MUL DUP4 MSTORE SWAP2 PUSH1 0x20 ADD SWAP2 PUSH2 0xA3D JUMP JUMPDEST DUP3 ADD SWAP2 SWAP1 PUSH0 MSTORE PUSH1 0x20 PUSH0 KECCAK256 SWAP1 JUMPDEST DUP2 SLOAD DUP2 MSTORE SWAP1 PUSH1 0x1 ADD SWAP1 PUSH1 0x20 ADD DUP1 DUP4 GT PUSH2 0xA20 JUMPI DUP3 SWAP1 SUB PUSH1 0x1F AND DUP3 ADD SWAP2 JUMPDEST POP POP POP POP POP DUP2 MSTORE PUSH1 0x20 ADD PUSH1 0x4 DUP3 ADD DUP1 SLOAD PUSH2 0xA56 SWAP1 PUSH2 0x2E45 JUMP JUMPDEST DUP1 PUSH1 0x1F ADD PUSH1 0x20 DUP1 SWAP2 DIV MUL PUSH1 0x20 ADD PUSH1 0x40 MLOAD SWAP1 DUP2 ADD PUSH1 0x40 MSTORE DUP1 SWAP3 SWAP2 SWAP1 DUP2 DUP2 MSTORE PUSH1 0x20 ADD DUP3 DUP1 SLOAD PUSH2 0xA82 SWAP1 PUSH2 0x2E45 JUMP JUMPDEST DUP1 ISZERO PUSH2 0xACD JUMPI DUP1 PUSH1 0x1F LT PUSH2 0xAA4 JUMPI PUSH2 0x100 DUP1 DUP4 SLOAD DIV MUL DUP4 MSTORE SWAP2 PUSH1 0x20 ADD SWAP2 PUSH2 0xACD JUMP JUMPDEST DUP3 ADD SWAP2 SWAP1 PUSH0 MSTORE PUSH1 0x20 PUSH0 KECCAK256 SWAP1 JUMPDEST DUP2 SLOAD DUP2 MSTORE SWAP1 PUSH1 0x1 ADD SWAP1 PUSH1 0x20 ADD DUP1 DUP4 GT PUSH2 0xAB0 JUMPI DUP3 SWAP1 SUB PUSH1 0x1F AND DUP3 ADD SWAP2 JUMPDEST POP POP POP POP POP DUP2 MSTORE PUSH1 0x20 ADD PUSH1 0x5 DUP3 ADD DUP1 SLOAD PUSH2 0xAE6 SWAP1 PUSH2 0x2E45 JUMP JUMPDEST DUP1 PUSH1 0x1F ADD PUSH1 0x20 DUP1 SWAP2 DIV MUL PUSH1 0x20 ADD PUSH1 0x40 MLOAD SWAP1 DUP2 ADD PUSH1 0x40 MSTORE DUP1 SWAP3 SWAP2 SWAP1 DUP2 DUP2 MSTORE PUSH1 0x20 ADD DUP3 DUP1 SLOAD PUSH2 0xB12 SWAP1 PUSH2 0x2E45 JUMP JUMPDEST DUP1 ISZERO PUSH2 0xB5D JUMPI DUP1 PUSH1 0x1F LT PUSH2 0xB34 JUMPI PUSH2 0x100 DUP1 DUP4 SLOAD DIV MUL DUP4 MSTORE SWAP2 PUSH1 0x20 ADD SWAP2 PUSH2 0xB5D JUMP JUMPDEST DUP3 ADD SWAP2 SWAP1 PUSH0 MSTORE PUSH1 0x20 PUSH0 KECCAK256 SWAP1 JUMPDEST DUP2 SLOAD DUP2 MSTORE SWAP1 PUSH1 0x1 ADD SWAP1 PUSH1 0x20 ADD DUP1 DUP4 GT PUSH2 0xB40 JUMPI DUP3 SWAP1 SUB PUSH1 0x1F AND DUP3 ADD SWAP2 JUMPDEST POP POP POP POP POP DUP2 MSTORE PUSH1 0x20 ADD PUSH1 0x6 DUP3 ADD SLOAD DUP2 MSTORE POP POP DUP2 MSTORE PUSH1 0x20 ADD SWAP1 PUSH1 0x1 ADD SWAP1 PUSH2 0x86C JUMP JUMPDEST POP POP POP POP SWAP1 POP DUP1 MLOAD DUP4 MLOAD EQ PUSH2 0xBC9 JUMPI PUSH1 0x40 MLOAD PUSH32 0x8C379A000000000000000000000000000000000000000000000000000000000 DUP2 MSTORE PUSH1 0x4 ADD PUSH2 0xBC0 SWAP1 PUSH2 0x2EBF JUMP JUMPDEST PUSH1 0x40 MLOAD DUP1 SWAP2 SUB SWAP1 REVERT JUMPDEST PUSH0 PUSH1 0x1 SWAP1 POP PUSH0 JUMPDEST DUP3 MLOAD DUP2 LT ISZERO PUSH2 0xC53 JUMPI DUP3 DUP2 DUP2 MLOAD DUP2 LT PUSH2 0xBEC JUMPI PUSH2 0xBEB PUSH2 0x2EDD JUMP JUMPDEST JUMPDEST PUSH1 0x20 MUL PUSH1 0x20 ADD ADD MLOAD PUSH1 0xC0 ADD MLOAD DUP6 DUP3 DUP2 MLOAD DUP2 LT PUSH2 0xC0B JUMPI PUSH2 0xC0A PUSH2 0x2EDD JUMP JUMPDEST JUMPDEST PUSH1 0x20 MUL PUSH1 0x20 ADD ADD MLOAD PUSH1 0x40 MLOAD PUSH1 0x20 ADD PUSH2 0xC23 SWAP2 SWAP1 PUSH2 0x2F44 JUMP JUMPDEST PUSH1 0x40 MLOAD PUSH1 0x20 DUP2 DUP4 SUB SUB DUP2 MSTORE SWAP1 PUSH1 0x40 MSTORE DUP1 MLOAD SWAP1 PUSH1 0x20 ADD KECCAK256 EQ PUSH2 0xC46 JUMPI PUSH0 SWAP2 POP PUSH2 0xC53 JUMP JUMPDEST DUP1 DUP1 PUSH1 0x1 ADD SWAP2 POP POP PUSH2 0xBD0 JUMP JUMPDEST POP DUP1 DUP1 ISZERO PUSH2 0xC6F JUMPI POP DUP3 PUSH0 ADD PUSH1 0x2 SWAP1 SLOAD SWAP1 PUSH2 0x100 EXP SWAP1 DIV PUSH1 0xFF AND ISZERO JUMPDEST ISZERO PUSH2 0xD0E JUMPI PUSH1 0x1 DUP4 PUSH0 ADD PUSH1 0x2 PUSH2 0x100 EXP DUP2 SLOAD DUP2 PUSH1 0xFF MUL NOT AND SWAP1 DUP4 ISZERO ISZERO MUL OR SWAP1 SSTORE POP PUSH8 0x8AC7230489E80000 DUP4 PUSH1 0x1 ADD PUSH0 DUP3 DUP3 SLOAD PUSH2 0xCAB SWAP2 SWAP1 PUSH2 0x2F5A JUMP JUMPDEST SWAP3 POP POP DUP2 SWAP1 SSTORE POP PUSH1 0x3 PUSH0 DUP7 DUP2 MSTORE PUSH1 0x20 ADD SWAP1 DUP2 MSTORE PUSH1 0x20 ADD PUSH0 KECCAK256 PUSH1 0x3 ADD PUSH0 DUP2 SLOAD DUP1 SWAP3 SWAP2 SWAP1 PUSH2 0xCD6 SWAP1 PUSH2 0x2F8D JUMP JUMPDEST SWAP2 SWAP1 POP SSTORE POP PUSH8 0xDE0B6B3A7640000 PUSH1 0x3 PUSH0 DUP8 DUP2 MSTORE PUSH1 0x20 ADD SWAP1 DUP2 MSTORE PUSH1 0x20 ADD PUSH0 KECCAK256 PUSH1 0x4 ADD PUSH0 DUP3 DUP3 SLOAD PUSH2 0xD06 SWAP2 SWAP1 PUSH2 0x2F5A JUMP JUMPDEST SWAP3 POP POP DUP2 SWAP1 SSTORE POP JUMPDEST CALLER PUSH20 0xFFFFFFFFFFFFFFFFFFFFFFFFFFFFFFFFFFFFFFFF AND DUP6 PUSH32 0xAEE8895C1BF669485CEE2DD54D1EEE9E65B02A244AFB6F798F95D72405CDF7A5 DUP4 PUSH1 0x40 MLOAD PUSH2 0xD55 SWAP2 SWAP1 PUSH2 0x2458 JUMP JUMPDEST PUSH1 0x40 MLOAD DUP1 SWAP2 SUB SWAP1 LOG3 POP POP POP POP POP JUMP JUMPDEST PUSH2 0xD6C PUSH2 0x211F JUMP JUMPDEST PUSH8 0xA688906BD8B0000 CALLVALUE LT ISZERO PUSH2 0xDB7 JUMPI PUSH1 0x40 MLOAD PUSH32 0x8C379A000000000000000000000000000000000000000000000000000000000 DUP2 MSTORE PUSH1 0x4 ADD PUSH2 0xDAE SWAP1 PUSH2 0x301E JUMP JUMPDEST PUSH1 0x40 MLOAD DUP1 SWAP2 SUB SWAP1 REVERT JUMPDEST PUSH8 0xA688906BD8B0000 PUSH1 0x2 PUSH0 DUP3 DUP3 SLOAD PUSH2 0xDD0 SWAP2 SWAP1 PUSH2 0x2F5A JUMP JUMPDEST SWAP3 POP POP DUP2 SWAP1 SSTORE POP PUSH0 PUSH8 0xA688906BD8B0000 CALLVALUE PUSH2 0xDEC SWAP2 SWAP1 PUSH2 0x303C JUMP JUMPDEST SWAP1 POP PUSH0 DUP2 GT ISZERO PUSH2 0xE3B JUMPI CALLER PUSH20 0xFFFFFFFFFFFFFFFFFFFFFFFFFFFFFFFFFFFFFFFF AND PUSH2 0x8FC DUP3 SWAP1 DUP2 ISZERO MUL SWAP1 PUSH1 0x40 MLOAD PUSH0 PUSH1 0x40 MLOAD DUP1 DUP4 SUB DUP2 DUP6 DUP9 DUP9 CALL SWAP4 POP POP POP POP ISZERO DUP1 ISZERO PUSH2 0xE39 JUMPI RETURNDATASIZE PUSH0 DUP1 RETURNDATACOPY RETURNDATASIZE PUSH0 REVERT JUMPDEST POP JUMPDEST PUSH1 0x5 PUSH1 0x1 PUSH0 SWAP1 SLOAD SWAP1 PUSH2 0x100 EXP SWAP1 DIV PUSH20 0xFFFFFFFFFFFFFFFFFFFFFFFFFFFFFFFFFFFFFFFF AND PUSH20 0xFFFFFFFFFFFFFFFFFFFFFFFFFFFFFFFFFFFFFFFF AND PUSH4 0xB9F79451 CALLER PUSH1 0x40 MLOAD DUP3 PUSH4 0xFFFFFFFF AND PUSH1 0xE0 SHL DUP2 MSTORE PUSH1 0x4 ADD PUSH2 0xE97 SWAP2 SWAP1 PUSH2 0x2797 JUMP JUMPDEST PUSH1 0x20 PUSH1 0x40 MLOAD DUP1 DUP4 SUB DUP2 DUP7 GAS STATICCALL ISZERO DUP1 ISZERO PUSH2 0xEB2 JUMPI RETURNDATASIZE PUSH0 DUP1 RETURNDATACOPY RETURNDATASIZE PUSH0 REVERT JUMPDEST POP POP POP POP PUSH1 0x40 MLOAD RETURNDATASIZE PUSH1 0x1F NOT PUSH1 0x1F DUP3 ADD AND DUP3 ADD DUP1 PUSH1 0x40 MSTORE POP DUP2 ADD SWAP1 PUSH2 0xED6 SWAP2 SWAP1 PUSH2 0x3083 JUMP JUMPDEST LT ISZERO PUSH2 0xF17 JUMPI PUSH1 0x40 MLOAD PUSH32 0x8C379A000000000000000000000000000000000000000000000000000000000 DUP2 MSTORE PUSH1 0x4 ADD PUSH2 0xF0E SWAP1 PUSH2 0x311E JUMP JUMPDEST PUSH1 0x40 MLOAD DUP1 SWAP2 SUB SWAP1 REVERT JUMPDEST PUSH1 0x3 PUSH0 DUP4 DUP2 MSTORE PUSH1 0x20 ADD SWAP1 DUP2 MSTORE PUSH1 0x20 ADD PUSH0 KECCAK256 PUSH1 0x2 ADD PUSH0 SWAP1 SLOAD SWAP1 PUSH2 0x100 EXP SWAP1 DIV PUSH1 0xFF AND PUSH2 0xF77 JUMPI PUSH1 0x40 MLOAD PUSH32 0x8C379A000000000000000000000000000000000000000000000000000000000 DUP2 MSTORE PUSH1 0x4 ADD PUSH2 0xF6E SWAP1 PUSH2 0x3186 JUMP JUMPDEST PUSH1 0x40 MLOAD DUP1 SWAP2 SUB SWAP1 REVERT JUMPDEST PUSH1 0x4 PUSH0 CALLER PUSH20 0xFFFFFFFFFFFFFFFFFFFFFFFFFFFFFFFFFFFFFFFF AND PUSH20 0xFFFFFFFFFFFFFFFFFFFFFFFFFFFFFFFFFFFFFFFF AND DUP2 MSTORE PUSH1 0x20 ADD SWAP1 DUP2 MSTORE PUSH1 0x20 ADD PUSH0 KECCAK256 PUSH0 DUP4 DUP2 MSTORE PUSH1 0x20 ADD SWAP1 DUP2 MSTORE PUSH1 0x20 ADD PUSH0 KECCAK256 PUSH0 ADD PUSH0 SWAP1 SLOAD SWAP1 PUSH2 0x100 EXP SWAP1 DIV PUSH1 0xFF AND ISZERO PUSH2 0x1012 JUMPI PUSH1 0x40 MLOAD PUSH32 0x8C379A000000000000000000000000000000000000000000000000000000000 DUP2 MSTORE PUSH1 0x4 ADD PUSH2 0x1009 SWAP1 PUSH2 0x31EE JUMP JUMPDEST PUSH1 0x40 MLOAD DUP1 SWAP2 SUB SWAP1 REVERT JUMPDEST PUSH1 0x1 PUSH1 0x4 PUSH0 CALLER PUSH20 0xFFFFFFFFFFFFFFFFFFFFFFFFFFFFFFFFFFFFFFFF AND PUSH20 0xFFFFFFFFFFFFFFFFFFFFFFFFFFFFFFFFFFFFFFFF AND DUP2 MSTORE PUSH1 0x20 ADD SWAP1 DUP2 MSTORE PUSH1 0x20 ADD PUSH0 KECCAK256 PUSH0 DUP5 DUP2 MSTORE PUSH1 0x20 ADD SWAP1 DUP2 MSTORE PUSH1 0x20 ADD PUSH0 KECCAK256 PUSH0 ADD PUSH0 PUSH2 0x100 EXP DUP2 SLOAD DUP2 PUSH1 0xFF MUL NOT AND SWAP1 DUP4 ISZERO ISZERO MUL OR SWAP1 SSTORE POP PUSH1 0x3 PUSH0 DUP4 DUP2 MSTORE PUSH1 0x20 ADD SWAP1 DUP2 MSTORE PUSH1 0x20 ADD PUSH0 KECCAK256 PUSH1 0x5 ADD PUSH0 DUP2 SLOAD DUP1 SWAP3 SWAP2 SWAP1 PUSH2 0x109C SWAP1 PUSH2 0x2F8D JUMP JUMPDEST SWAP2 SWAP1 POP SSTORE POP CALLER PUSH20 0xFFFFFFFFFFFFFFFFFFFFFFFFFFFFFFFFFFFFFFFF AND DUP3 PUSH32 0xFACF1A2842ACBAD124CBCA0A047FE37BC246C68F814E0350C7BD8A022FD1DDDB PUSH1 0x40 MLOAD PUSH1 0x40 MLOAD DUP1 SWAP2 SUB SWAP1 LOG3 POP POP JUMP JUMPDEST PUSH1 0x6 SLOAD DUP2 JUMP JUMPDEST PUSH2 0x10F7 PUSH2 0x2037 JUMP JUMPDEST PUSH2 0x1100 PUSH0 PUSH2 0x2169 JUMP JUMPDEST JUMP JUMPDEST PUSH2 0x110A PUSH2 0x2037 JUMP JUMPDEST PUSH1 0x3 PUSH0 DUP3 DUP2 MSTORE PUSH1 0x20 ADD SWAP1 DUP2 MSTORE PUSH1 0x20 ADD PUSH0 KECCAK256 PUSH1 0x2 ADD PUSH0 SWAP1 SLOAD SWAP1 PUSH2 0x100 EXP SWAP1 DIV PUSH1 0xFF AND ISZERO PUSH2 0x116B JUMPI PUSH1 0x40 MLOAD PUSH32 0x8C379A000000000000000000000000000000000000000000000000000000000 DUP2 MSTORE PUSH1 0x4 ADD PUSH2 0x1162 SWAP1 PUSH2 0x3256 JUMP JUMPDEST PUSH1 0x40 MLOAD DUP1 SWAP2 SUB SWAP1 REVERT JUMPDEST PUSH1 0x1 PUSH1 0x3 PUSH0 DUP4 DUP2 MSTORE PUSH1 0x20 ADD SWAP1 DUP2 MSTORE PUSH1 0x20 ADD PUSH0 KECCAK256 PUSH1 0x2 ADD PUSH0 PUSH2 0x100 EXP DUP2 SLOAD DUP2 PUSH1 0xFF MUL NOT AND SWAP1 DUP4 ISZERO ISZERO MUL OR SWAP1 SSTORE POP DUP1 PUSH32 0x87C1C0E5CD17BEB8C61A3337B32C66021CB179DD6F97D6D9CE923A029092BD45 PUSH1 0x40 MLOAD PUSH1 0x40 MLOAD DUP1 SWAP2 SUB SWAP1 LOG2 POP JUMP JUMPDEST PUSH2 0x11CF PUSH2 0x2037 JUMP JUMPDEST PUSH2 0x11D7 PUSH2 0x222A JUMP JUMPDEST JUMP JUMPDEST PUSH1 0x1 PUSH0 SWAP1 SLOAD SWAP1 PUSH2 0x100 EXP SWAP1 DIV PUSH20 0xFFFFFFFFFFFFFFFFFFFFFFFFFFFFFFFFFFFFFFFF AND DUP2 JUMP JUMPDEST PUSH0 DUP1 PUSH0 SWAP1 SLOAD SWAP1 PUSH2 0x100 EXP SWAP1 DIV PUSH20 0xFFFFFFFFFFFFFFFFFFFFFFFFFFFFFFFFFFFFFFFF AND SWAP1 POP SWAP1 JUMP JUMPDEST PUSH2 0x122D PUSH2 0x2037 JUMP JUMPDEST DUP1 PUSH1 0x1 PUSH0 PUSH2 0x100 EXP DUP2 SLOAD DUP2 PUSH20 0xFFFFFFFFFFFFFFFFFFFFFFFFFFFFFFFFFFFFFFFF MUL NOT AND SWAP1 DUP4 PUSH20 0xFFFFFFFFFFFFFFFFFFFFFFFFFFFFFFFFFFFFFFFF AND MUL OR SWAP1 SSTORE POP POP JUMP JUMPDEST PUSH1 0x3 PUSH1 0x20 MSTORE DUP1 PUSH0 MSTORE PUSH1 0x40 PUSH0 KECCAK256 PUSH0 SWAP2 POP SWAP1 POP DUP1 PUSH0 ADD PUSH0 SWAP1 SLOAD SWAP1 PUSH2 0x100 EXP SWAP1 DIV PUSH20 0xFFFFFFFFFFFFFFFFFFFFFFFFFFFFFFFFFFFFFFFF AND SWAP1 DUP1 PUSH1 0x1 ADD DUP1 SLOAD PUSH2 0x12B4 SWAP1 PUSH2 0x2E45 JUMP JUMPDEST DUP1 PUSH1 0x1F ADD PUSH1 0x20 DUP1 SWAP2 DIV MUL PUSH1 0x20 ADD PUSH1 0x40 MLOAD SWAP1 DUP2 ADD PUSH1 0x40 MSTORE DUP1 SWAP3 SWAP2 SWAP1 DUP2 DUP2 MSTORE PUSH1 0x20 ADD DUP3 DUP1 SLOAD PUSH2 0x12E0 SWAP1 PUSH2 0x2E45 JUMP JUMPDEST DUP1 ISZERO PUSH2 0x132B JUMPI DUP1 PUSH1 0x1F LT PUSH2 0x1302 JUMPI PUSH2 0x100 DUP1 DUP4 SLOAD DIV MUL DUP4 MSTORE SWAP2 PUSH1 0x20 ADD SWAP2 PUSH2 0x132B JUMP JUMPDEST DUP3 ADD SWAP2 SWAP1 PUSH0 MSTORE PUSH1 0x20 PUSH0 KECCAK256 SWAP1 JUMPDEST DUP2 SLOAD DUP2 MSTORE SWAP1 PUSH1 0x1 ADD SWAP1 PUSH1 0x20 ADD DUP1 DUP4 GT PUSH2 0x130E JUMPI DUP3 SWAP1 SUB PUSH1 0x1F AND DUP3 ADD SWAP2 JUMPDEST POP POP POP POP POP SWAP1 DUP1 PUSH1 0x2 ADD PUSH0 SWAP1 SLOAD SWAP1 PUSH2 0x100 EXP SWAP1 DIV PUSH1 0xFF AND SWAP1 DUP1 PUSH1 0x3 ADD SLOAD SWAP1 DUP1 PUSH1 0x4 ADD SLOAD SWAP1 DUP1 PUSH1 0x5 ADD SLOAD SWAP1 POP DUP7 JUMP JUMPDEST PUSH2 0x1361 PUSH2 0x211F JUMP JUMPDEST PUSH8 0xA688906BD8B0000 CALLVALUE LT ISZERO PUSH2 0x13AC JUMPI PUSH1 0x40 MLOAD PUSH32 0x8C379A000000000000000000000000000000000000000000000000000000000 DUP2 MSTORE PUSH1 0x4 ADD PUSH2 0x13A3 SWAP1 PUSH2 0x301E JUMP JUMPDEST PUSH1 0x40 MLOAD DUP1 SWAP2 SUB SWAP1 REVERT JUMPDEST PUSH8 0xA688906BD8B0000 PUSH1 0x2 PUSH0 DUP3 DUP3 SLOAD PUSH2 0x13C5 SWAP2 SWAP1 PUSH2 0x2F5A JUMP JUMPDEST SWAP3 POP POP DUP2 SWAP1 SSTORE POP PUSH0 PUSH8 0xA688906BD8B0000 CALLVALUE PUSH2 0x13E1 SWAP2 SWAP1 PUSH2 0x303C JUMP JUMPDEST SWAP1 POP PUSH0 DUP2 GT ISZERO PUSH2 0x1430 JUMPI CALLER PUSH20 0xFFFFFFFFFFFFFFFFFFFFFFFFFFFFFFFFFFFFFFFF AND PUSH2 0x8FC DUP3 SWAP1 DUP2 ISZERO MUL SWAP1 PUSH1 0x40 MLOAD PUSH0 PUSH1 0x40 MLOAD DUP1 DUP4 SUB DUP2 DUP6 DUP9 DUP9 CALL SWAP4 POP POP POP POP ISZERO DUP1 ISZERO PUSH2 0x142E JUMPI RETURNDATASIZE PUSH0 DUP1 RETURNDATACOPY RETURNDATASIZE PUSH0 REVERT JUMPDEST POP JUMPDEST PUSH0 PUSH1 0x4 PUSH0 CALLER PUSH20 0xFFFFFFFFFFFFFFFFFFFFFFFFFFFFFFFFFFFFFFFF AND PUSH20 0xFFFFFFFFFFFFFFFFFFFFFFFFFFFFFFFFFFFFFFFF AND DUP2 MSTORE PUSH1 0x20 ADD SWAP1 DUP2 MSTORE PUSH1 0x20 ADD PUSH0 KECCAK256 PUSH0 DUP5 DUP2 MSTORE PUSH1 0x20 ADD SWAP1 DUP2 MSTORE PUSH1 0x20 ADD PUSH0 KECCAK256 SWAP1 POP PUSH0 DUP2 PUSH1 0x1 ADD SLOAD GT PUSH2 0x14C5 JUMPI PUSH1 0x40 MLOAD PUSH32 0x8C379A000000000000000000000000000000000000000000000000000000000 DUP2 MSTORE PUSH1 0x4 ADD PUSH2 0x14BC SWAP1 PUSH2 0x32BE JUMP JUMPDEST PUSH1 0x40 MLOAD DUP1 SWAP2 SUB SWAP1 REVERT JUMPDEST PUSH0 DUP2 PUSH1 0x1 ADD SLOAD SWAP1 POP PUSH0 DUP3 PUSH1 0x1 ADD DUP2 SWAP1 SSTORE POP PUSH0 CALLER PUSH20 0xFFFFFFFFFFFFFFFFFFFFFFFFFFFFFFFFFFFFFFFF AND DUP3 PUSH1 0x40 MLOAD PUSH2 0x14FB SWAP1 PUSH2 0x2C77 JUMP JUMPDEST PUSH0 PUSH1 0x40 MLOAD DUP1 DUP4 SUB DUP2 DUP6 DUP8 GAS CALL SWAP3 POP POP POP RETURNDATASIZE DUP1 PUSH0 DUP2 EQ PUSH2 0x1535 JUMPI PUSH1 0x40 MLOAD SWAP2 POP PUSH1 0x1F NOT PUSH1 0x3F RETURNDATASIZE ADD AND DUP3 ADD PUSH1 0x40 MSTORE RETURNDATASIZE DUP3 MSTORE RETURNDATASIZE PUSH0 PUSH1 0x20 DUP5 ADD RETURNDATACOPY PUSH2 0x153A JUMP JUMPDEST PUSH1 0x60 SWAP2 POP JUMPDEST POP POP SWAP1 POP DUP1 PUSH2 0x157E JUMPI PUSH1 0x40 MLOAD PUSH32 0x8C379A000000000000000000000000000000000000000000000000000000000 DUP2 MSTORE PUSH1 0x4 ADD PUSH2 0x1575 SWAP1 PUSH2 0x3326 JUMP JUMPDEST PUSH1 0x40 MLOAD DUP1 SWAP2 SUB SWAP1 REVERT JUMPDEST CALLER PUSH20 0xFFFFFFFFFFFFFFFFFFFFFFFFFFFFFFFFFFFFFFFF AND DUP6 PUSH32 0x24B5EFA61DD1CFC659205A97FB8ED868F3CB8C81922BAB2B96423E5DE1DE2CB7 DUP5 PUSH1 0x40 MLOAD PUSH2 0x15C5 SWAP2 SWAP1 PUSH2 0x243F JUMP JUMPDEST PUSH1 0x40 MLOAD DUP1 SWAP2 SUB SWAP1 LOG3 POP POP POP POP POP JUMP JUMPDEST PUSH1 0x5 DUP2 JUMP JUMPDEST PUSH1 0x5 DUP2 JUMP JUMPDEST PUSH1 0x5 PUSH1 0x20 MSTORE DUP2 PUSH0 MSTORE PUSH1 0x40 PUSH0 KECCAK256 DUP2 DUP2 SLOAD DUP2 LT PUSH2 0x15F7 JUMPI PUSH0 DUP1 REVERT JUMPDEST SWAP1 PUSH0 MSTORE PUSH1 0x20 PUSH0 KECCAK256 SWAP1 PUSH1 0x7 MUL ADD PUSH0 SWAP2 POP SWAP2 POP POP DUP1 PUSH0 ADD SLOAD SWAP1 DUP1 PUSH1 0x1 ADD DUP1 SLOAD PUSH2 0x161D SWAP1 PUSH2 0x2E45 JUMP JUMPDEST DUP1 PUSH1 0x1F ADD PUSH1 0x20 DUP1 SWAP2 DIV MUL PUSH1 0x20 ADD PUSH1 0x40 MLOAD SWAP1 DUP2 ADD PUSH1 0x40 MSTORE DUP1 SWAP3 SWAP2 SWAP1 DUP2 DUP2 MSTORE PUSH1 0x20 ADD DUP3 DUP1 SLOAD PUSH2 0x1649 SWAP1 PUSH2 0x2E45 JUMP JUMPDEST DUP1 ISZERO PUSH2 0x1694 JUMPI DUP1 PUSH1 0x1F LT PUSH2 0x166B JUMPI PUSH2 0x100 DUP1 DUP4 SLOAD DIV MUL DUP4 MSTORE SWAP2 PUSH1 0x20 ADD SWAP2 PUSH2 0x1694 JUMP JUMPDEST DUP3 ADD SWAP2 SWAP1 PUSH0 MSTORE PUSH1 0x20 PUSH0 KECCAK256 SWAP1 JUMPDEST DUP2 SLOAD DUP2 MSTORE SWAP1 PUSH1 0x1 ADD SWAP1 PUSH1 0x20 ADD DUP1 DUP4 GT PUSH2 0x1677 JUMPI DUP3 SWAP1 SUB PUSH1 0x1F AND DUP3 ADD SWAP2 JUMPDEST POP POP POP POP POP SWAP1 DUP1 PUSH1 0x2 ADD DUP1 SLOAD PUSH2 0x16A9 SWAP1 PUSH2 0x2E45 JUMP JUMPDEST DUP1 PUSH1 0x1F ADD PUSH1 0x20 DUP1 SWAP2 DIV MUL PUSH1 0x20 ADD PUSH1 0x40 MLOAD SWAP1 DUP2 ADD PUSH1 0x40 MSTORE DUP1 SWAP3 SWAP2 SWAP1 DUP2 DUP2 MSTORE PUSH1 0x20 ADD DUP3 DUP1 SLOAD PUSH2 0x16D5 SWAP1 PUSH2 0x2E45 JUMP JUMPDEST DUP1 ISZERO PUSH2 0x1720 JUMPI DUP1 PUSH1 0x1F LT PUSH2 0x16F7 JUMPI PUSH2 0x100 DUP1 DUP4 SLOAD DIV MUL DUP4 MSTORE SWAP2 PUSH1 0x20 ADD SWAP2 PUSH2 0x1720 JUMP JUMPDEST DUP3 ADD SWAP2 SWAP1 PUSH0 MSTORE PUSH1 0x20 PUSH0 KECCAK256 SWAP1 JUMPDEST DUP2 SLOAD DUP2 MSTORE SWAP1 PUSH1 0x1 ADD SWAP1 PUSH1 0x20 ADD DUP1 DUP4 GT PUSH2 0x1703 JUMPI DUP3 SWAP1 SUB PUSH1 0x1F AND DUP3 ADD SWAP2 JUMPDEST POP POP POP POP POP SWAP1 DUP1 PUSH1 0x3 ADD DUP1 SLOAD PUSH2 0x1735 SWAP1 PUSH2 0x2E45 JUMP JUMPDEST DUP1 PUSH1 0x1F ADD PUSH1 0x20 DUP1 SWAP2 DIV MUL PUSH1 0x20 ADD PUSH1 0x40 MLOAD SWAP1 DUP2 ADD PUSH1 0x40 MSTORE DUP1 SWAP3 SWAP2 SWAP1 DUP2 DUP2 MSTORE PUSH1 0x20 ADD DUP3 DUP1 SLOAD PUSH2 0x1761 SWAP1 PUSH2 0x2E45 JUMP JUMPDEST DUP1 ISZERO PUSH2 0x17AC JUMPI DUP1 PUSH1 0x1F LT PUSH2 0x1783 JUMPI PUSH2 0x100 DUP1 DUP4 SLOAD DIV MUL DUP4 MSTORE SWAP2 PUSH1 0x20 ADD SWAP2 PUSH2 0x17AC JUMP JUMPDEST DUP3 ADD SWAP2 SWAP1 PUSH0 MSTORE PUSH1 0x20 PUSH0 KECCAK256 SWAP1 JUMPDEST DUP2 SLOAD DUP2 MSTORE SWAP1 PUSH1 0x1 ADD SWAP1 PUSH1 0x20 ADD DUP1 DUP4 GT PUSH2 0x178F JUMPI DUP3 SWAP1 SUB PUSH1 0x1F AND DUP3 ADD SWAP2 JUMPDEST POP POP POP POP POP SWAP1 DUP1 PUSH1 0x4 ADD DUP1 SLOAD PUSH2 0x17C1 SWAP1 PUSH2 0x2E45 JUMP JUMPDEST DUP1 PUSH1 0x1F ADD PUSH1 0x20 DUP1 SWAP2 DIV MUL PUSH1 0x20 ADD PUSH1 0x40 MLOAD SWAP1 DUP2 ADD PUSH1 0x40 MSTORE DUP1 SWAP3 SWAP2 SWAP1 DUP2 DUP2 MSTORE PUSH1 0x20 ADD DUP3 DUP1 SLOAD PUSH2 0x17ED SWAP1 PUSH2 0x2E45 JUMP JUMPDEST DUP1 ISZERO PUSH2 0x1838 JUMPI DUP1 PUSH1 0x1F LT PUSH2 0x180F JUMPI PUSH2 0x100 DUP1 DUP4 SLOAD DIV MUL DUP4 MSTORE SWAP2 PUSH1 0x20 ADD SWAP2 PUSH2 0x1838 JUMP JUMPDEST DUP3 ADD SWAP2 SWAP1 PUSH0 MSTORE PUSH1 0x20 PUSH0 KECCAK256 SWAP1 JUMPDEST DUP2 SLOAD DUP2 MSTORE SWAP1 PUSH1 0x1 ADD SWAP1 PUSH1 0x20 ADD DUP1 DUP4 GT PUSH2 0x181B JUMPI DUP3 SWAP1 SUB PUSH1 0x1F AND DUP3 ADD SWAP2 JUMPDEST POP POP POP POP POP SWAP1 DUP1 PUSH1 0x5 ADD DUP1 SLOAD PUSH2 0x184D SWAP1 PUSH2 0x2E45 JUMP JUMPDEST DUP1 PUSH1 0x1F ADD PUSH1 0x20 DUP1 SWAP2 DIV MUL PUSH1 0x20 ADD PUSH1 0x40 MLOAD SWAP1 DUP2 ADD PUSH1 0x40 MSTORE DUP1 SWAP3 SWAP2 SWAP1 DUP2 DUP2 MSTORE PUSH1 0x20 ADD DUP3 DUP1 SLOAD PUSH2 0x1879 SWAP1 PUSH2 0x2E45 JUMP JUMPDEST DUP1 ISZERO PUSH2 0x18C4 JUMPI DUP1 PUSH1 0x1F LT PUSH2 0x189B JUMPI PUSH2 0x100 DUP1 DUP4 SLOAD DIV MUL DUP4 MSTORE SWAP2 PUSH1 0x20 ADD SWAP2 PUSH2 0x18C4 JUMP JUMPDEST DUP3 ADD SWAP2 SWAP1 PUSH0 MSTORE PUSH1 0x20 PUSH0 KECCAK256 SWAP1 JUMPDEST DUP2 SLOAD DUP2 MSTORE SWAP1 PUSH1 0x1 ADD SWAP1 PUSH1 0x20 ADD DUP1 DUP4 GT PUSH2 0x18A7 JUMPI DUP3 SWAP1 SUB PUSH1 0x1F AND DUP3 ADD SWAP2 JUMPDEST POP POP POP POP POP SWAP1 DUP1 PUSH1 0x6 ADD SLOAD SWAP1 POP DUP8 JUMP JUMPDEST PUSH2 0x18DC PUSH2 0x211F JUMP JUMPDEST PUSH8 0xA688906BD8B0000 CALLVALUE LT ISZERO PUSH2 0x1927 JUMPI PUSH1 0x40 MLOAD PUSH32 0x8C379A000000000000000000000000000000000000000000000000000000000 DUP2 MSTORE PUSH1 0x4 ADD PUSH2 0x191E SWAP1 PUSH2 0x301E JUMP JUMPDEST PUSH1 0x40 MLOAD DUP1 SWAP2 SUB SWAP1 REVERT JUMPDEST PUSH8 0xA688906BD8B0000 PUSH1 0x2 PUSH0 DUP3 DUP3 SLOAD PUSH2 0x1940 SWAP2 SWAP1 PUSH2 0x2F5A JUMP JUMPDEST SWAP3 POP POP DUP2 SWAP1 SSTORE POP PUSH0 PUSH8 0xA688906BD8B0000 CALLVALUE PUSH2 0x195C SWAP2 SWAP1 PUSH2 0x303C JUMP JUMPDEST SWAP1 POP PUSH0 DUP2 GT ISZERO PUSH2 0x19AB JUMPI CALLER PUSH20 0xFFFFFFFFFFFFFFFFFFFFFFFFFFFFFFFFFFFFFFFF AND PUSH2 0x8FC DUP3 SWAP1 DUP2 ISZERO MUL SWAP1 PUSH1 0x40 MLOAD PUSH0 PUSH1 0x40 MLOAD DUP1 DUP4 SUB DUP2 DUP6 DUP9 DUP9 CALL SWAP4 POP POP POP POP ISZERO DUP1 ISZERO PUSH2 0x19A9 JUMPI RETURNDATASIZE PUSH0 DUP1 RETURNDATACOPY RETURNDATASIZE PUSH0 REVERT JUMPDEST POP JUMPDEST PUSH0 PUSH1 0x3 PUSH0 DUP5 DUP2 MSTORE PUSH1 0x20 ADD SWAP1 DUP2 MSTORE PUSH1 0x20 ADD PUSH0 KECCAK256 SWAP1 POP DUP1 PUSH0 ADD PUSH0 SWAP1 SLOAD SWAP1 PUSH2 0x100 EXP SWAP1 DIV PUSH20 0xFFFFFFFFFFFFFFFFFFFFFFFFFFFFFFFFFFFFFFFF AND PUSH20 0xFFFFFFFFFFFFFFFFFFFFFFFFFFFFFFFFFFFFFFFF AND CALLER PUSH20 0xFFFFFFFFFFFFFFFFFFFFFFFFFFFFFFFFFFFFFFFF AND EQ PUSH2 0x1A4F JUMPI PUSH1 0x40 MLOAD PUSH32 0x8C379A000000000000000000000000000000000000000000000000000000000 DUP2 MSTORE PUSH1 0x4 ADD PUSH2 0x1A46 SWAP1 PUSH2 0x33B4 JUMP JUMPDEST PUSH1 0x40 MLOAD DUP1 SWAP2 SUB SWAP1 REVERT JUMPDEST PUSH0 DUP2 PUSH1 0x4 ADD SLOAD GT PUSH2 0x1A95 JUMPI PUSH1 0x40 MLOAD PUSH32 0x8C379A000000000000000000000000000000000000000000000000000000000 DUP2 MSTORE PUSH1 0x4 ADD PUSH2 0x1A8C SWAP1 PUSH2 0x32BE JUMP JUMPDEST PUSH1 0x40 MLOAD DUP1 SWAP2 SUB SWAP1 REVERT JUMPDEST PUSH0 DUP2 PUSH1 0x4 ADD SLOAD SWAP1 POP PUSH0 DUP3 PUSH1 0x4 ADD DUP2 SWAP1 SSTORE POP PUSH0 CALLER PUSH20 0xFFFFFFFFFFFFFFFFFFFFFFFFFFFFFFFFFFFFFFFF AND DUP3 PUSH1 0x40 MLOAD PUSH2 0x1ACB SWAP1 PUSH2 0x2C77 JUMP JUMPDEST PUSH0 PUSH1 0x40 MLOAD DUP1 DUP4 SUB DUP2 DUP6 DUP8 GAS CALL SWAP3 POP POP POP RETURNDATASIZE DUP1 PUSH0 DUP2 EQ PUSH2 0x1B05 JUMPI PUSH1 0x40 MLOAD SWAP2 POP PUSH1 0x1F NOT PUSH1 0x3F RETURNDATASIZE ADD AND DUP3 ADD PUSH1 0x40 MSTORE RETURNDATASIZE DUP3 MSTORE RETURNDATASIZE PUSH0 PUSH1 0x20 DUP5 ADD RETURNDATACOPY PUSH2 0x1B0A JUMP JUMPDEST PUSH1 0x60 SWAP2 POP JUMPDEST POP POP SWAP1 POP DUP1 PUSH2 0x1B4E JUMPI PUSH1 0x40 MLOAD PUSH32 0x8C379A000000000000000000000000000000000000000000000000000000000 DUP2 MSTORE PUSH1 0x4 ADD PUSH2 0x1B45 SWAP1 PUSH2 0x3326 JUMP JUMPDEST PUSH1 0x40 MLOAD DUP1 SWAP2 SUB SWAP1 REVERT JUMPDEST CALLER PUSH20 0xFFFFFFFFFFFFFFFFFFFFFFFFFFFFFFFFFFFFFFFF AND DUP6 PUSH32 0xB67DA43F4CC061F251C05601F44947D1BE59A7EF5451A4A5230274DA04F88246 DUP5 PUSH1 0x40 MLOAD PUSH2 0x1B95 SWAP2 SWAP1 PUSH2 0x243F JUMP JUMPDEST PUSH1 0x40 MLOAD DUP1 SWAP2 SUB SWAP1 LOG3 POP POP POP POP POP JUMP JUMPDEST PUSH8 0xDE0B6B3A7640000 DUP2 JUMP JUMPDEST PUSH0 DUP2 JUMP JUMPDEST PUSH2 0x1BBC PUSH2 0x211F JUMP JUMPDEST PUSH8 0xA688906BD8B0000 CALLVALUE LT ISZERO PUSH2 0x1C07 JUMPI PUSH1 0x40 MLOAD PUSH32 0x8C379A000000000000000000000000000000000000000000000000000000000 DUP2 MSTORE PUSH1 0x4 ADD PUSH2 0x1BFE SWAP1 PUSH2 0x301E JUMP JUMPDEST PUSH1 0x40 MLOAD DUP1 SWAP2 SUB SWAP1 REVERT JUMPDEST PUSH8 0xA688906BD8B0000 PUSH1 0x2 PUSH0 DUP3 DUP3 SLOAD PUSH2 0x1C20 SWAP2 SWAP1 PUSH2 0x2F5A JUMP JUMPDEST SWAP3 POP POP DUP2 SWAP1 SSTORE POP PUSH0 PUSH8 0xA688906BD8B0000 CALLVALUE PUSH2 0x1C3C SWAP2 SWAP1 PUSH2 0x303C JUMP JUMPDEST SWAP1 POP PUSH0 DUP2 GT ISZERO PUSH2 0x1C8B JUMPI CALLER PUSH20 0xFFFFFFFFFFFFFFFFFFFFFFFFFFFFFFFFFFFFFFFF AND PUSH2 0x8FC DUP3 SWAP1 DUP2 ISZERO MUL SWAP1 PUSH1 0x40 MLOAD PUSH0 PUSH1 0x40 MLOAD DUP1 DUP4 SUB DUP2 DUP6 DUP9 DUP9 CALL SWAP4 POP POP POP POP ISZERO DUP1 ISZERO PUSH2 0x1C89 JUMPI RETURNDATASIZE PUSH0 DUP1 RETURNDATACOPY RETURNDATASIZE PUSH0 REVERT JUMPDEST POP JUMPDEST PUSH1 0x5 PUSH1 0x1 PUSH0 SWAP1 SLOAD SWAP1 PUSH2 0x100 EXP SWAP1 DIV PUSH20 0xFFFFFFFFFFFFFFFFFFFFFFFFFFFFFFFFFFFFFFFF AND PUSH20 0xFFFFFFFFFFFFFFFFFFFFFFFFFFFFFFFFFFFFFFFF AND PUSH4 0xB9F79451 CALLER PUSH1 0x40 MLOAD DUP3 PUSH4 0xFFFFFFFF AND PUSH1 0xE0 SHL DUP2 MSTORE PUSH1 0x4 ADD PUSH2 0x1CE7 SWAP2 SWAP1 PUSH2 0x2797 JUMP JUMPDEST PUSH1 0x20 PUSH1 0x40 MLOAD DUP1 DUP4 SUB DUP2 DUP7 GAS STATICCALL ISZERO DUP1 ISZERO PUSH2 0x1D02 JUMPI RETURNDATASIZE PUSH0 DUP1 RETURNDATACOPY RETURNDATASIZE PUSH0 REVERT JUMPDEST POP POP POP POP PUSH1 0x40 MLOAD RETURNDATASIZE PUSH1 0x1F NOT PUSH1 0x1F DUP3 ADD AND DUP3 ADD DUP1 PUSH1 0x40 MSTORE POP DUP2 ADD SWAP1 PUSH2 0x1D26 SWAP2 SWAP1 PUSH2 0x3083 JUMP JUMPDEST LT ISZERO PUSH2 0x1D67 JUMPI PUSH1 0x40 MLOAD PUSH32 0x8C379A000000000000000000000000000000000000000000000000000000000 DUP2 MSTORE PUSH1 0x4 ADD PUSH2 0x1D5E SWAP1 PUSH2 0x3442 JUMP JUMPDEST PUSH1 0x40 MLOAD DUP1 SWAP2 SUB SWAP1 REVERT JUMPDEST PUSH0 PUSH1 0x6 PUSH0 DUP2 SLOAD DUP1 SWAP3 SWAP2 SWAP1 PUSH2 0x1D7A SWAP1 PUSH2 0x2F8D JUMP JUMPDEST SWAP2 SWAP1 POP SSTORE SWAP1 POP PUSH1 0x40 MLOAD DUP1 PUSH1 0xC0 ADD PUSH1 0x40 MSTORE DUP1 CALLER PUSH20 0xFFFFFFFFFFFFFFFFFFFFFFFFFFFFFFFFFFFFFFFF AND DUP2 MSTORE PUSH1 0x20 ADD DUP6 DUP2 MSTORE PUSH1 0x20 ADD PUSH0 ISZERO ISZERO DUP2 MSTORE PUSH1 0x20 ADD PUSH0 DUP2 MSTORE PUSH1 0x20 ADD PUSH0 DUP2 MSTORE PUSH1 0x20 ADD PUSH0 DUP2 MSTORE POP PUSH1 0x3 PUSH0 DUP4 DUP2 MSTORE PUSH1 0x20 ADD SWAP1 DUP2 MSTORE PUSH1 0x20 ADD PUSH0 KECCAK256 PUSH0 DUP3 ADD MLOAD DUP2 PUSH0 ADD PUSH0 PUSH2 0x100 EXP DUP2 SLOAD DUP2 PUSH20 0xFFFFFFFFFFFFFFFFFFFFFFFFFFFFFFFFFFFFFFFF MUL NOT AND SWAP1 DUP4 PUSH20 0xFFFFFFFFFFFFFFFFFFFFFFFFFFFFFFFFFFFFFFFF AND MUL OR SWAP1 SSTORE POP PUSH1 0x20 DUP3 ADD MLOAD DUP2 PUSH1 0x1 ADD SWAP1 DUP2 PUSH2 0x1E2F SWAP2 SWAP1 PUSH2 0x35F4 JUMP JUMPDEST POP PUSH1 0x40 DUP3 ADD MLOAD DUP2 PUSH1 0x2 ADD PUSH0 PUSH2 0x100 EXP DUP2 SLOAD DUP2 PUSH1 0xFF MUL NOT AND SWAP1 DUP4 ISZERO ISZERO MUL OR SWAP1 SSTORE POP PUSH1 0x60 DUP3 ADD MLOAD DUP2 PUSH1 0x3 ADD SSTORE PUSH1 0x80 DUP3 ADD MLOAD DUP2 PUSH1 0x4 ADD SSTORE PUSH1 0xA0 DUP3 ADD MLOAD DUP2 PUSH1 0x5 ADD SSTORE SWAP1 POP POP PUSH0 JUMPDEST DUP4 MLOAD DUP2 LT ISZERO PUSH2 0x1F5C JUMPI PUSH1 0x5 PUSH0 DUP4 DUP2 MSTORE PUSH1 0x20 ADD SWAP1 DUP2 MSTORE PUSH1 0x20 ADD PUSH0 KECCAK256 DUP5 DUP3 DUP2 MLOAD DUP2 LT PUSH2 0x1E9F JUMPI PUSH2 0x1E9E PUSH2 0x2EDD JUMP JUMPDEST JUMPDEST PUSH1 0x20 MUL PUSH1 0x20 ADD ADD MLOAD SWAP1 DUP1 PUSH1 0x1 DUP2 SLOAD ADD DUP1 DUP3 SSTORE DUP1 SWAP2 POP POP PUSH1 0x1 SWAP1 SUB SWAP1 PUSH0 MSTORE PUSH1 0x20 PUSH0 KECCAK256 SWAP1 PUSH1 0x7 MUL ADD PUSH0 SWAP1 SWAP2 SWAP1 SWAP2 SWAP1 SWAP2 POP PUSH0 DUP3 ADD MLOAD DUP2 PUSH0 ADD SSTORE PUSH1 0x20 DUP3 ADD MLOAD DUP2 PUSH1 0x1 ADD SWAP1 DUP2 PUSH2 0x1EEA SWAP2 SWAP1 PUSH2 0x35F4 JUMP JUMPDEST POP PUSH1 0x40 DUP3 ADD MLOAD DUP2 PUSH1 0x2 ADD SWAP1 DUP2 PUSH2 0x1F00 SWAP2 SWAP1 PUSH2 0x35F4 JUMP JUMPDEST POP PUSH1 0x60 DUP3 ADD MLOAD DUP2 PUSH1 0x3 ADD SWAP1 DUP2 PUSH2 0x1F16 SWAP2 SWAP1 PUSH2 0x35F4 JUMP JUMPDEST POP PUSH1 0x80 DUP3 ADD MLOAD DUP2 PUSH1 0x4 ADD SWAP1 DUP2 PUSH2 0x1F2C SWAP2 SWAP1 PUSH2 0x35F4 JUMP JUMPDEST POP PUSH1 0xA0 DUP3 ADD MLOAD DUP2 PUSH1 0x5 ADD SWAP1 DUP2 PUSH2 0x1F42 SWAP2 SWAP1 PUSH2 0x35F4 JUMP JUMPDEST POP PUSH1 0xC0 DUP3 ADD MLOAD DUP2 PUSH1 0x6 ADD SSTORE POP POP DUP1 DUP1 PUSH1 0x1 ADD SWAP2 POP POP PUSH2 0x1E72 JUMP JUMPDEST POP CALLER PUSH20 0xFFFFFFFFFFFFFFFFFFFFFFFFFFFFFFFFFFFFFFFF AND DUP2 PUSH32 0xA68F79AA37F9CDC81C2757CFB3E11E9D7D89CA0A5410FBCF1B61125BC17FB1B7 PUSH1 0x40 MLOAD PUSH1 0x40 MLOAD DUP1 SWAP2 SUB SWAP1 LOG3 POP POP POP POP JUMP JUMPDEST PUSH2 0x1FAF PUSH2 0x2037 JUMP JUMPDEST PUSH0 PUSH20 0xFFFFFFFFFFFFFFFFFFFFFFFFFFFFFFFFFFFFFFFF AND DUP2 PUSH20 0xFFFFFFFFFFFFFFFFFFFFFFFFFFFFFFFFFFFFFFFF AND SUB PUSH2 0x201F JUMPI PUSH0 PUSH1 0x40 MLOAD PUSH32 0x1E4FBDF700000000000000000000000000000000000000000000000000000000 DUP2 MSTORE PUSH1 0x4 ADD PUSH2 0x2016 SWAP2 SWAP1 PUSH2 0x2797 JUMP JUMPDEST PUSH1 0x40 MLOAD DUP1 SWAP2 SUB SWAP1 REVERT JUMPDEST PUSH2 0x2028 DUP2 PUSH2 0x2169 JUMP JUMPDEST POP JUMP JUMPDEST PUSH8 0x8AC7230489E80000 DUP2 JUMP JUMPDEST PUSH2 0x203F PUSH2 0x228C JUMP JUMPDEST PUSH20 0xFFFFFFFFFFFFFFFFFFFFFFFFFFFFFFFFFFFFFFFF AND PUSH2 0x205D PUSH2 0x11FE JUMP JUMPDEST PUSH20 0xFFFFFFFFFFFFFFFFFFFFFFFFFFFFFFFFFFFFFFFF AND EQ PUSH2 0x20BC JUMPI PUSH2 0x2080 PUSH2 0x228C JUMP JUMPDEST PUSH1 0x40 MLOAD PUSH32 0x118CDAA700000000000000000000000000000000000000000000000000000000 DUP2 MSTORE PUSH1 0x4 ADD PUSH2 0x20B3 SWAP2 SWAP1 PUSH2 0x2797 JUMP JUMPDEST PUSH1 0x40 MLOAD DUP1 SWAP2 SUB SWAP1 REVERT JUMPDEST JUMP JUMPDEST PUSH2 0x20C6 PUSH2 0x2293 JUMP JUMPDEST PUSH0 DUP1 PUSH1 0x14 PUSH2 0x100 EXP DUP2 SLOAD DUP2 PUSH1 0xFF MUL NOT AND SWAP1 DUP4 ISZERO ISZERO MUL OR SWAP1 SSTORE POP PUSH32 0x5DB9EE0A495BF2E6FF9C91A7834C1BA4FDD244A5E8AA4E537BD38AEAE4B073AA PUSH2 0x2108 PUSH2 0x228C JUMP JUMPDEST PUSH1 0x40 MLOAD PUSH2 0x2115 SWAP2 SWAP1 PUSH2 0x2797 JUMP JUMPDEST PUSH1 0x40 MLOAD DUP1 SWAP2 SUB SWAP1 LOG1 JUMP JUMPDEST PUSH2 0x2127 PUSH2 0x6F9 JUMP JUMPDEST ISZERO PUSH2 0x2167 JUMPI PUSH1 0x40 MLOAD PUSH32 0x8C379A000000000000000000000000000000000000000000000000000000000 DUP2 MSTORE PUSH1 0x4 ADD PUSH2 0x215E SWAP1 PUSH2 0x370D JUMP JUMPDEST PUSH1 0x40 MLOAD DUP1 SWAP2 SUB SWAP1 REVERT JUMPDEST JUMP JUMPDEST PUSH0 DUP1 PUSH0 SWAP1 SLOAD SWAP1 PUSH2 0x100 EXP SWAP1 DIV PUSH20 0xFFFFFFFFFFFFFFFFFFFFFFFFFFFFFFFFFFFFFFFF AND SWAP1 POP DUP2 PUSH0 DUP1 PUSH2 0x100 EXP DUP2 SLOAD DUP2 PUSH20 0xFFFFFFFFFFFFFFFFFFFFFFFFFFFFFFFFFFFFFFFF MUL NOT AND SWAP1 DUP4 PUSH20 0xFFFFFFFFFFFFFFFFFFFFFFFFFFFFFFFFFFFFFFFF AND MUL OR SWAP1 SSTORE POP DUP2 PUSH20 0xFFFFFFFFFFFFFFFFFFFFFFFFFFFFFFFFFFFFFFFF AND DUP2 PUSH20 0xFFFFFFFFFFFFFFFFFFFFFFFFFFFFFFFFFFFFFFFF AND PUSH32 0x8BE0079C531659141344CD1FD0A4F28419497F9722A3DAAFE3B4186F6B6457E0 PUSH1 0x40 MLOAD PUSH1 0x40 MLOAD DUP1 SWAP2 SUB SWAP1 LOG3 POP POP JUMP JUMPDEST PUSH2 0x2232 PUSH2 0x211F JUMP JUMPDEST PUSH1 0x1 PUSH0 PUSH1 0x14 PUSH2 0x100 EXP DUP2 SLOAD DUP2 PUSH1 0xFF MUL NOT AND SWAP1 DUP4 ISZERO ISZERO MUL OR SWAP1 SSTORE POP PUSH32 0x62E78CEA01BEE320CD4E420270B5EA74000D11B0C9F74754EBDBFC544B05A258 PUSH2 0x2275 PUSH2 0x228C JUMP JUMPDEST PUSH1 0x40 MLOAD PUSH2 0x2282 SWAP2 SWAP1 PUSH2 0x2797 JUMP JUMPDEST PUSH1 0x40 MLOAD DUP1 SWAP2 SUB SWAP1 LOG1 JUMP JUMPDEST PUSH0 CALLER SWAP1 POP SWAP1 JUMP JUMPDEST PUSH2 0x229B PUSH2 0x6F9 JUMP JUMPDEST PUSH2 0x22DA JUMPI PUSH1 0x40 MLOAD PUSH32 0x8C379A000000000000000000000000000000000000000000000000000000000 DUP2 MSTORE PUSH1 0x4 ADD PUSH2 0x22D1 SWAP1 PUSH2 0x3775 JUMP JUMPDEST PUSH1 0x40 MLOAD DUP1 SWAP2 SUB SWAP1 REVERT JUMPDEST JUMP JUMPDEST PUSH0 PUSH1 0x40 MLOAD SWAP1 POP SWAP1 JUMP JUMPDEST PUSH0 DUP1 REVERT JUMPDEST PUSH0 DUP1 REVERT JUMPDEST PUSH0 PUSH20 0xFFFFFFFFFFFFFFFFFFFFFFFFFFFFFFFFFFFFFFFF DUP3 AND SWAP1 POP SWAP2 SWAP1 POP JUMP JUMPDEST PUSH0 PUSH2 0x2316 DUP3 PUSH2 0x22ED JUMP JUMPDEST SWAP1 POP SWAP2 SWAP1 POP JUMP JUMPDEST PUSH2 0x2326 DUP2 PUSH2 0x230C JUMP JUMPDEST DUP2 EQ PUSH2 0x2330 JUMPI PUSH0 DUP1 REVERT JUMPDEST POP JUMP JUMPDEST PUSH0 DUP2 CALLDATALOAD SWAP1 POP PUSH2 0x2341 DUP2 PUSH2 0x231D JUMP JUMPDEST SWAP3 SWAP2 POP POP JUMP JUMPDEST PUSH0 DUP2 SWAP1 POP SWAP2 SWAP1 POP JUMP JUMPDEST PUSH2 0x2359 DUP2 PUSH2 0x2347 JUMP JUMPDEST DUP2 EQ PUSH2 0x2363 JUMPI PUSH0 DUP1 REVERT JUMPDEST POP JUMP JUMPDEST PUSH0 DUP2 CALLDATALOAD SWAP1 POP PUSH2 0x2374 DUP2 PUSH2 0x2350 JUMP JUMPDEST SWAP3 SWAP2 POP POP JUMP JUMPDEST PUSH0 DUP1 PUSH1 0x40 DUP4 DUP6 SUB SLT ISZERO PUSH2 0x2390 JUMPI PUSH2 0x238F PUSH2 0x22E5 JUMP JUMPDEST JUMPDEST PUSH0 PUSH2 0x239D DUP6 DUP3 DUP7 ADD PUSH2 0x2333 JUMP JUMPDEST SWAP3 POP POP PUSH1 0x20 PUSH2 0x23AE DUP6 DUP3 DUP7 ADD PUSH2 0x2366 JUMP JUMPDEST SWAP2 POP POP SWAP3 POP SWAP3 SWAP1 POP JUMP JUMPDEST PUSH0 DUP2 ISZERO ISZERO SWAP1 POP SWAP2 SWAP1 POP JUMP JUMPDEST PUSH2 0x23CC DUP2 PUSH2 0x23B8 JUMP JUMPDEST DUP3 MSTORE POP POP JUMP JUMPDEST PUSH0 PUSH1 0xFF DUP3 AND SWAP1 POP SWAP2 SWAP1 POP JUMP JUMPDEST PUSH2 0x23E7 DUP2 PUSH2 0x23D2 JUMP JUMPDEST DUP3 MSTORE POP POP JUMP JUMPDEST PUSH2 0x23F6 DUP2 PUSH2 0x2347 JUMP JUMPDEST DUP3 MSTORE POP POP JUMP JUMPDEST PUSH0 PUSH1 0x80 DUP3 ADD SWAP1 POP PUSH2 0x240F PUSH0 DUP4 ADD DUP8 PUSH2 0x23C3 JUMP JUMPDEST PUSH2 0x241C PUSH1 0x20 DUP4 ADD DUP7 PUSH2 0x23DE JUMP JUMPDEST PUSH2 0x2429 PUSH1 0x40 DUP4 ADD DUP6 PUSH2 0x23C3 JUMP JUMPDEST PUSH2 0x2436 PUSH1 0x60 DUP4 ADD DUP5 PUSH2 0x23ED JUMP JUMPDEST SWAP6 SWAP5 POP POP POP POP POP JUMP JUMPDEST PUSH0 PUSH1 0x20 DUP3 ADD SWAP1 POP PUSH2 0x2452 PUSH0 DUP4 ADD DUP5 PUSH2 0x23ED JUMP JUMPDEST SWAP3 SWAP2 POP POP JUMP JUMPDEST PUSH0 PUSH1 0x20 DUP3 ADD SWAP1 POP PUSH2 0x246B PUSH0 DUP4 ADD DUP5 PUSH2 0x23C3 JUMP JUMPDEST SWAP3 SWAP2 POP POP JUMP JUMPDEST PUSH0 DUP1 REVERT JUMPDEST PUSH0 PUSH1 0x1F NOT PUSH1 0x1F DUP4 ADD AND SWAP1 POP SWAP2 SWAP1 POP JUMP JUMPDEST PUSH32 0x4E487B7100000000000000000000000000000000000000000000000000000000 PUSH0 MSTORE PUSH1 0x41 PUSH1 0x4 MSTORE PUSH1 0x24 PUSH0 REVERT JUMPDEST PUSH2 0x24BB DUP3 PUSH2 0x2475 JUMP JUMPDEST DUP2 ADD DUP2 DUP2 LT PUSH8 0xFFFFFFFFFFFFFFFF DUP3 GT OR ISZERO PUSH2 0x24DA JUMPI PUSH2 0x24D9 PUSH2 0x2485 JUMP JUMPDEST JUMPDEST DUP1 PUSH1 0x40 MSTORE POP POP POP JUMP JUMPDEST PUSH0 PUSH2 0x24EC PUSH2 0x22DC JUMP JUMPDEST SWAP1 POP PUSH2 0x24F8 DUP3 DUP3 PUSH2 0x24B2 JUMP JUMPDEST SWAP2 SWAP1 POP JUMP JUMPDEST PUSH0 PUSH8 0xFFFFFFFFFFFFFFFF DUP3 GT ISZERO PUSH2 0x2517 JUMPI PUSH2 0x2516 PUSH2 0x2485 JUMP JUMPDEST JUMPDEST PUSH1 0x20 DUP3 MUL SWAP1 POP PUSH1 0x20 DUP2 ADD SWAP1 POP SWAP2 SWAP1 POP JUMP JUMPDEST PUSH0 DUP1 REVERT JUMPDEST PUSH0 DUP1 REVERT JUMPDEST PUSH0 PUSH8 0xFFFFFFFFFFFFFFFF DUP3 GT ISZERO PUSH2 0x254A JUMPI PUSH2 0x2549 PUSH2 0x2485 JUMP JUMPDEST JUMPDEST PUSH2 0x2553 DUP3 PUSH2 0x2475 JUMP JUMPDEST SWAP1 POP PUSH1 0x20 DUP2 ADD SWAP1 POP SWAP2 SWAP1 POP JUMP JUMPDEST DUP3 DUP2 DUP4 CALLDATACOPY PUSH0 DUP4 DUP4 ADD MSTORE POP POP POP JUMP JUMPDEST PUSH0 PUSH2 0x2580 PUSH2 0x257B DUP5 PUSH2 0x2530 JUMP JUMPDEST PUSH2 0x24E3 JUMP JUMPDEST SWAP1 POP DUP3 DUP2 MSTORE PUSH1 0x20 DUP2 ADD DUP5 DUP5 DUP5 ADD GT ISZERO PUSH2 0x259C JUMPI PUSH2 0x259B PUSH2 0x252C JUMP JUMPDEST JUMPDEST PUSH2 0x25A7 DUP5 DUP3 DUP6 PUSH2 0x2560 JUMP JUMPDEST POP SWAP4 SWAP3 POP POP POP JUMP JUMPDEST PUSH0 DUP3 PUSH1 0x1F DUP4 ADD SLT PUSH2 0x25C3 JUMPI PUSH2 0x25C2 PUSH2 0x2471 JUMP JUMPDEST JUMPDEST DUP2 CALLDATALOAD PUSH2 0x25D3 DUP5 DUP3 PUSH1 0x20 DUP7 ADD PUSH2 0x256E JUMP JUMPDEST SWAP2 POP POP SWAP3 SWAP2 POP POP JUMP JUMPDEST PUSH0 PUSH2 0x25EE PUSH2 0x25E9 DUP5 PUSH2 0x24FD JUMP JUMPDEST PUSH2 0x24E3 JUMP JUMPDEST SWAP1 POP DUP1 DUP4 DUP3 MSTORE PUSH1 0x20 DUP3 ADD SWAP1 POP PUSH1 0x20 DUP5 MUL DUP4 ADD DUP6 DUP2 GT ISZERO PUSH2 0x2611 JUMPI PUSH2 0x2610 PUSH2 0x2528 JUMP JUMPDEST JUMPDEST DUP4 JUMPDEST DUP2 DUP2 LT ISZERO PUSH2 0x2658 JUMPI DUP1 CALLDATALOAD PUSH8 0xFFFFFFFFFFFFFFFF DUP2 GT ISZERO PUSH2 0x2636 JUMPI PUSH2 0x2635 PUSH2 0x2471 JUMP JUMPDEST JUMPDEST DUP1 DUP7 ADD PUSH2 0x2643 DUP10 DUP3 PUSH2 0x25AF JUMP JUMPDEST DUP6 MSTORE PUSH1 0x20 DUP6 ADD SWAP5 POP POP POP PUSH1 0x20 DUP2 ADD SWAP1 POP PUSH2 0x2613 JUMP JUMPDEST POP POP POP SWAP4 SWAP3 POP POP POP JUMP JUMPDEST PUSH0 DUP3 PUSH1 0x1F DUP4 ADD SLT PUSH2 0x2676 JUMPI PUSH2 0x2675 PUSH2 0x2471 JUMP JUMPDEST JUMPDEST DUP2 CALLDATALOAD PUSH2 0x2686 DUP5 DUP3 PUSH1 0x20 DUP7 ADD PUSH2 0x25DC JUMP JUMPDEST SWAP2 POP POP SWAP3 SWAP2 POP POP JUMP JUMPDEST PUSH0 DUP1 PUSH1 0x40 DUP4 DUP6 SUB SLT ISZERO PUSH2 0x26A5 JUMPI PUSH2 0x26A4 PUSH2 0x22E5 JUMP JUMPDEST JUMPDEST PUSH0 PUSH2 0x26B2 DUP6 DUP3 DUP7 ADD PUSH2 0x2366 JUMP JUMPDEST SWAP3 POP POP PUSH1 0x20 DUP4 ADD CALLDATALOAD PUSH8 0xFFFFFFFFFFFFFFFF DUP2 GT ISZERO PUSH2 0x26D3 JUMPI PUSH2 0x26D2 PUSH2 0x22E9 JUMP JUMPDEST JUMPDEST PUSH2 0x26DF DUP6 DUP3 DUP7 ADD PUSH2 0x2662 JUMP JUMPDEST SWAP2 POP POP SWAP3 POP SWAP3 SWAP1 POP JUMP JUMPDEST PUSH0 PUSH1 0x20 DUP3 DUP5 SUB SLT ISZERO PUSH2 0x26FE JUMPI PUSH2 0x26FD PUSH2 0x22E5 JUMP JUMPDEST JUMPDEST PUSH0 PUSH2 0x270B DUP5 DUP3 DUP6 ADD PUSH2 0x2366 JUMP JUMPDEST SWAP2 POP POP SWAP3 SWAP2 POP POP JUMP JUMPDEST PUSH0 DUP2 SWAP1 POP SWAP2 SWAP1 POP JUMP JUMPDEST PUSH0 PUSH2 0x2737 PUSH2 0x2732 PUSH2 0x272D DUP5 PUSH2 0x22ED JUMP JUMPDEST PUSH2 0x2714 JUMP JUMPDEST PUSH2 0x22ED JUMP JUMPDEST SWAP1 POP SWAP2 SWAP1 POP JUMP JUMPDEST PUSH0 PUSH2 0x2748 DUP3 PUSH2 0x271D JUMP JUMPDEST SWAP1 POP SWAP2 SWAP1 POP JUMP JUMPDEST PUSH0 PUSH2 0x2759 DUP3 PUSH2 0x273E JUMP JUMPDEST SWAP1 POP SWAP2 SWAP1 POP JUMP JUMPDEST PUSH2 0x2769 DUP2 PUSH2 0x274F JUMP JUMPDEST DUP3 MSTORE POP POP JUMP JUMPDEST PUSH0 PUSH1 0x20 DUP3 ADD SWAP1 POP PUSH2 0x2782 PUSH0 DUP4 ADD DUP5 PUSH2 0x2760 JUMP JUMPDEST SWAP3 SWAP2 POP POP JUMP JUMPDEST PUSH2 0x2791 DUP2 PUSH2 0x230C JUMP JUMPDEST DUP3 MSTORE POP POP JUMP JUMPDEST PUSH0 PUSH1 0x20 DUP3 ADD SWAP1 POP PUSH2 0x27AA PUSH0 DUP4 ADD DUP5 PUSH2 0x2788 JUMP JUMPDEST SWAP3 SWAP2 POP POP JUMP JUMPDEST PUSH0 PUSH1 0x20 DUP3 DUP5 SUB SLT ISZERO PUSH2 0x27C5 JUMPI PUSH2 0x27C4 PUSH2 0x22E5 JUMP JUMPDEST JUMPDEST PUSH0 PUSH2 0x27D2 DUP5 DUP3 DUP6 ADD PUSH2 0x2333 JUMP JUMPDEST SWAP2 POP POP SWAP3 SWAP2 POP POP JUMP JUMPDEST PUSH0 DUP2 MLOAD SWAP1 POP SWAP2 SWAP1 POP JUMP JUMPDEST PUSH0 DUP3 DUP3 MSTORE PUSH1 0x20 DUP3 ADD SWAP1 POP SWAP3 SWAP2 POP POP JUMP JUMPDEST DUP3 DUP2 DUP4 MCOPY PUSH0 DUP4 DUP4 ADD MSTORE POP POP POP JUMP JUMPDEST PUSH0 PUSH2 0x280D DUP3 PUSH2 0x27DB JUMP JUMPDEST PUSH2 0x2817 DUP2 DUP6 PUSH2 0x27E5 JUMP JUMPDEST SWAP4 POP PUSH2 0x2827 DUP2 DUP6 PUSH1 0x20 DUP7 ADD PUSH2 0x27F5 JUMP JUMPDEST PUSH2 0x2830 DUP2 PUSH2 0x2475 JUMP JUMPDEST DUP5 ADD SWAP2 POP POP SWAP3 SWAP2 POP POP JUMP JUMPDEST PUSH0 PUSH1 0xC0 DUP3 ADD SWAP1 POP PUSH2 0x284E PUSH0 DUP4 ADD DUP10 PUSH2 0x2788 JUMP JUMPDEST DUP2 DUP2 SUB PUSH1 0x20 DUP4 ADD MSTORE PUSH2 0x2860 DUP2 DUP9 PUSH2 0x2803 JUMP JUMPDEST SWAP1 POP PUSH2 0x286F PUSH1 0x40 DUP4 ADD DUP8 PUSH2 0x23C3 JUMP JUMPDEST PUSH2 0x287C PUSH1 0x60 DUP4 ADD DUP7 PUSH2 0x23ED JUMP JUMPDEST PUSH2 0x2889 PUSH1 0x80 DUP4 ADD DUP6 PUSH2 0x23ED JUMP JUMPDEST PUSH2 0x2896 PUSH1 0xA0 DUP4 ADD DUP5 PUSH2 0x23ED JUMP JUMPDEST SWAP8 SWAP7 POP POP POP POP POP POP POP JUMP JUMPDEST PUSH0 DUP1 PUSH1 0x40 DUP4 DUP6 SUB SLT ISZERO PUSH2 0x28B7 JUMPI PUSH2 0x28B6 PUSH2 0x22E5 JUMP JUMPDEST JUMPDEST PUSH0 PUSH2 0x28C4 DUP6 DUP3 DUP7 ADD PUSH2 0x2366 JUMP JUMPDEST SWAP3 POP POP PUSH1 0x20 PUSH2 0x28D5 DUP6 DUP3 DUP7 ADD PUSH2 0x2366 JUMP JUMPDEST SWAP2 POP POP SWAP3 POP SWAP3 SWAP1 POP JUMP JUMPDEST PUSH0 DUP2 SWAP1 POP SWAP2 SWAP1 POP JUMP JUMPDEST PUSH2 0x28F1 DUP2 PUSH2 0x28DF JUMP JUMPDEST DUP3 MSTORE POP POP JUMP JUMPDEST PUSH0 PUSH1 0xE0 DUP3 ADD SWAP1 POP PUSH2 0x290A PUSH0 DUP4 ADD DUP11 PUSH2 0x23ED JUMP JUMPDEST DUP2 DUP2 SUB PUSH1 0x20 DUP4 ADD MSTORE PUSH2 0x291C DUP2 DUP10 PUSH2 0x2803 JUMP JUMPDEST SWAP1 POP DUP2 DUP2 SUB PUSH1 0x40 DUP4 ADD MSTORE PUSH2 0x2930 DUP2 DUP9 PUSH2 0x2803 JUMP JUMPDEST SWAP1 POP DUP2 DUP2 SUB PUSH1 0x60 DUP4 ADD MSTORE PUSH2 0x2944 DUP2 DUP8 PUSH2 0x2803 JUMP JUMPDEST SWAP1 POP DUP2 DUP2 SUB PUSH1 0x80 DUP4 ADD MSTORE PUSH2 0x2958 DUP2 DUP7 PUSH2 0x2803 JUMP JUMPDEST SWAP1 POP DUP2 DUP2 SUB PUSH1 0xA0 DUP4 ADD MSTORE PUSH2 0x296C DUP2 DUP6 PUSH2 0x2803 JUMP JUMPDEST SWAP1 POP PUSH2 0x297B PUSH1 0xC0 DUP4 ADD DUP5 PUSH2 0x28E8 JUMP JUMPDEST SWAP9 SWAP8 POP POP POP POP POP POP POP POP JUMP JUMPDEST PUSH0 PUSH8 0xFFFFFFFFFFFFFFFF DUP3 GT ISZERO PUSH2 0x29A1 JUMPI PUSH2 0x29A0 PUSH2 0x2485 JUMP JUMPDEST JUMPDEST PUSH1 0x20 DUP3 MUL SWAP1 POP PUSH1 0x20 DUP2 ADD SWAP1 POP SWAP2 SWAP1 POP JUMP JUMPDEST PUSH0 DUP1 REVERT JUMPDEST PUSH0 DUP1 REVERT JUMPDEST PUSH2 0x29C3 DUP2 PUSH2 0x28DF JUMP JUMPDEST DUP2 EQ PUSH2 0x29CD JUMPI PUSH0 DUP1 REVERT JUMPDEST POP JUMP JUMPDEST PUSH0 DUP2 CALLDATALOAD SWAP1 POP PUSH2 0x29DE DUP2 PUSH2 0x29BA JUMP JUMPDEST SWAP3 SWAP2 POP POP JUMP JUMPDEST PUSH0 PUSH1 0xE0 DUP3 DUP5 SUB SLT ISZERO PUSH2 0x29F9 JUMPI PUSH2 0x29F8 PUSH2 0x29B2 JUMP JUMPDEST JUMPDEST PUSH2 0x2A03 PUSH1 0xE0 PUSH2 0x24E3 JUMP JUMPDEST SWAP1 POP PUSH0 PUSH2 0x2A12 DUP5 DUP3 DUP6 ADD PUSH2 0x2366 JUMP JUMPDEST PUSH0 DUP4 ADD MSTORE POP PUSH1 0x20 DUP3 ADD CALLDATALOAD PUSH8 0xFFFFFFFFFFFFFFFF DUP2 GT ISZERO PUSH2 0x2A35 JUMPI PUSH2 0x2A34 PUSH2 0x29B6 JUMP JUMPDEST JUMPDEST PUSH2 0x2A41 DUP5 DUP3 DUP6 ADD PUSH2 0x25AF JUMP JUMPDEST PUSH1 0x20 DUP4 ADD MSTORE POP PUSH1 0x40 DUP3 ADD CALLDATALOAD PUSH8 0xFFFFFFFFFFFFFFFF DUP2 GT ISZERO PUSH2 0x2A65 JUMPI PUSH2 0x2A64 PUSH2 0x29B6 JUMP JUMPDEST JUMPDEST PUSH2 0x2A71 DUP5 DUP3 DUP6 ADD PUSH2 0x25AF JUMP JUMPDEST PUSH1 0x40 DUP4 ADD MSTORE POP PUSH1 0x60 DUP3 ADD CALLDATALOAD PUSH8 0xFFFFFFFFFFFFFFFF DUP2 GT ISZERO PUSH2 0x2A95 JUMPI PUSH2 0x2A94 PUSH2 0x29B6 JUMP JUMPDEST JUMPDEST PUSH2 0x2AA1 DUP5 DUP3 DUP6 ADD PUSH2 0x25AF JUMP JUMPDEST PUSH1 0x60 DUP4 ADD MSTORE POP PUSH1 0x80 DUP3 ADD CALLDATALOAD PUSH8 0xFFFFFFFFFFFFFFFF DUP2 GT ISZERO PUSH2 0x2AC5 JUMPI PUSH2 0x2AC4 PUSH2 0x29B6 JUMP JUMPDEST JUMPDEST PUSH2 0x2AD1 DUP5 DUP3 DUP6 ADD PUSH2 0x25AF JUMP JUMPDEST PUSH1 0x80 DUP4 ADD MSTORE POP PUSH1 0xA0 DUP3 ADD CALLDATALOAD PUSH8 0xFFFFFFFFFFFFFFFF DUP2 GT ISZERO PUSH2 0x2AF5 JUMPI PUSH2 0x2AF4 PUSH2 0x29B6 JUMP JUMPDEST JUMPDEST PUSH2 0x2B01 DUP5 DUP3 DUP6 ADD PUSH2 0x25AF JUMP JUMPDEST PUSH1 0xA0 DUP4 ADD MSTORE POP PUSH1 0xC0 PUSH2 0x2B15 DUP5 DUP3 DUP6 ADD PUSH2 0x29D0 JUMP JUMPDEST PUSH1 0xC0 DUP4 ADD MSTORE POP SWAP3 SWAP2 POP POP JUMP JUMPDEST PUSH0 PUSH2 0x2B33 PUSH2 0x2B2E DUP5 PUSH2 0x2987 JUMP JUMPDEST PUSH2 0x24E3 JUMP JUMPDEST SWAP1 POP DUP1 DUP4 DUP3 MSTORE PUSH1 0x20 DUP3 ADD SWAP1 POP PUSH1 0x20 DUP5 MUL DUP4 ADD DUP6 DUP2 GT ISZERO PUSH2 0x2B56 JUMPI PUSH2 0x2B55 PUSH2 0x2528 JUMP JUMPDEST JUMPDEST DUP4 JUMPDEST DUP2 DUP2 LT ISZERO PUSH2 0x2B9D JUMPI DUP1 CALLDATALOAD PUSH8 0xFFFFFFFFFFFFFFFF DUP2 GT ISZERO PUSH2 0x2B7B JUMPI PUSH2 0x2B7A PUSH2 0x2471 JUMP JUMPDEST JUMPDEST DUP1 DUP7 ADD PUSH2 0x2B88 DUP10 DUP3 PUSH2 0x29E4 JUMP JUMPDEST DUP6 MSTORE PUSH1 0x20 DUP6 ADD SWAP5 POP POP POP PUSH1 0x20 DUP2 ADD SWAP1 POP PUSH2 0x2B58 JUMP JUMPDEST POP POP POP SWAP4 SWAP3 POP POP POP JUMP JUMPDEST PUSH0 DUP3 PUSH1 0x1F DUP4 ADD SLT PUSH2 0x2BBB JUMPI PUSH2 0x2BBA PUSH2 0x2471 JUMP JUMPDEST JUMPDEST DUP2 CALLDATALOAD PUSH2 0x2BCB DUP5 DUP3 PUSH1 0x20 DUP7 ADD PUSH2 0x2B21 JUMP JUMPDEST SWAP2 POP POP SWAP3 SWAP2 POP POP JUMP JUMPDEST PUSH0 DUP1 PUSH1 0x40 DUP4 DUP6 SUB SLT ISZERO PUSH2 0x2BEA JUMPI PUSH2 0x2BE9 PUSH2 0x22E5 JUMP JUMPDEST JUMPDEST PUSH0 DUP4 ADD CALLDATALOAD PUSH8 0xFFFFFFFFFFFFFFFF DUP2 GT ISZERO PUSH2 0x2C07 JUMPI PUSH2 0x2C06 PUSH2 0x22E9 JUMP JUMPDEST JUMPDEST PUSH2 0x2C13 DUP6 DUP3 DUP7 ADD PUSH2 0x25AF JUMP JUMPDEST SWAP3 POP POP PUSH1 0x20 DUP4 ADD CALLDATALOAD PUSH8 0xFFFFFFFFFFFFFFFF DUP2 GT ISZERO PUSH2 0x2C34 JUMPI PUSH2 0x2C33 PUSH2 0x22E9 JUMP JUMPDEST JUMPDEST PUSH2 0x2C40 DUP6 DUP3 DUP7 ADD PUSH2 0x2BA7 JUMP JUMPDEST SWAP2 POP POP SWAP3 POP SWAP3 SWAP1 POP JUMP JUMPDEST PUSH0 DUP2 SWAP1 POP SWAP3 SWAP2 POP POP JUMP JUMPDEST POP JUMP JUMPDEST PUSH0 PUSH2 0x2C62 PUSH0 DUP4 PUSH2 0x2C4A JUMP JUMPDEST SWAP2 POP PUSH2 0x2C6D DUP3 PUSH2 0x2C54 JUMP JUMPDEST PUSH0 DUP3 ADD SWAP1 POP SWAP2 SWAP1 POP JUMP JUMPDEST PUSH0 PUSH2 0x2C81 DUP3 PUSH2 0x2C57 JUMP JUMPDEST SWAP2 POP DUP2 SWAP1 POP SWAP2 SWAP1 POP JUMP JUMPDEST PUSH32 0x4661696C656420746F2077697468647261772067617320666565730000000000 PUSH0 DUP3 ADD MSTORE POP JUMP JUMPDEST PUSH0 PUSH2 0x2CBF PUSH1 0x1B DUP4 PUSH2 0x27E5 JUMP JUMPDEST SWAP2 POP PUSH2 0x2CCA DUP3 PUSH2 0x2C8B JUMP JUMPDEST PUSH1 0x20 DUP3 ADD SWAP1 POP SWAP2 SWAP1 POP JUMP JUMPDEST PUSH0 PUSH1 0x20 DUP3 ADD SWAP1 POP DUP2 DUP2 SUB PUSH0 DUP4 ADD MSTORE PUSH2 0x2CEC DUP2 PUSH2 0x2CB3 JUMP JUMPDEST SWAP1 POP SWAP2 SWAP1 POP JUMP JUMPDEST PUSH32 0x55736572206E6F7420656E726F6C6C656420696E207468697320636F75727365 PUSH0 DUP3 ADD MSTORE POP JUMP JUMPDEST PUSH0 PUSH2 0x2D27 PUSH1 0x20 DUP4 PUSH2 0x27E5 JUMP JUMPDEST SWAP2 POP PUSH2 0x2D32 DUP3 PUSH2 0x2CF3 JUMP JUMPDEST PUSH1 0x20 DUP3 ADD SWAP1 POP SWAP2 SWAP1 POP JUMP JUMPDEST PUSH0 PUSH1 0x20 DUP3 ADD SWAP1 POP DUP2 DUP2 SUB PUSH0 DUP4 ADD MSTORE PUSH2 0x2D54 DUP2 PUSH2 0x2D1B JUMP JUMPDEST SWAP1 POP SWAP2 SWAP1 POP JUMP JUMPDEST PUSH32 0x4D6178696D756D20617474656D70747320726561636865640000000000000000 PUSH0 DUP3 ADD MSTORE POP JUMP JUMPDEST PUSH0 PUSH2 0x2D8F PUSH1 0x18 DUP4 PUSH2 0x27E5 JUMP JUMPDEST SWAP2 POP PUSH2 0x2D9A DUP3 PUSH2 0x2D5B JUMP JUMPDEST PUSH1 0x20 DUP3 ADD SWAP1 POP SWAP2 SWAP1 POP JUMP JUMPDEST PUSH0 PUSH1 0x20 DUP3 ADD SWAP1 POP DUP2 DUP2 SUB PUSH0 DUP4 ADD MSTORE PUSH2 0x2DBC DUP2 PUSH2 0x2D83 JUMP JUMPDEST SWAP1 POP SWAP2 SWAP1 POP JUMP JUMPDEST PUSH32 0x4E487B7100000000000000000000000000000000000000000000000000000000 PUSH0 MSTORE PUSH1 0x11 PUSH1 0x4 MSTORE PUSH1 0x24 PUSH0 REVERT JUMPDEST PUSH0 PUSH2 0x2DFA DUP3 PUSH2 0x23D2 JUMP JUMPDEST SWAP2 POP PUSH1 0xFF DUP3 SUB PUSH2 0x2E0D JUMPI PUSH2 0x2E0C PUSH2 0x2DC3 JUMP JUMPDEST JUMPDEST PUSH1 0x1 DUP3 ADD SWAP1 POP SWAP2 SWAP1 POP JUMP JUMPDEST PUSH32 0x4E487B7100000000000000000000000000000000000000000000000000000000 PUSH0 MSTORE PUSH1 0x22 PUSH1 0x4 MSTORE PUSH1 0x24 PUSH0 REVERT JUMPDEST PUSH0 PUSH1 0x2 DUP3 DIV SWAP1 POP PUSH1 0x1 DUP3 AND DUP1 PUSH2 0x2E5C JUMPI PUSH1 0x7F DUP3 AND SWAP2 POP JUMPDEST PUSH1 0x20 DUP3 LT DUP2 SUB PUSH2 0x2E6F JUMPI PUSH2 0x2E6E PUSH2 0x2E18 JUMP JUMPDEST JUMPDEST POP SWAP2 SWAP1 POP JUMP JUMPDEST PUSH32 0x416E7377657220636F756E74206D69736D617463680000000000000000000000 PUSH0 DUP3 ADD MSTORE POP JUMP JUMPDEST PUSH0 PUSH2 0x2EA9 PUSH1 0x15 DUP4 PUSH2 0x27E5 JUMP JUMPDEST SWAP2 POP PUSH2 0x2EB4 DUP3 PUSH2 0x2E75 JUMP JUMPDEST PUSH1 0x20 DUP3 ADD SWAP1 POP SWAP2 SWAP1 POP JUMP JUMPDEST PUSH0 PUSH1 0x20 DUP3 ADD SWAP1 POP DUP2 DUP2 SUB PUSH0 DUP4 ADD MSTORE PUSH2 0x2ED6 DUP2 PUSH2 0x2E9D JUMP JUMPDEST SWAP1 POP SWAP2 SWAP1 POP JUMP JUMPDEST PUSH32 0x4E487B7100000000000000000000000000000000000000000000000000000000 PUSH0 MSTORE PUSH1 0x32 PUSH1 0x4 MSTORE PUSH1 0x24 PUSH0 REVERT JUMPDEST PUSH0 DUP2 SWAP1 POP SWAP3 SWAP2 POP POP JUMP JUMPDEST PUSH0 PUSH2 0x2F1E DUP3 PUSH2 0x27DB JUMP JUMPDEST PUSH2 0x2F28 DUP2 DUP6 PUSH2 0x2F0A JUMP JUMPDEST SWAP4 POP PUSH2 0x2F38 DUP2 DUP6 PUSH1 0x20 DUP7 ADD PUSH2 0x27F5 JUMP JUMPDEST DUP1 DUP5 ADD SWAP2 POP POP SWAP3 SWAP2 POP POP JUMP JUMPDEST PUSH0 PUSH2 0x2F4F DUP3 DUP5 PUSH2 0x2F14 JUMP JUMPDEST SWAP2 POP DUP2 SWAP1 POP SWAP3 SWAP2 POP POP JUMP JUMPDEST PUSH0 PUSH2 0x2F64 DUP3 PUSH2 0x2347 JUMP JUMPDEST SWAP2 POP PUSH2 0x2F6F DUP4 PUSH2 0x2347 JUMP JUMPDEST SWAP3 POP DUP3 DUP3 ADD SWAP1 POP DUP1 DUP3 GT ISZERO PUSH2 0x2F87 JUMPI PUSH2 0x2F86 PUSH2 0x2DC3 JUMP JUMPDEST JUMPDEST SWAP3 SWAP2 POP POP JUMP JUMPDEST PUSH0 PUSH2 0x2F97 DUP3 PUSH2 0x2347 JUMP JUMPDEST SWAP2 POP PUSH32 0xFFFFFFFFFFFFFFFFFFFFFFFFFFFFFFFFFFFFFFFFFFFFFFFFFFFFFFFFFFFFFFFF DUP3 SUB PUSH2 0x2FC9 JUMPI PUSH2 0x2FC8 PUSH2 0x2DC3 JUMP JUMPDEST JUMPDEST PUSH1 0x1 DUP3 ADD SWAP1 POP SWAP2 SWAP1 POP JUMP JUMPDEST PUSH32 0x496E73756666696369656E742067617320666565000000000000000000000000 PUSH0 DUP3 ADD MSTORE POP JUMP JUMPDEST PUSH0 PUSH2 0x3008 PUSH1 0x14 DUP4 PUSH2 0x27E5 JUMP JUMPDEST SWAP2 POP PUSH2 0x3013 DUP3 PUSH2 0x2FD4 JUMP JUMPDEST PUSH1 0x20 DUP3 ADD SWAP1 POP SWAP2 SWAP1 POP JUMP JUMPDEST PUSH0 PUSH1 0x20 DUP3 ADD SWAP1 POP DUP2 DUP2 SUB PUSH0 DUP4 ADD MSTORE PUSH2 0x3035 DUP2 PUSH2 0x2FFC JUMP JUMPDEST SWAP1 POP SWAP2 SWAP1 POP JUMP JUMPDEST PUSH0 PUSH2 0x3046 DUP3 PUSH2 0x2347 JUMP JUMPDEST SWAP2 POP PUSH2 0x3051 DUP4 PUSH2 0x2347 JUMP JUMPDEST SWAP3 POP DUP3 DUP3 SUB SWAP1 POP DUP2 DUP2 GT ISZERO PUSH2 0x3069 JUMPI PUSH2 0x3068 PUSH2 0x2DC3 JUMP JUMPDEST JUMPDEST SWAP3 SWAP2 POP POP JUMP JUMPDEST PUSH0 DUP2 MLOAD SWAP1 POP PUSH2 0x307D DUP2 PUSH2 0x2350 JUMP JUMPDEST SWAP3 SWAP2 POP POP JUMP JUMPDEST PUSH0 PUSH1 0x20 DUP3 DUP5 SUB SLT ISZERO PUSH2 0x3098 JUMPI PUSH2 0x3097 PUSH2 0x22E5 JUMP JUMPDEST JUMPDEST PUSH0 PUSH2 0x30A5 DUP5 DUP3 DUP6 ADD PUSH2 0x306F JUMP JUMPDEST SWAP2 POP POP SWAP3 SWAP2 POP POP JUMP JUMPDEST PUSH32 0x496E73756666696369656E742072657075746174696F6E20746F20656E726F6C PUSH0 DUP3 ADD MSTORE PUSH32 0x6C00000000000000000000000000000000000000000000000000000000000000 PUSH1 0x20 DUP3 ADD MSTORE POP JUMP JUMPDEST PUSH0 PUSH2 0x3108 PUSH1 0x21 DUP4 PUSH2 0x27E5 JUMP JUMPDEST SWAP2 POP PUSH2 0x3113 DUP3 PUSH2 0x30AE JUMP JUMPDEST PUSH1 0x40 DUP3 ADD SWAP1 POP SWAP2 SWAP1 POP JUMP JUMPDEST PUSH0 PUSH1 0x20 DUP3 ADD SWAP1 POP DUP2 DUP2 SUB PUSH0 DUP4 ADD MSTORE PUSH2 0x3135 DUP2 PUSH2 0x30FC JUMP JUMPDEST SWAP1 POP SWAP2 SWAP1 POP JUMP JUMPDEST PUSH32 0x436F75727365206E6F7420617070726F76656400000000000000000000000000 PUSH0 DUP3 ADD MSTORE POP JUMP JUMPDEST PUSH0 PUSH2 0x3170 PUSH1 0x13 DUP4 PUSH2 0x27E5 JUMP JUMPDEST SWAP2 POP PUSH2 0x317B DUP3 PUSH2 0x313C JUMP JUMPDEST PUSH1 0x20 DUP3 ADD SWAP1 POP SWAP2 SWAP1 POP JUMP JUMPDEST PUSH0 PUSH1 0x20 DUP3 ADD SWAP1 POP DUP2 DUP2 SUB PUSH0 DUP4 ADD MSTORE PUSH2 0x319D DUP2 PUSH2 0x3164 JUMP JUMPDEST SWAP1 POP SWAP2 SWAP1 POP JUMP JUMPDEST PUSH32 0x416C726561647920656E726F6C6C656400000000000000000000000000000000 PUSH0 DUP3 ADD MSTORE POP JUMP JUMPDEST PUSH0 PUSH2 0x31D8 PUSH1 0x10 DUP4 PUSH2 0x27E5 JUMP JUMPDEST SWAP2 POP PUSH2 0x31E3 DUP3 PUSH2 0x31A4 JUMP JUMPDEST PUSH1 0x20 DUP3 ADD SWAP1 POP SWAP2 SWAP1 POP JUMP JUMPDEST PUSH0 PUSH1 0x20 DUP3 ADD SWAP1 POP DUP2 DUP2 SUB PUSH0 DUP4 ADD MSTORE PUSH2 0x3205 DUP2 PUSH2 0x31CC JUMP JUMPDEST SWAP1 POP SWAP2 SWAP1 POP JUMP JUMPDEST PUSH32 0x436F7572736520616C726561647920617070726F766564000000000000000000 PUSH0 DUP3 ADD MSTORE POP JUMP JUMPDEST PUSH0 PUSH2 0x3240 PUSH1 0x17 DUP4 PUSH2 0x27E5 JUMP JUMPDEST SWAP2 POP PUSH2 0x324B DUP3 PUSH2 0x320C JUMP JUMPDEST PUSH1 0x20 DUP3 ADD SWAP1 POP SWAP2 SWAP1 POP JUMP JUMPDEST PUSH0 PUSH1 0x20 DUP3 ADD SWAP1 POP DUP2 DUP2 SUB PUSH0 DUP4 ADD MSTORE PUSH2 0x326D DUP2 PUSH2 0x3234 JUMP JUMPDEST SWAP1 POP SWAP2 SWAP1 POP JUMP JUMPDEST PUSH32 0x4E6F207265776172647320746F20636C61696D00000000000000000000000000 PUSH0 DUP3 ADD MSTORE POP JUMP JUMPDEST PUSH0 PUSH2 0x32A8 PUSH1 0x13 DUP4 PUSH2 0x27E5 JUMP JUMPDEST SWAP2 POP PUSH2 0x32B3 DUP3 PUSH2 0x3274 JUMP JUMPDEST PUSH1 0x20 DUP3 ADD SWAP1 POP SWAP2 SWAP1 POP JUMP JUMPDEST PUSH0 PUSH1 0x20 DUP3 ADD SWAP1 POP DUP2 DUP2 SUB PUSH0 DUP4 ADD MSTORE PUSH2 0x32D5 DUP2 PUSH2 0x329C JUMP JUMPDEST SWAP1 POP SWAP2 SWAP1 POP JUMP JUMPDEST PUSH32 0x4661696C656420746F2073656E64204D414E4400000000000000000000000000 PUSH0 DUP3 ADD MSTORE POP JUMP JUMPDEST PUSH0 PUSH2 0x3310 PUSH1 0x13 DUP4 PUSH2 0x27E5 JUMP JUMPDEST SWAP2 POP PUSH2 0x331B DUP3 PUSH2 0x32DC JUMP JUMPDEST PUSH1 0x20 DUP3 ADD SWAP1 POP SWAP2 SWAP1 POP JUMP JUMPDEST PUSH0 PUSH1 0x20 DUP3 ADD SWAP1 POP DUP2 DUP2 SUB PUSH0 DUP4 ADD MSTORE PUSH2 0x333D DUP2 PUSH2 0x3304 JUMP JUMPDEST SWAP1 POP SWAP2 SWAP1 POP JUMP JUMPDEST PUSH32 0x4F6E6C7920636F757273652063726561746F722063616E20636C61696D207265 PUSH0 DUP3 ADD MSTORE PUSH32 0x7761726400000000000000000000000000000000000000000000000000000000 PUSH1 0x20 DUP3 ADD MSTORE POP JUMP JUMPDEST PUSH0 PUSH2 0x339E PUSH1 0x24 DUP4 PUSH2 0x27E5 JUMP JUMPDEST SWAP2 POP PUSH2 0x33A9 DUP3 PUSH2 0x3344 JUMP JUMPDEST PUSH1 0x40 DUP3 ADD SWAP1 POP SWAP2 SWAP1 POP JUMP JUMPDEST PUSH0 PUSH1 0x20 DUP3 ADD SWAP1 POP DUP2 DUP2 SUB PUSH0 DUP4 ADD MSTORE PUSH2 0x33CB DUP2 PUSH2 0x3392 JUMP JUMPDEST SWAP1 POP SWAP2 SWAP1 POP JUMP JUMPDEST PUSH32 0x496E73756666696369656E742072657075746174696F6E20746F206372656174 PUSH0 DUP3 ADD MSTORE PUSH32 0x6520636F75727365000000000000000000000000000000000000000000000000 PUSH1 0x20 DUP3 ADD MSTORE POP JUMP JUMPDEST PUSH0 PUSH2 0x342C PUSH1 0x28 DUP4 PUSH2 0x27E5 JUMP JUMPDEST SWAP2 POP PUSH2 0x3437 DUP3 PUSH2 0x33D2 JUMP JUMPDEST PUSH1 0x40 DUP3 ADD SWAP1 POP SWAP2 SWAP1 POP JUMP JUMPDEST PUSH0 PUSH1 0x20 DUP3 ADD SWAP1 POP DUP2 DUP2 SUB PUSH0 DUP4 ADD MSTORE PUSH2 0x3459 DUP2 PUSH2 0x3420 JUMP JUMPDEST SWAP1 POP SWAP2 SWAP1 POP JUMP JUMPDEST PUSH0 DUP2 SWAP1 POP DUP2 PUSH0 MSTORE PUSH1 0x20 PUSH0 KECCAK256 SWAP1 POP SWAP2 SWAP1 POP JUMP JUMPDEST PUSH0 PUSH1 0x20 PUSH1 0x1F DUP4 ADD DIV SWAP1 POP SWAP2 SWAP1 POP JUMP JUMPDEST PUSH0 DUP3 DUP3 SHL SWAP1 POP SWAP3 SWAP2 POP POP JUMP JUMPDEST PUSH0 PUSH1 0x8 DUP4 MUL PUSH2 0x34BC PUSH32 0xFFFFFFFFFFFFFFFFFFFFFFFFFFFFFFFFFFFFFFFFFFFFFFFFFFFFFFFFFFFFFFFF DUP3 PUSH2 0x3481 JUMP JUMPDEST PUSH2 0x34C6 DUP7 DUP4 PUSH2 0x3481 JUMP JUMPDEST SWAP6 POP DUP1 NOT DUP5 AND SWAP4 POP DUP1 DUP7 AND DUP5 OR SWAP3 POP POP POP SWAP4 SWAP3 POP POP POP JUMP JUMPDEST PUSH0 PUSH2 0x34F8 PUSH2 0x34F3 PUSH2 0x34EE DUP5 PUSH2 0x2347 JUMP JUMPDEST PUSH2 0x2714 JUMP JUMPDEST PUSH2 0x2347 JUMP JUMPDEST SWAP1 POP SWAP2 SWAP1 POP JUMP JUMPDEST PUSH0 DUP2 SWAP1 POP SWAP2 SWAP1 POP JUMP JUMPDEST PUSH2 0x3511 DUP4 PUSH2 0x34DE JUMP JUMPDEST PUSH2 0x3525 PUSH2 0x351D DUP3 PUSH2 0x34FF JUMP JUMPDEST DUP5 DUP5 SLOAD PUSH2 0x348D JUMP JUMPDEST DUP3 SSTORE POP POP POP POP JUMP JUMPDEST PUSH0 SWAP1 JUMP JUMPDEST PUSH2 0x3539 PUSH2 0x352D JUMP JUMPDEST PUSH2 0x3544 DUP2 DUP5 DUP5 PUSH2 0x3508 JUMP JUMPDEST POP POP POP JUMP JUMPDEST JUMPDEST DUP2 DUP2 LT ISZERO PUSH2 0x3567 JUMPI PUSH2 0x355C PUSH0 DUP3 PUSH2 0x3531 JUMP JUMPDEST PUSH1 0x1 DUP2 ADD SWAP1 POP PUSH2 0x354A JUMP JUMPDEST POP POP JUMP JUMPDEST PUSH1 0x1F DUP3 GT ISZERO PUSH2 0x35AC JUMPI PUSH2 0x357D DUP2 PUSH2 0x3460 JUMP JUMPDEST PUSH2 0x3586 DUP5 PUSH2 0x3472 JUMP JUMPDEST DUP2 ADD PUSH1 0x20 DUP6 LT ISZERO PUSH2 0x3595 JUMPI DUP2 SWAP1 POP JUMPDEST PUSH2 0x35A9 PUSH2 0x35A1 DUP6 PUSH2 0x3472 JUMP JUMPDEST DUP4 ADD DUP3 PUSH2 0x3549 JUMP JUMPDEST POP POP JUMPDEST POP POP POP JUMP JUMPDEST PUSH0 DUP3 DUP3 SHR SWAP1 POP SWAP3 SWAP2 POP POP JUMP JUMPDEST PUSH0 PUSH2 0x35CC PUSH0 NOT DUP5 PUSH1 0x8 MUL PUSH2 0x35B1 JUMP JUMPDEST NOT DUP1 DUP4 AND SWAP2 POP POP SWAP3 SWAP2 POP POP JUMP JUMPDEST PUSH0 PUSH2 0x35E4 DUP4 DUP4 PUSH2 0x35BD JUMP JUMPDEST SWAP2 POP DUP3 PUSH1 0x2 MUL DUP3 OR SWAP1 POP SWAP3 SWAP2 POP POP JUMP JUMPDEST PUSH2 0x35FD DUP3 PUSH2 0x27DB JUMP JUMPDEST PUSH8 0xFFFFFFFFFFFFFFFF DUP2 GT ISZERO PUSH2 0x3616 JUMPI PUSH2 0x3615 PUSH2 0x2485 JUMP JUMPDEST JUMPDEST PUSH2 0x3620 DUP3 SLOAD PUSH2 0x2E45 JUMP JUMPDEST PUSH2 0x362B DUP3 DUP3 DUP6 PUSH2 0x356B JUMP JUMPDEST PUSH0 PUSH1 0x20 SWAP1 POP PUSH1 0x1F DUP4 GT PUSH1 0x1 DUP2 EQ PUSH2 0x365C JUMPI PUSH0 DUP5 ISZERO PUSH2 0x364A JUMPI DUP3 DUP8 ADD MLOAD SWAP1 POP JUMPDEST PUSH2 0x3654 DUP6 DUP3 PUSH2 0x35D9 JUMP JUMPDEST DUP7 SSTORE POP PUSH2 0x36BB JUMP JUMPDEST PUSH1 0x1F NOT DUP5 AND PUSH2 0x366A DUP7 PUSH2 0x3460 JUMP JUMPDEST PUSH0 JUMPDEST DUP3 DUP2 LT ISZERO PUSH2 0x3691 JUMPI DUP5 DUP10 ADD MLOAD DUP3 SSTORE PUSH1 0x1 DUP3 ADD SWAP2 POP PUSH1 0x20 DUP6 ADD SWAP5 POP PUSH1 0x20 DUP2 ADD SWAP1 POP PUSH2 0x366C JUMP JUMPDEST DUP7 DUP4 LT ISZERO PUSH2 0x36AE JUMPI DUP5 DUP10 ADD MLOAD PUSH2 0x36AA PUSH1 0x1F DUP10 AND DUP3 PUSH2 0x35BD JUMP JUMPDEST DUP4 SSTORE POP JUMPDEST PUSH1 0x1 PUSH1 0x2 DUP9 MUL ADD DUP9 SSTORE POP POP POP JUMPDEST POP POP POP POP POP POP JUMP JUMPDEST PUSH32 0x5061757361626C653A2070617573656400000000000000000000000000000000 PUSH0 DUP3 ADD MSTORE POP JUMP JUMPDEST PUSH0 PUSH2 0x36F7 PUSH1 0x10 DUP4 PUSH2 0x27E5 JUMP JUMPDEST SWAP2 POP PUSH2 0x3702 DUP3 PUSH2 0x36C3 JUMP JUMPDEST PUSH1 0x20 DUP3 ADD SWAP1 POP SWAP2 SWAP1 POP JUMP JUMPDEST PUSH0 PUSH1 0x20 DUP3 ADD SWAP1 POP DUP2 DUP2 SUB PUSH0 DUP4 ADD MSTORE PUSH2 0x3724 DUP2 PUSH2 0x36EB JUMP JUMPDEST SWAP1 POP SWAP2 SWAP1 POP JUMP JUMPDEST PUSH32 0x5061757361626C653A206E6F7420706175736564000000000000000000000000 PUSH0 DUP3 ADD MSTORE POP JUMP JUMPDEST PUSH0 PUSH2 0x375F PUSH1 0x14 DUP4 PUSH2 0x27E5 JUMP JUMPDEST SWAP2 POP PUSH2 0x376A DUP3 PUSH2 0x372B JUMP JUMPDEST PUSH1 0x20 DUP3 ADD SWAP1 POP SWAP2 SWAP1 POP JUMP JUMPDEST PUSH0 PUSH1 0x20 DUP3 ADD SWAP1 POP DUP2 DUP2 SUB PUSH0 DUP4 ADD MSTORE PUSH2 0x378C DUP2 PUSH2 0x3753 JUMP JUMPDEST SWAP1 POP SWAP2 SWAP1 POP JUMP INVALID LOG2 PUSH5 0x6970667358 0x22 SLT KECCAK256 0xD 0xD6 0x4C LOG3 MOD KECCAK256 0x2E 0x2B PUSH6 0x77405E60A426 JUMPI CODESIZE PUSH31 0xB1CFB4E2F13437314949D30BC03464736F6C634300081A0033000000000000 "
				},
				"gasEstimates": {
					"creation": {
						"codeDepositCost": "2856200",
						"executionCost": "infinite",
						"totalCost": "infinite"
					},
					"external": {
						"CREATOR_REWARD_AMOUNT()": "414",
						"ENROLL_THRESHOLD()": "458",
						"POST_THRESHOLD()": "436",
						"STUDENT_REWARD_AMOUNT()": "435",
						"WATCH_THRESHOLD()": "368",
						"accumulatedFees()": "2537",
						"approveCourse(uint256)": "infinite",
						"attemptQuiz(uint256,string[])": "infinite",
						"claimCreatorReward(uint256)": "infinite",
						"claimStudentReward(uint256)": "infinite",
						"courseCount()": "2515",
						"courseQuizzes(uint256,uint256)": "infinite",
						"courses(uint256)": "infinite",
						"createCourse(string,(uint256,string,string,string,string,string,bytes32)[])": "infinite",
						"enrollInCourse(uint256)": "infinite",
						"enrollments(address,uint256)": "infinite",
						"owner()": "2538",
						"pause()": "infinite",
						"paused()": "2658",
						"platformTX()": "393",
						"renounceOwnership()": "infinite",
						"reputationContract()": "infinite",
						"transferOwnership(address)": "infinite",
						"unpause()": "infinite",
						"updateReputationContract(address)": "infinite",
						"withdrawPlatformTX()": "infinite"
					}
				},
				"methodIdentifiers": {
					"CREATOR_REWARD_AMOUNT()": "cf90b3be",
					"ENROLL_THRESHOLD()": "ae24f005",
					"POST_THRESHOLD()": "a4e1f033",
					"STUDENT_REWARD_AMOUNT()": "fbf1aded",
					"WATCH_THRESHOLD()": "d2c69bd4",
					"accumulatedFees()": "587f5ed7",
					"approveCourse(uint256)": "75284998",
					"attemptQuiz(uint256,string[])": "5cb45cb5",
					"claimCreatorReward(uint256)": "ba2f0362",
					"claimStudentReward(uint256)": "996b5d8e",
					"courseCount()": "66055159",
					"courseQuizzes(uint256,uint256)": "b0aaefd6",
					"courses(uint256)": "96f979d2",
					"createCourse(string,(uint256,string,string,string,string,string,bytes32)[])": "d76f044a",
					"enrollInCourse(uint256)": "5e52da27",
					"enrollments(address,uint256)": "07f910f8",
					"owner()": "8da5cb5b",
					"pause()": "8456cb59",
					"paused()": "5c975abb",
					"platformTX()": "3faa5ef6",
					"renounceOwnership()": "715018a6",
					"reputationContract()": "87bc1425",
					"transferOwnership(address)": "f2fde38b",
					"unpause()": "3f4ba83a",
					"updateReputationContract(address)": "905baa61",
					"withdrawPlatformTX()": "542fd03a"
				}
			},
			"storageLayout": {
				"storage": [
					{
						"astId": 8,
						"contract": "contracts/moonx.sol:DecentralLearning",
						"label": "_owner",
						"offset": 0,
						"slot": "0",
						"type": "t_address"
					},
					{
						"astId": 165,
						"contract": "contracts/moonx.sol:DecentralLearning",
						"label": "_paused",
						"offset": 20,
						"slot": "0",
						"type": "t_bool"
					},
					{
						"astId": 304,
						"contract": "contracts/moonx.sol:DecentralLearning",
						"label": "reputationContract",
						"offset": 0,
						"slot": "1",
						"type": "t_contract(IReputationContract)297"
					},
					{
						"astId": 324,
						"contract": "contracts/moonx.sol:DecentralLearning",
						"label": "accumulatedFees",
						"offset": 0,
						"slot": "2",
						"type": "t_uint256"
					},
					{
						"astId": 366,
						"contract": "contracts/moonx.sol:DecentralLearning",
						"label": "courses",
						"offset": 0,
						"slot": "3",
						"type": "t_mapping(t_uint256,t_struct(Course)337_storage)"
					},
					{
						"astId": 373,
						"contract": "contracts/moonx.sol:DecentralLearning",
						"label": "enrollments",
						"offset": 0,
						"slot": "4",
						"type": "t_mapping(t_address,t_mapping(t_uint256,t_struct(Enrollment)361_storage))"
					},
					{
						"astId": 379,
						"contract": "contracts/moonx.sol:DecentralLearning",
						"label": "courseQuizzes",
						"offset": 0,
						"slot": "5",
						"type": "t_mapping(t_uint256,t_array(t_struct(Quiz)352_storage)dyn_storage)"
					},
					{
						"astId": 381,
						"contract": "contracts/moonx.sol:DecentralLearning",
						"label": "courseCount",
						"offset": 0,
						"slot": "6",
						"type": "t_uint256"
					}
				],
				"types": {
					"t_address": {
						"encoding": "inplace",
						"label": "address",
						"numberOfBytes": "20"
					},
					"t_array(t_struct(Quiz)352_storage)dyn_storage": {
						"base": "t_struct(Quiz)352_storage",
						"encoding": "dynamic_array",
						"label": "struct DecentralLearning.Quiz[]",
						"numberOfBytes": "32"
					},
					"t_bool": {
						"encoding": "inplace",
						"label": "bool",
						"numberOfBytes": "1"
					},
					"t_bytes32": {
						"encoding": "inplace",
						"label": "bytes32",
						"numberOfBytes": "32"
					},
					"t_contract(IReputationContract)297": {
						"encoding": "inplace",
						"label": "contract IReputationContract",
						"numberOfBytes": "20"
					},
					"t_mapping(t_address,t_mapping(t_uint256,t_struct(Enrollment)361_storage))": {
						"encoding": "mapping",
						"key": "t_address",
						"label": "mapping(address => mapping(uint256 => struct DecentralLearning.Enrollment))",
						"numberOfBytes": "32",
						"value": "t_mapping(t_uint256,t_struct(Enrollment)361_storage)"
					},
					"t_mapping(t_uint256,t_array(t_struct(Quiz)352_storage)dyn_storage)": {
						"encoding": "mapping",
						"key": "t_uint256",
						"label": "mapping(uint256 => struct DecentralLearning.Quiz[])",
						"numberOfBytes": "32",
						"value": "t_array(t_struct(Quiz)352_storage)dyn_storage"
					},
					"t_mapping(t_uint256,t_struct(Course)337_storage)": {
						"encoding": "mapping",
						"key": "t_uint256",
						"label": "mapping(uint256 => struct DecentralLearning.Course)",
						"numberOfBytes": "32",
						"value": "t_struct(Course)337_storage"
					},
					"t_mapping(t_uint256,t_struct(Enrollment)361_storage)": {
						"encoding": "mapping",
						"key": "t_uint256",
						"label": "mapping(uint256 => struct DecentralLearning.Enrollment)",
						"numberOfBytes": "32",
						"value": "t_struct(Enrollment)361_storage"
					},
					"t_string_storage": {
						"encoding": "bytes",
						"label": "string",
						"numberOfBytes": "32"
					},
					"t_struct(Course)337_storage": {
						"encoding": "inplace",
						"label": "struct DecentralLearning.Course",
						"members": [
							{
								"astId": 326,
								"contract": "contracts/moonx.sol:DecentralLearning",
								"label": "creator",
								"offset": 0,
								"slot": "0",
								"type": "t_address"
							},
							{
								"astId": 328,
								"contract": "contracts/moonx.sol:DecentralLearning",
								"label": "metadataURI",
								"offset": 0,
								"slot": "1",
								"type": "t_string_storage"
							},
							{
								"astId": 330,
								"contract": "contracts/moonx.sol:DecentralLearning",
								"label": "approved",
								"offset": 0,
								"slot": "2",
								"type": "t_bool"
							},
							{
								"astId": 332,
								"contract": "contracts/moonx.sol:DecentralLearning",
								"label": "passedStudents",
								"offset": 0,
								"slot": "3",
								"type": "t_uint256"
							},
							{
								"astId": 334,
								"contract": "contracts/moonx.sol:DecentralLearning",
								"label": "creatorBalance",
								"offset": 0,
								"slot": "4",
								"type": "t_uint256"
							},
							{
								"astId": 336,
								"contract": "contracts/moonx.sol:DecentralLearning",
								"label": "totalEnrolled",
								"offset": 0,
								"slot": "5",
								"type": "t_uint256"
							}
						],
						"numberOfBytes": "192"
					},
					"t_struct(Enrollment)361_storage": {
						"encoding": "inplace",
						"label": "struct DecentralLearning.Enrollment",
						"members": [
							{
								"astId": 354,
								"contract": "contracts/moonx.sol:DecentralLearning",
								"label": "isEnrolled",
								"offset": 0,
								"slot": "0",
								"type": "t_bool"
							},
							{
								"astId": 356,
								"contract": "contracts/moonx.sol:DecentralLearning",
								"label": "attemptCount",
								"offset": 1,
								"slot": "0",
								"type": "t_uint8"
							},
							{
								"astId": 358,
								"contract": "contracts/moonx.sol:DecentralLearning",
								"label": "hasPassed",
								"offset": 2,
								"slot": "0",
								"type": "t_bool"
							},
							{
								"astId": 360,
								"contract": "contracts/moonx.sol:DecentralLearning",
								"label": "quizBalance",
								"offset": 0,
								"slot": "1",
								"type": "t_uint256"
							}
						],
						"numberOfBytes": "64"
					},
					"t_struct(Quiz)352_storage": {
						"encoding": "inplace",
						"label": "struct DecentralLearning.Quiz",
						"members": [
							{
								"astId": 339,
								"contract": "contracts/moonx.sol:DecentralLearning",
								"label": "courseId",
								"offset": 0,
								"slot": "0",
								"type": "t_uint256"
							},
							{
								"astId": 341,
								"contract": "contracts/moonx.sol:DecentralLearning",
								"label": "question",
								"offset": 0,
								"slot": "1",
								"type": "t_string_storage"
							},
							{
								"astId": 343,
								"contract": "contracts/moonx.sol:DecentralLearning",
								"label": "optionA",
								"offset": 0,
								"slot": "2",
								"type": "t_string_storage"
							},
							{
								"astId": 345,
								"contract": "contracts/moonx.sol:DecentralLearning",
								"label": "optionB",
								"offset": 0,
								"slot": "3",
								"type": "t_string_storage"
							},
							{
								"astId": 347,
								"contract": "contracts/moonx.sol:DecentralLearning",
								"label": "optionC",
								"offset": 0,
								"slot": "4",
								"type": "t_string_storage"
							},
							{
								"astId": 349,
								"contract": "contracts/moonx.sol:DecentralLearning",
								"label": "optionD",
								"offset": 0,
								"slot": "5",
								"type": "t_string_storage"
							},
							{
								"astId": 351,
								"contract": "contracts/moonx.sol:DecentralLearning",
								"label": "correctAnswerHash",
								"offset": 0,
								"slot": "6",
								"type": "t_bytes32"
							}
						],
						"numberOfBytes": "224"
					},
					"t_uint256": {
						"encoding": "inplace",
						"label": "uint256",
						"numberOfBytes": "32"
					},
					"t_uint8": {
						"encoding": "inplace",
						"label": "uint8",
						"numberOfBytes": "1"
					}
				}
			},
			"userdoc": {
				"kind": "user",
				"methods": {},
				"version": 1
			}
		}
	}
}